:020000000C945E
:100002009B000C9400000C9400000C9400000C94D3
:1000120000000C9400000C9400000C9400000C945E
:1000220000000C9400000C9400000C9400000C944E
:1000320000000C9400000C9400000C9400000C943E
:1000420000000C94CD000C9400000C94490A0C940E
:1000520000000C9400000C9400000C9400000C941E
:1000620000000C9400000C9400000C94000014009A
:100072000200040000001027E80364000A000100E7
:1000820000100001100001006C696E653D256420BE
:10009200726174653D256420747970653D25642024
:1000A2006C656E3D25640D0A004C434D532076333A
:1000B2002E30352044657369676E6564206279204D
:1000C20043756F6E67517561790D0A0063756F6EC6
:1000D200673369687574407961686F6F2E636F6DFD
:1000E200202D20303931353635313030310D0A008E
:1000F20052656C6561736520646174653A203039BC
:100102002F30322F32303037004B45592050524574
:10011200535345440D0A00000800020002001A0170
:100122000100840170000100850172000100860156
:1001320074000000F894EE27ECBBF1E0FBBFEBBFCC
:10014200E5BFE6BFF8E1F1BDE1BD8DE0A2E0BB276E
:10015200ED938A95E9F780E094E0A0E0B1E0ED93B9
:100162000197E9F7ECE1F1E085919591009761F053
:10017200A591B59105901590BF01F00105900D92E2
:100182000197E1F7FB01F0CFEFEFEDBFE4E0EEBF47
:10019200C4E6D1E00C94FF09EA93FA93EFB7EA932D
:1001A200E5E0E2BFE0917E01F0917F013196E093BC
:1001B2007E01F0937F01E991EFBFF991E9911895E2
:1001C20044245524E0EAF0E04E165F0690F4F20172
:1001D2000E94200E3096A0916401B0916501AE0F8D
:1001E200BF1FEC91E8BB939A9398F20131962F01CD
:1001F200E9CF949A949844245524E0EAF0E04E160C
:100202005F0690F4F2010E94200E3196A0916401E3
:10021200B0916501AE0FBF1FEC91E8BB939A939822
:10022200F20131962F01E9CF959A959844245524ED
:10023200E0EAF0E04E165F0690F4F2010E94200E12
:100242003296A0916401B0916501AE0FBF1FEC918F
:10025200E8BB939A9398F20131962F01E9CF3A9A2B
:100262003A98089544245524E0EAF0E04E165F06D9
:1002720010F00C942602F2010E94200E3096A091FA
:100282006401B0916501AE0FBF1FEC91FF27662795
:100292007727E0936601F09367016093680170939A
:1002A2006901F2010E94200E3196A0916401B09181
:1002B2006501AE0FBF1FEC91FF2766277727E093FA
:1002C2006A01F0936B0160936C0170936D01F2010E
:1002D2000E94200E3296A0916401B0916501AE0F8A
:1002E200BF1FEC91FF2766277727E0936E01F093FB
:1002F2006F016093700170937101F2010E94200EF0
:100302003396A0916401B0916501AE0FBF1FEC91CD
:10031200FF2766277727E0937201F09373016093BA
:10032200740170937501E0916601F091670160912B
:10033200680170916901EF7FF070607070707F9357
:100342006F93FF93EF93A0916A01B0916B0180913B
:100352006C0190916D01E8E00E94040EE070FF7F55
:1003620060707070AF91BF918F919F910E94FB0D51
:10037200DF01CB01E0916E01F0916F01609170019C
:10038200709171010E942A0EE070F0706F7F7070A0
:100392000E94FB0D7F936F93FF93EF93A0917201E5
:1003A200B09173018091740190917501E8E10E940E
:1003B200040EE070F07060707F7FAF91BF918F91FB
:1003C2009F910E94FB0D0E942F0EE0937601F09305
:1003D2007701609378017093790123FE11C0E09157
:1003E2007C01F0917D01A0917601B091770180911D
:1003F200780190917901662777270E94100E10C02C
:10040200E0917C01F0917D01A0917601B09177019C
:100412008091780190917901662777270E94040ED6
:10042200E0937601F09377016093780170937901FC
:10043200EF7FF070607070700E942F0EE8BB939A8D
:100442009398F20131962F010FCF949A94984424F5
:100452005524E0EAF0E04E165F0610F00C942003FB
:10046200F2010E94200E3096A0916401B0916501C4
:10047200AE0FBF1FEC91FF2766277727E093660137
:10048200F09367016093680170936901F2010E9421
:10049200200E3196A0916401B0916501AE0FBF1F8D
:1004A200EC91FF2766277727E0936A01F0936B01AF
:1004B20060936C0170936D01F2010E94200E3296DE
:1004C200A0916401B0916501AE0FBF1FEC91FF27AF
:1004D20066277727E0936E01F0936F0160937001B6
:1004E20070937101F2010E94200E3396A091640173
:1004F200B0916501AE0FBF1FEC91FF2766277727EA
:10050200E0937201F093730160937401709375012B
:10051200E0916601F0916701609168017091690153
:10052200EF7FF070607070707F936F93FF93EF9323
:10053200A0916A01B0916B0180916C0190916D0163
:10054200E8E00E94040EE070FF7F60707070AF916F
:10055200BF918F919F910E94FB0DDF01CB01E09132
:100562006E01F0916F0160917001709171010E94B2
:100572002A0EE070F0706F7F70700E94FB0D7F9307
:100582006F93FF93EF93A0917201B09173018091E9
:10059200740190917501E8E10E94040EE070F07020
:1005A20060707F7FAF91BF918F919F910E94FB0DF1
:1005B2000E942F0EE0937601F09377016093780109
:1005C2007093790123FE11C0E0917C01F0917D01CD
:1005D200A0917601B0917701809178019091790193
:1005E200662777270E94100E10C0E0917C01F091DF
:1005F2007D01A0917601B09177018091780190916F
:100602007901662777270E94040EE0937601F09322
:1006120077016093780170937901E0917601F0910E
:100622007701EF2FEF7FF070607070700E942F0ED5
:10063200E8BB939A9398F20131962F010ACF959ACB
:10064200959844245524E0EAF0E04E165F0610F037
:100652000C941704F2010E94200E3096A0916401BE
:10066200B0916501AE0FBF1FEC91FF276627772778
:10067200E0936601F09367016093680170936901EA
:10068200F2010E94200E3196A0916401B0916501A1
:10069200AE0FBF1FEC91FF2766277727E0936A0111
:1006A200F0936B0160936C0170936D01F2010E94F3
:1006B200200E3296A0916401B0916501AE0FBF1F6A
:1006C200EC91FF2766277727E0936E01F0936F0185
:1006D2006093700170937101F2010E94200E3396B3
:1006E200A0916401B0916501AE0FBF1FEC91FF278D
:1006F20066277727E0937201F09373016093740188
:1007020070937501E0916601F09167016091680153
:1007120070916901EF7FF070607070707F936F93DA
:10072200FF93EF93A0916A01B0916B0180916C01EC
:1007320090916D01E8E00E94040EE070FF7F60700E
:100742007070AF91BF918F919F910E94FB0DDF015D
:10075200CB01E0916E01F0916F0160917001709197
:1007620071010E942A0EE070F0706F7F70700E941B
:10077200FB0D7F936F93FF93EF93A0917201B09162
:1007820073018091740190917501E8E10E94040E59
:10079200E070F07060707F7FAF91BF918F919F91F9
:1007A2000E94FB0D0E942F0EE0937601F0937701D9
:1007B200609378017093790123FE11C0E0917C016E
:1007C200F0917D01A0917601B0917701809178013D
:1007D20090917901662777270E94100E10C0E09150
:1007E2007C01F0917D01A0917601B0917701809119
:1007F200780190917901662777270E94040EE09391
:100802007601F093770160937801709379010E94E9
:10081200250EEF7FF070607070700E942F0EE8BBA3
:10082200939A9398F20131962F010DCF3A9A3A9802
:100832000895A0918601A03021F0A13011F0A430DA
:1008420019F40E94E1000CC0A0918601A23031F09F
:10085200A33021F0A53011F0A63011F40E9433012B
:10086200089522FE03C0689421F80895E09184015E
:10087200A0917E01B0917F01F0E0EA17FB0710F032
:100882000C94CF06E0918601E03011F00C94B10493
:10089200E0918101E03011F5A0918401A33038F09C
:1008A200E0918401E0938501E2E0E0938401E0912C
:1008B2006401F09165013496E0936401F09365015F
:1008C200A0916401B0916501A030EAE0BE0729F46D
:1008D200E0918101EF5FE093810141C0A09181012C
:1008E200A130C1F4A0917A01B0917B011196A0933D
:1008F2007A01B0937B01A536E0E0BE0750F0E091AB
:100902008101EF5FE0938101E150E0918501E09385
:10091200840125C0A0918101A23009F5E091640112
:10092200F09165013496E0936401F0936501E091E2
:100932008201F0918301E054FF4F0E94200EE058A3
:10094200F84FA0916401B0916501EA17FB0738F4F2
:10095200E0918001EF5FE0938001EA938BD312C2B2
:10096200E13011F00C940805E0918101E030B9F416
:10097200E0916401F09165013496E0936401F09393
:100982006501A0916401B0916501A030EAE0BE0763
:1009920029F4E0918101EF5FE093810137C0A091DA
:1009A2008101A130B9F4A0917A01B0917B01119635
:1009B200A0937A01B0937B01A536E0E0BE0748F030
:1009C200E0918101EF5FE0938101E150E2E0E09389
:1009D20084011CC0A0918101A230C1F4E0916401A4
:1009E200F09165013497E0936401F0936501A09161
:1009F2006401B0916501A138E7E0BE0738F4E091E7
:100A02008001EF5FE0938001EA9334D3BBC1E2300F
:100A120011F00C946105E0918101E03091F4A09114
:100A22007C01B0917D011197A0937C01B0937D016F
:100A3200109731F4EF5FE0938101E150689423F85D
:100A42003EC0A0918101A130C9F4A0917A01B09178
:100A52007B011196A0937A01B0937B01A536E0E069
:100A6200BE0758F0E0918101EF5FE0938101E15010
:100A7200E0E0E0937C01E0937D0121C0E09164011C
:100A8200F09165013496E0936401F0936501E09181
:100A92008201F0918301E054FF4F0E94200EE05842
:100AA200F84FA0916401B0916501EA17FB0738F491
:100AB200E0918001EF5FE0938001EA93DBD262C1B3
:100AC200E33011F00C94BA05E0918101E03091F429
:100AD200A0917C01B0917D011197A0937C01B0930C
:100AE2007D01109731F4EF5FE0938101E150E894CA
:100AF20023F83EC0A0918101A130C9F4A0917A01EE
:100B0200B0917B011196A0937A01B0937B01A53637
:100B1200E0E0BE0758F0E0918101EF5FE0938101D0
:100B2200E150E0E0E0937C01E0937D0121C0E0919F
:100B32006401F09165013496E0936401F0936501DC
:100B4200E0918201F0918301E054FF4F0E94200E58
:100B5200E058F84FA0916401B0916501EA17FB07D4
:100B620038F4E0918001EF5FE0938001EA9382D252
:100B720009C1E53011F00C942806E0918101E030C2
:100B820091F4A0917C01B0917D011197A0937C0119
:100B9200B0937D01109731F4EF5FE0938101E15052
:100BA200689423F853C0A0918101A130A1F4A091CF
:100BB2007A01B0917B011196A0937A01B0937B01E7
:100BC200A536E0E0BE0730F0E0918101EF5FE093EF
:100BD2008101E1503BC0A0918101A230B9F5A09101
:100BE2007C01B0917D011196A0937C01B0937D01AF
:100BF200509760F1E0E0E0938101E0E0E0937A0158
:100C0200E0937B01E89423F8E0916401F09165019F
:100C1200E058FD4FE0936401F0936501E091820199
:100C2200F0918301E056FF4F0E94200EE058F84FEA
:100C3200A0916401B0916501AE17BF0738F0E09151
:100C42008001EF5FE0938001EA9314D29BC0E6300B
:100C520011F00C949606E0918101E03091F4A0919C
:100C62007C01B0917D011197A0937C01B0937D012D
:100C7200109731F4EF5FE0938101E150E89423F89B
:100C820053C0A0918101A130A1F4A0917A01B09149
:100C92007B011196A0937A01B0937B01A536E0E027
:100CA200BE0730F0E0918101EF5FE0938101E150F6
:100CB2003BC0A0918101A230B9F5A0917C01B09115
:100CC2007D011196A0937C01B0937D01509760F154
:100CD200E0E0E0938101E0E0E0937A01E0937B01C0
:100CE200689423F8E0916401F0916501E058FD4FAA
:100CF200E0936401F0936501E0918201F091830138
:100D0200E056FF4F0E94200EE058F84FA091640178
:100D1200B0916501AE17BF0738F0E0918001EF5F37
:100D2200E0938001EA93A6D12DC0E43011F5E09161
:100D32006401F09165013496E0936401F0936501DA
:100D4200E0918201F0918301E054FF4F0E94200E56
:100D5200E058F84FA0916401B0916501EA17FB07D2
:100D620038F4E0918001EF5FE0938001EA9382D151
:100D720009C0E73039F4E0918001EF5FE093800130
:100D8200EA9378D1E0E0E0937E01E0937F01A091C5
:100D92008001A43018F0E0E0E093800108950E9401
:100DA200570E00EA10E020E0EB81EE0F0E0FAB8150
:100DB200A43010F010E020E8077F0E946F0DC49A63
:100DC2000A93E12FF22F3096FA93EA930E94D30A04
:100DD200E09384010A93E12FF22F3196FA93EA937A
:100DE2000E94D30AE09386010A93E12FF22F3296F2
:100DF200FA93EA930E94150BE0938201F093830128
:100E0200EAE8F0E0FA93EA93ED81FF276627772775
:100E12000E944F0EE0918401FF27662777270E94E8
:100E22004F0EE0918601FF27662777270E944F0E1B
:100E3200E0918201F0918301662777270E944F0E8D
:100E420080E10E944F0D6296A0918201B0918301D0
:100E5200A13CEEE0BE0728F0E0E0E0938201E093DF
:100E62008301A0918601A83018F0E7E0E0938601A3
:100E7200A0918401A53618F0E0E0E0938401C498C3
:100E820020C00E94570E00EA10E020E0EB81EE0F36
:100E92000E0FAB81A43010F010E020E8077F0E9413
:100EA2006F0DC49A0A93E12FF22F3296FA93EA93C6
:100EB200E0918201F0918301FA93EA930E943A0B46
:100EC200C4980E945E0E249608950E94570E00EA6E
:100ED20010E020E0EB81EE0F0E0FAB81A43010F09A
:100EE20010E020E8077F0E946F0DC49A0A93E12F59
:100EF200F22F3096FA93EA93E885EA930E94F60A73
:100F02000A93E12FF22F3196FA93EA93EF81EA9353
:100F12000E94F60AC4980E945E0E269608950E94C8
:100F2200550E00E010E020EA30E040E0ED81EE0FE7
:100F32002E0FAD81A43010F030E040E8088519850D
:100F4200AE81BF81A13CEEE0BE0720F00E945C0EA4
:100F52002A960895EE81FF81E056FF4F0E94200EEF
:100F6200A885B985EA0FFB1FEE83FF83EF7371F04B
:100F7200AE81BF81E0E4F0E00E94340E0E94200EB8
:100F82000E941C0EE05CFF4FEE83FF830E946F0DF8
:100F9200C49A08851985EE81FF810E171F0788F410
:100FA200A8952A93F801E30FF41FFA93EA931A9390
:100FB2000A93E0E4EA930E94980B005C1F4F0C94A2
:100FC200CC07C49817C00E94550E00E010E020EA3A
:100FD20030E040E0ED81EE0F2E0FAD81A43010F035
:100FE20030E040E808851985AE81BF81A13CEEE082
:100FF200BE0720F00E945C0E2A960895EE81FF81C2
:10100200E056FF4F0E94200EA885B985EA0FFB1F0C
:10101200EE83FF83EF7371F0AE81BF81E0E4F0E015
:101022000E94340E0E94200E0E941C0EE05CFF4FB4
:10103200EE83FF830E946F0DC49A08851985EE81A5
:10104200FF810E171F0788F42A93F801E30FF41F9C
:10105200FA93EA931A930A93E0E4EA930E94540BF8
:10106200A895005C1F4F0C942008C4980E945C0E47
:101072002A960895A881A43010F0E0E0E883E88180
:10108200EA930E94D006A0918601A73008F06DC0B5
:10109200E0E0F5E0FA93EA93E0E0F0E8FA93EA930D
:1010A20093D0E0E8F7E0FA93EA93E0918201F091BD
:1010B2008301FA93EA93EC81EA930E94E407E0E069
:1010C200E0937A01E0937B01E89421F8E0E0E09379
:1010D2008101E0E0E0937C01E0937D01E0918601F3
:1010E200E03011F0E13039F4E0E8F7E0E093640138
:1010F200F09365012EC0E53011F0E23079F4E89406
:1011020023F8E0E1F0E0E0937C01F0937D01E0E080
:10111200FAE0E0936401F09365011BC0E63011F040
:10112200E33079F4689423F8E0E1F0E0E0937C01A5
:10113200F0937D01E0E0FAE0E0936401F093650151
:1011420008C0E43031F4E0E8F7E0E0936401F093A2
:10115200650122FE06C0E0E0FAE0E0936401F0934C
:101162006501EFEFE2BBE8E3E1BB219608950E943F
:10117200560E00E010E020E030E00E811F81C49A9C
:1011820020E030E0EC81FD810E94200E2E173F0707
:10119200B0F4219781E0A0E0B0E0E6E7F0E00E9441
:1011A200620E0E94C80BE095E883D801EC930F5FB2
:1011B2001F4FA89521962F5F3F4F0C94C308C498E8
:1011C2000E945D0E289608951A930A9300E015E096
:1011D2000C811D81EA81FB81E017F10730F0D80113
:1011E200EFEFEC930F5F1F4FF5CF19810881269621
:1011F2000895E0E8E0936100E0E0E0936100EBBB7A
:10120200EFEFEABBE0E0E8BBEFEFE7BBE0E0E5BB16
:10121200EFEFE4BBE2BBE8E3E1BB389A30983A98DF
:10122200329AE3E0E3BFE5E0E2BFE0E0E1BFEBB921
:10123200E8E9EAB9E6E8E0BDE0E0E0BDE7E6E9B901
:10124200E0E8E5BFE0E0E6BFE2E0E9BFE0E0E0932E
:101252007D00EFE1E1BDEFE0E1BD0895E0E8F7E0F8
:10126200E0936401F09365010E94FA08C498E0E0FB
:10127200F5E0FA93EA93E0E0F0E8FA93EA930E9449
:10128200E508C498E2E3F0E0FA93EA930E94D60DEF
:10129200C49AE2E3F0E0FA93EA930E94D60DC4986E
:1012A200E4EFF1E0FA93EA930E94D60DC49AE0E0EB
:1012B200E0938001EA930E943B08EBEAF0E0FA93A4
:1012C200EA9380E00E944F0D2296EEECF0E0FA9352
:1012D200EA9380E00E944F0D2296E2EFF0E0FA934B
:1012E200EA9380E00E944F0D22960895F894A89503
:1012F200E62DE230B9F57092820180928301E92DE8
:10130200FA2DEF70F070E0938001E0E0F5E0FA93DF
:10131200EA93E0E0F0E8FA93EA930E94E508E0E05D
:10132200FAE0FA93EA93E0918201F0918301FA9351
:10133200EA930E94B808E0E0FAE0E0936401F093D7
:101342006501E0E8F7E0FA93EA93E0918201F09117
:101352008301FA93EA939A920E9490079A920E94CA
:10136200420744C0E33009F441C0ED3059F4E72D9F
:10137200F82DF070EA93E82DF070EA939A920E94A9
:10138200660734C0E73011F0EB3089F49A920E947C
:101392004207E0E8F7E0FA93EA93E0918201F091E4
:1013A2008301FA93EA939A920E9490071FC0E63053
:1013B20011F0EA30B9F49A920E94D006E0E8F7E020
:1013C200FA93EA93E0918201F0918301FA93EA930E
:1013D2009A920E94E407E0E0FAE0E0936401F0935D
:1013E200650104C0E03111F470FA20F8EFEFE2BBBE
:1013F200E8E3E1BBADD0662478940895E4B7E3FF57
:1014020005C0E4B7E07EE4BFC9D003C0E4B7E07E24
:10141200E4BF0E942F097894289919C022FC16C0B3
:10142200E4E6F0E0FA93EA930E94D60D28990EC002
:10143200EBE0F1E0FA93EA9380E00E944F0D2296EE
:10144200689422F8E0E0EA930E943B0811C022FE71
:101452000FC0E4E6F0E0FA93EA930E94D60D289BCF
:1014620007C0E89422F8E0918001EA930E943B08C9
:10147200662019F00E94770906C021FC02C00E9472
:101482001A040E943204A8950C940D0A0000FECFA3
:10149200AA93BA93EA93FA93EFB7EA931A930A9349
:1014A2000BB11CB1E02FEC7111F00C94A00AAB2D22
:1014B200B0E0A957BE4F1C93B394E8E0EB1509F4D2
:1014C200BB24C394E8E0EC15D1F5CC24A0918701AC
:1014D200A53541F4E0918801E53521F4E0918901D7
:1014E200E53509F01DC060908A0170908B01882457
:1014F200F72DE0E0DF01E0918C01F0E0EA2BFB2B1D
:101502007E2E8F2E90908D01AA24F92DE0E0DF012E
:10151200E0918E01F0E0EA2BFB2B9E2EAF2E0FC046
:10152200A0918701AF3F41F4E0918801EF3F21F4A0
:10153200E0918901EF3F09F002C0BB24CC2409915C
:101542001991E991EFBFF991E991B991A991189592
:10155200E5E5EA930E94CC0BE5E5EA930E94CC0B09
:10156200E5E5EA930E94CC0B6A920E94CC0BE82D2F
:10157200F070EA930E94CC0BE72DF82DF070EA93FD
:101582000E94CC0BEA2DF070EA930E94CC0BE92D5D
:10159200FA2DF070EA930E94CC0B0895BB24CC2460
:1015A200662408950A930E94740DEB81EA930E94C7
:1015B200A80DEA81F070EA930E94A80DE981FA81F0
:1015C200F070EA930E94A80D0E94740DEB81E16015
:1015D200EA930E94A80DE0E0EA930E948D0D0E2F7F
:1015E2000E94830DE02F08811DC00E94740DEB81C3
:1015F200EA930E94A80DEA81F070EA930E94A80D76
:10160200E981FA81F070EA930E94A80DE881EA93D9
:101612000E94A80D0E94830DEAE0F0E0FA93EA939B
:101622000E94D60D249608951A930A9300E010E0C2
:10163200EC81EA93EB81FC81FA93EA930E94D30A4C
:101642000E2F1127F02FE0E0FF93EF93EC81EA9346
:10165200EB81FC813196FA93EA930E94D30AAF910F
:10166200BF91F0E0EA2BFB2B8F01F8011981088171
:1016720018C0EC81EA93EB81FC81FA93EA93EC8146
:10168200F070EA930E94F60AEC81EA93EB81FC8106
:101692003196FA93EA93EB81FC81F070EA930E940F
:1016A200F60A259608950A9300E00E94740DEE81D1
:1016B200EA930E94A80DED81F070EA930E94A80DB2
:1016C200EC81FD81F070EA930E94A80D0E94740DD6
:1016D200EE81E160EA930E94A80DE981E1500E17C4
:1016E20088F4E02F0F5FAA81BB81F0E0EA0FFB1FB5
:1016F200FF93EF93E1E0EA930E948D0DAF91BF91CA
:10170200EC93EBCFE981E150AA81BB81F0E0EA0FD3
:10171200FB1FFF93EF93E0E0EA930E948D0DAF91E0
:10172200BF91EC930E94830D0881279608950A9336
:1017320000E00E94740DEE81EA930E94A80DED81F3
:10174200F070EA930E94A80DEC81FD81F070EA939B
:101752000E94A80DE9810E1778F4E02F0F5FAA818D
:10176200BB81F0E0AE0FBF1FEC91EA930E94A80D7F
:10177200000000000C94AB0B0E94830DEAE0F0E045
:10178200FA93EA930E94D60D0881279608955F9BEB
:10179200FECFECB108955D9BFECFE881ECB92196B6
:1017A2000895A881B9810E94470E309749F0ED91C2
:1017B200FD913196FE93EE933197AA81A08304C0E6
:1017C200EA81EA930E94CC0B2396089526970E9401
:1017D200540E00E0E889F9893196E88BF98B31974C
:1017E200E4913E2FE03011F40C944B0DE02FE030E9
:1017F20059F4353211F401E006C03A93ED85FE85C5
:10180200FA93EA93CEDF45C1E130C9F4353239F4B7
:101812003A93ED85FE85FA93EA93C3DF39C102E07C
:1018220050E010E03D3211F411E033C13B3211F4CB
:101832005BE22FC1303211F450E22BC102C0E23020
:1018420039F440E003E0303311F4106822C104C0DF
:10185200E33011F00C944A0D303310F03A3308F0B3
:1018620009C0A42FEAE0EA9FF0014E2FE32FE053D4
:101872004E0F0FC1E32FE33671F4AE85BF85149787
:10188200AE87BF871496EC91EA93ED85FE85FA93B5
:10189200EA9387DFFDC0E33781F4AE85BF851497F5
:1018A200AE87BF8714960E94470EEE83FF83FA939A
:1018B200EA930E94C10D0E2F12C0E037A1F4AE854B
:1018C200BF851497AE87BF8714960E94470EEE839A
:1018D200FF83FA93EA930E94CB0D0E2F18601260D9
:1018E2001F7720E040C0E43611F0E93611F41460AD
:1018F20002C0E53731F4E8E7F0E0EE83FF8305E06C
:101902000DC0E83511F4186004C0E83711F00C94EA
:10191200490DE2E8F0E0EE83FF8304E012FF19C014
:10192200AE85BF851497AE87BF8714960E94470E77
:10193200EA87FB87AA85BB8510972CF40E94000ECC
:10194200EA87FB875DE2503011F00F5F01C01B7F19
:101952000AC0AE85BF851497AE87BF8714960E94D2
:10196200470EEA87FB8710FD15C0041798F417FF8E
:1019720008C012FF04C01B7F352F015001C030E3A5
:1019820001C030E23A93ED85FE85FA93EA9309DFCE
:101992004150EBCF202F11FF1DC02030D1F013FF9B
:1019A20008C0EE81FF813196EE83FF833197E49187
:1019B20005C0AE81BF81ED91AE83BF83EA93ED8511
:1019C200FE85FA93EA93EDDE403009F04150215052
:1019D200E4CF51C030E3EE81FF813296EE83FF8384
:1019E20032970E944B0EE887F987E885F985AA8528
:1019F200BB85AE17BF0750F03F5FA885B985EA8562
:101A0200FB85EA1BFB0BEA87FB87EFCF3A3328F013
:101A120013FF02C0395F01C0395D14FD1DC03133AF
:101A220020F4A885B985119709F409C0421710F06E
:101A320010FF01C01AC030E217FF0EC030E3106180
:101A420012FF0AC01B7F5A93ED85FE85FA93EA9333
:101A5200A8DE403009F041503A93ED85FE85FA93B5
:101A6200EA939FDE403009F041502150A885B985A4
:101A7200129708F0AFCF10FF0BC0403049F0415031
:101A8200E0E2EA93ED85FE85FA93EA938ADEF5CFEA
:101A920000E0A0CE0E945B0E62960895FF92F82E9F
:101AA20022971A930A93DE010E94F70D8D01E0E05E
:101AB200EA83EB83DE0114960E94F70D0E94470E23
:101AC200FA93EA931A930A93FE013696FA93EA93EB
:101AD2007DDE198108812496FF900895929893984B
:101AE2008A9A8B9815C08B988A98EE270000839B60
:101AF2000895829B089504D08B9A02D08A9AE1E0DD
:101B02006BE107C08B9A8A9A03D08A98F9DF8B9887
:101B120065E36A95F1F7089578E08A98F1DF829B90
:101B2200FECFEEDF8894839908948A9AF1DFEE1F44
:101B32007A9599F77991772311F48B9801C08B9A52
:101B4200DFDF8A98E5DF8A9ADBDF8B98D9CFE991CC
:101B520078E0EE0F10F48B9801C08B9AD9DF8A9847
:101B6200CFDF829BFECFCCDF8A9A7A9591F78B9852
:101B7200C7DF8A98CDDFE1E08399EE278A9A08953C
:101B8200A991B991EE27FF276D91662311F0319645
:101B9200FBCF0895AA27BB27E991F9910590002070
:101BA20011F01196FBCFFD010895E991F99130965C
:101BB20039F080EA9FE00197F1F7A8953197C9F7CC
:101BC2000895E881E295EF70AE2FAA0FAA0FEA0FEF
:101BD200EE0FA991AF70EA0F0895A991EE27AA50CE
:101BE20012F0E05FFCCFA65FEA0F08950024AF0D6C
:101BF200B01D0895EA2BFB2B682B792B0895E095F5
:101C0200F09531960895EE230E2EFD01BC0131F0C0
:101C1200EE0FFF1F661F771F0A94D1F70895EE2378
:101C22000E2EFD01BC0131F076956795F795E7958B
:101C32000A94D1F70895EE0FFF1FEE0FFF1FEE0F6C
:101C4200FF1FEE0FFF1F0895E62FF72F60E070E0F1
:101C520008956E2F7F2FE0E0F0E00895E095F09573
:101C62006095709508950024112490E1AA0FBB1F7E
:101C7200001C111C0E1A1F0A18F40E0E1F1E01C0A2
:101C8200A1609A9599F7FD01D0010895ED91FC911B
:101C9200119708950590F491E02D08957A936A932F
:101CA200FA93EA9308955A934A933A932A931A938A
:101CB2000A9308955D814C813B812A8119810881B3
:101CC2000895AC0FBD1F05900D928A95E1F7089516
:00000001FF
