:060000000C94A8000C9412
:1000060000000C9400000C9400000C9400000C946A
:1000160000000C9400000C9400000C9400000C945A
:1000260000000C9400000C9400000C9400000C944A
:1000360000000C9400000C9400000C9400000C943A
:10004600DA000C9400000C9438080C9400000C9410
:1000560000000C9400000C9400000C9400000C941A
:1000660000000C9400000C9400000000000000004A
:10007600FF000200020000001027E80364000A00E7
:1000860001000010000110000100696E6465783DF2
:100096002564207363726F6C6C5F726174653D25B5
:1000A60064207363726F6C6C5F747970653D256450
:1000B60020746578745F6C656E74683D25640D0AFE
:1000C600004C434D532076342E30302044657369FE
:1000D600676E65642062792043756F6E675175613E
:1000E600790D0A0063756F6E6733696875744079B8
:1000F60061686F6F2E636F6D202D20303931353674
:1001060035313030310D0A0052656C6561736520FA
:10011600646174653A2030332E31322E32303036F7
:100126000D0A000002006401700002006601720000
:1001360002006801740001006A0176000100760180
:100146007800010077017A000000F894EE27ECBBF6
:10015600F1E0FBBFEBBFE5BFE6BFF8E1F1BDE1BDF6
:100166008DE0A2E0BB27ED938A95E9F780E094E065
:10017600A0E0B1E0ED930197E9F7EAE2F1E08591BD
:100186009591009761F0A591B59105901590BF01E5
:10019600F00105900D920197E1F7FB01F0CFEFEF2B
:1001A600EDBFE4E0EEBFC4E6D1E00C941C08EA9390
:1001B600EFB7EA93E5E0E2BFE0917101EF5FE0930C
:1001C6007101E991EFBFE99118950E94380C00E0A2
:1001D60010E020E030E0E0916D01F0916E010E94A8
:1001E600070C2E2FE0916D01F0916E01E770F07013
:1001F6003E2F44245524E0EFF0E04E165F0610F043
:100206000C94AE01F2010E94000CDF01E22FF0E037
:10021600EA0FFB1FA0916401B0916501AE0FBF1FED
:10022600EC91E0951E2FF2010E94000CDF01E22FF7
:10023600F0E0EA0FFB1F3196A0916401B0916501D1
:10024600AE0FBF1FEC91E0950E2FE32FA12F0E945A
:10025600F60B1E2EE8E0E31BA02F0E94EE0BE12911
:100266001E2FE12FE095A0916A01EA23E8BB959A3B
:100276009598F2010E94000CDF01E22FF0E0EA0FF0
:10028600FB1FA0916801B0916901AE0FBF1FEC91F1
:10029600E0951E2FF2010E94000CDF01E22FF0E034
:1002A600EA0FFB1F3196A0916801B0916901AE0F6C
:1002B600BF1FEC91E0950E2FE32FA12F0E94F60BA6
:1002C6001E2EE8E0E31BA02F0E94EE0BE1291E2F55
:1002D600E12FE095A0916A01EA23E8BB959A9598EB
:1002E600F2010E94000CDF01E22FF0E0EA0FFB1F93
:1002F600A0916601B0916701AE0FBF1FEC91E0952A
:100306001E2FF2010E94000CDF01E22FF0E0EA0F3F
:10031600FB1F3196A0916601B0916701AE0FBF1F1A
:10032600EC91E0950E2FE32FA12F0E94F60B1E2EC7
:10033600E8E0E31BA02F0E94EE0BE1291E2FE12F20
:10034600E095A0916A01EA23E8BB959A9598F20197
:1003560031962F0150CF389A389844245524E0EF2F
:10036600F0E04E165F0610F00C946502F2010E9452
:10037600000CDF01E22FF0E0EA0FFB1F3196A0919F
:100386006401B0916501AE0FBF1FEC91E0951E2F81
:10039600F2010E94000CDF01E22FF0E0EA0FFB1FE2
:1003A6003296A0916401B0916501AE0FBF1FEC912A
:1003B600E0950E2FE32FA12F0E94F60B1E2EE8E0EC
:1003C600E31BA02F0E94EE0BE1291E2FE12FE095E3
:1003D600A0916A01EA23E8BB959A9598F2010E94DA
:1003E600000CDF01E22FF0E0EA0FFB1F3196A0912F
:1003F6006801B0916901AE0FBF1FEC91E0951E2F09
:10040600F2010E94000CDF01E22FF0E0EA0FFB1F71
:100416003296A0916801B0916901AE0FBF1FEC91B1
:10042600E0950E2FE32FA12F0E94F60B1E2EE8E07B
:10043600E31BA02F0E94EE0BE1291E2FE12FE09572
:10044600A0916A01EA23E8BB959A9598F2010E9469
:10045600000CDF01E22FF0E0EA0FFB1F3196A091BE
:100466006601B0916701AE0FBF1FEC91E0951E2F9C
:10047600F2010E94000CDF01E22FF0E0EA0FFB1F01
:100486003296A0916601B0916701AE0FBF1FEC9145
:10049600E0950E2FE32FA12F0E94F60B1E2EE8E00B
:1004A600E31BA02F0E94EE0BE1291E2FE12FE09502
:1004B600A0916A01EA23E8BB959A9598F2013196D4
:1004C6002F014DCF3A9A3A980E943F0C24960895F0
:1004D60044245524E0EFF0E04E165F0658F5F2018D
:1004E6000E94000CA0916401B0916501AE0FBF1F80
:1004F600EC91E8BB959A9598F2010E94000CA091A8
:100506006801B0916901AE0FBF1FEC91E8BB959AE7
:100516009598F2010E94000CA0916601B0916701C6
:10052600AE0FBF1FEC91E8BB959A9598F2013196F4
:100536002F01D0CF389A389844245524E0EFF0E0C4
:100546004E165F0670F5F2010E94000C3196A091DE
:100556006401B0916501AE0FBF1FEC91E8BB959A9F
:100566009598F2010E94000C3196A0916801B09115
:100576006901AE0FBF1FEC91E8BB959A9598F20101
:100586000E94000C3196A0916601B0916701AE0FF2
:10059600BF1FEC91E8BB959A9598F20131962F0111
:1005A600CDCF3A9A3A9808950E94E8000E94E80052
:1005B6000E94E800E0916D01F0916E01309719F408
:1005C6000E946B0202C00E94E8000895E091730148
:1005D600E030D9F5E0916401F09165013896E09339
:1005E6006401F0936501E0916601F0916701389628
:1005F600E0936601F0936701E0916801F09169016B
:100606003896E0936801F0936901A0916B01B0916F
:100616006C011196A0936B01B0936C01A13FE0E0D1
:10062600BE0790F0E0917601E0937701E2E0E09377
:100636007601E0917301EF5FE0937301E150E0E032
:10064600E0936B01E0936C01DBC0A0917301A130D4
:1006560011F5E0916401F09165013897E09364012A
:10066600F0936501A0916B01B0916C011196A09376
:100676006B01B0936C01A13FE0E0BE0758F0E0913A
:100686007301EF5FE0937301E150E0E0E0936B01EB
:10069600E0936C01B5C0A0917301A23011F5E09111
:1006A6006601F09167013897E0936601F093670160
:1006B600A0916B01B0916C011196A0936B01B09360
:1006C6006C01A13FE0E0BE0758F0E0917301EF5FD7
:1006D600E0937301E150E0E0E0936B01E0936C017D
:1006E6008FC0A0917301A33011F5E0916801F091DC
:1006F60069013897E0936801F0936901A0916B0155
:10070600B0916C011196A0936B01B0936C01A13F5F
:10071600E0E0BE0758F0E0917301EF5FE0937301EC
:10072600E150E0E0E0936B01E0936C0169C0A091B9
:100736007301A43001F5A0916B01B0916C01119683
:10074600A0936B01B0936C01A536E0E0BE0790F074
:10075600E0917301EF5FE0937301E150E0E0E09315
:100766006B01E0936C01E0917601E0937701E4E69A
:10077600E093760145C0A0917301A530E9F4A091FC
:100786006D01B0916E011196A0936D01B0936E014B
:10079600A034E0E0BE0778F0E0917301EF5FE093EC
:1007A6007301E150E0E0E0936D01E0936E01E091AA
:1007B6007701E093760124C0A0917301A630C9F4B5
:1007C600A0916B01B0916C011196A0936B01B0934F
:1007D6006C01A536E0E0BE0758F0E0917301EF5FCB
:1007E600E0937301E150E0E0E0936B01E0936C016C
:1007F60007C0E0917201EF5FE0937201EA937CD14A
:100806000895E0917301E03049F4E0E0E0936A0175
:10081600E0917301EF5FE0937301DEC0A091730175
:10082600A130B9F4A0916B01B0916C011196A0931F
:100836006B01B0936C01139758F0E0917301EF5F71
:10084600E0937301E150E0E0E0936B01E0936C010B
:10085600C3C0A0917301A23049F4EFEFE0936A019F
:10086600E0917301EF5FE0937301B6C0A09173014D
:10087600A330B9F4A0916B01B0916C011196A093CD
:100886006B01B0936C01139758F0E0917301EF5F21
:10089600E0937301E150E0E0E0936B01E0936C01BB
:1008A6009BC0A0917301A43001F5A0916B01B0919A
:1008B6006C011196A0936B01B0936C01A536E0E034
:1008C600BE0790F0E0917301EF5FE0937301E15092
:1008D600E0E0E0936B01E0936C01E0917601E09338
:1008E6007701E4E6E093760177C0A0917301A53025
:1008F60091F5E0916401F09165013896E093640109
:10090600F0936501E0916601F09167013896E093F6
:100916006601F0936701E0916801F09169013896EC
:10092600E0936801F0936901A0916D01B0916E01A9
:100936001196A0936D01B0936E01A034E0E0BE075E
:1009460048F0E0917301EF5FE0937301E150E2E05C
:10095600E093760141C0A0917301A630B1F5E09114
:100966006401F09165013897E0936401F0936501A5
:10097600E0916601F09167013897E0936601F09384
:100986006701E0916801F09169013897E093680189
:10099600F0936901A0916D01B0916E011197A0933A
:1009A6006D01B0936E01109779F4E0917301EF5FDA
:1009B600E0937301E150E0E0E0936D01E0936E0196
:1009C600E0917701E093760107C0E0917201EF5F55
:1009D600E0937201EA9390D00895E0917601A09198
:1009E6007101EA17E8F4E0E0E0937101E091780123
:1009F600E03019F40E94E9020CC0E13019F40E94BB
:100A0600040407C0E0917201EF5FE0937201EA937C
:100A160073D0A0917201A43018F0E0E0E093720167
:100A260008950E94390C00EA10E020E0EB81EE0FF9
:100A36000E0FAB81A43010F010E020E8077F0E9473
:100A46005E0BC4980A93E12FF22F3096FA93EA933D
:100A56000E94C208E09376010A93E12FF22F3196A5
:100A6600FA93EA930E94C208E09378010A93E12F71
:100A7600F22F3296FA93EA930E940409E0937401E6
:100A8600F0937501E0E9F0E0FA93EA93ED81FF2730
:100A9600662777270E94310CE0917601FF276627AB
:100AA60077270E94310CE0917801FF276627772788
:100AB6000E94310CE0917401F09175016627772749
:100AC6000E94310C80E10E943E0B6296A091740157
:100AD600B0917501A136EFE0BE0728F0E0E0E093A3
:100AE6007401E0937501A0917601A53618F0E0E057
:100AF600E0937601C49A6DC0A881A43010F0E0E0BE
:100B0600E883E881EA930E941405A0917801AF3F3B
:100B160009F43DC030D3E89421F8E0E0E093730196
:100B2600E0E0E0936B01E0936C01E0E0E0936D019F
:100B3600E0936E01E0E0E0936F01E0937001E0E086
:100B4600F5E0FA93EA93E0E0F0E8FA93EA934BD102
:100B5600E0E0F5E0FA93EA93E0917401F091750113
:100B6600FA93EA93EC81EA93B6D0E0E0F5E0E093FD
:100B76006401F0936501E0E0F4E1E0936601F0932F
:100B86006701E0E0F3E2E0936801F09369012196E2
:100B960008950E94390C00EA10E020E0EB81EE0F88
:100BA6000E0FAB81A43010F010E020E8077F0E9402
:100BB6005E0BC4980A93E12FF22F3296FA93EA93CA
:100BC600E0917401F0917501FA93EA930E94290964
:100BD600C49A0E94400C249608950E94390C00EA9B
:100BE60010E020E0EB81EE0F0E0FAB81A43010F089
:100BF60010E020E8077F0E945E0BC4980A93E12F5D
:100C0600F22F3096FA93EA93E885EA930E94E50874
:100C16000A93E12FF22F3196FA93EA93EF81EA9342
:100C26000E94E508C49A0E94400C269608950E94E8
:100C3600370C00E010E020EA30E040E0ED81EE0FF6
:100C46002E0FAD81A43010F030E040E808851985FC
:100C5600AE81BF81A136EFE0BE0720F00E943E0CB8
:100C66002A960895EE81FF81A8E1B0E00E940E0C5D
:100C7600A885B985EA0FFB1FEE83FF83EF7371F03A
:100C8600AE81BF81E0E4F0E00E94160C0E94020CE7
:100C96000E94FE0BE05CFF4FEE83FF830E945E0B1B
:100CA600C49808851985EE81FF810E171F0788F401
:100CB600A8952A93F801E30FF41FFA93EA931A937F
:100CC6000A93E0E4EA930E948709005C1F4F0C94A4
:100CD6005606C49A17C00E94370C00E010E020EABE
:100CE60030E040E0ED81EE0F2E0FAD81A43010F024
:100CF60030E040E808851985AE81BF81A136EFE076
:100D0600BE0720F00E943E0C2A960895EE81FF81D0
:100D1600A8E1B0E00E940E0CA885B985EA0FFB1F7A
:100D2600EE83FF83EF7371F0AE81BF81E0E4F0E004
:100D36000E94160C0E94020C0E94FE0BE05CFF4F04
:100D4600EE83FF830E945E0BC49808851985EE81A9
:100D5600FF810E171F0788F42A93F801E30FF41F8B
:100D6600FA93EA931A930A93E0E4EA930E944309FA
:100D7600A895005C1F4F0C94AA06C49A0E943E0CCC
:100D86002A9608950E94380C00E010E020E030E03A
:100D96000E811F81C49820E030E0EC81FD810E9425
:100DA600000CA3E0B0E00E940E0C2E173F07B0F433
:100DB600219781E0A0E0B0E0ECE7F0E00E94440C6F
:100DC6000E94B709E095E883D801EC930F5F1F4FA7
:100DD600A89521962F5F3F4F0C94D006C49A0E9487
:100DE6003F0C289608951A930A9300E015E00C81AB
:100DF6001D81EA81FB81E017F10730F0D801EFEFA2
:100E0600EC930F5F1F4FF5CF198108812696089541
:100E1600E0E8E0936100E0E0E0936100EBBBEFEF18
:100E2600EABBE0E0E8BBEFEFE7BBE0E0E5BBEFEFF6
:100E3600E4BBE0E0E2BBE0E3E1BBE0E0E7B9EFEF13
:100E4600E6B9E3E0E3BFE5E0E2BFE0E0E1BFEBB92E
:100E5600E8E9EAB9E6E8E0BDE0E0E0BDE7E6E9B9E1
:100E6600E0E8E5BFE0E0E6BFE2E0E9BFE0E0E0930E
:100E76007D00EEE5E4B9EFE1E1BDEFE0E1BD089507
:100E86000E940B07E0E0F5E0E0936401F093650152
:100E9600E0936601F0936701E0936801F0936901BE
:100EA600C498FA93EA93E0E0F0E8FA93EA930E9492
:100EB600F606C498E2E3F0E0FA93EA930E94C50BC3
:100EC600C49AE2E3F0E0FA93EA930E94C50BC49851
:100ED600E4E6F0E0FA93EA930E94C50BC49AE0E0D8
:100EE600E0937201EA930E947F05E0E0F5E0E0936B
:100EF6006401F0936501E0E0F4E1E0936601F093AC
:100F06006701E0E0F3E2E0936801F0936901E7EC42
:100F1600F0E0FA93EA9380E00E943E0B2296EAEE16
:100F2600F0E0FA93EA9380E00E943E0B2296EEE010
:100F3600F1E0FA93EA9380E00E943E0B2296089530
:100F4600F894A895E82DE23011F00C94FB079092E6
:100F56007401A0927501A0917401B0917501A13E32
:100F6600E1E0BE0730F0E0EEF1E0E0937401F093CB
:100F76007501EB2DFC2DEF70F070E0937201E0E04F
:100F8600F5E0FA93EA93E0E0F0E8FA93EA930E9438
:100F9600F606E0E0F5E0FA93EA93E0917401F09149
:100FA6007501FA93EA930E94C506E0E0F5E0FA932C
:100FB600EA93E0917401F0917501FA93EA93BA927B
:100FC6000E941A06BA920E94CC05E0E0F5E0E09392
:100FD6006401F0936501E0E0F4E1E0936601F093CB
:100FE6006701E0E0F3E2E0936801F09369011DC058
:100FF600E330D9F0ED3059F4E92DFA2DF070EA938B
:10100600EA2DF070EA93BA920E94F0050EC0E7301E
:1010160011F0EB3009F409C0E63011F0EA3009F4BA
:1010260004C0E03111F490FA20F87FD08824789437
:101036000895E4B7E3FF05C0E4B7E07EE4BF9BD0C4
:1010460003C0E4B7E07EE4BF0E944307789488209B
:1010560019F00E94A30704C00E94D7020E94F00460
:10106600A8950C942A080000FECFAA93BA93EA9397
:10107600FA93EFB7EA931A930A930BB11CB1E02FD8
:10108600EC7111F00C948F08AD2DB0E0A758BE4F4F
:101096001C93D394E8E0ED1509F4DD24E394E8E02D
:1010A600EE15D1F5EE24A0917901A53541F4E09134
:1010B6007A01E53521F4E0917B01E53509F01DC0A3
:1010C60080907C0190907D01AA24F92DE0E0DF015B
:1010D600E0917E01F0E0EA2BFB2B9E2EAF2EB09026
:1010E6007F01CC24FB2DE0E0DF01E0918001F0E000
:1010F600EA2BFB2BBE2ECF2E0FC0A0917901AF3F5E
:1011060041F4E0917A01EF3F21F4E0917B01EF3F5A
:1011160009F002C0DD24EE2409911991E991EFBF8F
:10112600F991E991B991A9911895E5E5EA930E949B
:10113600BB09E5E5EA930E94BB09E5E5EA930E944F
:10114600BB098A920E94BB09EA2DF070EA930E94BD
:10115600BB09E92DFA2DF070EA930E94BB09EC2D2C
:10116600F070EA930E94BB09EB2DFC2DF070EA9318
:101176000E94BB090895DD24EE24882408950A936D
:101186000E94630BEB81EA930E94970BEA81F07051
:10119600EA930E94970BE981FA81F070EA930E9424
:1011A600970B0E94630BEB81E160EA930E94970B19
:1011B600E0E0EA930E947C0B0E2F0E94720BE02F58
:1011C60008811DC00E94630BEB81EA930E94970B76
:1011D600EA81F070EA930E94970BE981FA81F07038
:1011E600EA930E94970BE881EA930E94970B0E946C
:1011F600720BEAE0F0E0FA93EA930E94C50B24969C
:1012060008951A930A9300E010E0EC81EA93EB81CB
:10121600FC81FA93EA930E94C2080E2F1127F02F41
:10122600E0E0FF93EF93EC81EA93EB81FC8131964A
:10123600FA93EA930E94C208AF91BF91F0E0EA2BBD
:10124600FB2B8F01F8011981088118C0EC81EA9304
:10125600EB81FC81FA93EA93EC81F070EA930E94A9
:10126600E508EC81EA93EB81FC813196FA93EA93E7
:10127600EB81FC81F070EA930E94E50825960895BB
:101286000A9300E00E94630BEE81EA930E94970B9B
:10129600ED81F070EA930E94970BEC81FD81F0706E
:1012A600EA930E94970B0E94630BEE81E160EA933A
:1012B6000E94970BE981E1500E1788F4E02F0F5F2B
:1012C600AA81BB81F0E0EA0FFB1FFF93EF93E1E0F9
:1012D600EA930E947C0BAF91BF91EC93EBCFE9812F
:1012E600E150AA81BB81F0E0EA0FFB1FFF93EF9369
:1012F600E0E0EA930E947C0BAF91BF91EC930E94D1
:10130600720B0881279608950A9300E00E94630BEA
:10131600EE81EA930E94970BED81F070EA930E94AA
:10132600970BEC81FD81F070EA930E94970BE9819F
:101336000E1778F4E02F0F5FAA81BB81F0E0AE0FA5
:10134600BF1FEC91EA930E94970B000000000C94DB
:101356009A090E94720BEAE0F0E0FA93EA930E947F
:10136600C50B0881279608955F9BFECFECB10895C3
:101376005D9BFECFE881ECB921960895A881B981DD
:101386000E94290C309749F0ED91FD913196FE931C
:10139600EE933197AA81A08304C0EA81EA930E9462
:1013A600BB092396089526970E94360C00E0E8892B
:1013B600F9893196E88BF98B3197E4913E2FE0302D
:1013C60011F40C943A0BE02FE03059F4353211F455
:1013D60001E006C03A93ED85FE85FA93EA93CEDFE7
:1013E60045C1E130C9F4353239F43A93ED85FE85CD
:1013F600FA93EA93C3DF39C102E050E010E03D32D0
:1014060011F411E033C13B3211F45BE22FC13032EB
:1014160011F450E22BC102C0E23039F440E003E09F
:10142600303311F4106822C104C0E33011F00C947B
:10143600390B303310F03A3308F009C0A42FEAE034
:10144600EA9FF0014E2FE32FE0534E0F0FC1E32F1B
:10145600E33671F4AE85BF851497AE87BF871496C1
:10146600EC91EA93ED85FE85FA93EA9387DFFDC05A
:10147600E33781F4AE85BF851497AE87BF87149690
:101486000E94290CEE83FF83FA93EA930E94B00B25
:101496000E2F12C0E037A1F4AE85BF851497AE8734
:1014A600BF8714960E94290CEE83FF83FA93EA9372
:1014B6000E94BA0B0E2F186012601F7720E040C002
:1014C600E43611F0E93611F4146002C0E53731F460
:1014D600EEE7F0E0EE83FF8305E00DC0E83511F49A
:1014E600186004C0E83711F00C94380BE8E8F0E017
:1014F600EE83FF8304E012FF19C0AE85BF85149703
:10150600AE87BF8714960E94290CEA87FB87AA85B7
:10151600BB8510972CF40E94EA0BEA87FB875DE2F5
:10152600503011F00F5F01C01B7F0AC0AE85BF852A
:101536001497AE87BF8714960E94290CEA87FB870B
:1015460010FD15C0041798F417FF08C012FF04C059
:101556001B7F352F015001C030E301C030E23A93C2
:10156600ED85FE85FA93EA9309DF4150EBCF202FF4
:1015760011FF1DC02030D1F013FF08C0EE81FF819E
:101586003196EE83FF833197E49105C0AE81BF812A
:10159600ED91AE83BF83EA93ED85FE85FA93EA93D8
:1015A600EDDE403009F041502150E4CF51C030E328
:1015B600EE81FF813296EE83FF8332970E942D0CD7
:1015C600E887F987E885F985AA85BB85AE17BF0741
:1015D60050F03F5FA885B985EA85FB85EA1BFB0BC2
:1015E600EA87FB87EFCF3A3328F013FF02C0395F53
:1015F60001C0395D14FD1DC0313320F4A885B985BD
:10160600119709F409C0421710F010FF01C01AC063
:1016160030E217FF0EC030E3106112FF0AC01B7FD5
:101626005A93ED85FE85FA93EA93A8DE403009F0D9
:1016360041503A93ED85FE85FA93EA939FDE40305A
:1016460009F041502150A885B985129708F0AFCF0F
:1016560010FF0BC0403049F04150E0E2EA93ED85BF
:10166600FE85FA93EA938ADEF5CF00E0A0CE0E94CB
:101676003D0C62960895FF92F82E22971A930A93CC
:10168600DE010E94E60B8D01E0E0EA83EB83DE01DA
:1016960014960E94E60B0E94290CFA93EA931A9379
:1016A6000A93FE013696FA93EA937DDE1981088144
:1016B6002496FF900895929893988A9A8B9815C0CD
:1016C6008B988A98EE270000839B0895829B089545
:1016D60004D08B9A02D08A9AE1E06BE107C08B9A1C
:1016E6008A9A03D08A98F9DF8B9865E36A95F1F7B1
:1016F600089578E08A98F1DF829BFECFEEDF88942A
:10170600839908948A9AF1DFEE1F7A9599F7799171
:10171600772311F48B9801C08B9ADFDF8A98E5DF77
:101726008A9ADBDF8B98D9CFE99178E0EE0F10F437
:101736008B9801C08B9AD9DF8A98CFDF829BFECF28
:10174600CCDF8A9A7A9591F78B98C7DF8A98CDDF96
:10175600E1E08399EE278A9A0895A991B991EE2737
:10176600FF276D91662311F03196FBCF0895AA27C6
:10177600BB27E991F9910590002011F01196FBCF56
:10178600FD010895E991F991309639F080EA9FE0DC
:101796000197F1F7A8953197C9F70895E881E29581
:1017A600EF70AE2FAA0FAA0FEA0FEE0FA991AF7036
:1017B600EA0F0895A991EE27AA5012F0E05FFCCF38
:1017C600A65FEA0F08950024AF0DB01D0895E095B9
:1017D600F09531960895EE230E2EEA2F19F0EE0FAE
:1017E6000A94E9F70895EE230E2EEA2F19F0E695EE
:1017F6000A94E9F70895EE0FFF1FEE0FFF1FEE0F95
:10180600FF1FEE0FFF1F0895F695E795F695E795EE
:10181600F695E7950895FA9FF02DEB9FF00DEA9F58
:10182600E02DF10D08950024112490E1AA0FBB1FAD
:10183600001C111C0E1A1F0A18F40E0E1F1E01C0E2
:10184600A1609A9599F7FD01D0010895ED91FC915B
:10185600119708950590F491E02D08957A936A936F
:10186600FA93EA9308955A934A933A932A931A93CA
:101876000A9308955D814C813B812A8119810881F3
:101886000895AC0FBD1F05900D928A95E1F7089556
:00000001FF
