:020000009CC1A1
:10000200FECFFDCFFCCFFBCFFACFF9CFC5C1F7CFE3
:1000120058C8F5CFF4CFF3CFF2CFF1CFF0CFEFCF77
:100022002A2A2043756F6E67517561792030393104
:1000320035363531303031202A2A0000119F3216F0
:100042009C54501F1014FEEFFFFFFFFF0000A000A2
:10005200000000000000000000000000000000009E
:100062000000000000001027E80364000A000100FD
:1000720000100001100001006400C800900120037C
:10008200F8FFFCFFFEFFFFFF544F2043485543207B
:100092004B494E48205445202020200044414E2008
:1000A20043552047554920474F502020202020000B
:1000B20044414E20435520424143205448414E473B
:1000C2002020200044414E204355204455205448CE
:1000D200554F4E472020200044414E204355205486
:1000E200484F4E47205448554F4E4700474D543ACB
:1000F20020253032643A253032643A253032642089
:10010200253032642D253032642D253032640D0ABB
:1001120000253032642D253032642D25346425309B
:100122003264253032642530326425303264253021
:100132003264253032642530326425303264253011
:100142003264253032642530326425303264002531
:1001520073200D0A006C696E653D2564207261741E
:10016200653D25640D0A00253032582000202020EC
:10017200202020202020202020202020202020207D
:10018200202020202020202020202020202020206D
:10019200202020202020200D0A007C3D3D3D3D3DB9
:1001A2003D3D3D3D3D3D3D3D3D3D3D3D3D3D3D3D7D
:1001B2003D3D3D3D3D3D3D3D3D3D3D3D3D3D3D3D6D
:1001C2003D3D3D3D7C0D0A007C2020202020204426
:1001D2006967694C454420415652204669726D77E1
:1001E2006172652076312E302E3020202020202092
:1001F20020207C0D0A007C5F5F5F5F5F5F5F5F5F57
:100202005F5F5F5F5F5F5F5F5F5F5F5F5F5F5F5FFC
:100212005F5F5F5F5F5F5F5F5F5F5F5F5F5F5F5FEC
:100222007C0D0A007C2020202020202020436F709B
:100232007972696768742062792043756F6E6751BD
:1002420075617920202020202020202020207C0D74
:100252000A007C2020202063756F6E673369687501
:1002620074407961686F6F2E636F6D202D20303975
:100272003135363531303031202020207C0D0A00D6
:100282007C20202020202020537461727465642019
:10029200646174653A2032342E30352E3230303774
:1002A200202020202020202020207C0D0A007C20DD
:1002B20020202020202052656C65617365206461D6
:1002C20074653A2032332E30362E323030372020C9
:1002D20020202020202020207C0D0A00445331338E
:1002E200303720474D543A20253032643A25303297
:1002F200643A2530326420253032642D2530326450
:100302002D253032640D0A000000000004004C026A
:100312000A031400D2008A001400E6009E001400B2
:10032200FA00B20014000E01C60014002201DA0025
:10033200100036013E000000F894EE27ECBBF1E01D
:10034200FBBFEBBFE5BFE6BFF8E1F1BDE1BD8DE06C
:10035200A2E0BB27ED938A95E9F78CEE91E0A0E647
:10036200ED930197E9F7EEE0F3E08591959100971F
:1003720061F0A591B59105901590BF01F00105902E
:100382000D920197E1F7FB01F0CFEBE4EDBFE2E064
:10039200EEBFC4ECD0E07EC6EA93FA93EFB7EA93DD
:1003A200E5E0E2BFE091CE00F091CF003196E0931C
:1003B200CE00F093CF00E991EFBFF991E991189542
:1003C2000A9300E000E0083080F4E7E0F0E0E4198E
:1003D200F509A02FB0E0EA17FB0711F4959801C0C8
:1003E200959A939A93980F5FEECF0CC00A9300E010
:1003F200959A00E0083020F4939A93980F5FFACF11
:10040200949A94980991089526970ADB00E010E0E7
:1004120020E030E048E655E0C698C79800E010E0DA
:100422000C33E0E01E0708F09EC021E0ECE3F0E0B0
:10043200E01BF10B3197E40FF51FE081EE83E8E753
:10044200F0E0E01BF10B3197E40FF51FE081EF8341
:10045200E4EBF0E0E01BF10B3197E40FF51FE081D4
:10046200E887E0EFF0E0E01BF10B3197E40FF51FB6
:10047200E081E987ECE2F1E0E01BF10B3197E40F58
:10048200F51FE081EA87E8E6F1E0E01BF10B319726
:10049200E40FF51FE081EB8730E0383008F05FC0F1
:1004A200E22FAE81EA23AE2FE32F5BDAE03011F0C8
:1004B200C09A01C0C09885E08A95F1F7E22FAF811A
:1004C200EA23AE2FE32F4DDAE03011F0C19A01C0DA
:1004D200C19885E08A95F1F7E22FA885EA23AE2F2D
:1004E200E32F3FDAE03011F0C29A01C0C29885E0F2
:1004F2008A95F1F7E22FA985EA23AE2FE32F31DAAD
:10050200E03011F0C39A01C0C39885E08A95F1F7F3
:10051200E22FAA85EA23AE2FE32F23DAE03011F08F
:10052200C49A01C0C49885E08A95F1F7E22FAB85A1
:10053200EA23AE2FE32F15DAE03011F0C59A01C09D
:10054200C59885E08A95F1F7C69A85E08A95F1F714
:10055200C69885E08A95F1F7220F3F5F9ECFA89556
:100562000F5F1F4F5DCFC79A85E08A95F1F7C79855
:1005720085E08A95F1F75BDA2C9608950A9300E0FC
:10058200662477244424552420FE02C02FDF42C073
:10059200E091C400F091C500E093C800F093C90057
:1005A200A091C800B091C900AF3FEFE7BE0790F538
:1005B2000C910F7000FBA2B3A2F9A2BB3A9A3A982F
:1005C200F30131963F01E836A0E0FA07C8F066244D
:1005D20077240CDF9498F4DE949A389A3898F201D2
:1005E20031962F01389710F044245524E091C80029
:1005F200F091C900E057F14FE093C800F093C900B1
:10060200E091C800F091C9003196E093C800F093E0
:10061200C900C6CF0991089538983A98A091CE00A2
:10062200B091CF00A83EE3E0BE0780F0E0E0E093A7
:10063200CE00E093CF00A091CC00A13030F0E09149
:10064200CC00E150E093CC0001C05BD30895ECD91B
:1006520000E010E0EA81FB813097B1F0EC81F0E03C
:10066200AA81BB81EA0FFB1F8F010831E0E01E0760
:100672002CF0D801E8E1F0E0AAD98F010050104037
:1006820014F4085E1F4F02C00C811127E02FD3D94A
:1006920025960895A49782E0A0E0B0E0EEE4F0E0B1
:1006A200D0D9BED902E210E020E030E040E050E0D4
:1006B2005FD8EDB7FEB7FA93EA935F93FE013996DE
:1006C200FA93EA93FE013A96FA93EA9312D85F916B
:1006D200EDB7FEB7FA93EA932F93EDB7FEB7FA930D
:1006E200EA933F93EDB7FEB7FA93EA934F93C4D7D9
:1006F2004F913F912F91EEEEF0E0FA93EA93E22FC1
:10070200FF276627772787D9E32FFF2766277727D3
:1007120082D9E42FFF27662777277DD9E52FFF2788
:100722006627772778D9E98DEF5FFF276627772736
:1007320072D9EC8DFF27662777276DD988E166D7B6
:100742006A96543608F050E0AF81A43610F0E0E02B
:10075200EF83AE81A43610F0E0E0EE83243608F099
:1007620020E0343608F030E0443608F040E0FE0184
:100772003896FA93EA93E3E1F1E0FA93EA93E52FEC
:10078200FF276627772747D9EF85EF5FFF27662781
:10079200772741D9EA89A0EDB7E0F0E0EA0FFB1F25
:1007A200F1D839D92A93E7E0F0E0FA93EA934FDFE0
:1007B200FF27662777272FD9E32FFF27662777277B
:1007C2002AD92A93EAEFFFEFFA93EA9340DFFF2751
:1007D2006627772720D9E32FFF27662777271BD99C
:1007E2002A93E1E0F0E0FA93EA9331DFFF276627EC
:1007F200772711D9E32FFF27662777270CD92A936A
:10080200E0E0F0E0FA93EA9322DFFF2766277727FA
:1008120002D9E32FFF2766277727FDD82A93E3E043
:10082200F0E0FA93EA9313DFFF2766277727F3D8DE
:10083200E32FFF2766277727EED82A93E8E0F0E038
:10084200FA93EA9304DFFF2766277727E4D8E32F9A
:10085200FF2766277727DFD88CE3B9D6EF96219654
:10086200E1E5F1E0FA93EA93FE013A9666277727EB
:10087200D2D884E0CBD62696FE013896FA93EA9334
:100882001A930A9307D0E0E0E2BBEFE3E1BBCFD8D3
:10089200AA960895C6D800E010E020E038E645E0C8
:1008A20000E010E0ED81FE810E171F0738F5E01B16
:1008B200F10B3197AF81B885AE0FBF1F2C9120335A
:1008C20010F02A3308F002C02F700CC0203209F455
:1008D20008C02D3211F42AE005C02E3211F42BE0AB
:1008E20001C02FE0D801A30FB41FE22FF0E0EA5CB1
:1008F200FE4FE081EC930F5F1F4FD4CF99D829961A
:10090200089590D800E010E020E030E00E811F81D1
:10091200C49820E030E0EC81FD812E173F0760F49F
:100922001F930F930F5F1F4FDBD4AF91BF91EC93D7
:10093200A8952F5F3F4FEFCFC49A7BD82896089592
:1009420070D800E010E020EA3AE040E011D7C49805
:1009520000E010E0ED81FE810E171F0720F4A8953C
:100962000F5F1F4FF7CFC49AE0E0E2BBEFE3E1BBBA
:100972005FD82796089555D800E010E020E030E0D7
:1009820042EA08851985EE81FF81EF7359F0AE8145
:10099200BF81E0E4F0E008D8F0D7EBD7E05CFF4F8E
:1009A200EE83FF83E5D6C49820E030E0EE81FF813C
:1009B2002E173F07A0F44A93EE81F0E0A0E8B1E0E1
:1009C200E6D7E00FF11FFA93EA93D801EC91EA938C
:1009D20012D4A8950F5F1F4F2F5F3F4FE7CFC49AE6
:1009E200E0E0E2BBEFE3E1BB0EC01BD800E010E0A9
:1009F20020E030E042EA08851985AE81BF81A93F37
:100A0200EEE0BE0718F014D82A960895EE81FF8111
:100A1200EF7359F0AE81BF81E0E4F0E0C5D7ADD706
:100A2200A8D7E05CFF4FEE83FF83A2D6C49820E0F4
:100A320030E0EE81FF812E173F07A8F44A93EE8142
:100A4200F0E0A0E8B1E0A3D7E00FF11FFA93EA9338
:100A52001A930A93E0E4EA9308D4005C1F4FA89526
:100A6200205C3F4FE6CFC49AE0E0E2BBEFE3E1BB9C
:100A7200DFD72A9608950A9302EA7AD6C49A0A938D
:100A8200EA81F0E0FA93EA939BD3E093CC00E7E5A6
:100A9200F1E0FA93EA93EB81FF2766277727BBD72A
:100AA200E091CC00FF2766277727B5D788E0AED53F
:100AB2002A96C498E0E0E2BBEFE3E1BB12C00A93DE
:100AC20002EA56D6C49A0A93EA81F0E0FA93EA93CC
:100AD200E091CC00EA938FD3C498E0E0E2BBEFE36D
:100AE200E1BB0881229608959FD700E015E00C81B2
:100AF2001D81EA81FB81E017F10730F0D801EFEFA9
:100B0200EC930F5F1F4FF5CF96D72696089530D6F8
:100B1200C498E0E0EA93EA93EA93D3D5E1D3EA9367
:100B2200DFD3EA93DDD3EA930AD6DAD3EA93D8D3B2
:100B3200EA93D6D3EA93C5D5C49AE0E0E2BBEFE3E9
:100B4200E1BB08952E978EE0A0E0B0E0E0E5F0E092
:100B520078D766D700E010E020E030E040E050E0D7
:100B6200E88DE03029F4EFEFEA87EF83E8871AC0D7
:100B7200E13039F4EAEAEA87E9E9EF83E8E8E8876D
:100B820011C0E23039F4E5E5EA87E4E4EF83E6E612
:100B9200E88708C0E33031F4E0E0EA87E2E2EF837D
:100BA200E1E1E887C498E4D5E98DFA8DFA93EA93F6
:100BB20031D6EA8BAA89A53110F0E4E1EA8BE0E0B4
:100BC200EB8BEA89AB89AE1708F08FC0EB89A98D50
:100BD200BA8DF0E0AE0FBF1FEC91E98BEE81EA9384
:100BE200EA89EE0FAAE0B0E0F0E0EA0FFB1FFA9309
:100BF200EA9319D3ED87FE87EE81EA93AA89AF5F64
:100C0200EA2FEE0FAAE0B0E0F0E0EA0FFB1FFA9342
:100C1200EA9309D3EB87FC87AD85BE85EA1BFB0B04
:100C2200EF87F88BE00FF11FE836A0E0FA0708F033
:100C32005CC040E050E04830E0E05E070CF04DC0A0
:100C4200EF89E030A9F04050504024F04430E0E019
:100C52005E070CF002C0EF81EA874430E0E05E07F5
:100C620024F04830E0E05E070CF002C0E885EA8735
:100C720020E030E0EF85F8892E173F0758F5A89558
:100C8200EE81EA93DA01E8EFFEE089D6AE85BF8510
:100C9200EA0FFB1FE20FF31FE855F74FFA93EA93AF
:100CA2008FD2E987E095AE2FEA85E095EA23E987BE
:100CB200DA01E8EFFEE073D6E20FF31FE00FF11F57
:100CC200AD89BE89AE0FBF1FE985E095EC932F5F1A
:100CD2003F4FD0CF4F5F5F4FAECFEF85F8890E0FFA
:100CE2001F1FEB89EF5FEB8B6CCF0093D00010934B
:100CF200D100C49AE0E0E2BBEFE3E1BB98D66B9689
:100D02000895A091CD00AF5FA093CD00A53018F05B
:100D1200E0E0E093CD006ADBE091CD00EA93ABDE48
:100D2200E091CC00E03009F40895E0E0F5E0FA93B8
:100D3200EA93EFEFFFE7FA93EA93D6DEE8E6F5E00F
:100D4200FA93EA93E0E8F1E0FA93EA93E091CD00B6
:100D5200EA934BDEEFEFF0E0FA93EA93F1DDE5EA96
:100D6200F6E0FA93EA93E1E0EA93E0E0EA93E0E066
:100D7200F5E0FA93EA93EA93E5DE8CDC45DB24970F
:100D820084E0A0E0B0E0EEE5F0E05BD6E8E6F5E076
:100D9200E883F983E0E0EA83EB83AA81BB81AD3388
:100DA200E1E0BE07C8F4E9E6F1E0FA93EA93AA812A
:100DB200BB81EC91FF27662777272DD684E026D4C6
:100DC2002696E881F9813196E883F983EA81FB81ED
:100DD2003196EA83FB83E1CFE1E5F1E0FA93EA930E
:100DE200E5EAF6E060E070E016D684E00FD42696DD
:100DF2002496E0E0F5E0E093C400F093C500DCD176
:100E02000895E0E0EBBBEABBE8BBEFEFE7BBE0E055
:100E1200E5BBE4BBE2BBE1BBE7B9E5E0E6B9E3E091
:100E2200E3BFE5E0E2BFE0E0E1BFEBB9E8E9EAB940
:100E3200E6E8E0BDE0E0E0BDE7E6E9B9E0E8E5BF0D
:100E4200E0E0E6BFE2E0E9BF93D4E0E0EA93EA93B0
:100E5200E1E0EA93F6D3EFE6F1E0FA93EA9380E079
:100E6200D5D32296ECE9F1E0FA93EA9380E0CED36F
:100E72002296EAECF1E0FA93EA9380E0C7D3229655
:100E8200E8EFF1E0FA93EA9380E0C0D32296E6E23B
:100E9200F2E0FA93EA9380E0B9D32296E4E5F2E035
:100EA200FA93EA9380E0B2D32296E2E8F2E0FA9370
:100EB200EA9380E0ABD32296E0EBF2E0FA93EA9376
:100EC20080E0A4D32296E8EFF1E0FA93EA9380E07F
:100ED2009DD32296EFE6F1E0FA93EA9380E096D36F
:100EE2002296A895269786E0A0E0B0E0E2E6F0E040
:100EF200A8D5FE013296FA93EA93FE013396FA934D
:100F0200EA93FE013496FA93EA93F3D3FE013596FF
:100F1200FA93EA93FE013696FA93EA93FE01379624
:100F2200FA93EA93A9D3EEEDF2E0FA93EA93EF8112
:100F3200FF27662777276FD5EA85FF27662777275A
:100F42006AD5ED85FF276627772765D5E889FF27CC
:100F52006627772760D5EB89FF27662777275BD53A
:100F6200EE89FF276627772756D588E14FD36A9601
:100F72002696A8950895E0E0F5E0E093C400F0938A
:100F8200C500EFEFFFE7E093C600F093C700E0E093
:100F9200F5E0E093CA00F093CB0033DFC498E0E0C1
:100FA200F5E0FA93EA93EFEFFFE7FA93EA939CDD19
:100FB200E4EFF1E0FA93EA9342D4C49AC498E0E0F1
:100FC200E093CD009EDEC49AC498E4E6F0E0FA9382
:100FD200EA9335D4C49AE0E0E2BBEFE3E1BB0895C3
:100FE200F894A89503DAE82DE130E1F5E8EFFEE0A8
:100FF200E915FA0510F49E2EAF2EE0E0F5E0FA9323
:10100200EA93EFEFFFE7FA93EA936EDDA092CD0049
:10101200E92DFA2DE093CC00B092D000C092D1001D
:10102200E8E6F5E0FA93EA93E091D000F091D1007E
:10103200FA93EA9366DCE0E0F5E0E093C400F09313
:10104200C500E091CD00EA933ADDE8E6F5E0FA93D7
:10105200EA93E0E8F1E0FA93EA93E091CD00EA93B3
:101062008ADC10C0E23059F4A092CD00E92DFA2DAD
:10107200E093CC00E091CD00EA9321DD03C0E330A0
:1010820009F445DD7BD088247894E0E0E2BBEFE30D
:10109200E1BB0895E4B7E3FF05C0E4B7E07EE4BF37
:1010A2008BD003C0E4B7E07EE4BF65DF789488208C
:1010B20011F096DF02C0B0DA61DAA895F8CF00002D
:1010C200FECFAA93BA93EA93FA93EFB7EA93ACD41A
:1010D2000BB11CB1E02FEC7109F048C0AD2DB0E0AE
:1010E200AA5BBE4F1C93D394E8E0ED1509F4DD240E
:1010F200E394E8E0EE15D1F5EE24A0914601AA3A78
:1011020041F4E0914701EA3A21F4E0914801EA3AD8
:1011120009F01DC08090490190904A01AA24F92D3E
:10112200E0E0DF01E0914B01F0E0EA2BFB2B9E2E89
:10113200AF2EB0904C01CC24FB2DE0E0DF01E0911A
:101142004D01F0E0EA2BFB2BBE2ECF2E0FC0A0915B
:101152004601AF3F41F4E0914701EF3F21F4E091B6
:101162004801EF3F09F002C0DD24EE2467D4E99183
:10117200EFBFF991E991B991A9911895EAEAEA9339
:10118200B3D0EAEAEA93B0D0EAEAEA93ADD08A921F
:10119200ABD0EA2DF070EA93A7D0E92DFA2DF070CA
:1011A200EA93A2D0EC2DF070EA939ED0EB2DFC2DA9
:1011B200F070EA9399D00895DD24EE2488240895EE
:1011C2000A93DBD2EB81EA930CD3EA81F070EA93C3
:1011D20008D3E981FA81F070EA9303D3CED2EB818E
:1011E200E160EA93FED2E0E0EA93E0D20E2FD4D29D
:1011F200E02F088116C0C1D2EB81EA93F2D2EA81D4
:10120200F070EA93EED2E981FA81F070EA93E9D2C2
:10121200E881EA93E6D2C0D2EAE0F0E0FA93EA93F8
:101222000ED32496089500D400E010E0EC81EA93F6
:10123200EB81FC81FA93EA93C3DF0E2F1127F02F83
:10124200E0E0FF93EF93EC81EA93EB81FC8131962E
:10125200FA93EA93B5DFAF91BF91F0E0EA2BFB2B53
:101262008F01F801E8D3259608950A9300E085D20C
:10127200EE81EA93B6D2ED81F070EA93B2D2EC81BC
:10128200FD81F070EA93ADD278D2EE81E160EA930B
:10129200A8D2E981E1500E1780F4E02F0F5FAA81F6
:1012A200BB81F0E0EA0FFB1FFF93EF93E1E0EA93CB
:1012B2007DD2AF91BF91EC93ECCFE981E150AA814D
:1012C200BB81F0E0EA0FFB1FFF93EF93E0E0EA93AC
:1012D2006DD2AF91BF91EC935FD2088127960895AA
:1012E2005F9BFECFECB108955D9BFECFE881ECB928
:1012F20021960895A881B98186D3309749F0ED915E
:10130200FD913196FE93EE933197AA81A08303C09B
:10131200EA81EA93E9DF2AC2269782D300E0E889CC
:10132200F9893196E88BF98B3197E4913E2FE030C1
:1013320009F44AC1E02FE03059F4353211F401E0EA
:1013420006C03A93ED85FE85FA93EA93D3DF3BC15B
:10135200E130C9F4353239F43A93ED85FE85FA93DA
:10136200EA93C8DF2FC102E050E010E03D3211F4F1
:1013720011E029C13B3211F45BE225C1303211F494
:1013820050E221C102C0E23039F440E003E03033E0
:1013920011F4106818C103C0E33009F014C13033EE
:1013A20010F03A3308F009C0A42FEAE0EA9FF001F6
:1013B2004E2FE32FE0534E0F06C1E32FE33671F4B5
:1013C200AE85BF851497AE87BF871496EC91EA93DA
:1013D200ED85FE85FA93EA938DDFF4C0E33771F46D
:1013E200AE85BF851497AE87BF8714960CD3EE8364
:1013F200FF83FA93EA930ED20E2F10C0E03791F4D6
:10140200AE85BF851497AE87BF871496FCD2EE8354
:10141200FF83FA93EA9308D20E2F186012601F77A7
:1014220020E03CC0E43611F0E93611F4146002C049
:10143200E53731F4E8E6F0E0EE83FF8305E00CC027
:10144200E83511F4186003C0E83709F0BBC0E2E7E1
:10145200F0E0EE83FF8304E012FF17C0AE85BF8584
:101462001497AE87BF871496CED2EA87FB87AA85E8
:10147200BB85109724F471D2EA87FB875DE2503076
:1014820011F00F5F01C01B7F09C0AE85BF851497A5
:10149200AE87BF871496B7D2EA87FB8710FD15C0C7
:1014A200041798F417FF08C012FF04C01B7F352FE2
:1014B200015001C030E301C030E23A93ED85FE8570
:1014C200FA93EA9317DF4150EBCF202F11FF1DC093
:1014D2002030D1F013FF08C0EE81FF813196EE83F8
:1014E200FF833197E49105C0AE81BF81ED91AE8358
:1014F200BF83EA93ED85FE85FA93EA93FBDE4030E3
:1015020009F041502150E4CF50C030E3EE81FF8119
:101512003296EE83FF8332977AD2E887F987E8859D
:10152200F985AA85BB85AE17BF0750F03F5FA88536
:10153200B985EA85FB85EA1BFB0BEA87FB87EFCFC0
:101542003A3328F013FF02C0395F01C0395D14FD40
:101552001DC0313320F4A885B985119709F409C05B
:10156200421710F010FF01C01AC030E217FF0EC080
:1015720030E3106112FF0AC01B7F5A93ED85FE858E
:10158200FA93EA93B7DE403009F041503A93ED8581
:10159200FE85FA93EA93AEDE403009F041502150C5
:1015A200A885B985129708F0B0CF10FF0BC0403064
:1015B20049F04150E0E2EA93ED85FE85FA93EA9321
:1015C20099DEF5CF00E0ABCE32D262960895FF925B
:1015D200F82E229729D2DE01BCD18D01DE011696AA
:1015E200B8D111D2EA83FB83DE011496B2D10BD2B9
:1015F200FA93EA931A930A93FE013696FA93EA93C0
:101602008BDEAA81BB81E0E0EC9317C0FF92F82E3B
:1016120022970AD2DE019DD18D01E0E0EA83EB83BD
:10162200DE01149696D1EFD1FA93EA931A930A93B4
:10163200FE013696FA93EA936FDEFDD12496FF906F
:101642000895EA81E370EA83E981E03019F0EA81E2
:10165200E061EA83E881E03019F0EA81E068EA8338
:101662008CD0E0EDEA93BDD0E7E0EA93BAD0EA810C
:10167200EA93B7D091D07AC080D0E0EDEA93B1D0AE
:10168200E0E0EA93AED079D0E1EDEA93AAD0E1E0CE
:10169200EA938CD0EA93DFD0A881B981EC93E1E0A0
:1016A200EA9384D0EA93D7D0AA81BB81EC93E0E09D
:1016B200EA937CD0EA93CFD0AC81BD81EC936CD01D
:1016C2003CC05BD0E0EDEA938CD0E0E0EA9389D0B5
:1016D200E881EA93CCD0EA9384D0E981EA93C7D037
:1016E200EA937FD0EA81EA93C2D0EA937AD054D0C7
:1016F2003DC043D0E0EDEA9374D0E4E0EA9371D0C8
:101702003CD0E1EDEA936DD0E1E0EA934FD0EA9369
:10171200A2D0AC81BD81EC93E1E0EA9347D0EA9399
:101722009AD0AA81BB81EC93E0E0EA933FD0EA939E
:1017320092D0A881B981EC932FD0269608951DD01E
:10174200E0EDEA934ED0E4E0EA934BD0EA81EA93EB
:101752008ED0EA9346D0E981EA9389D0EA9341D0C8
:10176200E881EA9384D0EA933CD016D02396089578
:10177200929893988A9A8B9815C08B988A98EE279C
:101782000000839B0895829B089504D08B9A02D017
:101792008A9AE1E06BE107C08B9A8A9A03D08A9811
:1017A200F9DF8B9865E36A95F1F7089578E08A98F6
:1017B200F1DF829BFECFEEDF8894839908948A9AA8
:1017C200F1DFEE1F7A9599F77991772311F48B98CF
:1017D20001C08B9ADFDF8A98E5DF8A9ADBDF8B987C
:1017E200D9CFE99178E0EE0F10F48B9801C08B9A73
:1017F200D9DF8A98CFDF829BFECFCCDF8A9A7A9597
:1018020091F78B98C7DF8A98CDDFE1E08399EE27C5
:101812008A9A0895A991B991EE27FF276D916623BF
:1018220011F03196FBCF0895AA27BB27E991F991D0
:101832000590002011F01196FBCFFD010895E9916A
:10184200F991309639F080EA9FE00197F1F7A89577
:101852003197C9F70895E881E295EF70AE2FAA0F8C
:10186200AA0FEA0FEE0FA991AF70EA0F0895A9919E
:10187200EE27AA5012F0E05FFCCFA65FEA0F0895B0
:10188200EE2795988D9A80E897E00197F1F78D9869
:101892008BE48A95F1F7859B089580E391E00197A7
:1018A200F1F7859BE39588E196E00197F1F70895BA
:1018B2008D9A8BE08A95F1F78D988BE38A95F1F7F3
:1018C200889485990894E79580E491E00197F1F76F
:1018D2000895E8948D9A8BE08A95F1F770FD8D98C2
:1018E20085E48A95F1F7859903C070FF03C00895D6
:1018F20070FF08958CE291E00197F1F78D988BE1EA
:101902008A95F1F76894089568E0D2DF6A95E9F75D
:10191200089568E07991EE27DCDF26F477956A95E1
:10192200D9F7E3950895EE278881882381F068E14D
:10193200A981BA8198E0FD917F2F7E27779508F4DF
:10194200E627E795F6959A95B9F78A9599F723963A
:1019520008950024AF0DB01D0895E095F0953196DD
:101962000895EE230E2EEA2F19F0E6950A94E9F770
:101972000895EE0FFF1FEE0FFF1FEE0FFF1FEE0F7A
:10198200FF1F08956F2F660F660B762F0895FA9F3B
:10199200F02DEB9FF00DEA9FE02DF10D089525D07B
:1019A200F6DF0EF4DADF08950024112490E1AA0F85
:1019B200BB1F001C111C0E1A1F0A18F40E0E1F1E4C
:1019C20001C0A1609A9599F7FD01D0010895E894AC
:1019D200B7FF04C0A095B09511966894F7FDBDDFDE
:1019E200E3DFFD010EF4B9DF0895E894F7FF02C0CA
:1019F200B4DF6894B7FF06C0A095B095119600F8C1
:101A0200039400FA0895ED91FC91119708950590C1
:101A1200F491E02D08957A936A93FA93EA930895E4
:101A22005A934A933A932A931A930A9308955D819B
:101A32004C813B812A81198108810895099119916C
:101A42000895AC0FBD1F05900D928A95E1F7089598
:00000001FF
