:0A0000004EC1FECFFDCFFCCFFBCFB9
:10000A00FACFF9CF77C1F7CF71C7F5CFF4CFF3CFD6
:10001A00F2CFF1CFF0CFEFCF2A2A2043756F6E6768
:10002A0051756179203039313536353130303120EA
:10003A002A2A0000A00060C9460054D92E00A0D484
:10004A00540050DA3E0052752A00A0564E00A7A767
:10005A003800D0A55E00B0924A00B5AA320050A975
:10006A005800A0B44200A4BA2C0050AD5000D95593
:10007A003C00A04B6200B0A54C007651370070528C
:10008A005C003069460034793000A06A540050ADF3
:10009A003E00525B2A00604B5000E6A63800E0A4FE
:1000AA005E0060D2480065EA320020D55600A0DA28
:1000BA004000A3562D00D0565200FB4A3C00D049BE
:1000CA006200D0A44C00B6D0370050B25A0020B516
:1000DA00440025DD2E00A0B55400D0553E00B2558F
:1000EA002A00B049500077A53A00B0A45E0050AA91
:1000FA00480055B23300206D580060AD4000634B94
:10010A002D0070535200E8493E0070C96000B05497
:10011A004C00A668370050DA5A00A05A4400A4A638
:10012A002F00D0AA5400E0524000E3D2280050C960
:10013A004E0057D53800A0D45E0050D94600555D10
:10014A003200A0565800D0A64200D4552C00B05216
:10015A005200B8A93C0030A9620090B44A00A6B681
:10016A00340050AD5A00A055460064AB2E0070A56D
:10017A005400B052400073B12A0030694E00376B08
:10018A003800A06A5E0050AD4800D52A3300602BC3
:10019A00580070A54200E4522E0060D1500058E980
:1001AA003A0020D5600090DA4A00A65A3500D056A7
:1001BA005A00E02A4600D4A93000D0A2540050D1F7
:1001CA003E0052E928000000000000000000000084
:1001DA000000000000001D001E00000000000000DA
:1001EA0000001027E80364000A0001000010000163
:1001FA00100001004261792067696F206C61202537
:10020A003032642067696F20253032642070687547
:10021A0074202530326420676961792E204E676127
:10022A00792025303264207468616E672025303267
:10023A0064206E616D202530303034642E00696E82
:10024A006465783D2564200D0A004C434D532076A1
:10025A00322E3032200D0A0042A979206769EA203D
:10026A006CB520253032643A25303264206E67B589
:10027A00792025642F25642F2564202825642F25BD
:10028A006420A26D206CDE63682900004A00FD002C
:10029A00FE010000F894EE27ECBBF1E0FBBFEBBFD8
:1002AA00E5BFE6BFF8E1F1BDE1BD8DE0A2E0BB2705
:1002BA00ED938A95E9F780E092E0A0E6ED93019745
:1002CA00E9F7E6E9F2E085919591009761F0A59149
:1002DA00B59105901590BF01F00105900D92019717
:1002EA00E1F7FB01F0CFEFE5EDBFE2E0EEBFC0EED4
:1002FA00D0E0E5C5EA93FA93EFB7EA93E5E0E2BF07
:10030A00E091ED00F091EE003196E093ED00F0936C
:10031A00EE00E991EFBFF991E99118950A9300E08F
:10032A0000E0083080F4E7E0F0E0E419F509A02FD6
:10033A00B0E0EA17FB0711F4959801C0959A939AD1
:10034A0093980F5FEECF0CC00A9300E0959A00E0F5
:10035A00083020F4939A93980F5FFACF949A94985E
:10036A0009910895662477244424552421FE02C065
:10037A00EBDF0895E091E000F091E100E093E40002
:10038A00F093E500A091E400B091E500AF3FEFE7FC
:10039A00BE0708F0D5C023FE43C0E8E0F0E08E16A1
:1003AA009F0624F5E7E0F0E0E819F909E415F505F8
:1003BA0080F4D401E0ECFEE078D9A091E400B09199
:1003CA00E500AE0FBF1FA050B647EC91E695E69543
:1003DA000BC0D401E0ECFEE068D9A091E400B09132
:1003EA00E500AE0FBF1FEC91E8BB19C0E0E1F0E0F9
:1003FA00E819F9094E165F0680F4D4011897E0EC63
:10040A00FEE053D9A091E400B091E500AE0FBF1F02
:10041A00EC91E695E695EC6C01C0EFEFE8BB61C0A4
:10042A0024FE43C0E8E0F0E08E169F061CF548144F
:10043A00590498F4E091E400F091E500E050FA489C
:10044A00BF01D401E0ECFEE030D9DB01AE1BBF0BEB
:10045A00EC91EE0FEE0FE3630BC0D401E0ECFEE08B
:10046A0024D9A091E400B091E500AE1BBF0BEC913A
:10047A00E8BB1AC0F4013897E415F50598F4E09141
:10048A00E400F091E500E050FA48BF01D401E0EC45
:10049A00FEE00BD9DB01AE1BBF0BEC91EE0FEE0FAA
:1004AA00E36301C0EFEFE8BB1CC020FE14C0A091BB
:1004BA00E400B091E5006C91F201A0EAB0E0EDD859
:1004CA00E60DF71DA091E600B091E700AE0FBF1F41
:1004DA00EC91E62305C0A091E400B091E500EC910F
:1004EA00E8BBE8B3EA6FE8BB3A9A3A98F301319667
:1004FA003F01E03AA0E0FA07C8F06624772424DF37
:10050A000DDF949A9498389A3898F20131962F010F
:10051A00389710F044245524E091E400F091E50066
:10052A00E05EF14FE093E400F093E500E091E4002F
:10053A00F091E5003196E093E400F093E50022CFD4
:10054A00089538983A98E091EA00A091ED00B091A8
:10055A00EE00F0E0AE17BF0708F454C1E0E0E09304
:10056A00ED00E093EE00E89420F8E091EB00E13032
:10057A0009F448C1E030C9F4E091E000F091E100EB
:10058A003196E093E000F093E1003197E091F100B9
:10059A00F091F200E055F54FA091E000B091E10032
:1005AA00AE17BF0708F0AFD22DC1E23009F04DC037
:1005BA00A091E000B091E100A03AEAE0BE0750F451
:1005CA00E091E000F091E100B096E093E000F09352
:1005DA00E1003AC021FC13C0A091F300B091F400ED
:1005EA001196A093F300B093F400D39738F068946F
:1005FA0021F8E0E0E093F300E093F40025C0A09135
:10060A00F300B091F4001196A093F300B093F400B4
:10061A00A536E0E0BE07C0F0E89421F8E0E0E093F8
:10062A00F300E093F400A091F500B091F600119662
:10063A00A093F500B093F600149730F0E0E0E09351
:10064A00F500E093F6005FD2DDC0E330D9F4E09123
:10065A00E000F091E1003196E093E000F093E100D0
:10066A003197689420F8E091F100F091F200E0559A
:10067A00F54FA091E000B091E100AE17BF0708F076
:10068A0042D2C0C0E43009F053C0A091E000B0915A
:10069A00E100A03AEAE0BE0730F4E091E000F09110
:1006AA00E100389632C0A091E000B091E100A03A92
:1006BA00EAE0BE0720F0A83AEAE0BE0708F01EC04A
:1006CA0022FC03C0689422F818C0A091F300B091EC
:1006DA00F4001196A093F300B093F400A536E0E07D
:1006EA00BE0758F0E89422F8E091E000F091E100AA
:1006FA003896E093E000F093E1000BC022FC09C0B9
:10070A00E091E000F091E1003196E093E000F0938F
:10071A00E100E091F100F091F200E055F54FA0916F
:10072A00E000B091E100AE17BF0708F0ECD16AC053
:10073A00E53099F523FE1CC022FC0AC0F40131966B
:10074A004F01709724F0E89424F823F8DCD10FC005
:10075A00A091F300B091F4001196A093F300B09326
:10076A00F400A536E0E0BE0710F0E89422F814C0C1
:10077A0024FE12C0F40131974F01DF01109764F48F
:10078A0088249924E89424F8689423F822F8E0E06D
:10079A00E093F300E093F40035C0E63099F524FEC7
:1007AA001CC022FC0AC0F40131964F01709724F054
:1007BA00E89424F823F8A7D10FC0A091F300B091D0
:1007CA00F4001196A093F300B093F400A536E0E08C
:1007DA00BE0710F0E89422F815C023FE13C0F401F6
:1007EA0031974F01DF0110976CF48824992468949B
:1007FA0024F8E89423F8689422F8E0E0E093F30000
:10080A00E093F400089584D700E010E020E030E09F
:10081A0040E050E009851A85C49840E050E048302D
:10082A00E0E05E0710F520E030E0EF81F8852E1752
:10083A003F0768F41F930F930F5F1F4FB7D4E095DC
:10084A00AF91BF91EC93A8952F5F3F4FEECFEE810A
:10085A00E03041F4AF81B885E0ECFEE0EA1BFB0B27
:10086A000E0F1F1F4F5F5F4FDACFC49A58D72B96D0
:10087A00089522960895239608954BD700E010E034
:10088A0020E03AE040EAED81EE0F4E0F0F81188525
:10089A006BD6C498EE81E03011F42FEF3FE70F8159
:1008AA0018850217130760F4A8954A931A930A93B6
:1008BA001A930A93E0E4EA9351D4005C1F4FF1CFF4
:1008CA00C49AE0E0E2BBEFE3E1BB2AD72996089598
:1008DA00219781E0A0E0B0E0EEE3F0E02AD718D754
:1008EA0000E010E020E030E040E050E0EF81EE0F61
:1008FA00AE81EA0FEE830B851C85A985BA85A13CDA
:10090A00EEE0BE0718F00BD72D960895E985FA8513
:10091A00EF7359F0A985BA85E0E4F0E0CBD6B8D6F2
:10092A00B3D6E05CFF4FE987FA871ED6C49840E049
:10093A0050E04830E0E05E0720F520E030E0E9854D
:10094A00FA852E173F0778F4EE81EA931A930A93F1
:10095A001A930A93E0E4EA93C6D3005C1F4FA89562
:10096A00205C3F4FECCFE885E03041F4A985BA8599
:10097A00E0ECFEE0EA1BFB0B0E0F1F1F4F5F5F4F01
:10098A00D8CFC49AE0E0E2BBEFE3E1BBC8D62D962C
:10099A0008950A9300EAE981EE0F0E0FE5D5C49A8D
:1009AA000A93E0E0F0E0FA93EA9331D3E093EB00A4
:1009BA000A93E1E0F0E0FA93EA9329D3E093EA009C
:1009CA000A93E2E0F0E0FA93EA9354D3E093F10059
:1009DA00F093F2000A93E4E0F0E0FA93EA934AD340
:1009EA00E093EF00F093F000A091F100B091F200D3
:1009FA00A13CEEE0BE0728F0E0E0E093F100E093CE
:100A0A00F200A091EF00B091F000A030E1E0BE0743
:100A1A0028F0E0E0E093EF00E093F000C498E0E013
:100A2A00E2BBEFE3E1BB088190C10A9300EAE981E6
:100A3A00EE0F0E0F99D5C49A0A93E0E0F0E0FA930C
:100A4A00EA93E091EB00EA93FDD20A93E1E0F0E049
:100A5A00FA93EA93E091EA00EA93F4D2C498E0E0C8
:100A6A00E2BBEFE3E1BB088170C10A9300EAE981C6
:100A7A00EE0F0E0F79D5C49A0A93E2E0F0E0FA93EA
:100A8A00EA93ED81FE81FA93EA9315D30A93E4E09F
:100A9A00F0E0FA93EA93E091EF00F091F000FA9314
:100AAA00EA9309D3C498E0E0E2BBEFE3E1BB088133
:100ABA002496089531D600E015E00C811D81EA8163
:100ACA00FB81E017F10730F0D801EFEFEC930F5FED
:100ADA001F4FF5CF28D62696089546D5C49866D3D3
:100AEA00EA9364D3EA9362D3EA9325D55FD3EA9370
:100AFA005DD3EA935BD3EA9306D5C49AE0E0E2BBFE
:100B0A00EFE3E1BB0895E89422F8E0E0E093F30014
:100B1A00E093F400A091EC00AF5FA093EC00A43046
:100B2A0018F0E0E0E093EC000FDCE091EC00EA93CF
:100B3A0030DFE0E0F5E0FA93EA93EFEFFFE7FA93AC
:100B4A00EA93B8DFE091EF00F091F000FA93EA93AC
:100B5A00E091EC00EA938FDEA091EB00A830F1F06F
:100B6A00E0E0F5E0FA93EA93E0EAF0E0FA93EA9338
:100B7A00E1E0EA93E091EC00EA93AADEE0EAFAE027
:100B8A00FA93EA93E091F100F091F200FA93EA9372
:100B9A00E0E0EA93E091EC00EA939ADEE8E4F2E01E
:100BAA00FA93EA93E091EC00FF2766277727ABD503
:100BBA0084E073D42696E091EB00E13061F4E0E042
:100BCA00E093F700E093F800E0E0FAE0E093E00059
:100BDA00F093E1003FC0E03011F0E23009F402C0C6
:100BEA00E43069F4EFEFF0E0E093F700F093F800F7
:100BFA00E0E0FAE0E093E000F093E1002BC0E5309A
:100C0A00A1F4E89423F8689424F8EFEFF0E0E09375
:100C1A00F700F093F800E0E1F0E04F01E0EAFAE0D3
:100C2A00E093E000F093E10015C0E63099F468948F
:100C3A0023F8E89424F8EFEFF0E0E093F700F0935C
:100C4A00F800E0E1F0E04F01E0EAFAE0E093E000CA
:100C5A00F093E100D5D10895E0E0EBBBEABBE8BB35
:100C6A00EFEFE7BBE0E0E5BBE4BBE2BBE1BBE7B922
:100C7A00E5E0E6B9E3E0E3BFE5E0E2BFE0E0E1BFDB
:100C8A00EBB9E8E9EAB9E6E8E0BDE0E0E0BDE7E6AD
:100C9A00E9B9E0E8E5BFE0E0E6BFE2E0E9BF64D435
:100CAA00E0E0EA93EA93E1E0EA9312D4EFE1E1BDEE
:100CBA00EFE0E1BD0895E0E0FAE0E093E000F093B0
:100CCA00E100EFEFFFE7E093E200F093E300E0E0FA
:100CDA00F5E0E093E600F093E700E0E0FAE0E09365
:100CEA00E800F093E900B8DFC498E0E0F5E0FA9391
:100CFA00EA93EFEFFFE7FA93EA93DCDEE4EFF1E041
:100D0A00FA93EA9398D4C49AEFEFFFEFE093FB00CB
:100D1A00F093FC00E093F900F093FA00C498E0E045
:100D2A00E093EC00F0DEC49AC498E4E6F0E0FA93AB
:100D3A00EA9381D4C49AE0E0E2BBEFE3E1BBE4E5E5
:100D4A00F2E0FA93EA9380E0A8D322960895F89401
:100D5A00A895FADAEA2DE13009F065C0E0ECFEE088
:100D6A00EB15FC0510F4BE2ECF2EE0E0FAE0FA9364
:100D7A00EA93EFEFFFE7FA93EA939CDEE092EC0046
:100D8A00ED2DFE2DF070E093EF00F093F000B0929D
:100D9A00F100C092F200E0EAFAE0FA93EA93E091F5
:100DAA00F100F091F200FA93EA93E0E0EA932BDD86
:100DBA00E091EF00F091F000FA93EA935ADDE0EA4D
:100DCA00FAE0E093E000F093E100E0E0F5E0E09380
:100DDA00E600F093E700E091EF00F091F000FA935B
:100DEA00EA93E091EC00EA9346DDE0E0FAE0FA9358
:100DFA00EA93EA93E091EC00EA933FDDE091F10097
:100E0A00F091F200FA93EA93E091EC00EA932DDE76
:100E1A00EFEFFFEFE093F900F093FA00E093FB00A5
:100E2A00F093FC0044C0E23081F5E0EAF0E0EB1513
:100E3A00FC0510F4BE2ECF2EE092EC00E0E0F5E0C7
:100E4A00FA93EA93E0E0FAE0FA93EA9333DEE0E019
:100E5A00F5E0FA93EA93CA92BA92E1E0EA93D3DC14
:100E6A00E0EAFAE0E093E000F093E100E0E0F5E088
:100E7A00E093E600F093E700FA93EA93E1E0EA935D
:100E8A00E091EC00EA93F9DC12C0E53069F4E092F3
:100E9A00EC00EB2DFC2DE093EB00C092EA00E09110
:100EAA00EC00EA93C2DD03C0E43009F416DE8AD00E
:100EBA00AA247894E0E0E2BBEFE3E1BB0895E4B74B
:100ECA00E3FF05C0E4B7E07EE4BF9AD003C0E4B70D
:100EDA00E07EE4BFF0DE7894AA2011F038DF02C089
:100EEA0030DB40DAA895F8CF0000FECFAA93BA9378
:100EFA00EA93FA93EFB7EA930FD40BB11CB1E02F40
:100F0A00EC7109F057C0A0914F01B0E0A95BBE4F48
:100F1A001C93A0914F01AF5FA0934F01A83019F421
:100F2A00E0E0E0934F01A0915001AF5FA093500120
:100F3A00A83009F03FC0E0E0E0935001A0914701DA
:100F4A00A53541F4E0914801E53521F4E0914901E4
:100F5A00E53509F01DC0A0904A01B0904B01CC24A0
:100F6A00FB2DE0E0DF01E0914C01F0E0EA2BFB2BE6
:100F7A00BE2ECF2ED0904D01EE24FD2DE0E0DF01F4
:100F8A00E0914E01F0E0EA2BFB2BDE2EEF2E12C091
:100F9A00A0914701AF3F41F4E0914801EF3F21F4AE
:100FAA00E0914901EF3F09F005C0E0E0E0934F010D
:100FBA00E0935001BBD3E991EFBFF991E991B9915F
:100FCA00A9911895E5E5EA93F5D0E5E5EA93F2D01B
:100FDA00E5E5EA93EFD0AA92EDD0EC2DF070EA9312
:100FEA00E9D0EB2DFC2DF070EA93E4D0EE2DF070F1
:100FFA00EA93E0D0ED2DFE2DF070EA93DBD0089550
:10100A00E0E0E0934F01E0935001AA2408950A9387
:10101A00B0D2EB81EA93E1D2EA81F070EA93DDD2B1
:10102A00E981FA81F070EA93D8D2A3D2EB81E16028
:10103A00EA93D3D2E0E0EA93B5D20E2FA9D2E02FF9
:10104A00088116C096D2EB81EA93C7D2EA81F07082
:10105A00EA93C3D2E981FA81F070EA93BED2E881B9
:10106A00EA93BBD295D2EAE0F0E0FA93EA93E3D2AC
:10107A002496089551D300E010E0EC81EA93EB81C5
:10108A00FC81FA93EA93C3DF0E2F1127F02FE0E0D9
:10109A00FF93EF93EC81EA93EB81FC813196FA930B
:1010AA00EA93B5DFAF91BF91F0E0EA2BFB2B8F01FA
:1010BA00F80139D316C0EC81EA93EB81FC81FA93EB
:1010CA00EA93EC81F070EA93BDDFEC81EA93EB815D
:1010DA00FC813196FA93EA93EB81FC81F070EA93F2
:1010EA00B1DF259608950A9300E043D2EE81EA9390
:1010FA0074D2ED81F070EA9370D2EC81FD81F070C8
:10110A00EA936BD236D2EE81E160EA9366D2E98144
:10111A00E1500E1780F4E02F0F5FAA81BB81F0E047
:10112A00EA0FFB1FFF93EF93E1E0EA933BD2AF9103
:10113A00BF91EC93ECCFE981E150AA81BB81F0E049
:10114A00EA0FFB1FFF93EF93E0E0EA932BD2AF91F4
:10115A00BF91EC931DD20881279608950A9300E067
:10116A0008D2EE81EA9339D2ED81F070EA9335D252
:10117A00EC81FD81F070EA9330D2E9810E1768F4B0
:10118A00E02F0F5FAA81BB81F0E0AE0FBF1FEC9189
:10119A00EA9323D200000000F0CFFAD1EAE0F0E0AF
:1011AA00FA93EA9348D20881279608955F9BFECF67
:1011BA00ECB108955D9BFECFE881ECB921960895C4
:1011CA00A881B98198D2309749F0ED91FD91319675
:1011DA00FE93EE933197AA81A08303C0EA81EA9332
:1011EA00E9DFC0C1269794D200E0E889F9893196EF
:1011FA00E88BF98B3197E4913E2FE03009F44AC12C
:10120A00E02FE03059F4353211F401E006C03A9388
:10121A00ED85FE85FA93EA93D3DF3BC1E130C9F449
:10122A00353239F43A93ED85FE85FA93EA93C8DFAD
:10123A002FC102E050E010E03D3211F411E029C163
:10124A003B3211F45BE225C1303211F450E221C184
:10125A0002C0E23039F440E003E0303311F41068A0
:10126A0018C103C0E33009F014C1303310F03A3327
:10127A0008F009C0A42FEAE0EA9FF0014E2FE32FFD
:10128A00E0534E0F06C1E32FE33671F4AE85BF85F6
:10129A001497AE87BF871496EC91EA93ED85FE8585
:1012AA00FA93EA938DDFF4C0E33771F4AE85BF8514
:1012BA001497AE87BF8714961ED2EE83FF83FA93E4
:1012CA00EA93A4D10E2F10C0E03791F4AE85BF8502
:1012DA001497AE87BF8714960ED2EE83FF83FA93D4
:1012EA00EA939ED10E2F186012601F7720E03CC04F
:1012FA00E43611F0E93611F4146002C0E53731F42E
:10130A00ECEEF1E0EE83FF8305E00CC0E83511F462
:10131A00186003C0E83709F0BBC0E6EFF1E0EE83DE
:10132A00FF8304E012FF17C0AE85BF851497AE870E
:10133A00BF871496E0D1EA87FB87AA85BB851097F9
:10134A0024F49ED1EA87FB875DE2503011F00F5FEB
:10135A0001C01B7F09C0AE85BF851497AE87BF87C2
:10136A001496C9D1EA87FB8710FD15C0041798F4B3
:10137A0017FF08C012FF04C01B7F352F015001C0A0
:10138A0030E301C030E23A93ED85FE85FA93EA93A1
:10139A0017DF4150EBCF202F11FF1DC02030D1F0B5
:1013AA0013FF08C0EE81FF813196EE83FF833197E8
:1013BA00E49105C0AE81BF81ED91AE83BF83EA930C
:1013CA00ED85FE85FA93EA93FBDE403009F0415041
:1013DA002150E4CF50C030E3EE81FF813296EE8394
:1013EA00FF8332978CD1E887F987E885F985AA8542
:1013FA00BB85AE17BF0750F03F5FA885B985EA8560
:10140A00FB85EA1BFB0BEA87FB87EFCF3A3328F011
:10141A0013FF02C0395F01C0395D14FD1DC03133AD
:10142A0020F4A885B985119709F409C0421710F06C
:10143A0010FF01C01AC030E217FF0EC030E310617E
:10144A0012FF0AC01B7F5A93ED85FE85FA93EA9331
:10145A00B7DE403009F041503A93ED85FE85FA93A4
:10146A00EA93AEDE403009F041502150A885B98593
:10147A00129708F0B0CF10FF0BC0403049F041502E
:10148A00E0E2EA93ED85FE85FA93EA9399DEF5CFD9
:10149A0000E0ABCE44D162960895FF92F82E2297CF
:1014AA003BD1DE01E9D08D01E0E0EA83EB83DE0186
:1014BA001496E2D020D1FA93EA931A930A93FE0182
:1014CA003696FA93EA938EDE2ED12496FF900895EB
:1014DA00EA81E370EA83E981E03019F0EA81E061A8
:1014EA00EA83E881E03019F0EA81E068EA8341D0D2
:1014FA00E0EDEA9372D0E7E0EA936FD0EA81EA93EB
:10150A006CD046D02FC035D0E0EDEA9366D0E0E04B
:10151A00EA9363D0E881EA93A6D0EA935ED0E981A0
:10152A00EA93A1D0EA9359D0EA81EA939CD0EA934C
:10153A0054D02ED017C01DD0E0EDEA934ED0E4E08F
:10154A00EA934BD0EA81EA938ED0EA9346D0E981B6
:10155A00EA9389D0EA9341D0E881EA9384D0EA9366
:10156A003CD016D023960895929893988A9A8B988D
:10157A0015C08B988A98EE270000839B0895829B5A
:10158A00089504D08B9A02D08A9AE1E06BE107C0F1
:10159A008B9A8A9A03D08A98F9DF8B9865E36A95C1
:1015AA00F1F7089578E08A98F1DF829BFECFEEDFAB
:1015BA008894839908948A9AF1DFEE1F7A9599F7AD
:1015CA007991772311F48B9801C08B9ADFDF8A987F
:1015DA00E5DF8A9ADBDF8B98D9CFE99178E0EE0FC5
:1015EA0010F48B9801C08B9AD9DF8A98CFDF829B3F
:1015FA00FECFCCDF8A9A7A9591F78B98C7DF8A98C3
:10160A00CDDFE1E08399EE278A9A0895A991B991ED
:10161A00EE27FF276D91662311F03196FBCF0895CF
:10162A00AA27BB27E991F9910590002011F011969C
:10163A00FBCFFD010895E991F991309639F080EADE
:10164A009FE00197F1F7A8953197C9F70895E881C6
:10165A00E295EF70AE2FAA0FAA0FEA0FEE0FA9912B
:10166A00AF70EA0F0895A991EE27AA5012F0E05F31
:10167A00FCCFA65FEA0F08950024AF0DB01D0895B0
:10168A00E095F09531960895EE0FFF1FEE0FFF1FBC
:10169A00EE0FFF1FEE0FFF1F0895FA9FF02DEB9F2D
:1016AA00F00DEA9FE02DF10D089517D0F6DF0EF444
:1016BA00E7DF08950024112490E1AA0FBB1F001C44
:1016CA00111C0E1A1F0A18F40E0E1F1E01C0A1606B
:1016DA009A9599F7FD01D0010895E894F7FF02C0A1
:1016EA00CFDF6894B7FF06C0A095B095119600F8B1
:1016FA00039400FA0895ED91FC91119708950590CD
:10170A00F491E02D08957A936A93FA93EA930895EF
:10171A005A934A933A932A931A930A9308955D81A6
:10172A004C813B812A811981088108950991199177
:10173A000895AC0FBD1F05900D928A95E1F70895A3
:00000001FF
