:0200000073C0CB
:10000200FECFFDCFFCCFFBCFFACFF9CF9CC0F7CF0D
:1000120081C9F5CFF4CFF3CFF2CFF1CFF0CFEFCF4D
:1000220014000200040000001027E80364000A0024
:10003200010000100001100001006C696E653D2591
:100042006420726174653D256420747970653D2574
:1000520064206C656E3D25640D0A004C434D5320AF
:1000620076332E30352044657369676E656420628D
:10007200792043756F6E67517561790D0A0063755A
:100082006F6E673369687574407961686F6F2E634C
:100092006F6D202D20303931353635313030310D0C
:1000A2000A0052656C6561736520646174653A206B
:1000B20030392F30322F32303037004B45592050F3
:1000C2005245535345440D0A000008000200020045
:1000D200CC00010000012200010001012400010006
:1000E200020126000000F894EE27ECBBF1E0FBBF12
:1000F200EBBFE5BFE6BFF8E1F1BDE1BD8DE0A2E0F7
:10010200BB27ED938A95E9F780E092E0A0E6ED93B4
:100112000197E9F7EEECF0E085919591009761F097
:10012200A591B59105901590BF01F00105900D9232
:100132000197E1F7FB01F0CFEFE5EDBFE2E0EEBFA3
:10014200C0EED0E0A8C8EA93FA93EFB7EA93E5E0ED
:10015200E2BFE091FA00F091FB003196E093FA00E1
:10016200F093FB00E991EFBFF991E99118954424CE
:100172005524E0EAF0E04E165F0688F4F2015CDCFA
:100182003096A091E000B091E100AE0FBF1FEC915C
:10019200E8BB939A9398F20131962F01EACF949A91
:1001A200949844245524E0EAF0E04E165F0688F461
:1001B200F20142DC3196A091E000B091E100AE0F75
:1001C200BF1FEC91E8BB939A9398F20131962F01ED
:1001D200EACF959A959844245524E0EAF0E04E1629
:1001E2005F0688F4F20128DC3296A091E000B0911B
:1001F200E100AE0FBF1FEC91E8BB939A9398F20116
:1002020031962F01EACF3A9A3A9808954424552418
:10021200E0EAF0E04E165F0608F0DCC0F2010CDC0A
:100222003096A091E000B091E100AE0FBF1FEC91BB
:10023200FF2766277727E093E200F093E3006093BD
:10024200E4007093E500F201F7DB3196A091E00043
:10025200B091E100AE0FBF1FEC91FF276627772711
:10026200E093E600F093E7006093E8007093E90002
:10027200F201E2DB3296A091E000B091E100AE0F14
:10028200BF1FEC91FF2766277727E093EA00F093E0
:10029200EB006093EC007093ED00F201CDDB33963E
:1002A200A091E000B091E100AE0FBF1FEC91FF27DB
:1002B20066277727E093EE00F093EF006093F0005B
:1002C2007093F100E091E200F091E3006091E400AC
:1002D2007091E500EF7FF070607070707F936F93A4
:1002E200FF93EF93A091E600B091E7008091E800C0
:1002F2009091E900E8E084DBE070FF7F607070704D
:10030200AF91BF918F919F9172DBDF01CB01E091A1
:10031200EA00F091EB006091EC007091ED0096DB49
:10032200E070F0706F7F707062DB7F936F93FF936A
:10033200EF93A091EE00B091EF008091F0009091C8
:10034200F100E8E15DDBE070F07060707F7FAF91FB
:10035200BF918F919F914BDB7EDBE093F200F09394
:10036200F3006093F4007093F50023FE10C0E09157
:10037200F800F091F900A091F200B091F3008091A1
:10038200F4009091F5006627772746DB0FC0E091D5
:10039200F800F091F900A091F200B091F300809181
:1003A200F4009091F500662777272ADBE093F200AC
:1003B200F093F3006093F4007093F500EF7FF07018
:1003C2006070707048DBE8BB939A9398F2013196A3
:1003D2002F011ECF949A949844245524E0EAF0E029
:1003E2004E165F0608F0E1C0F20126DB3096A091BE
:1003F200E000B091E100AE0FBF1FEC91FF2766272E
:100402007727E093E200F093E3006093E4007093B7
:10041200E500F20111DB3196A091E000B091E1001C
:10042200AE0FBF1FEC91FF2766277727E093E60008
:10043200F093E7006093E8007093E900F201FCDAC0
:100442003296A091E000B091E100AE0FBF1FEC9197
:10045200FF2766277727E093EA00F093EB0060938B
:10046200EC007093ED00F201E7DA3396A091E00020
:10047200B091E100AE0FBF1FEC91FF2766277727EF
:10048200E093EE00F093EF006093F0007093F100C0
:10049200E091E200F091E3006091E4007091E500E8
:1004A200EF7FF070607070707F936F93FF93EF93A4
:1004B200A091E600B091E7008091E8009091E900F8
:1004C200E8E09EDAE070FF7F60707070AF91BF91DC
:1004D2008F919F918CDADF01CB01E091EA00F091DC
:1004E200EB006091EC007091ED00B0DAE070F0701A
:1004F2006F7F70707CDA7F936F93FF93EF93A0917D
:10050200EE00B091EF008091F0009091F100E8E1EF
:1005120077DAE070F07060707F7FAF91BF918F915A
:100522009F9165DA98DAE093F200F093F30060931A
:10053200F4007093F50023FE10C0E091F800F091F2
:10054200F900A091F200B091F3008091F400909133
:10055200F5006627772760DA0FC0E091F800F09186
:10056200F900A091F200B091F3008091F400909113
:10057200F5006627772744DAE093F200F093F30060
:100582006093F4007093F500E091F200F091F300B3
:10059200EF2FEF7FF070607070705DDAE8BB939AB6
:1005A2009398F20131962F0119CF959A9598442488
:1005B2005524E0EAF0E04E165F0608F0DDC0F201D5
:1005C2003BDA3096A091E000B091E100AE0FBF1F80
:1005D200EC91FF2766277727E093E200F093E30090
:1005E2006093E4007093E500F20126DA3196A0915F
:1005F200E000B091E100AE0FBF1FEC91FF2766272C
:100602007727E093E600F093E7006093E8007093A9
:10061200E900F20111DA3296A091E000B091E10016
:10062200AE0FBF1FEC91FF2766277727E093EA0002
:10063200F093EB006093EC007093ED00F201FCD9B3
:100642003396A091E000B091E100AE0FBF1FEC9194
:10065200FF2766277727E093EE00F093EF00609381
:10066200F0007093F100E091E200F091E3006091FC
:10067200E4007091E500EF7FF070607070707F931E
:100682006F93FF93EF93A091E600B091E700809102
:10069200E8009091E900E8E0B3D9E070FF7F607074
:1006A2007070AF91BF918F919F91A1D9DF01CB0162
:1006B200E091EA00F091EB006091EC007091ED00A6
:1006C200C5D9E070F0706F7F707091D97F936F938E
:1006D200FF93EF93A091EE00B091EF008091F000B4
:1006E2009091F100E8E18CD9E070F07060707F7F4A
:1006F200AF91BF918F919F917AD9ADD9E093F200DA
:10070200F093F3006093F4007093F50023FE10C0A1
:10071200E091F800F091F900A091F200B091F3009D
:100722008091F4009091F5006627772775D90FC064
:10073200E091F800F091F900A091F200B091F3007D
:100742008091F4009091F5006627772759D9E093BC
:10075200F200F093F3006093F4007093F50071D906
:10076200EF7FF0706070707076D9E8BB939A9398BF
:10077200F20131962F011DCF3A9A3A980895A0912D
:100782000201A03021F0A13011F0A43011F4EFDC0D
:100792000BC0A0910201A23031F0A33021F0A530AC
:1007A20011F0A63009F432DD089522FE03C06894E8
:1007B20021F80895E0910001A091FA00B091FB00A8
:1007C200F0E0EA17FB0708F080C2E0910201E03096
:1007D20009F067C0E091FD00E03011F5A091000141
:1007E200A33038F0E0910001E0930101E2E0E093F0
:1007F2000001E091E000F091E1003496E093E00026
:10080200F093E100A091E000B091E100A030EAE0B5
:10081200BE0729F4E091FD00EF5FE093FD0040C0C8
:10082200A091FD00A130C1F4A091F600B091F700B3
:100832001196A093F600B093F700A536E0E0BE074C
:1008420050F0E091FD00EF5FE093FD00E150E09198
:100852000101E093000124C0A091FD00A23001F546
:10086200E091E000F091E1003496E093E000F09333
:10087200E100E091FE00F091FF00E054FF4FDCD870
:10088200E058F84FA091E000B091E100EA17FB07B1
:1008920038F4E091FC00EF5FE093FC00EA935BD355
:1008A20008C2E13009F053C0E091FD00E030B9F434
:1008B200E091E000F091E1003496E093E000F093E3
:1008C200E100A091E000B091E100A030EAE0BE07B3
:1008D20029F4E091FD00EF5FE093FD0037C0A091A5
:1008E200FD00A130B9F4A091F600B091F700119685
:1008F200A093F600B093F700A536E0E0BE0748F0FB
:10090200E091FD00EF5FE093FD00E150E2E0E09353
:1009120000011CC0A091FD00A230C1F4E091E000F2
:10092200F091E1003497E093E000F093E100A091B0
:10093200E000B091E100A138E7E0BE0738F4E091B1
:10094200FC00EF5FE093FC00EA9305D3B2C1E23012
:1009520009F054C0E091FD00E03091F4A091F8005C
:10096200B091F9001197A093F800B093F900109795
:1009720031F4EF5FE093FD00E150689423F83DC04D
:10098200A091FD00A130C9F4A091F600B091F7004A
:100992001196A093F600B093F700A536E0E0BE07EB
:1009A20058F0E091FD00EF5FE093FD00E150E0E0E0
:1009B200E093F800E093F90020C0E091E000F091AC
:1009C200E1003496E093E000F093E100E091FE0054
:1009D200F091FF00E054FF4F2FD8E058F84FA0915C
:1009E200E000B091E100EA17FB0738F4E091FC0067
:1009F200EF5FE093FC00EA93AED25BC1E33009F013
:100A020054C0E091FD00E03091F4A091F800B09163
:100A1200F9001197A093F800B093F900109731F400
:100A2200EF5FE093FD00E150E89423F83DC0A09110
:100A3200FD00A130C9F4A091F600B091F700119623
:100A4200A093F600B093F700A536E0E0BE0758F099
:100A5200E091FD00EF5FE093FD00E150E0E0E09304
:100A6200F800E093F90020C0E091E000F091E1008D
:100A72003496E093E000F093E100E091FE00F09103
:100A8200FF00E054FF4FD8D7E058F84FA091E000A4
:100A9200B091E100EA17FB0738F4E091FC00EF5F48
:100AA200E093FC00EA9357D204C1E53009F069C033
:100AB200E091FD00E03091F4A091F800B091F900CE
:100AC2001197A093F800B093F900109731F4EF5FFB
:100AD200E093FD00E150689423F852C0A091FD001C
:100AE200A130A1F4A091F600B091F7001196A09365
:100AF200F600B093F700A536E0E0BE0730F0E091D3
:100B0200FD00EF5FE093FD00E1503AC0A091FD00CF
:100B1200A230B1F5A091F800B091F9001196A0931E
:100B2200F800B093F900509758F1E0E0E093FD002F
:100B3200E0E0E093F600E093F700E89423F8E09118
:100B4200E000F091E100E058FD4FE093E000F09307
:100B5200E100E091FE00F091FF00E056FF4F6CD7FC
:100B6200E058F84FA091E000B091E100AE17BF0746
:100B720038F0E091FC00EF5FE093FC00EA93EBD1E8
:100B820098C0E63009F069C0E091FD00E03091F4D0
:100B9200A091F800B091F9001197A093F800B093DA
:100BA200F900109731F4EF5FE093FD00E150E89413
:100BB20023F852C0A091FD00A130A1F4A091F6004B
:100BC200B091F7001196A093F600B093F700A53606
:100BD200E0E0BE0730F0E091FD00EF5FE093FD0042
:100BE200E1503AC0A091FD00A230B1F5A091F80009
:100BF200B091F9001196A093F800B093F9005097C4
:100C020058F1E0E0E093FD00E0E0E093F600E093CD
:100C1200F700689423F8E091E000F091E100E058D9
:100C2200FD4FE093E000F093E100E091FE00F091CF
:100C3200FF00E056FF4F00D7E058F84FA091E000C8
:100C4200B091E100AE17BF0738F0E091FC00EF5F12
:100C5200E093FC00EA937FD12CC0E43009F5E091E7
:100C6200E000F091E1003496E093E000F093E100BF
:100C7200E091FE00F091FF00E054FF4FDDD6E05816
:100C8200F84FA091E000B091E100EA17FB0738F4B9
:100C9200E091FC00EF5FE093FC00EA935CD109C0B5
:100CA200E73039F4E091FC00EF5FE093FC00EA9357
:100CB20052D1E0E0E093FA00E093FB00A091FC0047
:100CC200A23018F0E0E0E093FC000895ECD600EAD0
:100CD20010E020E0EB81EE0F0E0FAB81A43010F09C
:100CE20010E020E8077FF7D5C49A0A93E12FF22F8C
:100CF2003096FA93EA938DD3E09300010A93E12FA1
:100D0200F22F3196FA93EA9384D3E09302010A9385
:100D1200E12FF22F3296FA93EA93AED3E093FE00DC
:100D2200F093FF00ECE3F0E0FA93EA93ED81FF2702
:100D320066277727B0D6E0910001FF27662777273D
:100D4200AAD6E0910201FF2766277727A4D6E09171
:100D5200FE00F091FF00662777279DD680E1A0D59F
:100D62006296A091FE00B091FF00A13CEEE0BE07AA
:100D720028F0E0E0E093FE00E093FF00A091020182
:100D8200A83018F0E7E0E0930201A0910001A53637
:100D920018F0E0E0E0930001C4981DC084D600EA98
:100DA20010E020E0EB81EE0F0E0FAB81A43010F0CB
:100DB20010E020E8077F8FD5C49A0A93E12FF22F23
:100DC2003296FA93EA93E091FE00F091FF00FA93D3
:100DD200EA9373D3C4986ED62496089564D600EA33
:100DE20010E020E0EB81EE0F0E0FAB81A43010F08B
:100DF20010E020E8077F6FD5C49A0A93E12FF22F03
:100E02003096FA93EA93E885EA931ED30A93E12F88
:100E1200F22F3196FA93EA93EF81EA9315D3C498AD
:100E220049D6269608953DD600E010E020EA30E04B
:100E320040E0ED81EE0F2E0FAD81A43010F030E0D6
:100E420040E808851985AE81BF81A13CEEE0BE076E
:100E520018F02ED62A960895EE81FF81E056FF4FB4
:100E6200EBD5A885B985EA0FFB1FEE83FF83EF73ED
:100E720059F0AE81BF81E0E4F0E0F2D5DDD5D8D5FE
:100E8200E05CFF4FEE83FF8326D5C49A088519855F
:100E9200EE81FF810E171F0778F4A8952A93F801B7
:100EA200E30FF41FFA93EA931A930A93E0E4EA93A6
:100EB20057D3005C1F4FECCFC49816C0F2D500E0A8
:100EC20010E020EA30E040E0ED81EE0F2E0FAD8120
:100ED200A43010F030E040E808851985AE81BF816A
:100EE200A13CEEE0BE0718F0E3D52A960895EE8104
:100EF200FF81E056FF4FA0D5A885B985EA0FFB1FF9
:100F0200EE83FF83EF7359F0AE81BF81E0E4F0E03E
:100F1200A7D592D58DD5E05CFF4FEE83FF83DBD45E
:100F2200C49A08851985EE81FF810E171F0778F490
:100F32002A93F801E30FF41FFA93EA931A930A93A0
:100F4200E0E4EA93D2D2A895005C1F4FECCFC4989C
:100F5200AFD52A960895A881A23010F0E0E0E88388
:100F6200E881EA93B3DEA0910201A73008F06CC0D9
:100F7200E0E0F5E0FA93EA93E0E0F0E8FA93EA932E
:100F82008CD0E0E8F7E0FA93EA93E091FE00F0916A
:100F9200FF00FA93EA93EC81EA9390DFE0E0E093BA
:100FA200F600E093F700E89421F8E0E0E093FD001A
:100FB200E0E0E093F800E093F900E0910201E03014
:100FC20011F0E13039F4E0E8F7E0E093E000F0936B
:100FD200E1002EC0E53011F0E23079F4E89423F814
:100FE200E0E1F0E0E093F800F093F900E0E0FAE0ED
:100FF200E093E000F093E1001BC0E63011F0E33033
:1010020079F4689423F8E0E1F0E0E093F800F093DB
:10101200F900E0E0FAE0E093E000F093E10008C0BC
:10102200E43031F4E0E8F7E0E093E000F093E1002F
:1010320022FE06C0E0E0FAE0E093E000F093E10077
:10104200EFEFE2BBE8E3E1BB219608952BD500E088
:1010520010E020E030E00E811F81C49A20E030E0F1
:10106200EC81FD81E9D42E173F0798F4219781E0A6
:10107200A0E0B0E0E8E2F0E024D59AD2E095E8837F
:10108200D801EC930F5F1F4FA89521962F5F3F4F1A
:10109200E7CFC4980ED52896089506D500E015E04E
:1010A2000C811D81EA81FB81E017F10730F0D80144
:1010B200EFEFEC930F5F1F4FF5CFFDD42696089507
:1010C200E0E0EBBBEFEFEABBE0E0E8BBEFEFE7BB52
:1010D200E0E0E5BBEFEFE4BBE2BBE8E3E1BB389A5B
:1010E20030983A98329AE3E0E3BFE5E0E2BFE0E00D
:1010F200E1BFEBB9E8E9EAB9E6E8E0BDE0E0E0BD6E
:10110200E7E6E9B9E0E8E5BFE0E0E6BFE2E0E9BF33
:10111200EFE1E1BDEFE0E1BD0895E0E8F7E0E09343
:10112200E000F093E100CCDFC498E0E0F5E0FA9350
:10113200EA93E0E0F0E8FA93EA93AFDFC498E2E3DF
:10114200F0E0FA93EA932ED4C49AE2E3F0E0FA9341
:10115200EA9328D4C498E4EFF1E0FA93EA9322D414
:10116200C49AE0E0E093FC00EA93F5DEEDE5F0E0FE
:10117200FA93EA9380E094D32296E0E8F0E0FA93BF
:10118200EA9380E08DD32296E4EAF0E0FA93EA93C0
:1011920080E086D32296A8950895F894A895E62D26
:1011A200E23099F57092FE008092FF00E92DFA2D4F
:1011B200EF70F070E093FC00E0E0F5E0FA93EA9360
:1011C200E0E0F0E8FA93EA9368DFE0E0FAE0FA930D
:1011D200EA93E091FE00F091FF00FA93EA9336DF82
:1011E200E0E0FAE0E093E000F093E100E0E8F7E00D
:1011F200FA93EA93E091FE00F091FF00FA93EA93EA
:101202009A9211DE9A92CADD3EC0E330E1F1ED30EE
:1012120051F4E72DF82DF070EA93E82DF070EA937F
:101222009A92DCDD30C0E73011F0EB3079F49A921B
:10123200B5DDE0E8F7E0FA93EA93E091FE00F09181
:10124200FF00FA93EA939A92EEDD1DC0E63011F0A8
:10125200EA30A9F49A923ADDE0E8F7E0FA93EA93E9
:10126200E091FE00F091FF00FA93EA939A9226DE53
:10127200E0E0FAE0E093E000F093E10004C0E03146
:1012820011F470FA20F8EFEFE2BBE8E3E1BB9FD084
:10129200662478940895E4B7E3FF05C0E4B7E07EDE
:1012A200E4BFB3D003C0E4B7E07EE4BF36DF789496
:1012B200289916C022FC13C0E4E6F0E0FA93EA9300
:1012C20071D328990CC0EDEBF0E0FA93EA9380E039
:1012D200E7D22296689422F8E0E0EA933CDE0FC05F
:1012E20022FE0DC0E4E6F0E0FA93EA935BD3289B7A
:1012F20006C0E89422F8E091FC00EA932CDE662016
:1013020011F04BDF03C021FE3ADA4FDAA895D0CFB5
:101312000000FECFAA93BA93EA93FA93EFB7EA9347
:10132200C3D30BB11CB1E02FEC7109F048C0AB2D57
:10133200B0E0AD5FBE4F1C93B394E8E0EB1509F447
:10134200BB24C394E8E0EC15D1F5CC24A0910301B1
:10135200A53541F4E0910401E53521F4E091050160
:10136200E53509F01DC060900601709007018824E0
:10137200F72DE0E0DF01E0910801F0E0EA2BFB2B22
:101382007E2E8F2E90900901AA24F92DE0E0DF0134
:10139200E0910A01F0E0EA2BFB2B9E2EAF2E0FC04C
:1013A200A0910301AF3F41F4E0910401EF3F21F42A
:1013B200E0910501EF3F09F002C0BB24CC247ED3AB
:1013C200E991EFBFF991E991B991A9911895E5E5F4
:1013D200EA93F2D0E5E5EA93EFD0E5E5EA93ECD0C3
:1013E2006A92EAD0E82DF070EA93E6D0E72DF82D64
:1013F200F070EA93E1D0EA2DF070EA93DDD0E92DA6
:10140200FA2DF070EA93D8D00895BB24CC24662438
:1014120008950A9365D2EB81EA9396D2EA81F0703D
:10142200EA9392D2E981FA81F070EA938DD258D28E
:10143200EB81E160EA9388D2E0E0EA936AD20E2F70
:101442005ED2E02F088116C04BD2EB81EA937CD2A8
:10145200EA81F070EA9378D2E981FA81F070EA9336
:1014620073D2E881EA9370D24AD2EAE0F0E0FA93CA
:10147200EA9398D22496089517D300E010E0EC8105
:10148200EA93EB81FC81FA93EA93C3DF0E2F1127D3
:10149200F02FE0E0FF93EF93EC81EA93EB81FC8184
:1014A2003196FA93EA93B5DFAF91BF91F0E0EA2B60
:1014B200FB2B8F01F801FFD216C0EC81EA93EB817E
:1014C200FC81FA93EA93EC81F070EA93BDDFEC8140
:1014D200EA93EB81FC813196FA93EA93EB81FC81EA
:1014E200F070EA93B1DF259608950A9300E0F8D1EF
:1014F200EE81EA9329D2ED81F070EA9325D2EC8154
:10150200FD81F070EA9320D2EBD1EE81E160EA93A3
:101512001BD2E981E1500E1780F4E02F0F5FAA8100
:10152200BB81F0E0EA0FFB1FFF93EF93E1E0EA9348
:10153200F0D1AF91BF91EC93ECCFE981E150AA8158
:10154200BB81F0E0EA0FFB1FFF93EF93E0E0EA9329
:10155200E0D1AF91BF91EC93D2D108812796089543
:101562000A9300E0BDD1EE81EA93EED1ED81F070F5
:10157200EA93EAD1EC81FD81F070EA93E5D1E98149
:101582000E1768F4E02F0F5FAA81BB81F0E0AE0F67
:10159200BF1FEC91EA93D8D100000000F0CFAFD189
:1015A200EAE0F0E0FA93EA93FDD1088127960895E4
:1015B2005F9BFECFECB108955D9BFECFE881ECB955
:1015C20021960895A881B9815ED2309749F0ED91B4
:1015D200FD913196FE93EE933197AA81A08303C0C9
:1015E200EA81EA93E9DF23960895269759D200E02B
:1015F200E889F9893196E88BF98B3197E4913E2F8E
:10160200E03009F44AC1E02FE03059F4353211F4E8
:1016120001E006C03A93ED85FE85FA93EA93D2DFA4
:101622003BC1E130C9F4353239F43A93ED85FE8598
:10163200FA93EA93C7DF2FC102E050E010E03D3297
:1016420011F411E029C13B3211F45BE225C13032C1
:1016520011F450E221C102C0E23039F440E003E06B
:10166200303311F4106818C103C0E33009F014C11B
:10167200303310F03A3308F009C0A42FEAE0EA9FB1
:10168200F0014E2FE32FE0534E0F06C1E32FE33656
:1016920071F4AE85BF851497AE87BF871496EC911F
:1016A200EA93ED85FE85FA93EA938CDFF4C0E33783
:1016B20071F4AE85BF851497AE87BF871496E3D1C8
:1016C200EE83FF83FA93EA9358D10E2F10C0E037CE
:1016D20091F4AE85BF851497AE87BF871496D3D198
:1016E200EE83FF83FA93EA9352D10E2F18601260B1
:1016F2001F7720E03CC0E43611F0E93611F41460A3
:1017020002C0E53731F4EAE2F0E0EE83FF8305E060
:101712000CC0E83511F4186003C0E83709F0BBC00B
:10172200E4E3F0E0EE83FF8304E012FF17C0AE852E
:10173200BF851497AE87BF871496A5D1EA87FB872A
:10174200AA85BB85109724F457D1EA87FB875DE20F
:10175200503011F00F5F01C01B7F09C0AE85BF85FD
:101762001497AE87BF8714968ED1EA87FB8710FD48
:1017720015C0041798F417FF08C012FF04C01B7F9E
:10178200352F015001C030E301C030E23A93ED85BC
:10179200FE85FA93EA9316DF4150EBCF202F11FF1B
:1017A2001DC02030D1F013FF08C0EE81FF813196B9
:1017B200EE83FF833197E49105C0AE81BF81ED9145
:1017C200AE83BF83EA93ED85FE85FA93EA93FADE50
:1017D200403009F041502150E4CF50C030E3EE8157
:1017E200FF813296EE83FF83329751D1E887F987E2
:1017F200E885F985AA85BB85AE17BF0750F03F5F24
:10180200A885B985EA85FB85EA1BFB0BEA87FB877E
:10181200EFCF3A3328F013FF02C0395F01C0395DC0
:1018220014FD1DC0313320F4A885B985119709F440
:1018320009C0421710F010FF01C01AC030E217FFB2
:101842000EC030E3106112FF0AC01B7F5A93ED8570
:10185200FE85FA93EA93B6DE403009F041503A939E
:10186200ED85FE85FA93EA93ADDE403009F04150F2
:101872002150A885B985129708F0B0CF10FF0BC090
:10188200403049F04150E0E2EA93ED85FE85FA935B
:10189200EA9398DEF5CF00E0ABCE09D162960895C7
:1018A200FF92F82E229700D1DE019DD08D01E0E05B
:1018B200EA83EB83DE01149696D0E5D0FA93EA939D
:1018C2001A930A93FE013696FA93EA938EDEF3D0C8
:1018D2002496FF900895929893988A9A8B9815C0AF
:1018E2008B988A98EE270000839B0895829B089527
:1018F20004D08B9A02D08A9AE1E06BE107C08B9AFE
:101902008A9A03D08A98F9DF8B9865E36A95F1F792
:10191200089578E08A98F1DF829BFECFEEDF88940B
:10192200839908948A9AF1DFEE1F7A9599F7799153
:10193200772311F48B9801C08B9ADFDF8A98E5DF59
:101942008A9ADBDF8B98D9CFE99178E0EE0F10F419
:101952008B9801C08B9AD9DF8A98CFDF829BFECF0A
:10196200CCDF8A9A7A9591F78B98C7DF8A98CDDF78
:10197200E1E08399EE278A9A0895A991B991EE2719
:10198200FF276D91662311F03196FBCF0895AA27A8
:10199200BB27E991F9910590002011F01196FBCF38
:1019A200FD010895E991F991309639F080EA9FE0BE
:1019B2000197F1F7A8953197C9F70895E881E29563
:1019C200EF70AE2FAA0FAA0FEA0FEE0FA991AF7018
:1019D200EA0F0895A991EE27AA5012F0E05FFCCF1A
:1019E200A65FEA0F08950024AF0DB01D0895EA2BFB
:1019F200FB2B682B792B0895E095F095319608958D
:101A0200EE230E2EFD01BC0131F0EE0FFF1F661F0B
:101A1200771F0A94D1F70895EE230E2EFD01BC0123
:101A220031F076956795F795E7950A94D1F7089581
:101A3200EE0FFF1FEE0FFF1FEE0FFF1FEE0FFF1F38
:101A42000895E62FF72F60E070E008956E2F7F2F44
:101A5200E0E0F0E00895E095F095609570950895C6
:101A62000024112490E1AA0FBB1F001C111C0E1AA6
:101A72001F0A18F40E0E1F1E01C0A1609A9599F755
:101A8200FD01D0010895ED91FC9111970895059003
:101A9200F491E02D08957A936A93FA93EA93089564
:101AA2005A934A933A932A931A930A9308955D811B
:101AB2004C813B812A8119810881089509911991EC
:101AC2000895AC0FBD1F05900D928A95E1F7089518
:00000001FF
