:040000000C949C01BF
:100004000C9400000C9400000C9400000C9400006C
:100014000C9400000C9400000C9400000C9400005C
:100024000C9400000C9400000C9400000C9400004C
:100034000C9400000C9400000C9400000C9400003C
:100044000C94CE010C9400000C9414080C94000041
:100054000C9400000C9400000C9400000C9400001C
:100064000C9400000C9400000C9400002A2A2043F5
:10007400756F6E6751756179203039313536353198
:10008400303031202A2A0000119F32169C54501F10
:100094001014FEEFFFFFFFFF0000A00000000000AF
:1000A4000000000000000000000000000000102715
:1000B400E80364000A0001000010000110000100C0
:1000C4006400C80090012003F8FFFCFFFEFFFFFF5F
:1000D400544F2043485543204B494E482054452013
:1000E4002020200044414E204355204755492047B5
:1000F4004F5020202020200044414E2043552042D0
:100104004143205448414E472020200044414E2082
:100114004355204455205448554F4E472020200035
:1001240044414E2043552054484F4E47205448558F
:100134004F4E4700253032642D253032642D25344E
:1001440064253032642530326425303264253032FF
:1001540064253032642530326425303264253032EF
:1001640064253032642530326425303264253032DF
:100174006400202020202020202020202020202057
:10018400202020202020202020202020202020206B
:100194002020202020202020202020200D0A007C48
:1001A4003D3D3D3D3D3D3D3D3D3D3D3D3D3D3D3D7B
:1001B4003D3D3D3D3D3D3D3D3D3D3D3D3D3D3D3D6B
:1001C4003D3D3D3D3D3D3D3D3D7C0D0A007C2020B7
:1001D40020202020446967694C4544204156522020
:1001E4004669726D776172652076312E302E30202B
:1001F400202020202020207C0D0A007C5F5F5F5F90
:100204005F5F5F5F5F5F5F5F5F5F5F5F5F5F5F5FFA
:100214005F5F5F5F5F5F5F5F5F5F5F5F5F5F5F5FEA
:100224005F5F5F5F5F7C0D0A007C20202020202020
:100234002020436F70797269676874206279204363
:10024400756F6E6751756179202020202020202051
:100254002020207C0D0A007C2020202063756F6EF6
:10026400673369687574407961686F6F2E636F6D69
:10027400202D2030393135363531303031202020B1
:10028400207C0D0A007C2020202020202053746133
:100294007274656420646174653A2032342E30359A
:1002A4002E32303037202020202020202020207C97
:1002B4000D0A007C2020202020202052656C6561DE
:1002C400736520646174653A2032332E30362E32E1
:1002D400303037202020202020202020207C0D0AB0
:1002E4000044533133303720474D543A20253032BF
:1002F400643A253032643A25303264202530326441
:100304002D253032642D253032640D0A000014008E
:10031400AE03D4001400C203E8001400D603FC00AA
:100324001400EA0310011400FE0324011000120457
:100334008C000000F894EE27ECBBF1E0FBBFEBBFB0
:10034400E5BFE6BFF8E1F1BDE1BD8DE0A2E0BB276A
:10035400ED938A95E9F780E094E0A0E0B1E0ED93B5
:100364000197E9F7E2E1F3E085919591009761F057
:10037400A591B59105901590BF01F00105900D92DE
:100384000197E1F7FB01F0CFEFEFEDBFE4E0EEBF43
:10039400C0EAD1E00C94F807EA93FA93EFB7EA9332
:1003A400E5E0E2BFE091AA01F091AB013196E09360
:1003B400AA01F093AB01E991EFBFF991E991189586
:1003C4000A9300E000E0083080F4E7E0F0E0E4198C
:1003D400F509A02FB0E0EA17FB0711F4959801C0C6
:1003E400959A939A93980F5FEECF0CC00A9300E00E
:1003F400959A00E0083020F4939A93980F5FFACF0F
:10040400949A9498099108950E94350D00E010E0A3
:1004140020E030E048E655E0C598C798C69800E06B
:1004240010E00D33E1E01E0748F521E030E03830FC
:1004340000F5EDE3F1E0E01BF10B3197E40FF51F5C
:10044400E081E223AE2FE32F0E94D60CE03011F0BE
:10045400C69A01C0C69885E08A95F1F7C59A85E0E9
:100464008A95F1F7C59885E08A95F1F7220F3F5FE9
:10047400DECFA8950F5F1F4F0C941302C79A85E037
:100484008A95F1F7C79885E08A95F1F70E943C0DAB
:10049400269608950A9300E066247724442455247C
:1004A40020FE03C00E94F80141C0E091A001F09138
:1004B400A101E093A401F093A501A091A401B0913E
:1004C400A501AF3FEFE7BE0788F50C910F7008BB9D
:1004D4003A9A3A98F30131963F01E836A0E0FA07D8
:1004E400D8F0662477240E94F80194980E94E201CF
:1004F400949A389A3898F20131962F01389710F06F
:1005040044245524E091A401F091A501E057F14F52
:10051400E093A401F093A501E091A401F091A50159
:100524003196E093A401F093A501C7CF09910895F2
:1005340038983A98A091AA01B091AB01A83EE3E0A3
:10054400BE0780F0E0E0E093AA01E093AB01A09144
:10055400A801A13030F0E091A801E150E093A80196
:1005640001C07FD308951A930A9300E010E0EA8152
:10057400FB813097B9F0EC81F0E0AA81BB81EA0FEE
:10058400FB1F8F010831E0E01E0734F0D801E8E1D9
:10059400F0E00E940C0D8F010050104014F4085E2E
:1005A4001F4F02C00C811127E02F19810881259665
:1005B4000895A49782E0A0E0B0E0ECE9F0E00E94A6
:1005C400430D0E94350D02E210E020E030E040E0EF
:1005D40050E00E94DD0BEDB7FEB7FA93EA935F9308
:1005E400FE013996FA93EA93FE013A96FA93EA9356
:1005F4000E94880B5F91EDB7FEB7FA93EA932F93AD
:10060400EDB7FEB7FA93EA933F93EDB7FEB7FA93CB
:10061400EA934F930E94350B4F913F912F9154369B
:1006240008F050E0AF81A43610F0E0E0EF83AE8133
:10063400A43610F0E0E0EE83243608F020E03436EF
:1006440008F030E0443608F040E0FE013896FA93B2
:10065400EA93E8E3F1E0FA93EA93E52FFF276627AC
:1006640077270E94300DEF85EF5FFF2766277727F6
:100674000E94300DEA89A0EDB7E0F0E0EA0FFB1F1D
:100684000E94E70C0E94300D2A93E7E0F0E0FA9311
:10069400EA930E94B502FF27662777270E94300D50
:1006A400E32FFF27662777270E94300D2A93EAEF6E
:1006B400FFEFFA93EA930E94B502FF276627772794
:1006C4000E94300DE32FFF27662777270E94300D05
:1006D4002A93E1E0F0E0FA93EA930E94B502FF273F
:1006E400662777270E94300DE32FFF276627772799
:1006F4000E94300D2A93E0E0F0E0FA93EA930E941E
:10070400B502FF27662777270E94300DE32FFF27C6
:10071400662777270E94300D2A93E3E0F0E0FA93EE
:10072400EA930E94B502FF27662777270E94300DBF
:10073400E32FFF27662777270E94300D2A93E8E0EE
:10074400F0E0FA93EA930E94B502FF276627772721
:100754000E94300DE32FFF27662777270E94300D74
:100764008CE30E94D00AEF962196FE013896FA9304
:10077400EA931A930A9308D0E0E0E2BBEFE3E1BB0B
:100784000E943C0DAA9608950E94360D00E010E0E8
:1007940020E038E645E000E010E0ED81FE810E1730
:1007A4001F0738F5E01BF10B3197AF81B885AE0F09
:1007B400BF1F2C91203310F02A3308F002C02F7091
:1007C4000CC0203209F408C02D3211F42AE005C00F
:1007D4002E3211F42BE001C02FE0D801A30FB41F77
:1007E400E22FF0E0EE5EFB4FE081EC930F5F1F4FD2
:1007F400D4CF0E943D0D299608950E94370D00E044
:1008040010E020E030E00E811F81C49820E030E049
:10081400EC81FD812E173F0770F41F930F930F5F38
:100824001F4F0E944A09AF91BF91EC93A8952F5F87
:100834003F4F0C940A04C49A0E943E0D28960895D2
:100844000E94360D00E010E020EA3AE040E00E9409
:10085400DD0BC49800E010E0ED81FE810E171F0748
:10086400E0F4F801AEEAB1E0EE0FFF1FEA0FFB1F60
:10087400FF93EF932A93F801EE0FFF1FE30FF41F8A
:10088400FA93EA930E94E008AF91BF91ED93FC9331
:10089400A8950F5F1F4F0C942E04C49AE0E0E2BBAE
:1008A400EFE3E1BB0E943D0D279608950E94360DAB
:1008B40000E010E020E030E042EA08851985EE818E
:1008C400FF81EF7371F0AE81BF81E0E4F0E00E943C
:1008D400F90C0E94E20C0E94DE0CE05CFF4FEE83F8
:1008E400FF830E94DD0BC49820E030E0EE81FF819D
:1008F4002E173F07B8F44A93EE81F0E0A0E8B1E088
:100904000E94EC0CE00FF11FFA93EA93D801EC91EA
:10091400EA930E94C108A8950F5F1F4F2F5F3F4FB6
:100924000C947804C49AE0E0E2BBEFE3E1BB0FC0AF
:100934000E94360D00E010E020E030E042EA088535
:100944001985AE81BF81A93FEEE0BE0720F00E9469
:100954003D0D2A960895EE81FF81EF7371F0AE810B
:10096400BF81E0E4F0E00E94F90C0E94E20C0E94D6
:10097400DE0CE05CFF4FEE83FF830E94DD0BC49826
:1009840020E030E0EE81FF812E173F07C0F44A9348
:10099400EE81F0E0A0E8B1E00E94EC0CE00FF11F62
:1009A400FA93EA931A930A93E0E4EA930E940609FD
:1009B400005C1F4FA895205C3F4F0C94C404C49A5C
:1009C400E0E0E2BBEFE3E1BB0E943D0D2A9608950F
:1009D4000A9302EA0E94DD0BC49A0A93EA81F0E0CA
:1009E400FA93EA930E949E08E093A801C498E0E079
:1009F400E2BBEFE3E1BB14C00A9302EA0E94DD0B01
:100A0400C49A0A93EA81F0E0FA93EA93E091A80188
:100A1400EA930E94C108C498E0E0E2BBEFE3E1BBC3
:100A24000881229608951A930A9300E015E00C8138
:100A34001D81EA81FB81E017F10730F0D801EFEF67
:100A4400EC930F5F1F4FF5CF198108812696089507
:100A54000E94DD0BC498E0E0EA93EA93EA930E94D3
:100A6400660B0E944A09EA930E944A09EA930E948B
:100A74004A09EA930E94BA0B0E944A09EA930E9427
:100A84004A09EA930E944A09EA930E94660BC49AAF
:100A9400E0E0E2BBEFE3E1BB08952E978EE0A0E037
:100AA400B0E0EEE9F0E00E94430D0E94350D00E055
:100AB40010E020E030E040E050E0E88DE03029F440
:100AC400EFEFEA87EF83E8871AC0E13039F4EAEA06
:100AD400EA87E9E9EF83E8E8E88711C0E23039F40E
:100AE400E5E5EA87E4E4EF83E6E6E88708C0E33077
:100AF40031F4E0E0EA87E2E2EF83E1E1E887C498D9
:100B04000E94DD0BE98DFA8DFA93EA930E942F0C73
:100B1400EA8BAA89A53110F0E4E1EA8BE0E0EB8BE3
:100B2400EA89AB89AE1710F00C942606EB89A98DDF
:100B3400BA8DF0E0AE0FBF1FEC91E98BAEEAB1E0E5
:100B4400F0E0EE0FFF1FAE0FBF1F0E94280DED87D0
:100B5400FE87A989B0E0AA0FBB1FA055BE4F0E9413
:100B6400280DEB87FC87AD85BE85EA1BFB0BEF8761
:100B7400F88BE00FF11FE836A0E0FA0710F00C94B0
:100B8400260640E050E04830E0E05E0714F00C94A4
:100B94001D06EF89E030A9F04050504024F0443065
:100BA400E0E05E070CF002C0EF81EA874430E0E049
:100BB4005E0724F04830E0E05E070CF002C0E885F0
:100BC400EA8720E030E0EF85F8892E173F0778F5B3
:100BD400A895EE81EA93DA01E8EFFEE00E94F40CB6
:100BE400AE85BF85EA0FFB1FE20FF31FE855F74FF1
:100BF400FA93EA930E949E08E987E095AE2FEA856E
:100C0400E095EA23E987DA01E8EFFEE00E94F40CBC
:100C1400E20FF31FE00FF11FAD89BE89AE0FBF1FB6
:100C2400E985E095EC932F5F3F4F0C94E5054F5F0A
:100C34005F4F0C94C505EF85F8890E0F1F1FEB89D4
:100C4400EF5FEB8B0C9492050093AC011093AD0114
:100C5400C49AE0E0E2BBEFE3E1BB0E943C0D6B967B
:100C64000895A091A901AF5FA093A901A53018F040
:100C7400E0E0E093A9010E94F801E091A901EA9360
:100C84000E94EA04E091A801E03009F40895E0E04C
:100C9400F5E0FA93EA93EFEFFFE7FA93EA930E9401
:100CA4001505E8E6F5E0FA93EA93E0E8F1E0FA9353
:100CB400EA93E091A901EA930E949A04EFEFF0E02D
:100CC400FA93EA930E942204E5EAF6E0FA93EA939F
:100CD400E1E0EA93E0E0EA93E0E0F5E0FA93EA93F6
:100CE400EA930E944F050E94DB020E940602E0E0A4
:100CF400F5E0E093A001F093A1011AD20895E0E891
:100D0400E0936100E0E0E0936100EBBBEABBE8BB89
:100D1400EFEFE7BBE0E0E5BBE4BBE2BBE1BBE7B977
:100D2400E5E0E6B9E3E0E3BFE5E0E2BFE0E0E1BF30
:100D3400EBB9E8E9EAB9E6E8E0BDE0E0E0BDE7E602
:100D4400E9B9E0E8E5BFE0E0E6BFE2E0E9BFE0E002
:100D5400E0937D000E94DD0BE0E0EA93EA93E1E09A
:100D6400EA930E94150BEFE1E1BDEFE0E1BDE6E798
:100D7400F1E0FA93EA9380E00E94F50A2296E3EA0E
:100D8400F1E0FA93EA9380E00E94F50A2296E1EDFD
:100D9400F1E0FA93EA9380E00E94F50A2296EFEFDD
:100DA400F1E0FA93EA9380E00E94F50A2296EDE2DC
:100DB400F2E0FA93EA9380E00E94F50A2296EBE5CA
:100DC400F2E0FA93EA9380E00E94F50A2296E9E8B9
:100DD400F2E0FA93EA9380E00E94F50A2296E7EBA8
:100DE400F2E0FA93EA9380E00E94F50A2296EFEF8C
:100DF400F1E0FA93EA9380E00E94F50A2296E6E78E
:100E0400F1E0FA93EA9380E00E94F50A229626978D
:100E140086E0A0E0B0E0ECEAF0E00E94430DFE01C1
:100E24003296FA93EA93FE013396FA93EA93FE011B
:100E34003496FA93EA930E94880BFE013596FA934E
:100E4400EA93FE013696FA93EA93FE013796FA93F3
:100E5400EA930E94350BE5EEF2E0FA93EA93EF8110
:100E6400FF27662777270E94300DEA85FF2766272C
:100E740077270E94300DED85FF27662777270E948C
:100E8400300DE889FF27662777270E94300DEB890C
:100E9400FF27662777270E94300DEE89FF276627F4
:100EA40077270E94300D88E10E94F50A6A962696FB
:100EB4000895E0E0F5E0E093A001F093A101EFEFE5
:100EC400FFE7E093A201F093A301E0E0F5E0E093F3
:100ED400A601F093A7010E948106C498E0E0F5E022
:100EE400FA93EA93EFEFFFE7FA93EA930E9415056A
:100EF400E4EFF1E0FA93EA930E94440CC49AC49894
:100F0400E0E0E093A9010E943306C49AC498E4E6A1
:100F1400F0E0FA93EA930E94440CC49AE0E0E2BB46
:100F2400EFE3E1BB0895F894A8950E94F801E82D39
:100F3400E13011F00C94DE07E8EFFEE0E915FA0564
:100F440010F49E2EAF2EE0E0F5E0FA93EA93EFEF73
:100F5400FFE7FA93EA930E941505A092A901E92DEF
:100F6400FA2DE093A801B092AC01C092AD01E8E67D
:100F7400F5E0FA93EA93E091AC01F091AD01FA93B4
:100F8400EA930E94FF03E0E0F5E0E093A001F09310
:100F9400A101E091A901EA930E94FE04E8E6F5E0CC
:100FA400FA93EA93E0E8F1E0FA93EA93E091A90175
:100FB400EA930E94580412C0E23061F4A092A9019D
:100FC400E92DFA2DE093A801E091A901EA930E948A
:100FD400FE0404C0E33011F40E942A0583D088245F
:100FE4007894E0E0E2BBEFE3E1BB0895E4B7E3FF0C
:100FF40005C0E4B7E07EE4BF9BD003C0E4B7E07E65
:10100400E4BF0E945B077894882019F00E9495073A
:1010140004C00E949A020E944C02A8950C940608EF
:101024000000FECFAA93BA93EA93FA93EFB7EA9338
:101034001A930A930BB11CB1E02FEC7111F00C94CC
:101044006B08AD2DB0E0AE5DBB4F1C93D394E8E0CC
:10105400ED1509F4DD24E394E8E0EE15D1F5EE2472
:10106400A0912204AA3A41F4E0912304EA3A21F43B
:10107400E0912404EA3A09F01DC080902504909080
:101084002604AA24F92DE0E0DF01E0912704F0E032
:10109400EA2BFB2B9E2EAF2EB0902804CC24FB2DE4
:1010A400E0E0DF01E0912904F0E0EA2BFB2BBE2E07
:1010B400CF2E0FC0A0912204AF3F41F4E09123044E
:1010C400EF3F21F4E0912404EF3F09F002C0DD2456
:1010D400EE2409911991E991EFBFF991E991B99140
:1010E400A9911895EAEAEA930E944E09EAEAEA937A
:1010F4000E944E09EAEAEA930E944E098A920E94EB
:101104004E09EA2DF070EA930E944E09E92DFA2D5A
:10111400F070EA930E944E09EC2DF070EA930E945D
:101124004E09EB2DFC2DF070EA930E944E090895B0
:10113400DD24EE24882408950A930E94E20BEB81B7
:10114400EA930E94160CEA81F070EA930E94160C4E
:10115400E981FA81F070EA930E94160C0E94E20B76
:10116400EB81E160EA930E94160CE0E0EA930E94AE
:10117400FB0B0E2F0E94F10BE02F08811DC00E9473
:10118400E20BEB81EA930E94160CEA81F070EA9379
:101194000E94160CE981FA81F070EA930E94160C01
:1011A400E881EA930E94160C0E94F10BEAE0F0E059
:1011B400FA93EA930E94440C249608951A930A938E
:1011C40000E010E0EC81EA93EB81FC81FA93EA936E
:1011D4000E949E080E2F1127F02FE0E0FF93EF935B
:1011E400EC81EA93EB81FC813196FA93EA930E94B5
:1011F4009E08AF91BF91F0E0EA2BFB2B8F01F80121
:1012040019810881259608950A9300E00E94E20B53
:10121400EE81EA930E94160CED81F070EA930E942D
:10122400160CEC81FD81F070EA930E94160C0E946A
:10123400E20BEE81E160EA930E94160CE981E15031
:101244000E1788F4E02F0F5FAA81BB81F0E0EA0F4C
:10125400FB1FFF93EF93E1E0EA930E94FB0BAF9136
:10126400BF91EC93EBCFE981E150AA81BB81F0E01F
:10127400EA0FFB1FFF93EF93E0E0EA930E94FB0B5E
:10128400AF91BF91EC930E94F10B088127960895CA
:101294005F9BFECFECB108955D9BFECFE881ECB976
:1012A40021960895A881B9810E94280D309749F0AC
:1012B400ED91FD913196FE93EE933197AA81A0832F
:1012C40004C0EA81EA930E944E0973C226970E94E1
:1012D400350D00E0E889F9893196E88BF98B31976F
:1012E400E4913E2FE03011F40C94CC0AE02FE0306E
:1012F40059F4353211F401E006C03A93ED85FE85C8
:10130400FA93EA93CFDF45C1E130C9F4353239F4B9
:101314003A93ED85FE85FA93EA93C4DF39C102E07E
:1013240050E010E03D3211F411E033C13B3211F4CE
:101334005BE22FC1303211F450E22BC102C0E23023
:1013440039F440E003E0303311F4106822C104C0E2
:10135400E33011F00C94CB0A303310F03A3308F038
:1013640009C0A42FEAE0EA9FF0014E2FE32FE053D7
:101374004E0F0FC1E32FE33671F4AE85BF8514978A
:10138400AE87BF871496EC91EA93ED85FE85FA93B8
:10139400EA9388DFFDC0E33781F4AE85BF851497F7
:1013A400AE87BF8714960E94280DEE83FF83FA93BD
:1013B400EA930E942F0C0E2F12C0E037A1F4AE85E1
:1013C400BF851497AE87BF8714960E94280DEE83BD
:1013D400FF83FA93EA930E94390C0E2F186012606F
:1013E4001F7720E040C0E43611F0E93611F41460B0
:1013F40002C0E53731F4E2EBF0E0EE83FF8305E071
:101404000DC0E83511F4186004C0E83711F00C94ED
:10141400CA0AECEBF0E0EE83FF8304E012FF19C08C
:10142400AE85BF851497AE87BF8714960E94280D9A
:10143400EA87FB87AA85BB8510972CF40E94D20CFF
:10144400EA87FB875DE2503011F00F5F01C01B7F1C
:101454000AC0AE85BF851497AE87BF8714960E94D5
:10146400280DEA87FB8710FD15C0041798F417FFB1
:1014740008C012FF04C01B7F352F015001C030E3A8
:1014840001C030E23A93ED85FE85FA93EA930ADFD0
:101494004150EBCF202F11FF1DC02030D1F013FF9E
:1014A40008C0EE81FF813196EE83FF833197E4918A
:1014B40005C0AE81BF81ED91AE83BF83EA93ED8514
:1014C400FE85FA93EA93EEDE403009F04150215054
:1014D400E4CF51C030E3EE81FF813296EE83FF8387
:1014E40032970E942C0DE887F987E885F985AA854B
:1014F400BB85AE17BF0750F03F5FA885B985EA8565
:10150400FB85EA1BFB0BEA87FB87EFCF3A3328F016
:1015140013FF02C0395F01C0395D14FD1DC03133B2
:1015240020F4A885B985119709F409C0421710F071
:1015340010FF01C01AC030E217FF0EC030E3106183
:1015440012FF0AC01B7F5A93ED85FE85FA93EA9336
:10155400A9DE403009F041503A93ED85FE85FA93B7
:10156400EA93A0DE403009F041502150A885B985A6
:10157400129708F0AFCF10FF0BC0403049F0415034
:10158400E0E2EA93ED85FE85FA93EA938BDEF5CFEC
:1015940000E0A0CE0E943C0D62960895FF92F82EC2
:1015A40022971A930A93DE010E94CE0C8D01DE016C
:1015B40016960E94CE0C0E94280DEA83FB83DE015E
:1015C40014960E94CE0C0E94280DFA93EA931A9363
:1015D4000A93FE013696FA93EA9378DEAA81BB81D8
:1015E400E0E0EC931BC0FF92F82E22971A930A9323
:1015F400DE010E94CE0C8D01E0E0EA83EB83DE0184
:1016040014960E94CE0C0E94280DFA93EA931A9322
:101614000A93FE013696FA93EA9358DE19810881FB
:101624002496FF900895EA81E370EA83E981E0302B
:1016340019F0EA81E061EA83E881E03019F0EA8197
:10164400E068EA830E94E20BE0EDEA930E94160C44
:10165400E7E0EA930E94160CEA81EA930E94160CD2
:101664000E94F10BA6C00E94E20BE0EDEA930E94F7
:10167400160CE0E0EA930E94160C0E94E20BE1EDE6
:10168400EA930E94160CE1E0EA930E94FB0BEA93B2
:101694000E94500CA881B981EC93E1E0EA930E9486
:1016A400FB0BEA930E94500CAA81BB81EC93E0E00F
:1016B400EA930E94FB0BEA930E94500CAC81BD811B
:1016C400EC930E94F10B52C00E94E20BE0EDEA930E
:1016D4000E94160CE0E0EA930E94160CE881EA935B
:1016E4000E945C0CEA930E94160CE981EA930E9422
:1016F4005C0CEA930E94160CEA81EA930E945C0C4B
:10170400EA930E94160C0E94F10B53C00E94E20B54
:10171400E0EDEA930E94160CE4E0EA930E94160CB2
:101724000E94E20BE1EDEA930E94160CE1E0EA93D9
:101734000E94FB0BEA930E94500CAC81BD81EC9398
:10174400E1E0EA930E94FB0BEA930E94500CAA8109
:10175400BB81EC93E0E0EA930E94FB0BEA930E94C6
:10176400500CA881B981EC930E94F10B2696089540
:101774000E94E20BE0EDEA930E94160CE4E0EA9387
:101784000E94160CEA81EA930E945C0CEA930E9480
:10179400160CE981EA930E945C0CEA930E94160CF1
:1017A400E881EA930E945C0CEA930E94160C0E9462
:1017B400F10B23960895929893988A9A8B9815C062
:1017C4008B988A98EE270000839B0895829B089546
:1017D40004D08B9A02D08A9AE1E06BE107C08B9A1D
:1017E4008A9A03D08A98F9DF8B9865E36A95F1F7B2
:1017F400089578E08A98F1DF829BFECFEEDF88942B
:10180400839908948A9AF1DFEE1F7A9599F7799172
:10181400772311F48B9801C08B9ADFDF8A98E5DF78
:101824008A9ADBDF8B98D9CFE99178E0EE0F10F438
:101834008B9801C08B9AD9DF8A98CFDF829BFECF29
:10184400CCDF8A9A7A9591F78B98C7DF8A98CDDF97
:10185400E1E08399EE278A9A0895A991B991EE2738
:10186400FF276D91662311F03196FBCF0895AA27C7
:10187400BB27E991F9910590002011F01196FBCF57
:10188400FD010895E991F991309639F080EA9FE0DD
:101894000197F1F7A8953197C9F70895E881E29582
:1018A400EF70AE2FAA0FAA0FEA0FEE0FA991AF7037
:1018B400EA0F0895A991EE27AA5012F0E05FFCCF39
:1018C400A65FEA0F0895EE2795988D9A80E897E031
:1018D4000197F1F78D988BE48A95F1F7859B08952C
:1018E40080E391E00197F1F7859BE39588E196E029
:1018F4000197F1F708958D9A8BE08A95F1F78D9809
:101904008BE38A95F1F7889485990894E79580E4A8
:1019140091E00197F1F70895E8948D9A8BE08A9508
:10192400F1F770FD8D9885E48A95F1F7859903C0E8
:1019340070FF03C0089570FF08958CE291E0019751
:10194400F1F78D988BE18A95F1F76894089568E032
:10195400D2DF6A95E9F7089568E07991EE27DCDF34
:1019640026F477956A95D9F7E3950895EE2788814B
:10197400882381F068E1A981BA8198E0FD917F2FE5
:101984007E27779508F4E627E795F6959A95B9F7B3
:101994008A9599F7239608950024AF0DB01D0895F4
:1019A400E095F09531960895EE230E2EEA2F19F066
:1019B400E6950A94E9F70895EE0FFF1FEE0FFF1F57
:1019C400EE0FFF1FEE0FFF1F08956F2F660F660BBC
:1019D400762F0895FA9FF02DEB9FF00DEA9FE02DEE
:1019E400F10D089525D0F6DF0EF4DADF0895002412
:1019F400112490E1AA0FBB1F001C111C0E1A1F0A10
:101A040018F40E0E1F1E01C0A1609A9599F7FD01EE
:101A1400D0010895E894B7FF04C0A095B09511963D
:101A24006894F7FDBDDFE3DFFD010EF4B9DF08952F
:101A3400E894F7FF02C0B4DF6894B7FF06C0A0952E
:101A4400B095119600F8039400FA0895ED91FC9175
:101A5400119708950590F491E02D08957A936A936F
:101A6400FA93EA9308955A934A933A932A931A93CA
:101A74000A9308955D814C813B812A8119810881F3
:101A84000895AC0FBD1F05900D928A95E1F7089556
:00000001FF
