:020000000C945E
:100002009A000C9400000C9400000C9400000C94D4
:1000120000000C9400000C9400000C9400000C945E
:1000220000000C9400000C9400000C9400000C944E
:1000320000000C9400000C9400000C9400000C943E
:1000420000000C94CC000C9400000C94F5070C9466
:1000520000000C9400000C9400000C9400000C941E
:1000620000000C9400000C9400000C94000014009A
:1000720000001027E80364000A00010000100001DC
:10008200100001006C696E653D2564207261746523
:100092003D256420747970653D2564206C656E3D54
:1000A20025640D0A004C434D532076332E31302007
:1000B20044657369676E65642062792043756F6E6B
:1000C20067517561790D0A0063756F6E67336968F0
:1000D2007574407961686F6F2E636F6D202D2030CB
:1000E2003931353635313030310D0A005374617291
:1000F20074656420646174653A2030342E30342E85
:10010200323030370D0A0052656C656173652064C8
:100112006174653A2030372E30342E323030370D4C
:100122000A0008000200020024010100860170009A
:100132000000F894EE27ECBBF1E0FBBFEBBFE5BF9C
:10014200E6BFF8E1F1BDE1BD8DE0A2E0BB27ED9392
:100152008A95E9F780E094E0A0E0B1E0ED930197A1
:10016200E9F7E6E2F1E085919591009761F0A591BA
:10017200B59105901590BF01F00105900D92019780
:10018200E1F7FB01F0CFEFEFEDBFE4E0EEBFC4E635
:10019200D1E00C94D707EA93FA93EFB7EA93E5E03C
:1001A200E2BFE0917E01F0917F013196E0937E0102
:1001B200F0937F01E991EFBFF991E99118950A93C4
:1001C20000E0F2010E94D50B3096A0916401B0913B
:1001D2006501AE0FBF1FEC91FF2766277727E093DB
:1001E2006601F09367016093680170936901F201FF
:1001F2000E94D50B3196A0916401B0916501AE0FBA
:10020200BF1FEC91FF2766277727E0936A01F093DF
:100212006B0160936C0170936D01F2010E94D50B2A
:100222003296A0916401B0916501AE0FBF1FEC91AF
:10023200FF2766277727E0936E01F0936F016093A3
:10024200700170937101F2010E94D50B3396A09157
:100252006401B0916501AE0FBF1FEC91FF276627C5
:100262007727E0937201F0937301609374017093A6
:100272007501E0916601F0916701609168017091EA
:100282006901EF7FF070607070707F936F93FF93DE
:10029200EF93A0916A01B0916B0180916C019091F2
:1002A2006D01E8E00E94B90BE070FF7F6070707032
:1002B200AF91BF918F919F910E94A70BDF01CB015C
:1002C200E0916E01F0916F01609170017091710186
:1002D2000E94DA0BE070F0706F7F70700E94A70BC3
:1002E2007F936F93FF93EF93A0917201B09173018B
:1002F2008091740190917501E8E10E94B90BE07060
:10030200F07060707F7FAF91BF918F919F910E943B
:10031200A70B0E94DF0BE0937601F09377016093C5
:1003220078017093790123FE11C0E0917C01F09174
:100332007D01A0917601B091770180917801909131
:100342007901662777270E94C50B10C0E0917C01D6
:10035200F0917D01A0917601B091770180917801B1
:1003620090917901662777270E94B90BE093760175
:10037200F09377016093780170937901A0917601EF
:10038200B09177018091780190917901E8E00E9423
:10039200C50B0E94DF0B0E2F66247724E8E0F0E005
:1003A2006E167F06A8F4F301A02FB0E00E94B00BF6
:1003B200E7FB20F821FE02C0689420F820FAA8B3D7
:1003C200A0F9A8BBC29AC298F30131963F01E6CFC9
:1003D200E09176010E94DF0B0E2F66247724E8E07D
:1003E200F0E06E167F06A8F4F301A02FB0E00E94A1
:1003F200B00BE7FB20F821FE02C0689420F820FA37
:10040200A8B3A0F9A8BBC29AC298F30131963F01E2
:10041200E6CF09910895A0918701A43079F4E09183
:100422008601A0917E01B0917F01F0E0EA17FB07FF
:1004320020F40E94E000C19AC1980FC044245524C0
:10044200E0E5F1E04E165F0630F40E94E000F201B2
:1004520031962F01F5CFC19AC1980895E091860196
:10046200A0917E01B0917F01F0E0EA17FB0710F046
:100472000C949404E0918701E03011F00C94900206
:1004820022FC13C0A0918601A33030F0E0916401F8
:10049200F0916501349605C0E0916401F091650127
:1004A2003896E0936401F0936501A0916401B091E4
:1004B2006501A034EAE0BE0711F4689422F822FE36
:1004C20015C0A0918001B09181011196A093800185
:1004D200B09381011197A536E0E0BE0738F0E894A9
:1004E20022F8E0E0E0938001E0938101E091830152
:1004F200F0918401E059FE4F0E94D50BE050FB4F72
:10050200A0916401B0916501EA17FB0738F4E0910C
:100512008201EF5FE0938201EA9371D3F8C1E13087
:1005220011F00C94E00222FC13C0A0918601A330CA
:1005320030F0E0916401F0916501349705C0E091DB
:100542006401F09165013897E0936401F0936501CD
:10055200A0916401B0916501A034EAE0BE0711F4F4
:10056200689422F822FE16C0A0918001B091810108
:100572001196A0938001B09381011197A536E0E016
:10058200BE0738F0E89422F8E0E0E0938001E093BF
:10059200810114C0A0916401B0916501A030E5E031
:1005A200BE0760F4E0E0E0937A01E0937B01E09122
:1005B2008201EF5FE0938201EA9321D3A8C1E23086
:1005C20011F00C946203E0918501E03091F4A09166
:1005D2007C01B0917D011197A0937C01B0937D01C4
:1005E200109731F4EF5FE0938501E150689423F8AE
:1005F20067C0A0918501A130C9F4A0917A01B091A0
:100602007B011196A0937A01B0937B01A536E0E0BD
:10061200BE0758F0E0918501EF5FE0938501E1505C
:10062200E0E0E0937A01E0937B014AC0A09185016A
:10063200A230A1F4A0917C01B0917D011196A0930A
:100642007C01B0937D01519740F0E0918501EF5F0D
:10065200E0938501E150E89423F832C0E89423F84E
:10066200E0E0E0938501E0E0E0937A01E0937B0132
:10067200E0E1F0E0E0937C01F0937D01E091640120
:10068200F0916501E05BFE4FE0936401F093650138
:10069200E0918301F0918401E059FE4F0E94D50B55
:1006A200E050FB4FA0916401B0916501EA17FB078E
:1006B20038F4E0918201EF5FE0938201EA939FD2E6
:1006C20026C1E33011F00C94E903E0918501E0309A
:1006D20091F4A0917C01B0917D011197A0937C01CE
:1006E200B0937D01109731F4EF5FE0938501E15003
:1006F200E89423F86CC0A0918501A130F1F4A09197
:100702007A01B0917B011196A0937A01B0937B019B
:10071200A536E0E0BE0780F0E0918501EF5FE0934F
:100722008501E150E0E0E0937A01E0937B01E0E0B3
:10073200E0937C01E0937D014AC0A0918501A23043
:10074200A1F4A0917C01B0917D011196A0937C014E
:10075200B0937D01519740F0E0918501EF5FE09306
:100762008501E150689423F832C0689423F8E0E0F0
:10077200E0938501E0E0E0937A01E0937B01E0E120
:10078200F0E0E0937C01F0937D01E0916401F0914F
:100792006501E05BFE4FE0936401F0936501E09137
:1007A2008301F0918401E059FE4F0E94D50BE05085
:1007B200FB4FA0916401B0916501EA17FB0738F481
:1007C200E0918201EF5FE0938201EA9318D29FC029
:1007D200E43061F5A0918601A33030F0E09164012C
:1007E200F0916501349605C0E0916401F0916501D4
:1007F2003896E0936401F0936501E0918301F091F2
:100802008401E059FE4F0E94D50BE050FB4FA091AE
:100812006401B0916501EA17FB0738F4E0918201A7
:10082200EF5FE0938201EA93EAD171C0E63011F002
:100832000C947F04E0918501E03091F4A0917C0159
:10084200B0917D011197A0937C01B0937D01109727
:1008520031F4EF5FE0938501E150E89423F83AC068
:10086200A0918501A130F1F4A0917A01B0917B01B0
:100872001196A0937A01B0937B01A536E0E0BE0702
:1008820080F0E0918501EF5FE0938501E150E0E0C7
:10089200E0937A01E0937B01E0E0E0937C01E09356
:1008A2007D0118C0E0918301F0918401E059FE4F6F
:1008B2000E94D50BE050FB4FA0916401B0916501FD
:1008C200EA17FB0738F4E0918201EF5FE0938201BF
:1008D200EA9395D1A0918601A33030F0E0916401B2
:1008E200F0916501349605C0E0916401F0916501D3
:1008F2003896E0936401F093650109C0E53039F45C
:10090200E0918201EF5FE0938201EA9378D1E0E027
:10091200E0937E01E0937F01A0918201A43018F060
:10092200E0E0E093820108950E94070C00EA10E0E3
:1009320020E0EB81EE0F0E0FAB81A43010F010E03F
:1009420020E8077F0E941B0BC49A0A93E12FF22F23
:100952003096FA93EA930E947F08E09386010A9305
:10096200E12FF22F3196FA93EA930E947F08E093E7
:1009720087010A93E12FF22F3296FA93EA930E94AB
:10098200C108E0938301F0938401E6E8F0E0FA9372
:10099200EA93ED81FF27662777270E94FF0BE091FC
:1009A2008601FF27662777270E94FF0BE0918701C8
:1009B200FF27662777270E94FF0BE0918301F091C2
:1009C2008401662777270E94FF0B80E10E94FB0AC1
:1009D2006296A0918301B0918401A131EEE0BE073D
:1009E20028F0E0E0E0938301E0938401A091870185
:1009F200A63018F0E5E0E0938701A0918601A536C4
:100A020018F0E0E0E0938601C49820C00E94070C31
:100A120000EA10E020E0EB81EE0F0E0FAB81A43074
:100A220010F010E020E8077F0E941B0BC49A0A9383
:100A3200E12FF22F3296FA93EA93E0918301F0913B
:100A42008401FA93EA930E94E608C4980E940E0C6D
:100A5200249608950E94070C00EA10E020E0EB8142
:100A6200EE0F0E0FAB81A43010F010E020E8077FEC
:100A72000E941B0BC49A0A93E12FF22F3096FA932D
:100A8200EA93E885EA930E94A2080A93E12FF22FE3
:100A92003196FA93EA93EF81EA930E94A208C498EE
:100AA2000E940E0C269608950E94050C00E010E0AC
:100AB20020EA30E040E0ED81EE0F2E0FAD81A43050
:100AC20010F030E040E808851985AE81BF81A13180
:100AD200EEE0BE0720F00E940C0C2A960895EE81EB
:100AE200FF81E05BFE4F0E94D50BA885B985EA0F16
:100AF200FB1FEE83FF83EF7371F0AE81BF81E0E4F1
:100B0200F0E00E94E40B0E94D50B0E94D10BE05C46
:100B1200FF4FEE83FF830E941B0BC49A0885198541
:100B2200EE81FF810E171F0788F4A8952A93F8011A
:100B3200E30FF41FFA93EA931A930A93E0E4EA9319
:100B42000E944409005C1F4F0C949105C49817C081
:100B52000E94050C00E010E020EA30E040E0ED8168
:100B6200EE0F2E0FAD81A43010F030E040E8088582
:100B72001985AE81BF81A131EEE0BE0720F00E944F
:100B82000C0C2A960895EE81FF81E05BFE4F0E94D5
:100B9200D50BA885B985EA0FFB1FEE83FF83EF73A0
:100BA20071F0AE81BF81E0E4F0E00E94E40B0E94AC
:100BB200D50B0E94D10BE05CFF4FEE83FF830E94B6
:100BC2001B0BC49A08851985EE81FF810E171F073A
:100BD20088F42A93F801E30FF41FFA93EA931A9325
:100BE2000A93E0E4EA930E940009A895005C1F4F73
:100BF2000C94E505C4980E940C0C2A960895A881CD
:100C0200A43010F0E0E0E883E881EA930E949504C2
:100C1200A0918701A53009F47BC0E0E0F5E0FA93EA
:100C2200EA93E0E0F0E8FA93EA93A1D0E0E0F5E09D
:100C3200FA93EA93E0918301F0918401FA93EA93A3
:100C4200EC81EA930E94A905E0E0E0937A01E09347
:100C52007B01E89422F8E0E0E0938501E0E0E09394
:100C62007C01E0937D01E0918701E03039F4E0E01E
:100C7200F5E0E0936401F09365014AC0E13069F464
:100C8200E0918301F09184010E94D50BE050FB4F6B
:100C9200E0936401F09365013BC0E23079F4E8949B
:100CA20023F8E0E1F0E0E0937C01F0937D01E0E4E1
:100CB200FAE0E0936401F09365012AC0E33079F42D
:100CC200689423F8E0E1F0E0E0937C01F0937D0189
:100CD200E0E4FAE0E0936401F093650119C0E430C6
:100CE20039F4E0E0F5E0E0936401F093650110C0AF
:100CF200E63071F4689423F8E0E1F0E0E0937C01DF
:100D0200F0937D01E0E0F5E0E0936401F09365018A
:100D1200219608950E94060C00E010E020E030E0E9
:100D22000E811F81C49A20E030E0EC81FD810E9497
:100D3200D50B2E173F07B0F4219781E0A0E0B0E079
:100D4200E2E7F0E00E94120C0E947409E095E88349
:100D5200D801EC930F5F1F4FA89521962F5F3F4F4D
:100D62000C949606C4980E940D0C289608951A9326
:100D72000A9300E015E00C811D81EA81FB81E017F6
:100D8200F10730F0D801EFEFEC930F5F1F4FF5CF73
:100D92001981088126960895E0E8E0936100E0E079
:100DA200E0936100EBBBEFEFEABBE0E0E8BBEFEF03
:100DB200E7BBE0E0E5BBEFEFE4BBE2BBE0E0E1BBB9
:100DC200E7B9EFEFE6B9E3E0E3BFE5E0E2BFE0E079
:100DD200E1BFEBB9E8E9EAB9E6E8E0BDE0E0E0BD91
:100DE200E7E6E9B9E0E8E5BFE0E0E6BFE2E0E9BF57
:100DF200E0E0E0937D00EEE5E4B9EFE1E1BDEFE094
:100E0200E1BD0895E0E0F5E0E0936401F09365014F
:100E12000E94CD06C498E0E0F5E0FA93EA93E0E0A0
:100E2200F0E8FA93EA930E94B806C498E2E3F0E08D
:100E3200FA93EA930E94820BC49AE2E3F0E0FA93F7
:100E4200EA930E94820BC498E4EFF1E0FA93EA93EA
:100E52000E94820BC49AE0E0E0938201EA930E942E
:100E62000006E7EAF0E0FA93EA9380E00E94FB0AC8
:100E72002296EAECF0E0FA93EA9380E00E94FB0A01
:100E82002296EEEEF0E0FA93EA9380E00E94FB0AEB
:100E92002296E9E0F1E0FA93EA9380E00E94FB0AED
:100EA20022960895F894A895E82DE230B9F590922B
:100EB2008301A0928401EB2DFC2DEF70F070E09382
:100EC2008201E0E0F5E0FA93EA93E0E0F0E8FA93D9
:100ED200EA930E94B806E0E4FAE0FA93EA93E0911A
:100EE2008301F0918401FA93EA930E948B06E0E475
:100EF200FAE0E0936401F0936501E0E0F5E0FA9333
:100F0200EA93E0918301F0918401FA93EA93BA9211
:100F12000E945505BA920E94070544C0E33009F4C5
:100F220041C0ED3059F4E92DFA2DF070EA93EA2D23
:100F3200F070EA93BA920E942B0534C0E73011F0A8
:100F4200EB3089F4BA920E940705E0E0F5E0FA93EB
:100F5200EA93E0918301F0918401FA93EA93BA92C1
:100F62000E9455051FC0E63011F0EA30B9F4BA927A
:100F72000E949504E0E0F5E0FA93EA93E0918301A0
:100F8200F0918401FA93EA93BA920E94A905E0E4EF
:100F9200FAE0E0936401F093650104C0E03111F4DA
:100FA20090FA21F881D0882478940895E4B7E3FF79
:100FB20005C0E4B7E07EE4BF9DD003C0E4B7E07EA5
:100FC200E4BF0E9403077894882019F00E94530717
:100FD20006C022FC02C00E940C020E942F02A895A9
:100FE2000C94E5070000FECFAA93BA93EA93FA9312
:100FF200EFB7EA931A930A930BB11CB1E02FEC718D
:1010020011F00C944C08AD2DB0E0A857BE4F1C93C4
:10101200D394E8E0ED1509F4DD24E394E8E0EE155D
:10102200D1F5EE24A0918801A53541F4E091890122
:10103200E53521F4E0918A01E53509F01DC0809083
:101042008B0190908C01AA24F92DE0E0DF01E09160
:101052008D01F0E0EA2BFB2B9E2EAF2EB0908E017D
:10106200CC24FB2DE0E0DF01E0918F01F0E0EA2BE0
:10107200FB2BBE2ECF2E0FC0A0918801AF3F41F4B3
:10108200E0918901EF3F21F4E0918A01EF3F09F0FD
:1010920002C0DD24EE2409911991E991EFBFF99183
:1010A200E991B991A9911895E5E5EA930E94780929
:1010B200E5E5EA930E947809E5E5EA930E9478095A
:1010C2008A920E947809EA2DF070EA930E947809C8
:1010D200E92DFA2DF070EA930E947809EC2DF07058
:1010E200EA930E947809EB2DFC2DF070EA930E949E
:1010F20078090895DD24EE24882408950A930E9435
:10110200200BEB81EA930E94540BEA81F070EA9380
:101112000E94540BE981FA81F070EA930E94540B09
:101122000E94200BEB81E160EA930E94540BE0E005
:10113200EA930E94390B0E2F0E942F0BE02F088199
:101142001DC00E94200BEB81EA930E94540BEA819E
:10115200F070EA930E94540BE981FA81F070EA93ED
:101162000E94540BE881EA930E94540B0E942F0BB9
:10117200EAE0F0E0FA93EA930E94820B2496089543
:101182001A930A9300E010E0EC81EA93EB81FC8170
:10119200FA93EA930E947F080E2F1127F02FE0E0C6
:1011A200FF93EF93EC81EA93EB81FC813196FA9302
:1011B200EA930E947F08AF91BF91F0E0EA2BFB2BEC
:1011C2008F01F8011981088118C0EC81EA93EB8143
:1011D200FC81FA93EA93EC81F070EA930E94A208F0
:1011E200EC81EA93EB81FC813196FA93EA93EB81ED
:1011F200FC81F070EA930E94A208259608950A9352
:1012020000E00E94200BEE81EA930E94540BED81D4
:10121200F070EA930E94540BEC81FD81F070EA9326
:101222000E94540B0E94200BEE81E160EA930E941F
:10123200540BE981E1500E1788F4E02F0F5FAA8169
:10124200BB81F0E0EA0FFB1FFF93EF93E1E0EA932B
:101252000E94390BAF91BF91EC93EBCFE981E15042
:10126200AA81BB81F0E0EA0FFB1FFF93EF93E0E05E
:10127200EA930E94390BAF91BF91EC930E942F0B1E
:101282000881279608950A9300E00E94200BEE81C0
:10129200EA930E94540BED81F070EA930E94540B82
:1012A200EC81FD81F070EA930E94540BE9810E17E4
:1012B20078F4E02F0F5FAA81BB81F0E0AE0FBF1F71
:1012C200EC91EA930E94540B000000000C94570921
:1012D2000E942F0BEAE0F0E0FA93EA930E94820B5D
:1012E2000881279608955F9BFECFECB108955D9B20
:1012F200FECFE881ECB921960895A881B9810E94B8
:10130200F70B309749F0ED91FD913196FE93EE93F4
:101312003197AA81A08304C0EA81EA930E947809E6
:101322002396089526970E94040C00E0E889F98923
:101332003196E88BF98B3197E4913E2FE03011F42E
:101342000C94F70AE02FE03059F4353211F401E041
:1013520006C03A93ED85FE85FA93EA93CEDF45C146
:10136200E130C9F4353239F43A93ED85FE85FA93CA
:10137200EA93C3DF39C102E050E010E03D3211F4DC
:1013820011E033C13B3211F45BE22FC1303211F470
:1013920050E22BC102C0E23039F440E003E03033C6
:1013A20011F4106822C104C0E33011F00C94F60A63
:1013B200303310F03A3308F009C0A42FEAE0EA9F74
:1013C200F0014E2FE32FE0534E0F0FC1E32FE33610
:1013D20071F4AE85BF851497AE87BF871496EC91E2
:1013E200EA93ED85FE85FA93EA9387DFFDC0E33742
:1013F20081F4AE85BF851497AE87BF8714960E948D
:10140200F70BEE83FF83FA93EA930E946D0B0E2F84
:1014120012C0E037A1F4AE85BF851497AE87BF87AF
:1014220014960E94F70BEE83FF83FA93EA930E94CD
:10143200770B0E2F186012601F7720E040C0E43651
:1014420011F0E93611F4146002C0E53731F4E4E733
:10145200F0E0EE83FF8305E00DC0E83511F418607B
:1014620004C0E83711F00C94F50AEEE7F0E0EE83E1
:10147200FF8304E012FF19C0AE85BF851497AE87C3
:10148200BF8714960E94F70BEA87FB87AA85BB8564
:1014920010972CF40E94AC0BEA87FB875DE2503078
:1014A20011F00F5F01C01B7F0AC0AE85BF85149784
:1014B200AE87BF8714960E94F70BEA87FB8710FD61
:1014C20015C0041798F417FF08C012FF04C01B7F51
:1014D200352F015001C030E301C030E23A93ED856F
:1014E200FE85FA93EA9309DF4150EBCF202F11FFDB
:1014F2001DC02030D1F013FF08C0EE81FF8131966C
:10150200EE83FF833197E49105C0AE81BF81ED91F7
:10151200AE83BF83EA93ED85FE85FA93EA93EDDE0F
:10152200403009F041502150E4CF51C030E3EE8108
:10153200FF813296EE83FF8332970E94FB0BE8878E
:10154200F987E885F985AA85BB85AE17BF0750F0F4
:101552003F5FA885B985EA85FB85EA1BFB0BEA8715
:10156200FB87EFCF3A3328F013FF02C0395F01C087
:10157200395D14FD1DC0313320F4A885B98511975A
:1015820009F409C0421710F010FF01C01AC030E27E
:1015920017FF0EC030E3106112FF0AC01B7F5A937F
:1015A200ED85FE85FA93EA93A8DE403009F04150BA
:1015B2003A93ED85FE85FA93EA939FDE403009F077
:1015C20041502150A885B985129708F0AFCF10FF7E
:1015D2000BC0403049F04150E0E2EA93ED85FE85D0
:1015E200FA93EA938ADEF5CF00E0A0CE0E940B0CBC
:1015F20062960895FF92F82E22971A930A93DE01BB
:101602000E94A30B8D01E0E0EA83EB83DE011496D6
:101612000E94A30B0E94F70BFA93EA931A930A9380
:10162200FE013696FA93EA937DDE198108812496AB
:10163200FF900895929893988A9A8B9815C08B98E8
:101642008A98EE270000839B0895829B089504D018
:101652008B9A02D08A9AE1E06BE107C08B9A8A9A50
:1016620003D08A98F9DF8B9865E36A95F1F70895BC
:1016720078E08A98F1DF829BFECFEEDF889483992F
:1016820008948A9AF1DFEE1F7A9599F77991772378
:1016920011F48B9801C08B9ADFDF8A98E5DF8A9A72
:1016A200DBDF8B98D9CFE99178E0EE0F10F48B98BD
:1016B20001C08B9AD9DF8A98CFDF829BFECFCCDF25
:1016C2008A9A7A9591F78B98C7DF8A98CDDFE1E005
:1016D2008399EE278A9A0895A991B991EE27FF2757
:1016E2006D91662311F03196FBCF0895AA27BB278F
:1016F200E991F9910590002011F01196FBCFFD01BF
:101702000895E991F991309639F080EA9FE00197C6
:10171200F1F7A8953197C9F70895E881E295EF703E
:10172200AE2FAA0FAA0FEA0FEE0FA991AF70EA0F20
:101732000895A991EE27AA5012F0E05FFCCFA65FB0
:10174200EA0F08950024AF0DB01D0895EA2BFB2B7C
:10175200682B792B0895E095F09531960895EE2344
:101762000E2EFD0121F0EE0FFF1F0A94E1F70895FE
:10177200EE230E2EFD01BC0131F0EE0FFF1F661F9E
:10178200771F0A94D1F70895EE230E2EFD01BC01B6
:1017920031F076956795F795E7950A94D1F7089514
:1017A200EE0FFF1FEE0FFF1FEE0FFF1FEE0FFF1FCB
:1017B20008956E2F7F2FE0E0F0E00895E095F09518
:1017C2006095709508950024112490E1AA0FBB1F23
:1017D200001C111C0E1A1F0A18F40E0E1F1E01C047
:1017E200A1609A9599F7FD01D0010895ED91FC91C0
:1017F200119708950590F491E02D08957A936A93D4
:10180200FA93EA9308955A934A933A932A931A932E
:101812000A9308955D814C813B812A811981088157
:101822000895AC0FBD1F05900D928A95E1F70895BA
:00000001FF
