:100000000C9482000C9400000C9400000C940000EE
:100010000C9400000C9400000C9400000C94000060
:100020000C9400000C9400000C9400000C94000050
:100030000C9400000C9400000C9400000C94000040
:100040000C9400000C94B4000C9400000C94C301B8
:100050000C9400000C9400000C9400000C94000020
:100060000C9400000C9400000C9400000C94000010
:1000700084FC91B0E8A282F480A0FBFF1027E80383
:1000800064000A00010000100001100001000D0AC8
:100090000025303258200047616D6553686F772026
:1000A00076312E30302044657369676E6564206256
:1000B000792043756F6E67517561790D0A0063751C
:1000C0006F6E673369687574407961686F6F2E630E
:1000D0006F6D202D20303931353635313030310DCE
:1000E0000A0053746172746564206F6E3A20303672
:1000F0002E30332E323030370D0A00000C006401F0
:1001000070000000F894EE27ECBBF1E0FBBFEBBF02
:10011000E5BFE6BFF8E1F1BDE1BD8DE0A2E0BB27A0
:10012000ED938A95E9F780E094E0A0E0B1E0ED93EB
:100130000197E9F7ECEFF0E085919591009761F078
:10014000A591B59105901590BF01F00105900D9214
:100150000197E1F7FB01F0CFEFEFEDBFE4E0EEBF79
:10016000C4E6D1E00C94A701EA93E5E0E2BFE9918F
:1001700018950E94350400E010E020E0C598C7986B
:10018000C69810E01C3010F501E020E02830E0F4C3
:10019000E12FF0E0EC59FE4FE081E023AE2FE22F9B
:1001A0000E941D04E03011F0C69A01C0C698C59A9D
:1001B00088EE93E00197F1F7C59888EE93E00197F8
:1001C000F1F7000F2F5FE2CF1F5FDCCFC79A88EEF9
:1001D00093E00197F1F7C79888EE93E00197F1F764
:1001E0000E943C0423960895E1E0F0E0FA93EA933C
:1001F0000E94090408950A9300E000E0E9810E17C7
:1002000060F4E02FF0E0EC59FE4FFF93EF9345D1FF
:10021000AF91BF91EC930F5FF1CFEEE8F0E0FA936E
:10022000EA9380E00E94D403229600E00C30A0F410
:10023000E1E9F0E0FA93EA93E02FF0E0EC59FE4FA9
:10024000E081FF27662777270E942D0484E00E9423
:10025000D40326960F5FEACFEEE8F0E0FA93EA9334
:1002600080E00E94D4032296088163C0E0E8E09316
:100270006100E0E0E0936100EBBBEFEFEABBE0E0A0
:10028000E8BBEFEFE7BBE0E0E5BBEFEFE4BBE2BBD1
:10029000E0E0E1BBE7B9EFEFE6B9E3E0E3BFE5E0BB
:1002A000E2BFE0E0E1BFEBB9E8E9EAB9E6E8E0BDCA
:1002B000E0E0E0BDE7E6E9B9E0E8E5BFE0E0E6BFA1
:1002C000E2E0E9BFE0E0E0937D00EFE1E1BDEFE0D7
:1002D000E1BD08950E943601C498E2E3F0E0FA938C
:1002E000EA930E940904C49AE2E3F0E0FA93EA93E5
:1002F0000E940904C498E4EFF1E0FA93EA930E94A3
:100300000904C49AE7E9F0E0FA93EA9380E00E94D6
:10031000D4032296EEEBF0E0FA93EA9380E00E9499
:10032000D4032296E2EEF0E0FA93EA9380E00E9492
:10033000D40322960895F894A895E42DE13019F499
:100340007A920E94FB007FD0442478940895E4B709
:10035000E3FF05C0E4B7E07EE4BF9BD003C0E4B791
:10036000E07EE4BF0E946A017894442019F00E9464
:100370009B0104C00E94B9000E94F400A8950C944F
:10038000B5010000FECFAA93BA93EA93FA93EFB7B0
:10039000EA931A930A930BB11CB1E02FEC7111F0A0
:1003A0000C941A02A92DB0E0A059BE4F1C9393944F
:1003B000E8E0E91509F49924A394E8E0EA15D1F5F9
:1003C000AA24A0917001A53541F4E0917101E535B1
:1003D00021F4E0917201E53509F01DC040907301F0
:1003E000509074016624F52DE0E0DF01E091750185
:1003F000F0E0EA2BFB2B5E2E6F2E709076018824A6
:10040000F72DE0E0DF01E0917701F0E0EA2BFB2B34
:100410007E2E8F2E0FC0A0917001AF3F41F4E0916E
:100420007101EF3F21F4E0917201EF3F09F002C04A
:100430009924AA2409911991E991EFBFF991E991C1
:10044000B991A9911895E5E5EA930E945102E5E575
:10045000EA930E945102E5E5EA930E9451024A9212
:100460000E945102E62DF070EA930E945102E52DA0
:10047000F62DF070EA930E945102E82DF070EA9395
:100480000E945102E72DF82DF070EA930E9451026C
:1004900008959924AA24442408955F9BFECFECB1CB
:1004A00008955D9BFECFE881ECB921960895A8815F
:1004B000B9810E942504309749F0ED91FD91319664
:1004C000FE93EE933197AA81A08304C0EA81EA9358
:1004D0000E9451022396089526970E94320400E05C
:1004E000E889F9893196E88BF98B3197E4913E2FB1
:1004F000E03011F40C94D003E02FE03059F43532A1
:1005000011F401E006C03A93ED85FE85FA93EA9373
:10051000CEDF45C1E130C9F4353239F43A93ED8587
:10052000FE85FA93EA93C3DF39C102E050E010E0A0
:100530003D3211F411E033C13B3211F45BE22FC1C3
:10054000303211F450E22BC102C0E23039F440E005
:1005500003E0303311F4106822C104C0E33011F01D
:100560000C94CF03303310F03A3308F009C0A42FB5
:10057000EAE0EA9FF0014E2FE32FE0534E0F0FC148
:10058000E32FE33671F4AE85BF851497AE87BF873E
:100590001496EC91EA93ED85FE85FA93EA9387DF52
:1005A000FDC0E33781F4AE85BF851497AE87BF8762
:1005B00014960E942504EE83FF83FA93EA930E9427
:1005C000F4030E2F12C0E037A1F4AE85BF85149757
:1005D000AE87BF8714960E942504EE83FF83FA93AB
:1005E000EA930E94FE030E2F186012601F7720E02E
:1005F00040C0E43611F0E93611F4146002C0E5376A
:1006000031F4ECE7F0E0EE83FF8305E00DC0E83560
:1006100011F4186004C0E83711F00C94CE03E6E83A
:10062000F0E0EE83FF8304E012FF19C0AE85BF85C2
:100630001497AE87BF8714960E942504EA87FB872C
:10064000AA85BB8510972CF40E941904EA87FB87C2
:100650005DE2503011F00F5F01C01B7F0AC0AE8514
:10066000BF851497AE87BF8714960E942504EA873A
:10067000FB8710FD15C0041798F417FF08C012FF80
:1006800004C01B7F352F015001C030E301C030E2B0
:100690003A93ED85FE85FA93EA9309DF4150EBCF5B
:1006A000202F11FF1DC02030D1F013FF08C0EE81B4
:1006B000FF813196EE83FF833197E49105C0AE81CF
:1006C000BF81ED91AE83BF83EA93ED85FE85FA93FA
:1006D000EA93EDDE403009F041502150E4CF51C0A3
:1006E00030E3EE81FF813296EE83FF8332970E94E2
:1006F0002904E887F987E885F985AA85BB85AE17BF
:10070000BF0750F03F5FA885B985EA85FB85EA1BE6
:10071000FB0BEA87FB87EFCF3A3328F013FF02C0C9
:10072000395F01C0395D14FD1DC0313320F4A88547
:10073000B985119709F409C0421710F010FF01C0E4
:100740001AC030E217FF0EC030E3106112FF0AC07A
:100750001B7F5A93ED85FE85FA93EA93A8DE40301D
:1007600009F041503A93ED85FE85FA93EA939FDEB6
:10077000403009F041502150A885B985129708F002
:10078000AFCF10FF0BC0403049F04150E0E2EA9398
:10079000ED85FE85FA93EA938ADEF5CF00E0A0CEE0
:1007A0000E94390462960895FF92F82E22971A93B8
:1007B0000A93DE010E9415048D01E0E0EA83EB83D9
:1007C000DE0114960E9415040E942504FA93EA9310
:1007D0001A930A93FE013696FA93EA937DDE198105
:1007E00008812496FF900895A991B991EE27FF27DB
:1007F0006D91662311F03196FBCF0895AA27BB2790
:10080000E991F9910590002011F01196FBCFFD01BF
:100810000895E991F991309639F080EA9FE00197C7
:10082000F1F7A8953197C9F708950024AF0DB01DD1
:100830000895E095F09531960895EE230E2EEA2F57
:1008400019F0E6950A94E9F70895ED91FC91119756
:1008500008950590F491E02D08957A936A93FA93A0
:10086000EA9308955A934A933A932A931A930A93D0
:1008700008955D814C813B812A8119810881089509
:00000001FF
