:100000000C94B8010C9400000C9400000C940000B7
:100010000C9400000C9400000C9400000C94000060
:100020000C9400000C9400000C9400000C94000050
:100030000C9400000C9400000C9400000C94000040
:100040000C9400000C94EA010C9400000C949B0C9E
:100050000C9400000C9400000C9400000C94000020
:100060000C9400000C9400000C9400000C94000010
:100070002A2A2043756F6E675175617920303931B6
:1000800035363531303031202A2A00000000A000FA
:10009000A0000000000000000000000000000000C0
:1000A00000000000000060C9460054D92E00A0D412
:1000B000540050DA3E0052752A00A0564E00A7A701
:1000C0003800D0A55E00B0924A00B5AA320050A90F
:1000D0005800A0B44200A4BA2C0050AD5000D9552D
:1000E0003C00A04B6200B0A54C0076513700705226
:1000F0005C003069460034793000A06A540050AD8D
:100100003E00525B2A00604B5000E6A63800E0A497
:100110005E0060D2480065EA320020D55600A0DAC1
:100120004000A3562D00D0565200FB4A3C00D04957
:100130006200D0A44C00B6D0370050B25A0020B5AF
:10014000440025DD2E00A0B55400D0553E00B25528
:100150002A00B049500077A53A00B0A45E0050AA2A
:10016000480055B23300206D580060AD4000634B2D
:100170002D0070535200E8493E0070C96000B05431
:100180004C00A668370050DA5A00A05A4400A4A6D2
:100190002F00D0AA5400E0524000E3D2280050C9FA
:1001A0004E0057D53800A0D45E0050D94600555DAA
:1001B0003200A0565800D0A64200D4552C00B052B0
:1001C0005200B8A93C0030A9620090B44A00A6B61B
:1001D000340050AD5A00A055460064AB2E0070A507
:1001E0005400B052400073B12A0030694E00376BA2
:1001F0003800A06A5E0050AD4800D52A3300602B5D
:10020000580070A54200E4522E0060D1500058E919
:100210003A0020D5600090DA4A00A65A3500D05640
:100220005A00E02A4600D4A93000D0A2540050D190
:100230003E0052E92800000000000000000000001D
:100240000000000000001D001E0000000000000073
:1002500000001027E80364000A00010000100001FC
:10026000100001006400C80090012003F8FFFCFFAB
:10027000FEFFFFFF4261792067696F206C612030CB
:10028000302067696F2030302070687574203030FE
:1002900020676961792E204E6761792030302074A3
:1002A00068616E67203030206E616D2030303030F4
:1002B0002E006C696E653D256420726174653D2574
:1002C0006420747970653D2564206C656E3D2564FD
:1002D0000D0A004C434D532076322E3032204465B7
:1002E0007369676E65642062792043756F6E67512C
:1002F0007561790D0A0063756F6E6733696875748F
:10030000407961686F6F2E636F6D202D2030393119
:10031000353635313030310D0A0052656C65617308
:100320006520646174653A2030392E30312E3230C8
:1003300030370D0A0042A979206769EA206CB520A0
:10034000253032643A25303264206E67B579202535
:10035000642F25642F2564202825642F256420A27E
:100360006D206CDE636829003E00C103740200004A
:10037000F894EE27ECBBF1E0FBBFEBBFE5BFE6BFB7
:10038000F8E1F1BDE1BD8DE0A2E0BB27ED938A95D8
:10039000E9F780E094E0A0E0B1E0ED930197E9F7A0
:1003A000E8E6F3E085919591009761F0A591B5910C
:1003B00005901590BF01F00105900D920197E1F7AE
:1003C000FB01F0CFEFEFEDBFE4E0EEBFC0EAD1E01C
:1003D0000C947F0CEA93FA93EFB7EA93E5E0E2BF5F
:1003E000E091AD01F091AE013196E093AD01F09353
:1003F000AE01E991EFBFF991E99118950A9300E0F8
:10040000959A00E0083080F4E7E0F0E0E419F5099F
:10041000A02FB0E0EA17FB0711F4959801C0959A58
:10042000939A93980F5FEECF0CC00A9300E0959AD1
:1004300000E0083020F4939A93980F5FFACF949AD3
:10044000949809910895662477244424552421FE24
:1004500003C00E9415020895E091BF03F091C0030C
:10046000E855F74FA091A001B091A101EA1BFB0B49
:10047000E093B903F093BA03E091BD03F091BE039A
:10048000E855F74FEA1BFB0BE093B703F093B80373
:10049000E091A001F091A101E093A401F093A501E6
:1004A000A091A401B091A501AF3FEFE7BE0710F006
:1004B0000C94C703A091AB01A13041F4A091BF03FC
:1004C000B091C003A836E0E0BE0708F07CC0E09120
:1004D000BF03F091C0036E167F06A0F520FE20C07A
:1004E000D201E8EFFEE00E945B15E859FF4FE60DF0
:1004F000F71DA091A801B091A901AE0FBF1F6C918B
:10050000F201A8E6B0E00E945B15E60DF71DA09190
:10051000A601B091A701AE0FBF1FEC91E62310C05A
:10052000D201E8EFFEE00E945B15E859FF4FE60DAF
:10053000F71DA091A801B091A901AE0FBF1FEC91CA
:10054000E8BB40C0E091B903F091BA03E615F705A6
:1005500038F4E091B703F091B8036E167F0608F007
:100560001EC020FE15C0A091A401B091A5016C9100
:10057000F201A8E6B0E00E945B15E60DF71DA09120
:10058000A601B091A701AE0FBF1FEC91E62305C0F5
:10059000A091A401B091A501EC91E8BB13C020FE8D
:1005A0000FC0F201A8E6B0E00E945B15E60DF71D52
:1005B000A091A601B091A701AE0FBF1FEC9101C0A1
:1005C000EFEFE8BBADC023FE46C0E8E0F0E08E16DA
:1005D0009F0634F5E7E0F0E0E819F909E415F505C0
:1005E00088F4D401E8EFFEE00E946915A091A4010F
:1005F000B091A501AE0FBF1FA05CB747EC91E69587
:10060000E6950CC0D401E8EFFEE00E946915A091C8
:10061000A401B091A501AE0FBF1FEC91E8BB1AC0B9
:10062000E0E1F0E0E819F9094E165F0688F4D4011C
:100630001897E8EFFEE00E946915A091A401B0911F
:10064000A501AE0FBF1FEC91E695E695EC6C01C0DD
:10065000EFEFE8BB65C024FE46C0E8E0F0E08E1690
:100660009F062CF548145904A0F4E091A401F091E0
:10067000A501E054F848BF01D401E8EFFEE00E9474
:100680006915DB01AE1BBF0BEC91EE0FEE0FE363C0
:100690000CC0D401E8EFFEE00E946915A091A4010E
:1006A000B091A501AE1BBF0BEC91E8BB1BC0F401E0
:1006B0003897E415F505A0F4E091A401F091A501A7
:1006C000E054F848BF01D401E8EFFEE00E9469154C
:1006D000DB01AE1BBF0BEC91EE0FEE0FE36301C02D
:1006E000EFEFE8BB1DC020FE15C0A091A401B091A2
:1006F000A5016C91F201A8E6B0E00E945B15E60D41
:10070000F71DA091A601B091A701AE0FBF1FEC91FC
:10071000E62305C0A091A401B091A501EC91E8BB2E
:10072000E8B3E06FE8BB3A9A3A98F30131963F019B
:10073000E836A0E0FA0708F1662477240E94150243
:100740000E94FE01949A9498389A3898F201319652
:100750002F01389710F044245524E1E0F0E0FA939B
:10076000EA930E94A514E091A401F091A501E0573D
:10077000F14FE093A401F093A501E091A401F09161
:10078000A5013196E093A401F093A50189CE0895C7
:1007900038983A98E091AA01A091AD01B091AE01CC
:1007A000F0E0AE17BF0710F40C945F06E0E0E093B2
:1007B000AD01E093AE01E89420F8E091AB01E130A7
:1007C00011F00C946604A091BF03B091C003A93648
:1007D000E0E0BE0738F122FC15C0A091B301B09152
:1007E000B401A436E0E0BE0718F4689422F809C00A
:1007F000E091A001F091A1013196E093A001F09366
:10080000A1010FC0A091B301B091B4011196A093C2
:10081000B301B093B401A536E0E0BE0710F0E89450
:1008200022F845C0E091A001F091A1013296E09339
:10083000A001F093A101A091BF03B091C003E8EA29
:10084000F8E0EA1BFB0BA091A001B091A101EA170F
:10085000FB0768F5E091BB03F091BC033196E09390
:10086000BB03F093BC03A7EBB1E0EE0FFF1FAE0F8D
:10087000BF1F0E949415E093BF03F093C003A091A3
:10088000BB03B091BC03AA0FBB1FA754BE4F0E946D
:100890009415E093BD03F093BE03E091BF03F09184
:1008A000C003E05CF74FE093A001F093A101E09159
:1008B000B101F091B201E854F74FA091A001B091BD
:1008C000A101AE17BF0708F072D5F9C1E030C9F435
:1008D000E091A001F091A1013196E093A001F09385
:1008E000A1013197E091B101F091B201E854F74FC5
:1008F000A091A001B091A101AE17BF0708F057D594
:10090000DEC1E23011F00C94D204A091A001B091AC
:10091000A101A83AE8E0BE0750F4E091A001F091EF
:10092000A101B096E093A001F093A1013AC021FC8F
:1009300013C0A091B301B091B4011196A093B3017B
:10094000B093B401D39738F0689421F8E0E0E093D5
:10095000B301E093B40125C0A091B301B091B401FB
:100960001196A093B301B093B401A536E0E0BE07A1
:10097000C0F0E89421F8E0E0E093B301E093B40123
:10098000A091B501B091B6011196A093B501B093B5
:10099000B601149730F0E0E0E093B501E093B601C2
:1009A00006D58DC1E330D9F4E091A001F091A10109
:1009B0003196E093A001F093A1013197689420F85B
:1009C000E091B101F091B201E854F74FA091A0017C
:1009D000B091A101AE17BF0708F0E9D470C1E430AF
:1009E00011F00C944605A091A001B091A101A83A84
:1009F000E8E0BE0730F4E091A001F091A101389643
:100A000032C0A091A001B091A101A83AE8E0BE07D0
:100A100020F0A03BE8E0BE0708F01EC022FC03C0A7
:100A2000689422F818C0A091B301B091B401119656
:100A3000A093B301B093B401A536E0E0BE0758F02F
:100A4000E89422F8E091A001F091A1013896E0939A
:100A5000A001F093A1010BC022FC09C0E091A0010C
:100A6000F091A1013196E093A001F093A101E091F2
:100A7000B101F091B201E854F74FA091A001B091FB
:100A8000A101AE17BF0708F092D419C1E53011F0EB
:100A90000C949B0523FE3AC022FC28C0F401319639
:100AA0004F01709714F1E89423F8689424F8E0E17A
:100AB000F0E04F01E091A001F091A101E859FF4F52
:100AC000E093A001F093A101E091B101F091B20196
:100AD000E855F74FA091A001B091A101AE17BF0753
:100AE00020F0E89423F824F862D40FC0A091B30159
:100AF000B091B4011196A093B301B093B401A5369F
:100B0000E0E0BE0710F0E89422F814C024FE12C002
:100B1000F40131974F01DF01109764F48824992480
:100B2000E89424F8689423F822F8E0E0E093B30115
:100B3000E093B401C4C0E63011F00C94F00524FE3B
:100B400039C022FC27C0F40131964F0170970CF197
:100B5000689423F8E89424F8E0E1F0E04F01E09194
:100B6000A001F091A101E859FF4FE093A001F0939B
:100B7000A101E091B101F091B201E855F74FA091C8
:100B8000A001B091A101AE17BF0718F023F824F817
:100B90000ED40FC0A091B301B091B4011196A093EF
:100BA000B301B093B401A536E0E0BE0710F0E894BD
:100BB00022F815C023FE13C0F40131974F01DF0165
:100BC00010976CF488249924689424F8E89423F806
:100BD000689422F8E0E0E093B301E093B4016FC0C1
:100BE000E73011F00C94450624FE1FC022FC0DC016
:100BF000F40131964F0170973CF0689423F8E89423
:100C000024F8E0E1F0E04F010FC0A091B301B091F2
:100C1000B4011196A093B301B093B401A536E0E0FE
:100C2000BE0710F0E89422F815C023FE13C0F401AB
:100C300031974F01DF0110976CF488249924689450
:100C400024F8E89423F8689422F8E0E0E093B301F4
:100C5000E093B401E091A001F091A1013196E093FD
:100C6000A001F093A101E091B101F091B201E8552A
:100C7000F74FA091A001B091A101AE17BF0720F0DE
:100C8000E89423F824F893D31AC0E830C1F4E09133
:100C9000A001F091A1013196E093A001F093A10190
:100CA0003197E091B101F091B201E854F74FA09172
:100CB000A001B091A101AE17BF0708F078D3E1E021
:100CC00008950E94C31500E010E020E030E040E00D
:100CD00050E009851A85C49840E050E04830E0E0D3
:100CE0005E0728F520E030E0EF81F8852E173F07FA
:100CF00078F41F930F930F5F1F4F0E94AB11E09585
:100D0000AF91BF91EC93A8952F5F3F4F0C94740661
:100D1000EE81E03041F4AF81B885E8EFFEE0EA1BF8
:100D2000FB0B0E0F1F1F4F5F5F4F0C946E06C49A94
:100D30000E94CA152B9608951A930A9300E010E0BA
:100D4000C49800E010E0EA81FB810E171F0710F045
:100D50000C94E106229782E0A0E0B0E0ECE8F0E03D
:100D60000E94D1150E94AB11F0E0E883F983A895A9
:100D7000F801A7EBB1E0EE0FFF1FEA0FFB1FA88100
:100D8000B981A083B1830E94AB11F0E0E883F983BD
:100D9000A895F801A7EBB1E0EE0FFF1FEA0FFB1FCC
:100DA0000F01DF010E949415DF01F881E0E0EA2BDA
:100DB000FB2BD001ED93FC9322960F5F1F4F0C94F9
:100DC000A306EFEFFFEFE093BF03F093C003C49AD5
:100DD00019810881249608950E94C41500E010E04E
:100DE00020EA3AE040E0ED81EE0F2E0F0E943E1423
:100DF000C49800E010E0EE81FF810E171F07D0F4C9
:100E00002A93F801EE0FFF1FE30FF41FFA93EA9302
:100E1000F801A7EBB1E0EE0FFF1FAE0FBF1F0E945E
:100E20009415FA93EA930E949F0DA8950F5F1F4FA8
:100E30000C94FB06C49AE0E0E2BBEFE3E1BB0E9446
:100E4000CB15289608950E94C41500E010E020EA12
:100E50003AE040E0ED81EE0F2E0F0E943E14C49860
:100E600000E010E0EE81FF810E171F07E0F4F801AB
:100E7000A7EBB1E0EE0FFF1FEA0FFB1FFF93EF930D
:100E80002A93F801EE0FFF1FE30FF41FFA93EA9382
:100E90000E947A0DAF91BF91ED93FC93A8950F5FDF
:100EA0001F4F0C943207C49AE0E0E2BBEFE3E1BBD2
:100EB0000E94CB15289608950E94C41500E010E00A
:100EC00020E438E040EAED81EE0F4E0F0F811885E7
:100ED0000E943E14C498EE81E03011F42FEF3FE7FA
:100EE0000F8118850217130770F4A8954A931A9377
:100EF0000A931A930A93E0E4EA930E94FD0D005CC2
:100F00001F4F0C947207C49AE0E0E2BBEFE3E1BB31
:100F10000E94CB1529960895219781E0A0E0B0E0CA
:100F2000EEE8F0E00E94D1150E94C31500E010E049
:100F300020E030E040E050E0EF81EE0FAE81EA0FBC
:100F4000EE830B851C85A985BA85A93FEEE0BE0717
:100F500020F00E94CA152D960895E985FA85EF7351
:100F600071F0A985BA85E0E4F0E00E946E150E9458
:100F700051150E944D15E05CFF4FE987FA870E94EA
:100F80003E14C49840E050E04830E0E05E0738F599
:100F900020E030E0E985FA852E173F0788F4EE81DE
:100FA000EA931A930A931A930A93E0E4EA930E944D
:100FB000B90D005C1F4FA895205C3F4F0C94CA07E9
:100FC000E885E03041F4A985BA85E8EFFEE0EA1B48
:100FD000FB0B0E0F1F1F4F5F5F4F0C94C407C49A8B
:100FE000E0E0E2BBEFE3E1BB0E94CA152D96089555
:100FF0000A9300EAE981EE0F0E0F0E943E14C49A94
:10100000A8950A93E0E0F0E0FA93EA930E94380D85
:10101000E093AB010A93E1E0F0E0FA93EA930E94D7
:10102000380DE093AA010A93E2E0F0E0FA93EA9324
:101030000E947A0DE093B101F093B2010A93E4E0CB
:10104000F0E0FA93EA930E947A0DE093AF01F093F7
:10105000B001E2EBF2E0FA93EA93EB81FF27662717
:1010600077270E94A815E091AA01FF276627772716
:101070000E94A815E091AB01FF27662777270E9401
:10108000A815E091B101F091B201662777270E947F
:10109000A81580E10E9456136296A091B101B0910B
:1010A000B201A93FEEE0BE0728F0E0E0E093B10115
:1010B000E093B201A091AF01B091B001A030E1E0A6
:1010C000BE0728F0E0E0E093AF01E093B001C498E0
:1010D000E0E0E2BBEFE3E1BB21C00A9300EAE98173
:1010E000EE0F0E0F0E943E14C49A0A93E0E0F0E067
:1010F000FA93EA93E091AB01EA930E945B0D0A93A5
:10110000E1E0F0E0FA93EA93E091AA01EA930E9409
:101110005B0DC498E0E0E2BBEFE3E1BB08812296FF
:1011200008950A9300EAE981EE0F0E0F0E943E1423
:10113000C49A0A93E2E0F0E0FA93EA93ED81FE812B
:10114000FA93EA930E949F0D0A93E4E0F0E0FA9389
:10115000EA93E091AF01F091B001FA93EA930E9413
:101160009F0DC498E0E0E2BBEFE3E1BB0881249669
:1011700008951A930A9300E015E00C811D81EA811D
:10118000FB81E017F10730F0D801EFEFEC930F5F30
:101190001F4FF5CF19810881269608950E943E14AD
:1011A000C498E0E0EA93EA93EA930E94C7130E948E
:1011B000AB11EA930E94AB11EA930E94AB11EA9340
:1011C0000E941B140E94AB11EA930E94AB11EA9398
:1011D0000E94AB11EA930E94C713C49AE0E0E2BBFD
:1011E000EFE3E1BB08952E978EE0A0E0B0E0E0E9E8
:1011F000F0E00E94D1150E94C31500E010E020E04D
:1012000030E040E050E0EC89EE0FAE81EA0FEE8373
:10121000E88DE03029F4EFEFEA87EF83E8871AC022
:10122000E13039F4EAEAEA87E9E9EF83E8E8E887B8
:1012300011C0E23039F4E5E5EA87E4E4EF83E6E65D
:10124000E88708C0E33031F4E0E0EA87E2E2EF83C8
:10125000E1E1E887C4980E943E14E98DFA8DFA9383
:10126000EA930E949014EA8BE0E0EB8BEA89AB8969
:10127000AE1710F00C94CA09EB89A98DBA8DF0E075
:10128000AE0FBF1FEC91E98BA7EBB1E0F0E0EE0FE2
:10129000FF1FAE0FBF1F0E949415ED87FE87A9891F
:1012A000B0E0AA0FBB1FA754BE4F0E949415EB8756
:1012B000FC87AD85BE85EA1BFB0BEF87F88BE00F43
:1012C000F11FE83FAEE0FA0710F00C94CA0940E0C5
:1012D00050E04830E0E05E0714F00C94C109EF895B
:1012E000E030A9F04050504024F04430E0E05E0788
:1012F0000CF002C0EF81EA874430E0E05E0724F0A2
:101300004830E0E05E070CF002C0E885EA8720E0A4
:1013100030E0EF85F8892E173F0778F5A895EE8124
:10132000EA93DA01E8EFFEE00E946915E855F74F0D
:10133000AE85BF85EA0FFB1FE20FF31FFA93EA9316
:101340000E94380DE987E095AE2FEA85E095EA2303
:10135000E987DA01E8EFFEE00E946915E20FF31F6A
:10136000E00FF11FAD89BE89AE0FBF1FE985E09583
:10137000EC932F5F3F4F0C9489094F5F5F4F0C94A4
:101380006909EF85F8890E0F1F1FEB89EF5FEB8B63
:101390000C9436090093B1011093B201C49AE0E0B5
:1013A000E2BBEFE3E1BB0E94CA156B960895E89497
:1013B00022F8E0E0E093B301E093B401A091AC0126
:1013C000AF5FA093AC01A23018F0E0E0E093AC0175
:1013D0000E941502E091AC01EA930E94F807E0E058
:1013E000F5E0FA93EA93EFEFFFE7FA93EA930E94AE
:1013F000B908E091AF01F091B001FA93EA93E0915E
:10140000AC01EA930E942307A091AB01A83001F13F
:10141000E0E0F5E0FA93EA93E8E6F0E0FA93EA9385
:10142000E1E0EA93E091AC01EA930E948C07E8EADC
:10143000F8E0FA93EA93E091B101F091B201FA93E6
:10144000EA93E0E0EA93E091AC01EA930E948C0712
:10145000E091AB01E13061F4E0E0E093BB03E093A5
:10146000BC03E0E4F8E0E093A001F093A101C6C062
:10147000E03011F0E23009F402C0E43069F4EFEF3B
:10148000F0E0E093BB03F093BC03E0E4F8E0E0930A
:10149000A001F093A101B2C0E530A1F4E89423F8D3
:1014A000689424F8EFEFF0E0E093BB03F093BC0303
:1014B000E0E1F0E04F01E8EAF8E0E093A001F0930A
:1014C000A1019CC0E630A1F4689423F8E89424F8C4
:1014D000EFEFF0E0E093BB03F093BC03E0E1F0E05A
:1014E0004F01E8EAF8E0E093A001F093A10186C083
:1014F000E730A1F4689423F8E89424F8EFEFF0E0E3
:10150000E093BB03F093BC03E0E1F0E04F01E0E4C3
:10151000F8E0E093A001F093A10170C0E83011F071
:101520000C94FE0A289788E0A0E0B0E0EEE9F0E035
:101530000E94D1150E943E14FE013296FA93EA935E
:10154000FE013396FA93EA93FE013496FA93EA93F6
:101550000E94E913FE013596FA93EA93FE0136964E
:10156000FA93EA93FE013796FA93EA930E94961350
:10157000E1ECF3E0FA93EA93EF81F0E0FA93EA9377
:10158000E885F0E0FA93EA93E885F0E0FA93EA93CD
:10159000E985F0E0FA93EA93EA85A0EDB7E0F0E0A0
:1015A000EA0FFB1FFA93EA930E946311E0E0F5E073
:1015B000FA93EA93EFEFFFE7FA93EA930E94B908F0
:1015C000E1ECF3E0FA93EA93E1E0EA93E0E0EA93F6
:1015D000E8EAF8E0FA93EA93E091AC01EA930E941A
:1015E000F308EFEFF0E0E093BB03F093BC03E0E41B
:1015F000F8E0E093A001F093A101289632D2E091A7
:10160000BB03F091BC03A7EBB1E0EE0FFF1FAE0FE1
:10161000BF1F0E949415E093BF03F093C003A091F5
:10162000BB03B091BC03AA0FBB1FA754BE4F0E94BF
:101630009415E093BD03F093BE030895E0E8E093B2
:101640006100E0E0E0936100EBBBEABBE8BBEFEFD9
:10165000E7BBE0E0E5BBE4BBE2BBE1BBE7B9E5E04B
:10166000E6B9E3E0E3BFE5E0E2BFE0E0E1BFEBB90C
:10167000E8E9EAB9E6E8E0BDE0E0E0BDE7E6E9B9BF
:10168000E0E8E5BFE0E0E6BFE2E0E9BFE0E0E093EC
:101690007D000E943E14E0E0EA93EA93E1E0EA93E1
:1016A0000E947613EFE1E1BDEFE0E1BDE3EDF2E092
:1016B000FA93EA9380E00E9456132296E6EFF2E056
:1016C000FA93EA9380E00E9456132296EAE1F3E04F
:1016D000FA93EA9380E00E94561322960895E0E47C
:1016E000F8E0E093A001F093A101EFEFFFE7E093B2
:1016F000A201F093A301E0E0F5E0E093A601F093EE
:10170000A701E0E4F8E0E093A801F093A9010E94AA
:101710001E0BC498E0E0F5E0FA93EA93EFEFFFE7E1
:10172000FA93EA930E94B908E4EFF1E0FA93EA939E
:101730000E94A514C49AEFEFFFEFE093BF03F0936C
:10174000C003E093BD03F093BE03C498E0E0E093D0
:10175000AC010E94D709C49AC498E4E6F0E0FA9379
:10176000EA930E94A514C49AE0E0E2BBEFE3E1BB78
:101770000895F894A8950E941502EA2DE13011F021
:101780000C942E0CE8EFFEE0EB15FC0510F4BE2ED9
:10179000CF2EE0E4F8E0FA93EA93EFEFFFE7FA9355
:1017A000EA930E94B908E092AC01ED2DFE2DF07095
:1017B000E093AF01F093B001B092B101C092B201D9
:1017C000E8EAF8E0FA93EA93E091B101F091B2010E
:1017D000FA93EA93E0E0EA930E946106E091AF0198
:1017E000F091B001FA93EA930E949C06E8EAF8E0CF
:1017F000E093A001F093A101E0E0F5E0E093A60101
:10180000F093A701E091AF01F091B001FA93EA9350
:10181000E091AC01EA930E94EC06E091B101F091F5
:10182000B201FA93EA93E091AC01EA930E94910825
:10183000E0E4F8E0FA93EA93E0E0EA93E091AC01A7
:10184000EA930E945C07EFEFFFEFE093BD03F09394
:10185000BE03E093BF03F093C00349C0E23099F5A3
:10186000E8E6F0E0EB15FC0510F4BE2ECF2EE0927A
:10187000AC01E0E0F5E0FA93EA93E0E4F8E0FA93F3
:10188000EA930E94B908E0E0F5E0FA93EA93CA927D
:10189000BA92E1E0EA930E946106E8EAF8E0E09398
:1018A000A001F093A101E0E0F5E0E093A601F09340
:1018B000A701FA93EA93E1E0EA93E091AC01EA939D
:1018C0000E945C0714C0E53071F4E092AC01EB2D8E
:1018D000FC2DE093AB01C092AA01E091AC01EA9328
:1018E0000E946D0804C0E43011F40E94CE0893D029
:1018F000AA247894E0E0E2BBEFE3E1BB0895E4B70B
:10190000E3FF05C0E4B7E07EE4BFABD003C0E4B7BB
:10191000E07EE4BF0E946F0B7894AA2019F00E9429
:10192000B90B04C00E94C8030E942302A8950C941E
:101930008D0C0000FECFAA93BA93EA93FA93EFB707
:10194000EA931A930A930BB11CB1E02FEC7111F0DA
:101950000C94020DA0910704B0E0A150BC4F1C9361
:10196000A0910704AF5FA0930704A83019F4E0E04A
:10197000E0930704A0910804AF5FA0930804A83087
:1019800011F00C94020DE0E0E0930804A091FF0335
:10199000A53541F4E0910004E53521F4E09101041E
:1019A000E53509F01DC0A0900204B0900304CC24DA
:1019B000FB2DE0E0DF01E0910404F0E0EA2BFB2BDB
:1019C000BE2ECF2ED0900504EE24FD2DE0E0DF01E9
:1019D000E0910604F0E0EA2BFB2BDE2EEF2E12C086
:1019E000A091FF03AF3F41F4E0910004EF3F21F4E9
:1019F000E0910104EF3F09F005C0E0E0E093070447
:101A0000E093080409911991E991EFBFF991E991E7
:101A1000B991A9911895E5E5EA930E94AF11E5E522
:101A2000EA930E94AF11E5E5EA930E94AF11AA92F2
:101A30000E94AF11EC2DF070EA930E94AF11EB2DD4
:101A4000FC2DF070EA930E94AF11EE2DF070EA9336
:101A50000E94AF11ED2DFE2DF070EA930E94AF11A0
:101A60000895E0E0E0930704E0930804AA240895B1
:101A70000A930E944314EB81EA930E947714EA814F
:101A8000F070EA930E947714E981FA81F070EA938A
:101A90000E9477140E944314EB81E160EA930E9454
:101AA0007714E0E0EA930E945C140E2F0E94521417
:101AB000E02F08811DC00E944314EB81EA930E942D
:101AC0007714EA81F070EA930E947714E981FA8131
:101AD000F070EA930E947714E881EA930E947714E9
:101AE0000E945214EAE0F0E0FA93EA930E94A514EF
:101AF000249608951A930A9300E010E0EC81EA938B
:101B0000EB81FC81FA93EA930E94380D0E2F112786
:101B1000F02FE0E0FF93EF93EC81EA93EB81FC81FF
:101B20003196FA93EA930E94380DAF91BF91F0E09D
:101B3000EA2BFB2B8F01F8011981088118C0EC8179
:101B4000EA93EB81FC81FA93EA93EC81F070EA93DB
:101B50000E945B0DEC81EA93EB81FC813196FA9354
:101B6000EA93EB81FC81F070EA930E945B0D25966D
:101B700008950A9300E00E944314EE81EA930E94C4
:101B80007714ED81F070EA930E947714EC81FD8167
:101B9000F070EA930E9477140E944314EE81E16092
:101BA000EA930E947714E981E1500E1788F4E02F40
:101BB0000F5FAA81BB81F0E0EA0FFB1FFF93EF9359
:101BC000E1E0EA930E945C14AF91BF91EC93EBCFFC
:101BD000E981E150AA81BB81F0E0EA0FFB1FFF938E
:101BE000EF93E0E0EA930E945C14AF91BF91EC9315
:101BF0000E9452140881279608950A9300E00E94DB
:101C00004314EE81EA930E947714ED81F070EA9319
:101C10000E947714EC81FD81F070EA930E947714A2
:101C2000E9810E1778F4E02F0F5FAA81BB81F0E005
:101C3000AE0FBF1FEC91EA930E94771400000000E2
:101C40000C94100E0E945214EAE0F0E0FA93EA932A
:101C50000E94A5140881279608950E94C31500E0EC
:101C600010E020E030E040E050E0A885B985EEE0EB
:101C7000F0E0EA1BFB0BDF01ECE0F0E00E948115D5
:101C80008F01EE81FF81E054FD4EE01BF10B9F01BF
:101C9000F801ACE0B0E00E946915A885B985AE0FE7
:101CA000BF1F1397AD01FA01A9E9B0E00E946915C1
:101CB0003296DF01E5E0F0E00E948115BF01F901F5
:101CC000ADE6B1E00E9469156E0F7F1FD901E4E611
:101CD000F0E00E948115DB01AE1BBF0BEDE2FDE7DA
:101CE0000E94B315EA1BFB0BAA85BB85EA0FFB1FFD
:101CF000BF01D901E4E0F0E00E9481156E0F7F1F63
:101D0000D901E0E9F1E00E948115E60FF71F0E947A
:101D100056150E94CA151DC3AC9784E1A0E0B0E03F
:101D2000E6E3F2E00E94D1150E94C31500E010E046
:101D300020E030E040E050E0AAA9BBA98CA99DA911
:101D4000E1E10E944115EA8BFB8B6C8B7D8BEAA94C
:101D5000FBA96CA97DA9EF70F070607070708F01A5
:101D6000E0E10E944115E170F07060707070DE017A
:101D70005696EE0FFF1FAE0FBF1F2D913C91E1E075
:101D8000F0E0FA93EA93FA93EA93EAADFBADFA93A3
:101D9000EA930E942D0EEA87FB876C877D87EA898C
:101DA000FB896C897D89AA85BB858C859D850E9470
:101DB0003315EE87FF87688B798BAAA9BBA98CA9FD
:101DC0009DA9E4E00E944115E887F98740E050E0D2
:101DD0004C30E0E05E0724F5ECE0F0E0E41BF50BAE
:101DE0003197DE015A96EE0FFF1FEA0FFB1F0F011E
:101DF000E885F985E170F070DE015696EE0FFF1F61
:101E0000AE0FBF1F0E949415D001ED93FC93E8859F
:101E1000F985F595E795E887F9874F5F5F4FD8CF4C
:101E2000002E012A11F00C94770FE1E0F0E0EE8330
:101E3000FF83AE81BF811D9714F00C94760FAE81A5
:101E4000BF81E9E00E946315EE5EFB4FDF01E1E038
:101E5000EC93AE81BF81E9E00E946315A3E1B4E099
:101E6000AE0FBF1FEE81EC93AE81BF81E9E00E940F
:101E70006315EC5EFB4FAEA9BFA9A083B183AE8111
:101E8000BF81E9E00E946315A6E1B4E0AE0FBF1F79
:101E9000E0E0EC93AE81BF81E9E00E946315E95E6A
:101EA000FB4FAE85BF8588899989A083B1838283E2
:101EB0009383EE81FF813197DE015A96EE0FFF1F6B
:101EC000AE0FBF1F0E949415AE85BF858889998982
:101ED0000E9456150E943315EE87FF87688B798B19
:101EE000EE81FF813196EE83FF83A3CF05C1E1E050
:101EF000F0E0EE83FF83AE81BF810A171B0714F465
:101F00000C94D70FE9E00E946315EE5EFB4FDF01F2
:101F1000E1E0EC93AE81BF81E9E00E946315A3E1AB
:101F2000B4E0AE0FBF1FEE81EC93AE81BF81E9E05C
:101F30000E946315EC5EFB4FAEA9BFA9A083B183DD
:101F4000AE81BF81E9E00E946315A6E1B4E0AE0F67
:101F5000BF1FE0E0EC93AE81BF81E9E00E94631512
:101F6000E95EFB4FAE85BF8588899989A083B183DF
:101F700082839383EE81FF813197DE015A96EE0FC3
:101F8000FF1FAE0FBF1F0E949415AE85BF858889C5
:101F900099890E9456150E943315EE87FF87688B3A
:101FA000798BEE81FF813196EE83FF83A4CFAE81E2
:101FB000BF81E9E00E946315EE5EFB4FDF01E1E0C7
:101FC000EC93AE81BF81E9E00E946315A3E1B4E028
:101FD000AE0FBF1F0C93AE81BF81E9E00E94631575
:101FE000EC5EFB4FAEA9BFA9A083B183AE81BF81D8
:101FF000E9E00E946315A6E1B4E0AE0FBF1FE0E088
:10200000EC93AE81BF81E9E00E946315E95EFB4F6E
:10201000AE85BF8588899989A083B18382839383A4
:10202000F9010E9456150E943315EE87FF87688BD1
:10203000798BF8013296EE83FF83AE81BF811E97C4
:1020400014F00C947C10AE81BF81E9E00E9463150E
:10205000EE5EFB4FDF01E1E0EC93AE81BF81E9E092
:102060000E946315A3E1B4E0AE0FBF1FEE81FF81B4
:102070003197EC93AE81BF81E9E00E946315EC5E7D
:10208000FB4FAEA9BFA9A083B183AE81BF81E9E0B8
:102090000E946315A6E1B4E0AE0FBF1FE0E0EC9331
:1020A000AE81BF81E9E00E946315E95EFB4FAE851A
:1020B000BF8588899989A083B18382839383EE81C8
:1020C000FF813297DE015A96EE0FFF1FAE0FBF1F42
:1020D0000E949415AE85BF85888999890E945615FE
:1020E0000E943315EE87FF87688B798BEE81FF8125
:1020F0003196EE83FF83A1CF0E94CA15E89608951A
:10210000249784E0A0E0B0E0EAE4F2E00E94D11578
:10211000EC81FD81E05DF740A6EAB0E00E94511538
:10212000EA0FFB1F0E94A215E883F9836A837B8371
:10213000EC81FD81FA93EA93EA81FB816C817D81D8
:102140000E94A8150E948C0E26960895249784E07C
:10215000A0E0B0E0EEE4F2E00E94D1151A930A93F9
:102160000DE010E0EE81FF81FA93EA930E94801067
:10217000EA85FB85FA93EA93EA85FB85FA93EA936D
:10218000EA85FB85FA93EA930E942D0EEA83FB838E
:102190006C837D83E0912004F091210460912204FE
:1021A00070912304AA81BB818C819D810E94BE1500
:1021B0003CF4EE81FF813197FA93EA930E948010FC
:1021C000E0918C04F0918D0460918E0470918F04E5
:1021D0000E94BA1511F40CE010E0A9E0A09FF001F4
:1021E000A19FF00DA7E1B4E0AE0FBF1F0E949815AC
:1021F000AA81BB818C819D810E94BE151CF4015077
:102200001040EBCFA9E0A09FF001A19FF00DEE5E82
:10221000FB4FE081AE2FEA81FB816C817D81BB2782
:10222000882799270E9433157F936F93FF93EF932D
:10223000A9E0A09FF001A19FF00DA7E1B4E0AE0FCF
:10224000BF1F0E949815AF91BF918F919F910E94DF
:10225000AD150E943815E0930904A9E0A09FF00194
:10226000A19FF00DA3E1B4E0AE0FBF1FEC91E0938E
:102270000A04A9E0A09FF001A19FF00DA4E1B4E041
:10228000AE0FBF1F0E949415E0930B04F0930C0453
:10229000A9E0A09FF001A19FF00DA6E1B4E0AE0F70
:1022A000BF1FEC91E0930D04EA81FB816C817D817D
:1022B000E0930E04F0930F046093100470931104E4
:1022C0001981088146C0EC81FD81FA93EA93EC8183
:1022D000FD81FA93EA93EC81FD81FA93EA930E94DF
:1022E000A610EA85FB85FA93EA93E5E3F3E0FA9317
:1022F000EA93EC85FD850E9456150E94A815EE858F
:10230000FF850E9456150E94A815E889F9890E9448
:1023100056150E94A815EA89FB890E9456150E944D
:10232000A815EC89FD890E9456150E94A815E09118
:102330000904FF27662777270E94A815E0910A0461
:10234000FF27662777270E94A8158CE10E9431138A
:10235000A0962C9608955F9BFECFECB108955D9BEF
:10236000FECFE881ECB921960895A881B9810E9439
:102370009415309749F0ED91FD913196FE93EE93CF
:102380003197AA81A08304C0EA81EA930E94AF1129
:1023900073C226970E94C31500E0E889F989319637
:1023A000E88BF98B3197E4913E2FE03011F40C94D7
:1023B0002D13E02FE03059F4353211F401E006C05E
:1023C0003A93ED85FE85FA93EA93CFDF45C1E1307C
:1023D000C9F4353239F43A93ED85FE85FA93EA93E0
:1023E000C4DF39C102E050E010E03D3211F411E0E9
:1023F00033C13B3211F45BE22FC1303211F450E2B1
:102400002BC102C0E23039F440E003E0303311F474
:10241000106822C104C0E33011F00C942C13303347
:1024200010F03A3308F009C0A42FEAE0EA9FF00167
:102430004E2FE32FE0534E0F0FC1E32FE33671F41D
:10244000AE85BF851497AE87BF871496EC91EA934B
:10245000ED85FE85FA93EA9388DFFDC0E33781F4CA
:10246000AE85BF851497AE87BF8714960E949415DA
:10247000EE83FF83FA93EA930E9490140E2F12C00A
:10248000E037A1F4AE85BF851497AE87BF87149659
:102490000E949415EE83FF83FA93EA930E949A14A4
:1024A0000E2F186012601F7720E040C0E43611F054
:1024B000E93611F4146002C0E53731F4E2E5F2E0E8
:1024C000EE83FF8305E00DC0E83511F4186004C009
:1024D000E83711F00C942B13ECE5F2E0EE83FF8368
:1024E00004E012FF19C0AE85BF851497AE87BF8781
:1024F00014960E949415EA87FB87AA85BB851097DE
:102500002CF40E943D15EA87FB875DE2503011F004
:102510000F5F01C01B7F0AC0AE85BF851497AE87D1
:10252000BF8714960E949415EA87FB8710FD15C09B
:10253000041798F417FF08C012FF04C01B7F352F43
:10254000015001C030E301C030E23A93ED85FE85D1
:10255000FA93EA930ADF4150EBCF202F11FF1DC001
:102560002030D1F013FF08C0EE81FF813196EE8359
:10257000FF833197E49105C0AE81BF81ED91AE83B9
:10258000BF83EA93ED85FE85FA93EA93EEDE403051
:1025900009F041502150E4CF51C030E3EE81FF817A
:1025A0003296EE83FF8332970E949E15E887F98763
:1025B000E885F985AA85BB85AE17BF0750F03F5F58
:1025C000A885B985EA85FB85EA1BFB0BEA87FB87B3
:1025D000EFCF3A3328F013FF02C0395F01C0395DF5
:1025E00014FD1DC0313320F4A885B985119709F475
:1025F00009C0421710F010FF01C01AC030E217FFE7
:102600000EC030E3106112FF0AC01B7F5A93ED85A4
:10261000FE85FA93EA93A9DE403009F041503A93DF
:10262000ED85FE85FA93EA93A0DE403009F0415033
:102630002150A885B985129708F0AFCF10FF0BC0C5
:10264000403049F04150E0E2EA93ED85FE85FA938F
:10265000EA938BDEF5CF00E0A0CE0E94CA15629609
:102660000895FF92F82E22971A930A93DE010E9492
:102670002F158D01DE0116960E942F150E949415CC
:10268000EA83FB83DE0114960E942F150E949415A5
:10269000FA93EA931A930A93FE013696FA93EA9311
:1026A00078DEAA81BB81E0E0EC931BC0FF92F82E9C
:1026B00022971A930A93DE010E942F158D01E0E004
:1026C000EA83EB83DE0114960E942F150E94941575
:1026D000FA93EA931A930A93FE013696FA93EA93D1
:1026E00058DE198108812496FF900895EA81E370ED
:1026F000EA83E981E03019F0EA81E061EA83E88168
:10270000E03019F0EA81E068EA830E944314E0EDCA
:10271000EA930E947714E7E0EA930E947714EA8133
:10272000EA930E9477140E945214A6C00E94431498
:10273000E0EDEA930E947714E0E0EA930E947714B8
:102740000E944314E1EDEA930E947714E1E0EA93DA
:102750000E945C14EA930E94B114A881B981EC93A1
:10276000E1E0EA930E945C14EA930E94B114AA810A
:10277000BB81EC93E0E0EA930E945C14EA930E9430
:10278000B114AC81BD81EC930E94521452C00E94DE
:102790004314E0EDEA930E947714E0E0EA930E948C
:1027A0007714E881EA930E94BD14EA930E9477149B
:1027B000E981EA930E94BD14EA930E947714EA81AA
:1027C000EA930E94BD14EA930E9477140E94521467
:1027D00053C00E944314E0EDEA930E947714E4E0B2
:1027E000EA930E9477140E944314E1EDEA930E9459
:1027F0007714E1E0EA930E945C14EA930E94B1141A
:10280000AC81BD81EC93E1E0EA930E945C14EA9311
:102810000E94B114AA81BB81EC93E0E0EA930E948C
:102820005C14EA930E94B114A881B981EC930E94D0
:102830005214269608950E944314E0EDEA930E94F4
:102840007714E4E0EA930E947714EA81EA930E9405
:10285000BD14EA930E947714E981EA930E94BD14A3
:10286000EA930E947714E881EA930E94BD14EA93E8
:102870000E9477140E945214239608959298939878
:102880008A9A8B9815C08B988A98EE270000839BB4
:102890000895829B089504D08B9A02D08A9AE1E031
:1028A0006BE107C08B9A8A9A03D08A98F9DF8B98DC
:1028B00065E36A95F1F7089578E08A98F1DF829BE5
:1028C000FECFEEDF8894839908948A9AF1DFEE1F99
:1028D0007A9599F77991772311F48B9801C08B9AA7
:1028E000DFDF8A98E5DF8A9ADBDF8B98D9CFE99121
:1028F00078E0EE0F10F48B9801C08B9AD9DF8A989C
:10290000CFDF829BFECFCCDF8A9A7A9591F78B98A6
:10291000C7DF8A98CDDFE1E08399EE278A9A089590
:10292000A991B991EE27FF276D91662311F0319699
:10293000FBCF0895AA27BB27E991F99105900020C4
:1029400011F01196FBCFFD010895E991F9913096B0
:1029500039F080EA9FE00197F1F7A8953197C9F720
:102960000895E881E295EF70AE2FAA0FAA0FEA0F43
:10297000EE0FA991AF70EA0F0895A991EE27AA5022
:1029800012F0E05FFCCFA65FEA0F0895EE2795985E
:102990008D9A80E897E00197F1F78D988BE48A95FE
:1029A000F1F7859B089580E391E00197F1F7859B0E
:1029B000E39588E196E00197F1F708958D9A8BE011
:1029C0008A95F1F78D988BE38A95F1F7889485992C
:1029D0000894E79580E491E00197F1F70895E89471
:1029E0008D9A8BE08A95F1F770FD8D9885E48A9534
:1029F000F1F7859903C070FF03C0089570FF089533
:102A00008CE291E00197F1F78D988BE18A95F1F7CF
:102A10006894089568E0D2DF6A95E9F7089568E060
:102A20007991EE27DCDF26F477956A95D9F7E3955F
:102A30000895EE278881882381F068E1A981BA8111
:102A400098E0FD917F2F7E27779508F4E627E7959C
:102A5000F6959A95B9F78A9599F7239608950024E3
:102A6000AF0DB01D0895EA0FFB1F681F791F089571
:102A7000EA1BFB0B680B790B0895E095F0953196F6
:102A80000895EE230E2EFD01BC0131F0759567957A
:102A9000F795E7950A94D1F70895EE0FFF1FEE0F13
:102AA000FF1FEE0FFF1FEE0FFF1F08956F2F660F22
:102AB000660B762F0895FA9FF02DEB9FF00DEA9F9D
:102AC000E02DF10D08956E2F6A9FF0016B9FF00DC0
:102AD00008951CD0F0DF0EF4D0DF089500241124F7
:102AE00090E1AA0FBB1F001C111C0E1A1F0A18F43C
:102AF0000E0E1F1E01C0A1609A9599F7FD01D0012D
:102B0000089504D0EBDF0EF4B8DF0895E894F7FFE2
:102B100002C0B3DF6894B7FF06C0A095B0951196C8
:102B200000F8039400FA0895ED91FC91119708952F
:102B3000ED91FD916D917C91139708950590F4911D
:102B4000E02D08950590159065917491F001089518
:102B50007A936A93FA93EA930895182E862F612D3B
:102B6000192E972F712D1B2EBF2FF12D1A2EAE2F40
:102B7000E12D08953097604070400895AE17BF076B
:102B80008607970708955A934A933A932A931A937C
:102B90000A9308955D814C813B812A8119810881C6
:102BA0000895AC0FBD1F05900D928A95E1F7089529
:00000001FF
