:100000000C94A8010C9400000C9400000C940000C7
:100010000C9400000C9400000C9400000C94000060
:100020000C9400000C9400000C9400000C94000050
:100030000C9400000C9400000C9400000C94000040
:100040000C9400000C94DA010C9400000C94630CE6
:100050000C9400000C9400000C9400000C94000020
:100060000C9400000C9400000C9400000C94000010
:100070002A2A2043756F6E675175617920303931B6
:1000800035363531303031202A2A00000000A000FA
:10009000A0000000000000000000000000000000C0
:1000A00000000000000060C9460054D92E00A0D412
:1000B000540050DA3E0052752A00A0564E00A7A701
:1000C0003800D0A55E00B0924A00B5AA320050A90F
:1000D0005800A0B44200A4BA2C0050AD5000D9552D
:1000E0003C00A04B6200B0A54C0076513700705226
:1000F0005C003069460034793000A06A540050AD8D
:100100003E00525B2A00604B5000E6A63800E0A497
:100110005E0060D2480065EA320020D55600A0DAC1
:100120004000A3562D00D0565200FB4A3C00D04957
:100130006200D0A44C00B6D0370050B25A0020B5AF
:10014000440025DD2E00A0B55400D0553E00B25528
:100150002A00B049500077A53A00B0A45E0050AA2A
:10016000480055B23300206D580060AD4000634B2D
:100170002D0070535200E8493E0070C96000B05431
:100180004C00A668370050DA5A00A05A4400A4A6D2
:100190002F00D0AA5400E0524000E3D2280050C9FA
:1001A0004E0057D53800A0D45E0050D94600555DAA
:1001B0003200A0565800D0A64200D4552C00B052B0
:1001C0005200B8A93C0030A9620090B44A00A6B61B
:1001D000340050AD5A00A055460064AB2E0070A507
:1001E0005400B052400073B12A0030694E00376BA2
:1001F0003800A06A5E0050AD4800D52A3300602B5D
:10020000580070A54200E4522E0060D1500058E919
:100210003A0020D5600090DA4A00A65A3500D05640
:100220005A00E02A4600D4A93000D0A2540050D190
:100230003E0052E92800000000000000000000001D
:100240000000000000001D001E0000000000000073
:1002500000001027E80364000A00010000100001FC
:10026000100001006400C80090012003F8FFFCFFAB
:10027000FEFFFFFF4261792067696F206C612030CB
:10028000302067696F2030302070687574203030FE
:1002900020676961792E204E6761792030302074A3
:1002A00068616E67203030206E616D2030303030F4
:1002B0002E004C434D532076322E3032204465734D
:1002C00069676E65642062792043756F6E6751754A
:1002D00061790D0A0063756F6E67336968757440E4
:1002E0007961686F6F2E636F6D202D203039313545
:1002F0003635313030310D0A0052656C65617365F9
:1003000020646174653A2030392E30312E3230301D
:10031000370D0A0042A979206769EA206CB52025CB
:100320003032643A25303264206E67B57920256416
:100330002F25642F2564202825642F256420A26D95
:10034000206CDE63682900003E00C10374020000D7
:10035000F894EE27ECBBF1E0FBBFEBBFE5BFE6BFD7
:10036000F8E1F1BDE1BD8DE0A2E0BB27ED938A95F8
:10037000E9F780E094E0A0E0B1E0ED930197E9F7C0
:10038000E8E4F3E085919591009761F0A591B5912E
:1003900005901590BF01F00105900D920197E1F7CE
:1003A000FB01F0CFEFEFEDBFE4E0EEBFC0EAD1E03C
:1003B0000C94450CEA93FA93EFB7EA93E5E0E2BFB9
:1003C000E091AD01F091AE013196E093AD01F09373
:1003D000AE01E991EFBFF991E99118950A9300E018
:1003E000959A00E0083080F4E7E0F0E0E419F509C0
:1003F000A02FB0E0EA17FB0711F4959801C0959A79
:10040000939A93980F5FEECF0CC00A9300E0959AF1
:1004100000E0083020F4939A93980F5FFACF949AF3
:10042000949809910895662477244424552421FE44
:1004300003C00E9405020895E091BF03F091C0033C
:10044000E85FF34FA091A001B091A101EA1BFB0B63
:10045000E093B903F093BA03E091BD03F091BE03BA
:10046000E85FF34FEA1BFB0BE093B703F093B8038D
:10047000E091A001F091A101E093A401F093A50106
:10048000A091A401B091A501AF3FEFE7BE0710F026
:100490000C94B103A091AB01A13041F4A091BF0332
:1004A000B091C003A83CE0E0BE0708F07CC0E0913A
:1004B000BF03F091C0036E167F06A0F520FE20C09A
:1004C000D201E8E9FEE00E942315E853FF4FE60D54
:1004D000F71DA091A801B091A901AE0FBF1F6C91AB
:1004E000F201A8ECB0E00E942315E60DF71DA091E3
:1004F000A601B091A701AE0FBF1FEC91E62310C07B
:10050000D201E8E9FEE00E942315E853FF4FE60D13
:10051000F71DA091A801B091A901AE0FBF1FEC91EA
:10052000E8BB40C0E091B903F091BA03E615F705C6
:1005300038F4E091B703F091B8036E167F0608F027
:100540001EC020FE15C0A091A401B091A5016C9120
:10055000F201A8ECB0E00E942315E60DF71DA09172
:10056000A601B091A701AE0FBF1FEC91E62305C015
:10057000A091A401B091A501EC91E8BB13C020FEAD
:100580000FC0F201A8ECB0E00E942315E60DF71DA4
:10059000A091A601B091A701AE0FBF1FEC9101C0C1
:1005A000EFEFE8BBADC023FE46C0E8E0F0E08E16FA
:1005B0009F0634F5E7E0F0E0E819F909E415F505E0
:1005C00088F4D401E8E9FEE00E943115A091A4016D
:1005D000B091A501AE0FBF1FA05CB447EC91E695AA
:1005E000E6950CC0D401E8E9FEE00E943115A09127
:1005F000A401B091A501AE0FBF1FEC91E8BB1AC0DA
:10060000E0E1F0E0E819F9094E165F0688F4D4013C
:100610001897E8E9FEE00E943115A091A401B0917D
:10062000A501AE0FBF1FEC91E695E695EC6C01C0FD
:10063000EFEFE8BB65C024FE46C0E8E0F0E08E16B0
:100640009F062CF548145904A0F4E091A401F09100
:10065000A501E054FB48BF01D401E8E9FEE00E9497
:100660003115DB01AE1BBF0BEC91EE0FEE0FE36318
:100670000CC0D401E8E9FEE00E943115A091A4016C
:10068000B091A501AE1BBF0BEC91E8BB1BC0F40100
:100690003897E415F505A0F4E091A401F091A501C7
:1006A000E054FB48BF01D401E8E9FEE00E943115A7
:1006B000DB01AE1BBF0BEC91EE0FEE0FE36301C04D
:1006C000EFEFE8BB1DC020FE15C0A091A401B091C2
:1006D000A5016C91F201A8ECB0E00E942315E60D93
:1006E000F71DA091A601B091A701AE0FBF1FEC911D
:1006F000E62305C0A091A401B091A501EC91E8BB4F
:10070000E8B3E06FE8BB3A9A3A98F30131963F01BB
:10071000E83CA0E0FA07D8F0662477240E9405029E
:1007200094980E94EE01949A389A3898F201319682
:100730002F01389710F044245524E091A401F09142
:10074000A501E053F24FE093A401F093A501E091DD
:10075000A401F091A5013196E093A401F093A501C5
:100760008FCE089538983A98E091AA01A091AD01F2
:10077000B091AE01F0E0AE17BF0710F40C9449063B
:10078000E0E0E093AD01E093AE01E89420F8E09161
:10079000AB01E13011F00C945004A091BF03B09173
:1007A000C003A93CE0E0BE0738F122FC15C0A091CF
:1007B000B301B091B401A436E0E0BE0718F4689428
:1007C00022F809C0E091A001F091A1013196E093D7
:1007D000A001F093A1010FC0A091B301B091B401A9
:1007E0001196A093B301B093B401A536E0E0BE0723
:1007F00010F0E89422F845C0E091A001F091A10129
:100800003296E093A001F093A101A091BF03B091B3
:10081000C003E8E0FCE0EA1BFB0BA091A001B09153
:10082000A101EA17FB0768F5E091BB03F091BC0357
:100830003196E093BB03F093BC03A7EBB1E0EE0F5E
:10084000FF1FAE0FBF1F0E945C15E093BF03F09324
:10085000C003A091BB03B091BC03AA0FBB1FA75458
:10086000BE4F0E945C15E093BD03F093BE03E09180
:10087000BF03F091C003E05CF44FE093A001F0935C
:10088000A101E091B101F091B201E85EF34FA091B6
:10089000A001B091A101AE17BF0708F04ED5F9C174
:1008A000E030C9F4E091A001F091A1013196E0930C
:1008B000A001F093A1013197E091B101F091B20153
:1008C000E85EF34FA091A001B091A101AE17BF0760
:1008D00008F033D5DEC1E23011F00C94BC04A091D5
:1008E000A001B091A101A830ECE0BE0750F4E09166
:1008F000A001F091A101B096E093A001F093A101B5
:100900003AC021FC13C0A091B301B091B40111967B
:10091000A093B301B093B401D39738F0689421F851
:10092000E0E0E093B301E093B40125C0A091B301EE
:10093000B091B4011196A093B301B093B401A53660
:10094000E0E0BE07C0F0E89421F8E0E0E093B301F6
:10095000E093B401A091B501B091B6011196A093B6
:10096000B501B093B601149730F0E0E0E093B50123
:10097000E093B601E2D48DC1E330D9F4E091A00157
:10098000F091A1013196E093A001F093A10131977C
:10099000689420F8E091B101F091B201E85EF34F64
:1009A000A091A001B091A101AE17BF0708F0C5D476
:1009B00070C1E43011F00C943005A091A001B09109
:1009C000A101A830ECE0BE0730F4E091A001F09165
:1009D000A101389632C0A091A001B091A101A83028
:1009E000ECE0BE0720F0A031ECE0BE0708F01EC02E
:1009F00022FC03C0689422F818C0A091B301B09102
:100A0000B4011196A093B301B093B401A536E0E010
:100A1000BE0758F0E89422F8E091A001F091A101FE
:100A20003896E093A001F093A1010BC022FC09C00D
:100A3000E091A001F091A1013196E093A001F09323
:100A4000A101E091B101F091B201E85EF34FA091F4
:100A5000A001B091A101AE17BF0708F06ED419C173
:100A6000E53011F00C94850523FE3AC022FC28C025
:100A7000F40131964F01709714F1E89423F86894CB
:100A800024F8E0E1F0E04F01E091A001F091A10134
:100A9000E853FF4FE093A001F093A101E091B10171
:100AA000F091B201E85FF34FA091A001B091A101D4
:100AB000AE17BF0720F0E89423F824F83ED40FC007
:100AC000A091B301B091B4011196A093B301B0937A
:100AD000B401A536E0E0BE0710F0E89422F814C097
:100AE00024FE12C0F40131974F01DF01109764F426
:100AF00088249924E89424F8689423F822F8E0E004
:100B0000E093B301E093B401C4C0E63011F00C945B
:100B1000DA0524FE39C022FC27C0F40131964F01CA
:100B200070970CF1689423F8E89424F8E0E1F0E081
:100B30004F01E091A001F091A101E853FF4FE09334
:100B4000A001F093A101E091B101F091B201E85F41
:100B5000F34FA091A001B091A101AE17BF0718F00B
:100B600023F824F8EAD30FC0A091B301B091B401E7
:100B70001196A093B301B093B401A536E0E0BE078F
:100B800010F0E89422F815C023FE13C0F401319749
:100B90004F01DF0110976CF488249924689424F89D
:100BA000E89423F8689422F8E0E0E093B301E0933E
:100BB000B4016FC0E73011F00C942F0624FE1FC063
:100BC00022FC0DC0F40131964F0170973CF06894FF
:100BD00023F8E89424F8E0E1F0E04F010FC0A09181
:100BE000B301B091B4011196A093B301B093B401D5
:100BF000A536E0E0BE0710F0E89422F815C023FE09
:100C000013C0F40131974F01DF0110976CF4882471
:100C10009924689424F8E89423F8689422F8E0E092
:100C2000E093B301E093B401E091A001F091A10140
:100C30003196E093A001F093A101E091B101F09110
:100C4000B201E85FF34FA091A001B091A101AE17EE
:100C5000BF0720F0E89423F824F86FD31AC0E830D7
:100C6000C1F4E091A001F091A1013196E093A001BF
:100C7000F093A1013197E091B101F091B201E85EEA
:100C8000F34FA091A001B091A101AE17BF0708F0EA
:100C900054D3E1E008950E948B1500E010E020E0BD
:100CA00030E040E050E009851A85C49840E050E00B
:100CB0004830E0E05E0728F520E030E0EF81F8857D
:100CC0002E173F0778F41F930F930F5F1F4F0E945B
:100CD0007311E095AF91BF91EC93A8952F5F3F4FB3
:100CE0000C945E06EE81E03041F4AF81B885E8E90E
:100CF000FEE0EA1BFB0B0E0F1F1F4F5F5F4F0C94B4
:100D00005806C49A0E9492152B9608951A930A9336
:100D100000E010E0C49800E010E0EA81FB810E17CB
:100D20001F0710F00C94CB06229782E0A0E0B0E001
:100D3000ECE8F0E00E9499150E947311F0E0E8835E
:100D4000F983A895F801A7EBB1E0EE0FFF1FEA0FBA
:100D5000FB1FA881B981A083B1830E947311F0E0C9
:100D6000E883F983A895F801A7EBB1E0EE0FFF1F28
:100D7000EA0FFB1F0F01DF010E945C15DF01F88104
:100D8000E0E0EA2BFB2BD001ED93FC9322960F5F62
:100D90001F4F0C948D06EFEFFFEFE093BF03F0932E
:100DA000C003C49A19810881249608950E948C1565
:100DB00000E010E020EA3AE040E0ED81EE0F2E0F77
:100DC0000E940614C49800E010E0EE81FF810E1727
:100DD0001F07D0F42A93F801EE0FFF1FE30FF41F53
:100DE000FA93EA93F801A7EBB1E0EE0FFF1FAE0F05
:100DF000BF1F0E945C15FA93EA930E94670DA895A5
:100E00000F5F1F4F0C94E506C49AE0E0E2BBEFE3EE
:100E1000E1BB0E949315289608950E948C1500E06E
:100E200010E020EA3AE040E0ED81EE0F2E0F0E9444
:100E30000614C49800E010E0EE81FF810E171F0732
:100E4000E0F4F801A7EBB1E0EE0FFF1FEA0FFB1F84
:100E5000FF93EF932A93F801EE0FFF1FE30FF41FA8
:100E6000FA93EA930E94420DAF91BF91ED93FC93E8
:100E7000A8950F5F1F4F0C941C07C49AE0E0E2BBDB
:100E8000EFE3E1BB0E949315289608950E948C150C
:100E900000E010E020E43BE040EAED81EE0F4E0F71
:100EA0000F8118850E940614C498EE81E03011F479
:100EB0002FEF3FE70F8118850217130770F4A895ED
:100EC0004A931A930A931A930A93E0E4EA930E94CE
:100ED000C50D005C1F4F0C945C07C49AE0E0E2BBB8
:100EE000EFE3E1BB0E94931529960895219781E0D5
:100EF000A0E0B0E0EEE8F0E00E9499150E948B15AA
:100F000000E010E020E030E040E050E0EF81EE0F44
:100F1000AE81EA0FEE830B851C85A985BA85A939B8
:100F2000EEE0BE0720F00E9492152D960895E98507
:100F3000FA85EF7371F0A985BA85E0E4F0E00E94CC
:100F400036150E9419150E941515E05CFF4FE987C0
:100F5000FA870E940614C49840E050E04830E0E070
:100F60005E0738F520E030E0E985FA852E173F0767
:100F700088F4EE81EA931A930A931A930A93E0E4B1
:100F8000EA930E94810D005C1F4FA895205C3F4FA3
:100F90000C94B407E885E03041F4A985BA85E8E906
:100FA000FEE0EA1BFB0B0E0F1F1F4F5F5F4F0C9401
:100FB000AE07C49AE0E0E2BBEFE3E1BB0E9492150A
:100FC0002D9608950A9300EAE981EE0F0E0F0E9414
:100FD0000614C49AA8950A93E0E0F0E0FA93EA9325
:100FE0000E94000DE093AB010A93E1E0F0E0FA9378
:100FF000EA930E94000DE093AA010A93E2E0F0E078
:10100000FA93EA930E94420DE093B101F093B2018A
:101010000A93E4E0F0E0FA93EA930E94420DE09331
:10102000AF01F093B001A091B101B091B201A93923
:10103000EEE0BE0728F0E0E0E093B101E093B201FA
:10104000A091AF01B091B001A030E1E0BE0728F05F
:10105000E0E0E093AF01E093B001C498E0E0E2BBD0
:10106000EFE3E1BB21C00A9300EAE981EE0F0E0F26
:101070000E940614C49A0A93E0E0F0E0FA93EA931F
:10108000E091AB01EA930E94230D0A93E1E0F0E0C6
:10109000FA93EA93E091AA01EA930E94230DC4987F
:1010A000E0E0E2BBEFE3E1BB0881229608950A93FA
:1010B00000EAE981EE0F0E0F0E940614C49A0A930B
:1010C000E2E0F0E0FA93EA93ED81FE81FA93EA938D
:1010D0000E94670D0A93E4E0F0E0FA93EA93E0914E
:1010E000AF01F091B001FA93EA930E94670DC498A2
:1010F000E0E0E2BBEFE3E1BB0881249608951A9398
:101100000A9300E015E00C811D81EA81FB81E01764
:10111000F10730F0D801EFEFEC930F5F1F4FF5CFE1
:1011200019810881269608950E940614C498E0E06B
:10113000EA93EA93EA930E948F130E947311EA9351
:101140000E947311EA930E947311EA930E94E313C1
:101150000E947311EA930E947311EA930E94731123
:10116000EA930E948F13C49AE0E0E2BBEFE3E1BB95
:1011700008952E978EE0A0E0B0E0E0E9F0E00E9454
:1011800099150E948B1500E010E020E030E040E06F
:1011900050E0EC89EE0FAE81EA0FEE83E88DE0308F
:1011A00029F4EFEFEA87EF83E8871AC0E13039F4DA
:1011B000EAEAEA87E9E9EF83E8E8E88711C0E23084
:1011C00039F4E5E5EA87E4E4EF83E6E6E88708C07A
:1011D000E33031F4E0E0EA87E2E2EF83E1E1E8873F
:1011E000C4980E940614E98DFA8DFA93EA930E943E
:1011F0005814EA8BE0E0EB8BEA89AB89AE1710F06C
:101200000C949009EB89A98DBA8DF0E0AE0FBF1F49
:10121000EC91E98BA7EBB1E0F0E0EE0FFF1FAE0F12
:10122000BF1F0E945C15ED87FE87A989B0E0AA0F59
:10123000BB1FA754BE4F0E945C15EB87FC87AD8592
:10124000BE85EA1BFB0BEF87F88BE00FF11FE83937
:10125000AEE0FA0710F00C94900940E050E04830FE
:10126000E0E05E0714F00C948709EF89E030A9F004
:101270004050504024F04430E0E05E070CF002C0E3
:10128000EF81EA874430E0E05E0724F04830E0E098
:101290005E070CF002C0E885EA8720E030E0EF85C9
:1012A000F8892E173F0778F5A895EE81EA93DA01C1
:1012B000E8E9FEE00E943115E85FF34FAE85BF8597
:1012C000EA0FFB1FE20FF31FFA93EA930E94000D4F
:1012D000E987E095AE2FEA85E095EA23E987DA0110
:1012E000E8E9FEE00E943115E20FF31FE00FF11F65
:1012F000AD89BE89AE0FBF1FE985E095EC932F5FE6
:101300003F4F0C944F094F5F5F4F0C942F09EF85AF
:10131000F8890E0F1F1FEB89EF5FEB8B0C94FC0815
:101320000093B1011093B201C49AE0E0E2BBEFE395
:10133000E1BB0E9492156B960895E89422F8E0E0D4
:10134000E093B301E093B401A091AC01AF5FA0932F
:10135000AC01A43018F0E0E0E093AC010E9405027B
:10136000E091AC01EA930E94E207E0E0F5E0FA9335
:10137000EA93EFEFFFE7FA93EA930E947F08E09188
:10138000AF01F091B001FA93EA93E091AC01EA93D6
:101390000E940D07A091AB01A83001F1E0E0F5E05B
:1013A000FA93EA93E8ECF0E0FA93EA93E1E0EA9347
:1013B000E091AC01EA930E947607E8E0FCE0FA9342
:1013C000EA93E091B101F091B201FA93EA93E0E07F
:1013D000EA93E091AC01EA930E947607E091AB01B9
:1013E000E13061F4E0E0E093BB03E093BC03E0E4B0
:1013F000FBE0E093A001F093A101C6C0E03011F042
:10140000E23009F402C0E43069F4EFEFF0E0E09379
:10141000BB03F093BC03E0E4FBE0E093A001F09396
:10142000A101B2C0E530A1F4E89423F8689424F84F
:10143000EFEFF0E0E093BB03F093BC03E0E1F0E0FA
:101440004F01E8E0FCE0E093A001F093A1019CC013
:10145000E630A1F4689423F8E89424F8EFEFF0E084
:10146000E093BB03F093BC03E0E1F0E04F01E8E060
:10147000FCE0E093A001F093A10186C0E730A1F465
:10148000689423F8E89424F8EFEFF0E0E093BB03CE
:10149000F093BC03E0E1F0E04F01E0E4FBE0E09317
:1014A000A001F093A10170C0E83011F00C94C40ABF
:1014B000289788E0A0E0B0E0EEE9F0E00E949915FE
:1014C0000E940614FE013296FA93EA93FE013396C7
:1014D000FA93EA93FE013496FA93EA930E94B113C9
:1014E000FE013596FA93EA93FE013696FA93EA9353
:1014F000FE013796FA93EA930E945E13E1ECF3E063
:10150000FA93EA93EF81F0E0FA93EA93E885F0E04A
:10151000FA93EA93E885F0E0FA93EA93E985F0E03C
:10152000FA93EA93EA85A0EDB7E0F0E0EA0FFB1F3B
:10153000FA93EA930E942B11E0E0F5E0FA93EA9324
:10154000EFEFFFE7FA93EA930E947F08E1ECF3E004
:10155000FA93EA93E1E0EA93E0E0EA93E8E0FCE062
:10156000FA93EA93E091AC01EA930E94B908EFEF95
:10157000F0E0E093BB03F093BC03E0E4FBE0E09316
:10158000A001F093A101289634D2E091BB03F09121
:10159000BC03A7EBB1E0EE0FFF1FAE0FBF1F0E9411
:1015A0005C15E093BF03F093C003A091BB03B0911F
:1015B000BC03AA0FBB1FA754BE4F0E945C15E0934B
:1015C000BD03F093BE030895E0E8E0936100E0E01E
:1015D000E0936100EBBBEABBE8BBEFEFE7BBE0E009
:1015E000E5BBE4BBE2BBE1BBE7B9E5E0E6B9E3E0BC
:1015F000E3BFE5E0E2BFE0E0E1BFEBB9E8E9EAB96B
:10160000E6E8E0BDE0E0E0BDE7E6E9B9E0E8E5BF37
:10161000E0E0E6BFE2E0E9BFE0E0E0937D000E94A9
:101620000614E0E0EA93EA93E1E0EA930E943E13B5
:10163000EFE1E1BDEFE0E1BDE2EBF2E0FA93EA9326
:1016400080E00E941E132296E5EDF2E0FA93EA9301
:1016500080E00E941E132296E9EFF2E0FA93EA93EB
:1016600080E00E941E1322960895E0E4FBE0E093E0
:10167000A001F093A101EFEFFFE7E093A201F09347
:10168000A301E0E0F5E0E093A601F093A701E0E418
:10169000FBE0E093A801F093A9010E94E40AC4983A
:1016A000E0E0F5E0FA93EA93EFEFFFE7FA93EA93CD
:1016B0000E947F08E4EFF1E0FA93EA930E946D1430
:1016C000C49AEFEFFFEFE093BF03F093C003E09302
:1016D000BD03F093BE03C498E0E0E093AC010E9428
:1016E0009D09C49AC498E4E6F0E0FA93EA930E9454
:1016F0006D14C49AE0E0E2BBEFE3E1BB0895F89417
:10170000A8950E940502EA2DE13011F00C94F40B2B
:10171000E8E9FEE0EB15FC0510F4BE2ECF2EE0E468
:10172000FBE0FA93EA93EFEFFFE7FA93EA930E9464
:101730007F08E092AC01ED2DFE2DF070E093AF013B
:10174000F093B001B092B101C092B201E8E0FCE0C8
:10175000FA93EA93E091B101F091B201FA93EA931E
:10176000E0E0EA930E944B06E091AF01F091B001F6
:10177000FA93EA930E948606E8E0FCE0E093A00179
:10178000F093A101E0E0F5E0E093A601F093A7015A
:10179000E091AF01F091B001FA93EA93E091AC01CE
:1017A000EA930E94D606E091B101F091B201FA935A
:1017B000EA93E091AC01EA930E945708E0E4FBE071
:1017C000FA93EA93E0E0EA93E091AC01EA930E9495
:1017D0004607EFEFFFEFE093BD03F093BE03E09306
:1017E000BF03F093C00349C0E23099F5E8ECF0E0A4
:1017F000EB15FC0510F4BE2ECF2EE092AC01E0E01C
:10180000F5E0FA93EA93E0E4FBE0FA93EA930E94AE
:101810007F08E0E0F5E0FA93EA93CA92BA92E1E039
:10182000EA930E944B06E8E0FCE0E093A001F0930D
:10183000A101E0E0F5E0E093A601F093A701FA939F
:10184000EA93E1E0EA93E091AC01EA930E94460753
:1018500014C0E53071F4E092AC01EB2DFC2DE09367
:10186000AB01C092AA01E091AC01EA930E94330857
:1018700004C0E43011F40E94940895D0AA2478940E
:10188000E0E0E2BBEFE3E1BB0895E4B7E3FF05C0AE
:10189000E4B7E07EE4BFADD003C0E4B7E07EE4BFD0
:1018A0000E94350B7894AA2019F00E947F0B06C085
:1018B0000E94B203E13011F40E941302A8950C9427
:1018C000530C0000FECFAA93BA93EA93FA93EFB7B2
:1018D000EA931A930A930BB11CB1E02FEC7111F04B
:1018E0000C94CA0CA0910704B0E0A150BC4F1C930B
:1018F000A0910704AF5FA0930704A83019F4E0E0BB
:10190000E0930704A0910804AF5FA0930804A830F7
:1019100011F00C94CA0CE0E0E0930804A091FF03DE
:10192000A53541F4E0910004E53521F4E09101048E
:10193000E53509F01DC0A0900204B0900304CC244A
:10194000FB2DE0E0DF01E0910404F0E0EA2BFB2B4B
:10195000BE2ECF2ED0900504EE24FD2DE0E0DF0159
:10196000E0910604F0E0EA2BFB2BDE2EEF2E12C0F6
:10197000A091FF03AF3F41F4E0910004EF3F21F459
:10198000E0910104EF3F09F005C0E0E0E0930704B7
:10199000E093080409911991E991EFBFF991E99158
:1019A000B991A9911895E5E5EA930E947711E5E5CB
:1019B000EA930E947711E5E5EA930E947711AA92D3
:1019C0000E947711EC2DF070EA930E947711EB2DB5
:1019D000FC2DF070EA930E947711EE2DF070EA93DF
:1019E0000E947711ED2DFE2DF070EA930E94771181
:1019F0000895E0E0E0930704E0930804AA24089522
:101A00000A930E940B14EB81EA930E943F14EA812F
:101A1000F070EA930E943F14E981FA81F070EA9332
:101A20000E943F140E940B14EB81E160EA930E9434
:101A30003F14E0E0EA930E9424140E2F0E941A142F
:101A4000E02F08811DC00E940B14EB81EA930E94D5
:101A50003F14EA81F070EA930E943F14E981FA8111
:101A6000F070EA930E943F14E881EA930E943F14C9
:101A70000E941A14EAE0F0E0FA93EA930E946D14CF
:101A8000249608951A930A9300E010E0EC81EA93FB
:101A9000EB81FC81FA93EA930E94000D0E2F11272F
:101AA000F02FE0E0FF93EF93EC81EA93EB81FC8170
:101AB0003196FA93EA930E94000DAF91BF91F0E046
:101AC000EA2BFB2B8F01F8011981088118C0EC81EA
:101AD000EA93EB81FC81FA93EA93EC81F070EA934C
:101AE0000E94230DEC81EA93EB81FC813196FA93FD
:101AF000EA93EB81FC81F070EA930E94230D259616
:101B000008950A9300E00E940B14EE81EA930E946C
:101B10003F14ED81F070EA930E943F14EC81FD8147
:101B2000F070EA930E943F140E940B14EE81E16072
:101B3000EA930E943F14E981E1500E1788F4E02FE8
:101B40000F5FAA81BB81F0E0EA0FFB1FFF93EF93C9
:101B5000E1E0EA930E942414AF91BF91EC93EBCFA4
:101B6000E981E150AA81BB81F0E0EA0FFB1FFF93FE
:101B7000EF93E0E0EA930E942414AF91BF91EC93BD
:101B80000E941A140881279608950A9300E00E9483
:101B90000B14EE81EA930E943F14ED81F070EA93FA
:101BA0000E943F14EC81FD81F070EA930E943F1483
:101BB000E9810E1778F4E02F0F5FAA81BB81F0E076
:101BC000AE0FBF1FEC91EA930E943F14000000008B
:101BD0000C94D80D0E941A14EAE0F0E0FA93EA930C
:101BE0000E946D140881279608950E948B1500E0CD
:101BF00010E020E030E040E050E0A885B985EEE05C
:101C0000F0E0EA1BFB0BDF01ECE0F0E00E9449157D
:101C10008F01EE81FF81E054FD4EE01BF10B9F012F
:101C2000F801ACE0B0E00E943115A885B985AE0F8F
:101C3000BF1F1397AD01FA01A9E9B0E00E94311569
:101C40003296DF01E5E0F0E00E944915BF01F9019D
:101C5000ADE6B1E00E9431156E0F7F1FD901E4E6B9
:101C6000F0E00E944915DB01AE1BBF0BEDE2FDE782
:101C70000E947B15EA1BFB0BAA85BB85EA0FFB1FA5
:101C8000BF01D901E4E0F0E00E9449156E0F7F1F0B
:101C9000D901E0E9F1E00E944915E60FF71F0E9423
:101CA0001E150E9492151DC3AC9784E1A0E0B0E020
:101CB000E6E3F2E00E9499150E948B1500E010E027
:101CC00020E030E040E050E0AAA9BBA98CA99DA982
:101CD000E1E10E940915EA8BFB8B6C8B7D8BEAA9F5
:101CE000FBA96CA97DA9EF70F070607070708F0116
:101CF000E0E10E940915E170F07060707070DE0123
:101D00005696EE0FFF1FAE0FBF1F2D913C91E1E0E5
:101D1000F0E0FA93EA93FA93EA93EAADFBADFA9313
:101D2000EA930E94F50DEA87FB876C877D87EA8935
:101D3000FB896C897D89AA85BB858C859D850E94E0
:101D4000FB14EE87FF87688B798BAAA9BBA98CA9A6
:101D50009DA9E4E00E940915E887F98740E050E07A
:101D60004C30E0E05E0724F5ECE0F0E0E41BF50B1E
:101D70003197DE015A96EE0FFF1FEA0FFB1F0F018E
:101D8000E885F985E170F070DE015696EE0FFF1FD1
:101D9000AE0FBF1F0E945C15D001ED93FC93E88548
:101DA000F985F595E795E887F9874F5F5F4FD8CFBD
:101DB000002E012A11F00C943F0FE1E0F0E0EE83D9
:101DC000FF83AE81BF811D9714F00C943E0FAE814E
:101DD000BF81E9E00E942B15EE5EFB4FDF01E1E0E1
:101DE000EC93AE81BF81E9E00E942B15A3E1B4E042
:101DF000AE0FBF1FEE81EC93AE81BF81E9E00E9480
:101E00002B15EC5EFB4FAEA9BFA9A083B183AE81B9
:101E1000BF81E9E00E942B15A6E1B4E0AE0FBF1F21
:101E2000E0E0EC93AE81BF81E9E00E942B15E95E12
:101E3000FB4FAE85BF8588899989A083B183828352
:101E40009383EE81FF813197DE015A96EE0FFF1FDB
:101E5000AE0FBF1F0E945C15AE85BF85888999892A
:101E60000E941E150E94FB14EE87FF87688B798BFA
:101E7000EE81FF813196EE83FF83A3CF05C1E1E0C0
:101E8000F0E0EE83FF83AE81BF810A171B0714F4D5
:101E90000C949F0FE9E00E942B15EE5EFB4FDF01D3
:101EA000E1E0EC93AE81BF81E9E00E942B15A3E154
:101EB000B4E0AE0FBF1FEE81EC93AE81BF81E9E0CD
:101EC0000E942B15EC5EFB4FAEA9BFA9A083B18386
:101ED000AE81BF81E9E00E942B15A6E1B4E0AE0F10
:101EE000BF1FE0E0EC93AE81BF81E9E00E942B15BB
:101EF000E95EFB4FAE85BF8588899989A083B18350
:101F000082839383EE81FF813197DE015A96EE0F33
:101F1000FF1FAE0FBF1F0E945C15AE85BF8588896D
:101F200099890E941E150E94FB14EE87FF87688B1B
:101F3000798BEE81FF813196EE83FF83A4CFAE8152
:101F4000BF81E9E00E942B15EE5EFB4FDF01E1E06F
:101F5000EC93AE81BF81E9E00E942B15A3E1B4E0D0
:101F6000AE0FBF1F0C93AE81BF81E9E00E942B151D
:101F7000EC5EFB4FAEA9BFA9A083B183AE81BF8148
:101F8000E9E00E942B15A6E1B4E0AE0FBF1FE0E030
:101F9000EC93AE81BF81E9E00E942B15E95EFB4F17
:101FA000AE85BF8588899989A083B1838283938315
:101FB000F9010E941E150E94FB14EE87FF87688BB3
:101FC000798BF8013296EE83FF83AE81BF811E9735
:101FD00014F00C944410AE81BF81E9E00E942B15EF
:101FE000EE5EFB4FDF01E1E0EC93AE81BF81E9E003
:101FF0000E942B15A3E1B4E0AE0FBF1FEE81FF815D
:102000003197EC93AE81BF81E9E00E942B15EC5E25
:10201000FB4FAEA9BFA9A083B183AE81BF81E9E028
:102020000E942B15A6E1B4E0AE0FBF1FE0E0EC93D9
:10203000AE81BF81E9E00E942B15E95EFB4FAE85C2
:10204000BF8588899989A083B18382839383EE8138
:10205000FF813297DE015A96EE0FFF1FAE0FBF1FB2
:102060000E945C15AE85BF85888999890E941E15DE
:102070000E94FB14EE87FF87688B798BEE81FF81CE
:102080003196EE83FF83A1CF0E949215E8960895C2
:10209000249784E0A0E0B0E0EAE4F2E00E94991521
:1020A000EC81FD81E05DF740A6EAB0E00E941915E1
:1020B000EA0FFB1F0E946A15E883F9836A837B831A
:1020C000EC81FD81FA93EA93EA81FB816C817D8149
:1020D0000E9470150E94540E26960895249784E05D
:1020E000A0E0B0E0EEE4F2E00E9499151A930A93A2
:1020F0000DE010E0EE81FF81FA93EA930E94481010
:10210000EA85FB85FA93EA93EA85FB85FA93EA93DD
:10211000EA85FB85FA93EA930E94F50DEA83FB8337
:102120006C837D83E0912004F0912104609122046E
:1021300070912304AA81BB818C819D810E948615A8
:102140003CF4EE81FF813197FA93EA930E944810A4
:10215000E0918C04F0918D0460918E0470918F0455
:102160000E94821511F40CE010E0A9E0A09FF0019C
:10217000A19FF00DA7E1B4E0AE0FBF1F0E94601554
:10218000AA81BB818C819D810E9486151CF401501F
:102190001040EBCFA9E0A09FF001A19FF00DEE5EF3
:1021A000FB4FE081AE2FEA81FB816C817D81BB27F3
:1021B000882799270E94FB147F936F93FF93EF93D7
:1021C000A9E0A09FF001A19FF00DA7E1B4E0AE0F40
:1021D000BF1F0E946015AF91BF918F919F910E9488
:1021E00075150E940015E0930904A9E0A09FF00175
:1021F000A19FF00DA3E1B4E0AE0FBF1FEC91E093FF
:102200000A04A9E0A09FF001A19FF00DA4E1B4E0B1
:10221000AE0FBF1F0E945C15E0930B04F0930C04FB
:10222000A9E0A09FF001A19FF00DA6E1B4E0AE0FE0
:10223000BF1FEC91E0930D04EA81FB816C817D81ED
:10224000E0930E04F0930F04609310047093110454
:102250001981088146C0EC81FD81FA93EA93EC81F3
:10226000FD81FA93EA93EC81FD81FA93EA930E944F
:102270006E10EA85FB85FA93EA93E4E1F3E0FA93C2
:10228000EA93EC85FD850E941E150E947015EE856F
:10229000FF850E941E150E947015E889F9890E9429
:1022A0001E150E947015EA89FB890E941E150E9466
:1022B0007015EC89FD890E941E150E947015E09131
:1022C0000904FF27662777270E947015E0910A040A
:1022D000FF27662777270E9470158CE10E94F9126C
:1022E000A0962C9608955F9BFECFECB108955D9B60
:1022F000FECFE881ECB921960895A881B9810E94AA
:102300005C15309749F0ED91FD913196FE93EE9377
:102310003197AA81A08304C0EA81EA930E947711D1
:1023200073C226970E948B1500E0E889F9893196DF
:10233000E88BF98B3197E4913E2FE03011F40C9447
:10234000F512E02FE03059F4353211F401E006C007
:102350003A93ED85FE85FA93EA93CFDF45C1E130EC
:10236000C9F4353239F43A93ED85FE85FA93EA9350
:10237000C4DF39C102E050E010E03D3211F411E059
:1023800033C13B3211F45BE22FC1303211F450E221
:102390002BC102C0E23039F440E003E0303311F4E5
:1023A000106822C104C0E33011F00C94F4123033F1
:1023B00010F03A3308F009C0A42FEAE0EA9FF001D8
:1023C0004E2FE32FE0534E0F0FC1E32FE33671F48E
:1023D000AE85BF851497AE87BF871496EC91EA93BC
:1023E000ED85FE85FA93EA9388DFFDC0E33781F43B
:1023F000AE85BF851497AE87BF8714960E945C1583
:10240000EE83FF83FA93EA930E9458140E2F12C0B2
:10241000E037A1F4AE85BF851497AE87BF871496C9
:102420000E945C15EE83FF83FA93EA930E94621484
:102430000E2F186012601F7720E040C0E43611F0C4
:10244000E93611F4146002C0E53731F4E2E5F2E058
:10245000EE83FF8305E00DC0E83511F4186004C079
:10246000E83711F00C94F312ECE5F2E0EE83FF8311
:1024700004E012FF19C0AE85BF851497AE87BF87F1
:1024800014960E945C15EA87FB87AA85BB85109786
:102490002CF40E940515EA87FB875DE2503011F0AD
:1024A0000F5F01C01B7F0AC0AE85BF851497AE8742
:1024B000BF8714960E945C15EA87FB8710FD15C044
:1024C000041798F417FF08C012FF04C01B7F352FB4
:1024D000015001C030E301C030E23A93ED85FE8542
:1024E000FA93EA930ADF4150EBCF202F11FF1DC072
:1024F0002030D1F013FF08C0EE81FF813196EE83CA
:10250000FF833197E49105C0AE81BF81ED91AE8329
:10251000BF83EA93ED85FE85FA93EA93EEDE4030C1
:1025200009F041502150E4CF51C030E3EE81FF81EA
:102530003296EE83FF8332970E946615E887F9870B
:10254000E885F985AA85BB85AE17BF0750F03F5FC8
:10255000A885B985EA85FB85EA1BFB0BEA87FB8723
:10256000EFCF3A3328F013FF02C0395F01C0395D65
:1025700014FD1DC0313320F4A885B985119709F4E5
:1025800009C0421710F010FF01C01AC030E217FF57
:102590000EC030E3106112FF0AC01B7F5A93ED8515
:1025A000FE85FA93EA93A9DE403009F041503A9350
:1025B000ED85FE85FA93EA93A0DE403009F04150A4
:1025C0002150A885B985129708F0AFCF10FF0BC036
:1025D000403049F04150E0E2EA93ED85FE85FA9300
:1025E000EA938BDEF5CF00E0A0CE0E9492156296B2
:1025F0000895FF92F82E22971A930A93DE010E9403
:10260000F7148D01DE0116960E94F7140E945C15E6
:10261000EA83FB83DE0114960E94F7140E945C1586
:10262000FA93EA931A930A93FE013696FA93EA9381
:1026300078DEAA81BB81E0E0EC931BC0FF92F82E0C
:1026400022971A930A93DE010E94F7148D01E0E0AD
:10265000EA83EB83DE0114960E94F7140E945C1556
:10266000FA93EA931A930A93FE013696FA93EA9341
:1026700058DE198108812496FF900895EA81E3705D
:10268000EA83E981E03019F0EA81E061EA83E881D8
:10269000E03019F0EA81E068EA830E940B14E0ED73
:1026A000EA930E943F14E7E0EA930E943F14EA8114
:1026B000EA930E943F140E941A14A6C00E940B14B1
:1026C000E0EDEA930E943F14E0E0EA930E943F1499
:1026D0000E940B14E1EDEA930E943F14E1E0EA93BB
:1026E0000E942414EA930E947914A881B981EC9382
:1026F000E1E0EA930E942414EA930E947914AA81EB
:10270000BB81EC93E0E0EA930E942414EA930E94D8
:102710007914AC81BD81EC930E941A1452C00E94BE
:102720000B14E0EDEA930E943F14E0E0EA930E946C
:102730003F14E881EA930E948514EA930E943F14B3
:10274000E981EA930E948514EA930E943F14EA818A
:10275000EA930E948514EA930E943F140E941A147F
:1027600053C00E940B14E0EDEA930E943F14E4E092
:10277000EA930E943F140E940B14E1EDEA930E9439
:102780003F14E1E0EA930E942414EA930E94791432
:10279000AC81BD81EC93E1E0EA930E942414EA93BA
:1027A0000E947914AA81BB81EC93E0E0EA930E9435
:1027B0002414EA930E947914A881B981EC930E94B1
:1027C0001A14269608950E940B14E0EDEA930E94D5
:1027D0003F14E4E0EA930E943F14EA81EA930E94E6
:1027E0008514EA930E943F14E981EA930E948514BC
:1027F000EA930E943F14E881EA930E948514EA93C9
:102800000E943F140E941A14239608959298939858
:102810008A9A8B9815C08B988A98EE270000839B24
:102820000895829B089504D08B9A02D08A9AE1E0A1
:102830006BE107C08B9A8A9A03D08A98F9DF8B984C
:1028400065E36A95F1F7089578E08A98F1DF829B55
:10285000FECFEEDF8894839908948A9AF1DFEE1F09
:102860007A9599F77991772311F48B9801C08B9A17
:10287000DFDF8A98E5DF8A9ADBDF8B98D9CFE99191
:1028800078E0EE0F10F48B9801C08B9AD9DF8A980C
:10289000CFDF829BFECFCCDF8A9A7A9591F78B9817
:1028A000C7DF8A98CDDFE1E08399EE278A9A089501
:1028B000A991B991EE27FF276D91662311F031960A
:1028C000FBCF0895AA27BB27E991F9910590002035
:1028D00011F01196FBCFFD010895E991F991309621
:1028E00039F080EA9FE00197F1F7A8953197C9F791
:1028F0000895E881E295EF70AE2FAA0FAA0FEA0FB4
:10290000EE0FA991AF70EA0F0895A991EE27AA5092
:1029100012F0E05FFCCFA65FEA0F0895EE279598CE
:102920008D9A80E897E00197F1F78D988BE48A956E
:10293000F1F7859B089580E391E00197F1F7859B7E
:10294000E39588E196E00197F1F708958D9A8BE081
:102950008A95F1F78D988BE38A95F1F7889485999C
:102960000894E79580E491E00197F1F70895E894E1
:102970008D9A8BE08A95F1F770FD8D9885E48A95A4
:10298000F1F7859903C070FF03C0089570FF0895A3
:102990008CE291E00197F1F78D988BE18A95F1F740
:1029A0006894089568E0D2DF6A95E9F7089568E0D1
:1029B0007991EE27DCDF26F477956A95D9F7E395D0
:1029C0000895EE278881882381F068E1A981BA8182
:1029D00098E0FD917F2F7E27779508F4E627E7950D
:1029E000F6959A95B9F78A9599F723960895002454
:1029F000AF0DB01D0895EA0FFB1F681F791F0895E2
:102A0000EA1BFB0B680B790B0895E095F095319666
:102A10000895EE230E2EFD01BC0131F075956795EA
:102A2000F795E7950A94D1F70895EE0FFF1FEE0F83
:102A3000FF1FEE0FFF1FEE0FFF1F08956F2F660F92
:102A4000660B762F0895FA9FF02DEB9FF00DEA9F0D
:102A5000E02DF10D08956E2F6A9FF0016B9FF00D30
:102A600008951CD0F0DF0EF4D0DF08950024112467
:102A700090E1AA0FBB1F001C111C0E1A1F0A18F4AC
:102A80000E0E1F1E01C0A1609A9599F7FD01D0019D
:102A9000089504D0EBDF0EF4B8DF0895E894F7FF53
:102AA00002C0B3DF6894B7FF06C0A095B095119639
:102AB00000F8039400FA0895ED91FC9111970895A0
:102AC000ED91FD916D917C91139708950590F4918E
:102AD000E02D08950590159065917491F001089589
:102AE0007A936A93FA93EA930895182E862F612DAC
:102AF000192E972F712D1B2EBF2FF12D1A2EAE2FB1
:102B0000E12D08953097604070400895AE17BF07DB
:102B10008607970708955A934A933A932A931A93EC
:102B20000A9308955D814C813B812A811981088136
:102B30000895AC0FBD1F05900D928A95E1F7089599
:00000001FF
