:060000000C9466000C9454
:1000060000000C9400000C9400000C9400000C946A
:1000160000000C9400000C9400000C9400000C945A
:1000260000000C9400000C9400000C9400000C944A
:1000360000000C9400000C9400000C9400000C943A
:1000460000000C9400000C9400000C9400000C942A
:1000560000000C9400000C9400000C9400000C941A
:1000660000000C9400000C9400006400C80090018D
:100076002003F8FFFCFFFEFFFFFF1027E8036400E4
:100086000A0001000010000110000100496E6974A9
:10009600204F4B200D0A00494E495449414C495ABC
:1000A600494E47204445564943452023252D752072
:1000B600004F4B004552524F52007425753D256442
:1000C600200A0D000000F894EE27ECBBF1E0FBBF20
:1000D600EBBFE5BFE6BFF8E1F1BDE1BD8DE0A2E013
:1000E600BB27ED938A95E9F780E094E0A0E0B1E0C4
:1000F600ED930197E9F7EAECF0E085919591009789
:1001060061F0A591B59105901590BF01F00105909C
:100116000D920197E1F7FB01F0CFEFEFEDBFE4E0C1
:10012600EEBFC0E0D2E00C949800E0E8E0936100F6
:10013600E0E0E0936100EBBBEABBE8BBE7BBE5BBF5
:10014600E4BBE2BBE1BBE7B9E6B9E3BFE2BFE1BFAF
:10015600EFBDEEBDEDBDECBDE5BDE4BDEBBDEABD5D
:10016600E9BDE8BDE6BDE7BDE3BDE2BDE0938B00BA
:10017600E0938A00E0938900E0938800E093810091
:10018600E0938000E0938700E0938600E09385008B
:10019600E0938400E5BFE6BFE9BFE0937D00EBB9DD
:1001A600E8E1EAB9E6E8E0BDE0E0E0BDE7E6E9B9A6
:1001B600E0E8E8B90E94DA03E13041F4E2E9F0E070
:1001C600FA93EA9380E00E943E0322960E945E0321
:1001D6000E947101EDE9F0E00E94630384E00E9451
:1001E6003E0326960E945E03E0E0EA93E4E6EA9385
:1001F600E0E0EA930E94B901E03019F0E7EBF0E0A5
:1002060002C0EAEBF0E0FA93EA930E94A903E0EC5D
:10021600F0E00E9463030E945E030E9471010E9447
:100226009A040E9454040E94660488E00E943E03D9
:100236002A96E8EEF3E00E946C038D9A9598959ABB
:10024600E6CF0000FECF0A930E94DA03E03011F4F5
:10025600E0E089C0E981FA81309789F0E5E5EA9323
:100266000E94230400E0A981BA81ED91A983BA8393
:10027600EA930E9423040F5F0830A8F304C0ECEC55
:10028600EA930E942304E1E06EC00E9450050E949A
:10029600700321F4E0E00E945705ADC0EEEBEA934F
:1002A6000E94230400E010E022E02F931F931F5FBB
:1002B6002F4F0E941E04AF91BF91EC930F5F093040
:1002C600A0F3E0E0F2E0FA93EA93E9E0EA930E9411
:1002D6002D040E9459040E9457058DC00A930E945E
:1002E60078030E944801E03019F40E947D033BC068
:1002F600E0910402E295EF70E695E3700E2F0E94FE
:1003060078030E942601E03019F40E947D032BC079
:10031600E4E4EA930E942304E02FA0E7B0E00E9401
:1003260082030E946C030E9478030E944801E03019
:1003360019F40E947D0317C00E94DA03E02FA8E794
:10034600B0E00E948203A0910002B0910102EA236C
:10035600FB23662777270E94D104A0E0B0E080E85F
:100366009DE30E94FF040881239608950E9470036E
:1003760011F4E0E040C0E881E295E07FEE0FEF6126
:10038600E883EEE4EA930E942304E981EA930E945B
:100396002304EA81EA930E942304E881EA930E94F7
:1003A6002304EB81FC81FA93EA930E944801E03032
:1003B60011F4E0E020C0A0910302EA81EA1751F4AB
:1003C600A0910202E981EA1729F4A0910402E881CA
:1003D600EA1711F0E0E00FC00E94700311F4E0E0AC
:1003E6000AC0E8E4EA930E942304EFE0F0E00E94EA
:1003F6006C030E94DA03259608955F9BFECFECB14D
:1004060008955D9BFECFE881ECB921960895A881F9
:10041600B9810E945E04309749F0ED91FD913196C5
:10042600FE93EE933197AA81A08304C0EA81EA93F2
:100436000E9404022396089526970E944D0500E027
:10044600E889F9893196E88BF98B3197E4913E2F4B
:10045600E03011F40C943A03E02FE03031F43532F9
:1004660011F401E001C053D101C1E130A1F43532EC
:1004760011F44DD1FAC002E050E010E03D3211F423
:1004860011E0F4C03B3211F45BE2F0C0303211F4FB
:1004960050E2ECC002C0E23039F440E003E0303311
:1004A60011F41068E3C004C0E33011F00C94390372
:1004B600303310F03A3308F009C0A42FEAE0EA9F7F
:1004C600F0014E2FE32FE0534E0FD0C0E32FE3365B
:1004D60021F423D1EC9128D1C8C0E33731F41DD1E2
:1004E60029D10E94B9030E2F08C0E03751F415D167
:1004F60021D10E94C3030E2F186012601F7720E0DF
:1005060036C0E43611F0E93611F4146002C0E5375E
:1005160031F4E0E8F0E0EE83FF8305E00DC0E83556
:1005260011F4186004C0E83711F00C943803EAE8B7
:10053600F0E0EE83FF8304E012FF14C0EED00E94C9
:100546005E04EA87FB87AA85BB8510972CF40E9478
:100556004704EA87FB875DE2503011F00F5F01C068
:100566001B7F05C0DAD00E945E04EA87FB8710FD78
:1005760010C0041770F417FF08C012FF04C01B7FD9
:10058600352F015001C030E301C030E2C0D04150E8
:10059600F0CF202F11FF19C02030B1F013FF08C093
:1005A600EE81FF813196EE83FF833197E49105C09A
:1005B600AE81BF81ED91AE83BF83EA93C2D0403056
:1005C60009F041502150E8CF48C030E3EE81FF8169
:1005D6003296EE83FF8332970E946204E887F9879A
:1005E600E885F985AA85BB85AE17BF0750F03F5F42
:1005F600A885B985EA85FB85EA1BFB0BEA87FB879D
:10060600EFCF3A3328F013FF02C0395F01C0395DDE
:1006160014FD19C0313320F4A885B985119709F462
:1006260009C0421710F010FF01C011C030E217FFD9
:100636000AC030E3106112FF06C01B7F5A9381D0B7
:10064600403009F0415063D0403009F0415021500C
:10065600A885B985129708F0B8CF10FF06C04030BC
:1006660021F04150E0E260D0FACF00E0E9CE0E94EE
:10067600540562960895FF92F82E22971A930A93CC
:10068600DE010E9443048D01E0E0EA83EB83DE0194
:1006960014960E9443040E945E04FA93EA931A9306
:1006A6000A93FE013696FA93EA93C6DE198108810B
:1006B6002496FF900895E0E0F0E0FA93EA93089517
:1006C600FA93EA93E0E0F0E060E070E00E946604EE
:1006D6000895FA93EA930C94CE03EB81FC81FA9386
:1006E600EA930E942601E0300895E981FA81FA939F
:1006F600EA930895E0E0FCE36CE176EC0895F0E01F
:10070600EE0FFF1FEA0FFB1F0E94620408953A9343
:10071600ED85FE85FA93EA937ACEAE85BF8514976A
:10072600AE87BF8714960895EA93ED85FE85FA9302
:10073600EA936DCE0E945E04EE83FF83FA93EA93FA
:100746000895ED85FE85FA93EA9361CEE991F991D4
:100756000590002031F0EF93FF9305D0FF91EF91C4
:10076600F7CF6AE0062E0A920C940402A991B99179
:10077600EE27FF276D91662311F03196FBCF089582
:10078600AA27BB27E991F9910590002011F011964F
:10079600FBCFFD010895E991F991309639F080EA91
:1007A6009FE00197F1F7A8953197C9F70895EE27CD
:1007B60095988D9A80E897E00197F1F78D988BE4EC
:1007C6008A95F1F7859B089580E391E00197F1F70B
:1007D600859BE39588E196E00197F1F708958D9A58
:1007E6008BE08A95F1F78D988BE38A95F1F78894DB
:1007F60085990894E79580E491E00197F1F70895CB
:10080600E8948D9A8BE08A95F1F770FD8D9885E4D2
:100816008A95F1F7859903C070FF03C0089570FFAC
:1008260008958CE291E00197F1F78D988BE18A9516
:10083600F1F76894089568E0D2DF6A95E9F70895BC
:1008460068E07991EE27DCDF26F477956A95D9F78B
:10085600E3950895EE278881882381F068E1A981D0
:10086600BA8198E0FD917F2F7E27779508F4E627D9
:10087600E795F6959A95B9F78A9599F72396089587
:100886000024AF0DB01D0895E095F09531960895BA
:10089600E095F09560957095EF5FFF4F6F4F7F4F36
:1008A60008956F2F660F660B762F0895EE23E1E00D
:1008B60009F0EE270895ED91FC91119708950590A2
:1008C600F491E02D08957A936A93FA93EA93089542
:1008D600552342F4503811F4E0FF04C03196691FE5
:1008E600791F6BF050E8572711F45F9373C05F3F91
:1008F60031F0660F000C57956795752F08955F9335
:1009060000200AF073C06CC050E8192E1522880F1B
:10091600991F9527550F879550E8072E0522660FD4
:10092600771F7527550F67950895689401C0E89459
:100936005F93F2DF703818F07F3F08F44BC056E142
:10094600571BAAF4519558300EF4593030F0EFEF9A
:10095600FFEF6FEF7FE777F91AC077275523B9F0D6
:10096600EE0FFF1F661F771F5A95D1F710C0772726
:10097600583028F0EF2FF62F672F5850F9CF552310
:1009860031F076956795F795E7955A95D1F700205A
:100996000AF47EDF5F910895689401C0E894309769
:1009A60060407040B1F0002426F0772312F40094E2
:1009B6006FDF172E7EE1112032F07A95EE0FFF1FC2
:1009C600661F111CF9CFEF2FF62F612D5F938ADF7B
:1009D6005F910895EE27FF27662777275F91089591
:1009E600EFEFFFEF6FE77FEF5F910895EFEFFFEF18
:1009F6006FE77FE75F9108955F9386DF703851F365
:100A0600903841F301240894791F23F41CF3002045
:100A16003AF3ECCF0F921F932F933F934F931127E7
:100A260022279927689FA0018F9F302D410D591FBE
:100A36006B9F300D411D591F8E9F27D0BF9F25D01C
:100A46006A9F23D0BE9F1DD0AF9F1BD0AE9F110DB6
:100A5600291F391F491F591FE32FF42F652F522FC6
:100A66004F913F912F911F910F9066232AF0550FBA
:100A7600EE1FFF1F661F02C073954BF229DF5F91C1
:100A86000895100D211D391F02C0200D311D491F6B
:100A9600591F08955A934A933A932A931A930A939D
:100AA60008955D814C813B812A81198108810895D1
:00000001FF
