:040000000C943F001D
:100004000C9400000C9400000C9400000C9400006C
:100014000C9400000C9400000C9400000C9400005C
:100024000C9400000C9400000C9400000C9400004C
:100034000C9400000C9400000C9400000C9400003C
:100044000C9471000C9400000C949F050C94000017
:100054000C9400000C9400000C9400000C9400001C
:100064000C9400000C9400000C9400001400000098
:10007400000001006F0170000000F894EE27ECBB53
:10008400F1E0FBBFEBBFE5BFE6BFF8E1F1BDE1BDC9
:100094008DE0A2E0BB27ED938A95E9F780E094E038
:1000A400A0E0B1E0ED930197E9F7E6E7F0E0859190
:1000B4009591009761F0A591B59105901590BF01B8
:1000C400F00105900D920197E1F7FB01F0CFEFEFFE
:1000D400EDBFE4E0EEBFC4E6D1E00C948305EA93FF
:1000E400FA93EFB7EA93E5E0E2BFE0916801F0919B
:1000F40069013196E0936801F0936901E991EFBFDA
:10010400F991E991189566247724E0E1F0E06E1600
:100114007F0610F00C94FB00F3010E94AF07DF018F
:10012400F2010E94AA07EA0FFB1FA0916401B0919B
:100134006501AE0FBF1FAC91F301E770F070B0E042
:100144000E949D07E0FB20F821FE02C0689420F87D
:10015400A0917001A330B9F4E0E1F0E0E619F709E9
:100164000F01A0916601B0916701E0E2F0E0EA1BA3
:10017400FB0BE015F10510F4C39A04C020FAA8B3F0
:10018400A3F9A8BB2AC0A0917001A23011F5E09197
:100194006601F091670170976E167F0668F0A09172
:1001A4006601B091670150972CF020FAA8B3A3F927
:1001B400A8BB01C0C39A0CC0A0916601B0916701AD
:1001C400509714F0C39A04C020FAA8B3A3F9A8BBAB
:1001D40004C020FAA8B3A3F9A8BB85E08A95F1F777
:1001E400C29A85E08A95F1F7C298F30131963F01EE
:1001F4008CCFA0917001A23011F0A33071F5E09181
:100204006601F0916701719744F5229782E0A0E0BE
:10021400B0E0E2E7F0E00E94D307C39AE0E0E883AD
:10022400E983A0916601B0916701E0E1F0E0EA1B87
:10023400FB0BA881B981AE17BF0774F485E08A95DA
:10024400F1F7C29A85E08A95F1F7C298E881F981BD
:100254003196E883F983E5CF229685E08A95F1F714
:10026400C49A85E08A95F1F7C498089544245524E6
:10027400E0ECF0E04E165F0640F40E948500C09A60
:10028400C098F20131962F01F3CFC19AC198089515
:10029400E0916F01A0916801B0916901F0E0EA1763
:1002A400FB0710F00C94D402E0917001E03011F0DF
:1002B4000C94AB0122FC13C0A0916F01A33030F069
:1002C400E0916401F0916501349605C0E091640108
:1002D400F09165013896E0936401F0936501A09173
:1002E4006401B0916501A030EBE0BE0711F468949D
:1002F40022F822FE15C0A0916A01B0916B011196FB
:10030400A0936A01B0936B011197A536E0E0BE0794
:1003140038F0E89422F8E0E0E0936A01E0936B019E
:10032400E0916D01F0916E01E052FF4F0E94AA0727
:10033400E050F84FA0916401B0916501EA17FB0702
:1003440038F4E0916C01EF5FE0936C01EA933FD2E3
:100354001DC1E13011F00C94FB0122FC13C0A091EB
:100364006F01A33030F0E0916401F091650134979E
:1003740005C0E0916401F09165013897E093640150
:10038400F0936501A0916401B0916501A030EBE0A8
:10039400BE0711F4689422F822FE16C0A0916A01E7
:1003A400B0916B011196A0936A01B0936B01119700
:1003B400A536E0E0BE0738F0E89422F8E0E0E093E8
:1003C4006A01E0936B0114C0A0916401B0916501CE
:1003D400A030E8E0BE0760F4E0E0E0936601E0935B
:1003E4006701E0916C01EF5FE0936C01EA93EFD158
:1003F400CDC0E33011F00C944702A0916601B09196
:100404006701109754F0E0916601F091670131970C
:10041400E0936601F09367010EC0E0916C01EF5F19
:10042400E0936C01E0E0E0936601E0936701E09102
:100434006C01EA93CCD122FE1FC0A0916A01B09155
:100444006B011196A0936A01B0936B011197A536C5
:10045400E0E0BE0740F0E89422F8E0E0E0936A01AF
:10046400E0936B0109C0E0916601F0916701319658
:10047400E0936601F0936701A0916601B091670172
:10048400509711F4689422F881C0E23011F00C9472
:100494009102A0916601B0916701509711F468949C
:1004A40022F8A0916601B0916701919754F4E0910C
:1004B4006601F09167013196E0936601F09367015C
:1004C4000CC0E0E0E0936A01E0936B01E0916C0101
:1004D400EF5FE0936C01EA937AD122FE1FC0A091F2
:1004E4006A01B0916B011196A0936A01B0936B01FC
:1004F4001197A536E0E0BE0740F0E89422F8E0E06A
:10050400E0936A01E0936B0109C0E0916601F09108
:1005140067013197E0936601F093670137C0E430D7
:1005240061F5A0916F01A33030F0E0916401F09186
:100534006501349605C0E0916401F0916501389637
:10054400E0936401F0936501E0916D01F0916E0117
:10055400E052FF4F0E94AA07E050F84FA0916401B7
:10056400B0916501EA17FB0738F4E0916C01EF5F85
:10057400E0936C01EA932BD109C0E53039F4E091A2
:100584006C01EF5FE0936C01EA9321D1E0E0E0932A
:100594006801E0936901A0916C01A83018F0E0E0D3
:1005A400E0936C0108950A9300EAE981EE0F0E0FBF
:1005B4000E942A07C49A0A93E0E0F0E0FA93EA93CF
:1005C4000E942906E0936F010A93E1E0F0E0FA93B8
:1005D400EA930E942906E09370010A93E2E0F0E0B6
:1005E400FA93EA930E946B06E0936D01F0936E0117
:1005F400A0916D01B0916E01A13AEEE0BE0728F022
:10060400E0E0E0936D01E0936E01A0917001A630EB
:1006140018F0E5E0E0937001A0916F01A53618F0A1
:10062400E0E0E0936F01C49816C00A9300EAE98100
:10063400EE0F0E0F0E942A07C49A0A93E2E0F0E03C
:10064400FA93EA93E0916D01F0916E01FA93EA93C3
:100654000E949006C4980881229608950A9300EA9D
:10066400E981EE0F0E0F0E942A07C49A0A93E0E074
:10067400F0E0FA93EA93EE81EA930E944C060A931F
:10068400E1E0F0E0FA93EA93ED81EA930E944C06EC
:10069400C4980881249608950E94CA0700E010E0D7
:1006A40020EAEB81EE0F2E0F0E811F81AC81BD81FC
:1006B400A13AEEE0BE0720F00E94CF0728960895E5
:1006C400EC81FD81E054FF4F0E94AA07AE81BF81F7
:1006D400EA0FFB1FEC83FD83EF7371F0AC81BD81E6
:1006E400E0E4F0E00E94B6070E94AA070E94A60771
:1006F400E05CFF4FEC83FD830E942A07C49A0E81BD
:100704001F81EC81FD810E171F0710F00C949803D4
:10071400A8952A931A930A931A930A93E0E4EA9306
:100724000E94EE06005C1F4F0C948303C49810C013
:100734000E94CA0700E010E020EAEB81EE0F2E0FC2
:100744000E811F81AC81BD81A13AEEE0BE0720F08D
:100754000E94CF0728960895EC81FD81E054FF4F55
:100764000E94AA07AE81BF81EA0FFB1FEC83FD83C1
:10077400EF7371F0AC81BD81E0E4F0E00E94B60754
:100784000E94AA070E94A607E05CFF4FEC83FD834A
:100794000E942A07C49A0E811F81EC81FD810E17E5
:1007A4001F0710F00C94E4032A931A930A931A93E4
:1007B4000A93E0E4EA930E94AA06A895005C1F4FFE
:1007C4000C94CF03C4980E94CF0728960895A8815B
:1007D400A83010F0E0E0E883E881EA930E94D502B3
:1007E400A0917001A53009F462C0E0E0F5E0FA934D
:1007F400EA93E0E0F0E8FA93EA938AD0E0E0F8E0E4
:10080400FA93EA93E0916D01F0916E01FA93EA9301
:10081400EC81EA930E949A03E0E0E0936A01E0939A
:100824006B01E0E0E0936601E0936701E89422F84D
:10083400E0917001E03039F4E0E0F8E0E093640125
:10084400F093650134C0E13069F4E0916D01F091F9
:100854006E010E94AA07E050F84FE0936401F09300
:10086400650125C0E33069F4E0E2F0E0E09366015D
:10087400F0936701E0E0FBE0E0936401F09365012D
:1008840016C0E23061F4E0E0E0936601E0936701B2
:10089400E0E0FBE0E0936401F093650108C0E4301C
:1008A40031F4E0E0F8E0E0936401F093650121960F
:1008B40008950E94C90700E010E020E030E00E81B6
:1008C4001F81C49A20E030E0EC81FD810E94AA07D8
:1008D4002E173F0710F00C948504219781E0A0E0C7
:1008E400B0E0E4E7F0E00E94D3070E942007E0951F
:1008F400E883D801EC930F5F1F4FA89521962F5FD3
:100904003F4F0C946604C4980E94CE07289608951D
:100914001A930A9300E015E00C811D81EA81FB81A2
:10092400E017F10730F0D801EFEFEC930F5F1F4FA2
:10093400F5CF1981088126960895E0E8E0936100D7
:10094400E0E0E0936100EBBBEFEFEABBE0E0E8BB83
:10095400EFEFE7BBE0E0E5BBEFEFE4BBE0E0E2BBD9
:10096400E1BBE7B9EFEFE6B9E3E0E3BFE5E0E2BFFF
:10097400E0E0E1BFEBB9E8E9EAB9E6E8E0BDE0E0D0
:10098400E0BDE7E6E9B9E0E8E5BFE0E0E6BFE2E0C4
:10099400E9BFE0E0E0937D00EEE5E4B9EFE1E1BD1D
:1009A400EFE0E1BD0895E0E0F8E0E0936401F09346
:1009B40065010E949F04C498E0E0F5E0FA93EA938D
:1009C400E0E0F0E8FA93EA930E948A04C498E2E330
:1009D400F0E0FA93EA930E947C07C49AE2E3F0E021
:1009E400FA93EA930E947C07C498E4EFF1E0FA9347
:1009F400EA930E947C07C49A0895F894A895E82D78
:100A0400E230B9F590926D01A0926E01EB2DFC2DB0
:100A1400EF70F070E0936C01E0E0F5E0FA93EA9394
:100A2400E0E0F0E8FA93EA930E948A04E0E0FBE055
:100A3400FA93EA93E0916D01F0916E01FA93EA93CF
:100A44000E945B04E0E0FBE0E0936401F093650145
:100A5400E0E0F8E0FA93EA93E0916D01F0916E0121
:100A6400FA93EA93BA920E944E03BA920E94170331
:100A740044C0E33009F441C0ED3059F4E92DFA2DB6
:100A8400F070EA93EA2DF070EA93BA920E94300370
:100A940034C0E73011F0EB3089F4BA920E941703A6
:100AA400E0E0F8E0FA93EA93E0916D01F0916E01D1
:100AB400FA93EA93BA920E944E031FC0E63011F0F3
:100AC400EA30B9F4BA920E94D502E0E0F8E0FA9371
:100AD400EA93E0916D01F0916E01FA93EA93BA9270
:100AE4000E949A03E0E0FBE0E0936401F093650167
:100AF40004C0E03111F490FA21F87FD0882478946E
:100B04000895E4B7E3FF05C0E4B7E07EE4BF9BD0FB
:100B140003C0E4B7E07EE4BF0E94D5047894882043
:100B240019F00E94FF0404C00E9438010E944A0187
:100B3400A8950C9491050000FECFAA93BA93EA936A
:100B4400FA93EFB7EA931A930A930BB11CB1E02F0F
:100B5400EC7111F00C94F605AD2DB0E0AF58BE4F1A
:100B64001C93D394E8E0ED1509F4DD24E394E8E064
:100B7400EE15D1F5EE24A0917101A53541F4E09173
:100B84007201E53521F4E0917301E53509F01DC0EA
:100B94008090740190907501AA24F92DE0E0DF01A2
:100BA400E0917601F0E0EA2BFB2B9E2EAF2EB09065
:100BB4007701CC24FB2DE0E0DF01E0917801F0E047
:100BC400EA2BFB2BBE2ECF2E0FC0A0917101AF3F9D
:100BD40041F4E0917201EF3F21F4E0917301EF3FA2
:100BE40009F002C0DD24EE2409911991E991EFBFC7
:100BF400F991E991B991A9911895E5E5EA930E94D3
:100C04002407E5E5EA930E942407E5E5EA930E94B8
:100C140024078A920E942407EA2DF070EA930E9426
:100C24002407E92DFA2DF070EA930E942407EC2D95
:100C3400F070EA930E942407EB2DFC2DF070EA93E8
:100C44000E9424070895DD24EE24882408950A933D
:100C54000E942F07EB81EA930E946307EA81F070F8
:100C6400EA930E946307E981FA81F070EA930E9493
:100C740063070E942F07EB81E160EA930E946307F8
:100C8400E0E0EA930E9448070E2F0E943E07E02FFF
:100C940008811DC00E942F07EB81EA930E9463071D
:100CA400EA81F070EA930E946307E981FA81F070A7
:100CB400EA930E946307E881EA930E9463070E9413
:100CC4003E07EAE0F0E0FA93EA930E947C07249658
:100CD40008951A930A9300E010E0EC81EA93EB8103
:100CE400FC81FA93EA930E9429060E2F1127F02F14
:100CF400E0E0FF93EF93EC81EA93EB81FC81319682
:100D0400FA93EA930E942906AF91BF91F0E0EA2B8F
:100D1400FB2B8F01F8011981088118C0EC81EA933B
:100D2400EB81FC81FA93EA93EC81F070EA930E94E0
:100D34004C06EC81EA93EB81FC813196FA93EA93B9
:100D4400EB81FC81F070EA930E944C06259608958D
:100D54000A9300E00E942F07EE81EA930E94630742
:100D6400ED81F070EA930E946307EC81FD81F070DD
:100D7400EA930E9463070E942F07EE81E160EA93E1
:100D84000E946307E981E1500E1788F4E02F0F5F9A
:100D9400AA81BB81F0E0EA0FFB1FFF93EF93E1E030
:100DA400EA930E944807AF91BF91EC93EBCFE9819E
:100DB400E150AA81BB81F0E0EA0FFB1FFF93EF93A0
:100DC400E0E0EA930E944807AF91BF91EC930E9440
:100DD4003E070881279608950A9300E00E942F0792
:100DE400EE81EA930E946307ED81F070EA930E941A
:100DF4006307EC81FD81F070EA930E946307E98147
:100E04000E1710F00C941507E02F0F5FAA81BB8119
:100E1400F0E0AE0FBF1FEC91EA930E94630700005D
:100E240000000C9401070E943E07EAE0F0E0FA9308
:100E3400EA930E947C070881279608955F9BFECF62
:100E4400ECB108955D9BFECFE881ECB9219608953D
:100E5400929893988A9A8B9815C08B988A98EE27C3
:100E64000000839B0895829B089504D08B9A02D03E
:100E74008A9AE1E06BE107C08B9A8A9A03D08A9838
:100E8400F9DF8B9865E36A95F1F7089578E08A981D
:100E9400F1DF829BFECFEEDF8894839908948A9ACF
:100EA400F1DFEE1F7A9599F77991772311F48B98F6
:100EB40001C08B9ADFDF8A98E5DF8A9ADBDF8B98A3
:100EC400D9CFE99178E0EE0F10F48B9801C08B9A9A
:100ED400D9DF8A98CFDF829BFECFCCDF8A9A7A95BE
:100EE40091F78B98C7DF8A98CDDFE1E08399EE27ED
:100EF4008A9A0895E991F991309639F080EA9FE051
:100F04000197F1F7A8953197C9F70895E881E2951B
:100F1400EF70AE2FAA0FAA0FEA0FEE0FA991AF70D0
:100F2400EA0F0895A991EE27AA5012F0E05FFCCFD2
:100F3400A65FEA0F0895EE230E2EFD0121F0F5952C
:100F4400E7950A94E1F70895EE0FFF1FEE0FFF1FD8
:100F5400EE0FFF1FEE0FFF1F0895F695E795F69528
:100F6400E795F695E79508950024112490E1AA0FDA
:100F7400BB1F001C111C0E1A1F0A18F40E0E1F1E94
:100F840001C0A1609A9599F7FD01D00108953A93A3
:100F94002A931A930A9308953B812A81198108811F
:100FA4000895AC0FBD1F05900D928A95E1F7089541
:00000001FF
