:0E00000069C0FECFFDCFFCCFFBCFFACFF9CF0A
:10000E0092C0F7CF4BC6F5CFF4CFF3CFF2CFF1CFEF
:10001E00F0CFEFCF1400000000001027E8036400BB
:10002E000A00010000100001100001006C696E65ED
:10003E003D256420726174653D2564207479706578
:10004E003D2564206C656E3D25640D0A004C434DC4
:10005E00532076332E30322044657369676E6564A3
:10006E002062792043756F6E67517561790D0A00B4
:10007E0063756F6E673369687574407961686F6F09
:10008E002E636F6D202D20303931353635313030BD
:10009E00310D0A0052656C6561736520646174658B
:1000AE003A2032322E31312E323030360D0A004B9C
:1000BE00455920505245535345440D0A0000010046
:1000CE00EB0022000000F894EE27ECBBF1E0FBBF42
:1000DE00EBBFE5BFE6BFF8E1F1BDE1BD8DE0A2E00B
:1000EE00BB27ED938A95E9F780E092E0A0E6ED93C9
:1000FE000197E9F7ECECF0E085919591009761F0AE
:10010E00A591B59105901590BF01F00105900D9246
:10011E000197E1F7FB01F0CFEFE5EDBFE2E0EEBFB7
:10012E00C0EED0E07CC5EA93FA93EFB7EA93E5E030
:10013E00E2BFE091E400F091E5003196E093E40037
:10014E00F093E500E991EFBFF991E99118956624D6
:10015E007724E8E1F0E06E167F0608F06AC0F3013E
:10016E0020D9DF01F20118D9EA0FFB1FA091E000A0
:10017E00B091E100AE0FBF1FAC91F301E770F070CC
:10018E00B0E0FDD8E0FB20F821FE02C0689420F814
:10019E00A091EC00A330B9F4E8E1F0E0E619F7091C
:1001AE000F01A091E200B091E300E0E3F0E0EA1B62
:1001BE00FB0BE015F10510F4C39A04C020FAA8B3A6
:1001CE00A3F9A8BB2AC0A091EC00A23011F5E091D2
:1001DE00E200F091E30078976E167F0668F0A0912A
:1001EE00E200B091E30058972CF020FAA8B3A3F9DF
:1001FE00A8BB01C0C39A0CC0A091E200B091E3006D
:10020E00589714F0C39A04C020FAA8B3A3F9A8BB58
:10021E0004C020FAA8B3A3F9A8BB85E08A95F1F72C
:10022E00C29A85E08A95F1F7C298F30131963F01A3
:10023E0090CFA091EC00A23011F0A33069F5E091BF
:10024E00E200F091E30079973CF5229782E0A0E07E
:10025E00B0E0E4E2F0E0DDD8C39AE0E0E883E983C1
:10026E00A091E200B091E300E8E1F0E0EA1BFB0BA5
:10027E00A881B981AE17BF0774F485E08A95F1F7AE
:10028E00C29A85E08A95F1F7C298E881F981319694
:10029E00E883F983E5CF229685E08A95F1F7C49A33
:1002AE0085E08A95F1F7C498089544245524E0EA30
:1002BE00F0E04E165F0638F44ADFC09AC098F2019D
:1002CE0031962F01F4CFC19AC198089523FE03C031
:1002DE00689422F80895E091EB00A091E400B091AB
:1002EE00E500F0E0EA17FB0708F0B5C1E091EC007D
:1002FE00E03009F04EC022FC13C0A091EB00A330F9
:10030E0030F0E091E000F091E100349605C0E0910C
:10031E00E000F091E1003896E093E000F093E10008
:10032E00A091E000B091E100A030EAE0BE0711F428
:10033E00689422F822FE15C0A091E600B091E70065
:10034E001196A093E600B093E7001197A536E0E072
:10035E00BE0738F0E89422F8E0E0E093E600E09380
:10036E00E700E091E900F091EA00E054FF4F14D865
:10037E00E058F84FA091E000B091E100EA17FB07BA
:10038E0038F4E091E800EF5FE093E800EA93A9D239
:10039E0056C1E13009F04CC022FC13C0A091EB0015
:1003AE00A33030F0E091E000F091E100349705C009
:1003BE00E091E000F091E1003897E093E000F093D7
:1003CE00E100A091E000B091E100A030EAE0BE07AC
:1003DE0011F4689422F822FE16C0A091E600B091A6
:1003EE00E7001196A093E600B093E7001197A536AB
:1003FE00E0E0BE0738F0E89422F8E0E0E093E60093
:10040E00E093E70014C0A091E000B091E100A038A5
:10041E00E7E0BE0760F4E0E0E093E200E093E30083
:10042E00E091E800EF5FE093E800EA935AD207C14B
:10043E00E33009F066C0A091E200B091E30010979E
:10044E0054F0E091E200F091E3003197E093E20086
:10045E00F093E3002CC0E0E0E093E600E093E700C9
:10046E00E0E3F0E0E093E200F093E300E091E000DF
:10047E00F091E100E058FD4FE093E000F093E100D1
:10048E00E091E900F091EA00E056FF4F85D7E05881
:10049E00F84FA091E000B091E100AE17BF0738F021
:1004AE00E091E800EF5FE093E800EA931AD222FEB3
:1004BE001FC0A091E600B091E7001196A093E60050
:1004CE00B093E7001197A536E0E0BE0740F0E89440
:1004DE0022F8E0E0E093E600E093E70009C0E09147
:1004EE00E200F091E3003196E093E200F093E30036
:1004FE00A091E200B091E300589711F4689422F8AD
:10050E009EC0E23009F065C0A091E200B091E30018
:10051E00589711F4689422F8A091E200B091E3008C
:10052E00D19754F4E091E200F091E3003196E0931C
:10053E00E200F093E3002BC0E0E0E093E200E093F2
:10054E00E300E0E0E093E600E093E700E091E000F6
:10055E00F091E100E058FD4FE093E000F093E100F0
:10056E00E091E900F091EA00E056FF4F15D7E05810
:10057E00F84FA091E000B091E100AE17BF0738F040
:10058E00E091E800EF5FE093E800EA93AAD122FE43
:10059E001FC0A091E600B091E7001196A093E6006F
:1005AE00B093E7001197A536E0E0BE0740F0E8945F
:1005BE0022F8E0E0E093E600E093E70009C0E09166
:1005CE00E200F091E3003197E093E200F093E30054
:1005DE0036C0E43059F5A091EB00A33030F0E09135
:1005EE00E000F091E100349605C0E091E000F0915A
:1005FE00E1003896E093E000F093E100E091E9002D
:10060E00F091EA00E054FF4FC7D6E058F84FA091A2
:10061E00E000B091E100EA17FB0738F4E091E80042
:10062E00EF5FE093E800EA935CD109C0E53039F45E
:10063E00E091E800EF5FE093E800EA9352D1E0E04A
:10064E00E093E400E093E500A091E800A43018F0F8
:10065E00E0E0E093E8000895CED600EA10E020E056
:10066E00EB81EE0F0E0FAB81A43010F010E020E8FE
:10067E00077FF5D5C49A0A93E12FF22F3096FA939D
:10068E00EA938BD3E093EB000A93E12FF22F31968E
:10069E00FA93EA9382D3E093EC000A93E12FF22FC0
:1006AE003296FA93EA93ACD3E093E900F093EA0022
:1006BE00EAE3F0E0FA93EA93ED81FF2766277727C6
:1006CE0092D6E091EB00FF27662777278CD6E09134
:1006DE00EC00FF276627772786D6E091E900F09198
:1006EE00EA00662777277FD680E19ED56296A09195
:1006FE00E900B091EA00A13CEEE0BE0728F0E0E090
:10070E00E093E900E093EA00A091EC00A63018F027
:10071E00E5E0E093EC00A091EB00A53618F0E0E0E8
:10072E00E093EB00C4981DC066D600EA10E020E00E
:10073E00EB81EE0F0E0FAB81A43010F010E020E82D
:10074E00077F8DD5C49A0A93E12FF22F3296FA9332
:10075E00EA93E091E900F091EA00FA93EA9371D3FB
:10076E00C49850D62496089546D600EA10E020E0AC
:10077E00EB81EE0F0E0FAB81A43010F010E020E8ED
:10078E00077F6DD5C49A0A93E12FF22F3096FA9314
:10079E00EA93E885EA931CD30A93E12FF22F319660
:1007AE00FA93EA93EF81EA9313D3C4982BD6269645
:1007BE0008951FD600E010E020EA30E040E0ED8121
:1007CE00EE0F2E0FAD81A43010F030E040E808851A
:1007DE001985AE81BF81A13CEEE0BE0718F010D6A0
:1007EE002A960895EE81FF81E056FF4FD5D5A88554
:1007FE00B985EA0FFB1FEE83FF83EF7359F0AE81CD
:10080E00BF81E0E4F0E0D4D5C7D5C2D5E05CFF4FA0
:10081E00EE83FF8324D5C49A08851985EE81FF8166
:10082E000E171F0778F4A8952A93F801E30FF41F0B
:10083E00FA93EA931A930A93E0E4EA9355D3005C91
:10084E001F4FECCFC49816C0D4D500E010E020EABC
:10085E0030E040E0ED81EE0F2E0FAD81A43010F0B0
:10086E0030E040E808851985AE81BF81A13CEEE0FD
:10087E00BE0718F0C5D52A960895EE81FF81E05681
:10088E00FF4F8AD5A885B985EA0FFB1FEE83FF833C
:10089E00EF7359F0AE81BF81E0E4F0E089D57CD5ED
:1008AE0077D5E05CFF4FEE83FF83D9D4C49A0885D9
:1008BE001985EE81FF810E171F0778F42A93F80130
:1008CE00E30FF41FFA93EA931A930A93E0E4EA9380
:1008DE00D0D2A895005C1F4FECCFC49891D52A9624
:1008EE000895A881A43010F0E0E0E883E881EA934F
:1008FE00B3DEA091EC00A53009F46EC0E0E0F5E0A7
:10090E00FA93EA93E0E0F0E8FA93EA938ED0E0E807
:10091E00F7E0FA93EA93E091E900F091EA00FA9396
:10092E00EA93EC81EA9390DFE0E0E093E600E09357
:10093E00E700E0E0E093E200E093E300E89422F8C1
:10094E00E091EC00E03039F4E0E8F7E0E093E0000D
:10095E00F093E10033C0E13061F4E091E900F091F1
:10096E00EA001AD5E058F84FE093E000F093E1006A
:10097E0025C0E33069F4E0E3F0E0E093E200F093A9
:10098E00E300E0E0FAE0E093E000F093E10016C04F
:10099E00E23061F4E0E0E093E200E093E300E0E0B7
:1009AE00FAE0E093E000F093E10008C0E43031F4A7
:1009BE00E0E8F7E0E093E000F093E10023FE0CC0E6
:1009CE00E8E1F0E0E093E200F093E300E0E0FAE02B
:1009DE00E093E000F093E100219608950BD500E03E
:1009EE0010E020E030E00E811F81C49A20E030E05C
:1009FE00EC81FD81D1D42E173F0798F4219781E029
:100A0E00A0E0B0E0E6E2F0E004D596D2E095E8830F
:100A1E00D801EC930F5F1F4FA89521962F5F3F4F84
:100A2E00E7CFC498EED428960895E6D400E015E0FA
:100A3E000C811D81EA81FB81E017F10730F0D801AE
:100A4E00EFEFEC930F5F1F4FF5CFDDD42696089591
:100A5E00E0E0EBBBEFEFEABBE0E0E8BBEFEFE7BBBC
:100A6E00E0E0E5BBEFEFE4BBE2BBE0E0E1BBE7B902
:100A7E00EFEFE6B9E3E0E3BFE5E0E2BFE0E0E1BFC0
:100A8E00EBB9E8E9EAB9E6E8E0BDE0E0E0BDE3E3B2
:100A9E00E9B9E0E8E5BFE0E0E6BFE2E0E9BFE7EA9A
:100AAE00E4B9EFE1E1BDEFE0E1BD0895E0E8F7E084
:100ABE00E093E000F093E100CBDFC498E0E0F5E0D6
:100ACE00FA93EA93E0E0F0E8FA93EA93AEDFC49883
:100ADE00E2E3F0E0FA93EA9329D4C49AE2E3F0E079
:100AEE00FA93EA9323D4C498E4EFF1E0FA93EA93ED
:100AFE001DD4C49AE0E0E093E800EA93F2DEEBE561
:100B0E00F0E0FA93EA9380E08FD32296EEE7F0E0DE
:100B1E00FA93EA9380E088D32296E2EAF0E0FA9321
:100B2E00EA9380E081D322960895F894A895E82D53
:100B3E00E23099F59092E900A092EA00EB2DFC2D9F
:100B4E00EF70F070E093E800E0E0F5E0FA93EA93DE
:100B5E00E0E0F0E8FA93EA9368DFE0E0FAE0FA9377
:100B6E00EA93E091E900F091EA00FA93EA9336DF16
:100B7E00E0E0FAE0E093E000F093E100E0E8F7E077
:100B8E00FA93EA93E091E900F091EA00FA93EA937E
:100B9E00BA920FDEBA92C8DD3EC0E330E1F1ED301D
:100BAE0051F4E92DFA2DF070EA93EA2DF070EA93E4
:100BBE00BA92DADD30C0E73011F0EB3079F4BA9248
:100BCE00B3DDE0E8F7E0FA93EA93E091E900F09103
:100BDE00EA00FA93EA93BA92ECDD1DC0E63011F00A
:100BEE00EA30A9F4BA9238DDE0E8F7E0FA93EA9336
:100BFE00E091E900F091EA00FA93EA93BA9224DECA
:100C0E00E0E0FAE0E093E000F093E10004C0E031B0
:100C1E0011F490FA21F89FD0882478940895E4B7BF
:100C2E00E3FF05C0E4B7E07EE4BFB3D003C0E4B792
:100C3E00E07EE4BF3BDF7894859916C023FC13C099
:100C4E00E4E6F0E0FA93EA9371D385990CC0EDEBEC
:100C5E00F0E0FA93EA9380E0E7D22296689423F8C4
:100C6E00E0E0EA933EDE0FC023FE0DC0E4E6F0E0C6
:100C7E00FA93EA935BD3859B06C0E89423F8E09140
:100C8E00E800EA932EDE882011F04FDF03C022FE2B
:100C9E000CDB1CDBA895D0CF0000FECFAA93BA9335
:100CAE00EA93FA93EFB7EA93A7D30BB11CB1E02FF7
:100CBE00EC7109F048C0AD2DB0E0A351BF4F1C93AD
:100CCE00D394E8E0ED1509F4DD24E394E8E0EE15A5
:100CDE00D1F5EE24A091ED00A53541F4E091EE00A2
:100CEE00E53521F4E091EF00E53509F01DC0809067
:100CFE00F0009090F100AA24F92DE0E0DF01E091E0
:100D0E00F200F0E0EA2BFB2B9E2EAF2EB090F300FC
:100D1E00CC24FB2DE0E0DF01E091F400F0E0EA2BC3
:100D2E00FB2BBE2ECF2E0FC0A091ED00AF3F41F496
:100D3E00E091EE00EF3F21F4E091EF00EF3F09F07C
:100D4E0002C0DD24EE2462D3E991EFBFF991E9915F
:100D5E00B991A9911895E5E5EA93F2D0E5E5EA9304
:100D6E00EFD0E5E5EA93ECD08A92EAD0EA2DF07066
:100D7E00EA93E6D0E92DFA2DF070EA93E1D0EC2D4E
:100D8E00F070EA93DDD0EB2DFC2DF070EA93D8D005
:100D9E000895DD24EE24882408950A9365D2EB810C
:100DAE00EA9396D2EA81F070EA9392D2E981FA81BF
:100DBE00F070EA938DD258D2EB81E160EA9388D23B
:100DCE00E0E0EA936AD20E2F5ED2E02F088116C0C1
:100DDE004BD2EB81EA937CD2EA81F070EA9378D21F
:100DEE00E981FA81F070EA9373D2E881EA9370D2C6
:100DFE004AD2EAE0F0E0FA93EA9398D22496089564
:100E0E00FBD200E010E0EC81EA93EB81FC81FA93D7
:100E1E00EA93C3DF0E2F1127F02FE0E0FF93EF933D
:100E2E00EC81EA93EB81FC813196FA93EA93B5DF7C
:100E3E00AF91BF91F0E0EA2BFB2B8F01F801E3D2CB
:100E4E0016C0EC81EA93EB81FC81FA93EA93EC8174
:100E5E00F070EA93BDDFEC81EA93EB81FC81319671
:100E6E00FA93EA93EB81FC81F070EA93B1DF259659
:100E7E0008950A9300E0F8D1EE81EA9329D2ED812C
:100E8E00F070EA9325D2EC81FD81F070EA9320D2C6
:100E9E00EBD1EE81E160EA931BD2E981E1500E17AE
:100EAE0080F4E02F0F5FAA81BB81F0E0EA0FFB1FF9
:100EBE00FF93EF93E1E0EA93F0D1AF91BF91EC9302
:100ECE00ECCFE981E150AA81BB81F0E0EA0FFB1F74
:100EDE00FF93EF93E0E0EA93E0D1AF91BF91EC93F3
:100EEE00D2D10881279608950A9300E0BDD1EE81F4
:100EFE00EA93EED1ED81F070EA93EAD1EC81FD81B7
:100F0E00F070EA93E5D1E9810E1768F4E02F0F5FD8
:100F1E00AA81BB81F0E0AE0FBF1FEC91EA93D8D14E
:100F2E0000000000F0CFAFD1EAE0F0E0FA93EA93D0
:100F3E00FDD10881279608955F9BFECFECB10895F1
:100F4E005D9BFECFE881ECB921960895A881B98109
:100F5E0042D2309749F0ED91FD913196FE93EE938A
:100F6E003197AA81A08303C0EA81EA93E9DF239631
:100F7E00089526973DD200E0E889F9893196E88BED
:100F8E00F98B3197E4913E2FE03009F44AC1E02FFE
:100F9E00E03059F4353211F401E006C03A93ED8594
:100FAE00FE85FA93EA93D2DF3BC1E130C9F43532C4
:100FBE0039F43A93ED85FE85FA93EA93C7DF2FC194
:100FCE0002E050E010E03D3211F411E029C13B3255
:100FDE0011F45BE225C1303211F450E221C102C09E
:100FEE00E23039F440E003E0303311F4106818C1F8
:100FFE0003C0E33009F014C1303310F03A3308F077
:10100E0009C0A42FEAE0EA9FF0014E2FE32FE05330
:10101E004E0F06C1E32FE33671F4AE85BF851497EC
:10102E00AE87BF871496EC91EA93ED85FE85FA9311
:10103E00EA938CDFF4C0E33771F4AE85BF85149765
:10104E00AE87BF871496C7D1EE83FF83FA93EA93D8
:10105E0058D10E2F10C0E03791F4AE85BF8514978E
:10106E00AE87BF871496B7D1EE83FF83FA93EA93C8
:10107E0052D10E2F186012601F7720E03CC0E4366C
:10108E0011F0E93611F4146002C0E53731F4E8E2EC
:10109E00F0E0EE83FF8305E00CC0E83511F4186034
:1010AE0003C0E83709F0BBC0E2E3F0E0EE83FF8354
:1010BE0004E012FF17C0AE85BF851497AE87BF87B9
:1010CE00149689D1EA87FB87AA85BB85109724F4ED
:1010DE0052D1EA87FB875DE2503011F00F5F01C0FD
:1010EE001B7F09C0AE85BF851497AE87BF87149648
:1010FE0072D1EA87FB8710FD15C0041798F417FF0D
:10110E0008C012FF04C01B7F352F015001C030E311
:10111E0001C030E23A93ED85FE85FA93EA9316DF2D
:10112E004150EBCF202F11FF1DC02030D1F013FF07
:10113E0008C0EE81FF813196EE83FF833197E491F3
:10114E0005C0AE81BF81ED91AE83BF83EA93ED857D
:10115E00FE85FA93EA93FADE403009F041502150B1
:10116E00E4CF50C030E3EE81FF813296EE83FF83F1
:10117E00329735D1E887F987E885F985AA85BB8549
:10118E00AE17BF0750F03F5FA885B985EA85FB858E
:10119E00EA1BFB0BEA87FB87EFCF3A3328F013FFEE
:1011AE0002C0395F01C0395D14FD1DC0313320F41A
:1011BE00A885B985119709F409C0421710F010FFE0
:1011CE0001C01AC030E217FF0EC030E3106112FFEB
:1011DE000AC01B7F5A93ED85FE85FA93EA93B6DE1D
:1011EE00403009F041503A93ED85FE85FA93EA932B
:1011FE00ADDE403009F041502150A885B9851297D7
:10120E0008F0B0CF10FF0BC0403049F04150E0E283
:10121E00EA93ED85FE85FA93EA9398DEF5CF00E02A
:10122E00ABCEEDD062960895FF92F82E2297E4D0C1
:10123E00DE019DD08D01E0E0EA83EB83DE011496A2
:10124E0096D0C9D0FA93EA931A930A93FE01369672
:10125E00FA93EA938EDED7D02496FF900895929853
:10126E0093988A9A8B9815C08B988A98EE270000CF
:10127E00839B0895829B089504D08B9A02D08A9AFC
:10128E00E1E06BE107C08B9A8A9A03D08A98F9DF66
:10129E008B9865E36A95F1F7089578E08A98F1DF07
:1012AE00829BFECFEEDF8894839908948A9AF1DFB1
:1012BE00EE1F7A9599F77991772311F48B9801C0E7
:1012CE008B9ADFDF8A98E5DF8A9ADBDF8B98D9CF9E
:1012DE00E99178E0EE0F10F48B9801C08B9AD9DF6C
:1012EE008A98CFDF829BFECFCCDF8A9A7A9591F7D0
:1012FE008B98C7DF8A98CDDFE1E08399EE278A9A33
:10130E000895A991B991EE27FF276D91662311F0EB
:10131E003196FBCF0895AA27BB27E991F991059045
:10132E00002011F01196FBCFFD010895E991F9917E
:10133E00309639F080EA9FE00197F1F7A895319742
:10134E00C9F70895E881E295EF70AE2FAA0FAA0FA4
:10135E00EA0FEE0FA991AF70EA0F0895A991EE274B
:10136E00AA5012F0E05FFCCFA65FEA0F08950024AA
:10137E00AF0DB01D0895E095F09531960895EE23CA
:10138E000E2EFD0121F0F595E7950A94E1F70895EB
:10139E00EE0FFF1FEE0FFF1FEE0FFF1FEE0FFF1FD3
:1013AE000895F695E795F695E795F695E7950895E0
:1013BE000024112490E1AA0FBB1F001C111C0E1A51
:1013CE001F0A18F40E0E1F1E01C0A1609A9599F700
:1013DE00FD01D0010895ED91FC91119708950590AE
:1013EE00F491E02D08957A936A93FA93EA9308950F
:1013FE005A934A933A932A931A930A9308955D81C6
:10140E004C813B812A811981088108950991199196
:10141E000895AC0FBD1F05900D928A95E1F70895C2
:00000001FF
