:0E0000000C943F000C9400000C9400000C9433
:10000E0000000C9400000C9400000C9400000C9462
:10001E0000000C9400000C9400000C9400000C9452
:10002E0000000C9400000C9400000C9400000C9442
:10003E0000000C9400000C9471000C9400000C94C1
:10004E00E1060C9400000C9400000C9400000C943B
:10005E0000000C9400000C9400000C9400000C9412
:10006E000000140000000000010073017000000089
:10007E00F894EE27ECBBF1E0FBBFEBBFE5BFE6BFAC
:10008E00F8E1F1BDE1BD8DE0A2E0BB27ED938A95CD
:10009E00E9F780E094E0A0E0B1E0ED930197E9F795
:1000AE00E6E7F0E085919591009761F0A591B59105
:1000BE0005901590BF01F00105900D920197E1F7A3
:1000CE00FB01F0CFEFEFEDBFE4E0EEBFC4E6D1E011
:1000DE000C94C506EA93FA93EFB7EA93E5E0E2BF14
:1000EE00E0916C01F0916D013196E0936C01F0930B
:1000FE006D01E991EFBFF991E99118956624772486
:10010E00E0916801F09169016E167F0610F00C9473
:10011E000C01F3010E94F908DF01F2010E94F408BC
:10012E00EA0FFB1FA0916401B0916501AE0FBF1FD6
:10013E00AC91F301E770F070B0E00E94E708E0FBCD
:10014E0020F821FE02C0689420F8A0917401A3301B
:10015E00E9F4E0916801F0916901E619F7090F01E0
:10016E00E0916801F0916901EE0FFF1FA0916A0105
:10017E00B0916B01EA1BFB0BE015F10510F4C39A6D
:10018E0004C020FAA8B3A3F9A8BB39C0A09174018A
:10019E00A23089F5A0916801B0916901E0916A01E0
:1001AE00F0916B01EA1BFB0B6E167F0690F0E0914F
:1001BE006801F0916901A0916A01B0916B01AE17CF
:1001CE00BF0728F020FAA8B3A3F9A8BB01C0C39AB1
:1001DE0011C0E0916801F0916901A0916A01B0919E
:1001EE006B01AE17BF0710F0C39A04C020FAA8B374
:1001FE00A3F9A8BB04C020FAA8B3A3F9A8BBC29A5E
:10020E00C298F30131963F017BCFA0917401A230C9
:10021E0011F0A33079F5E0916A01F0916B01A09194
:10022E006801B0916901AE17BF0720F1229782E0F5
:10023E00A0E0B0E0E2E7F0E00E943809C39AE0E007
:10024E00E883E983A0916A01B0916B01E0916801A6
:10025E00F0916901EA1BFB0BA881B981AE17BF07AC
:10026E0040F4C29AC298E881F9813196E883F98305
:10027E00E9CF2296C49AC498089544245524E09157
:10028E006601F09167014E165F0640F40E948500EC
:10029E00C09AC098F20131962F01F1CFC19AC19840
:1002AE000895E0917301A0916C01B0916D01F0E0A1
:1002BE00EA17FB0710F00C943A03E0917401E0305A
:1002CE0011F00C94D70122FC13C0A0917301A3303E
:1002DE0030F0E0916401F0916501349605C0E09133
:1002EE006401F09165013896E0936401F093650125
:1002FE00E0916601F09167010E94F408E050FB4F17
:10030E00DF01E0916601F09167010E94F408EA0FA7
:10031E00FB1FA0916401B0916501EA17FB0711F470
:10032E00689422F822FE15C0A0916E01B0916F0163
:10033E001196A0936E01B0936F011197A536E0E070
:10034E00BE0738F0E89422F8E0E0E0936E01E09307
:10035E006F01E0916601F09167010E94F408E05090
:10036E00FB4F0F01E0916601F0916701A0917101C1
:10037E00B0917201EA0FFB1FB0960E94F408E00DD7
:10038E00F11DA0916401B0916501EA17FB0738F4E5
:10039E00E0917001EF5FE0937001EA93AAD257C12A
:1003AE00E13011F00C943E0222FC13C0A0917301B7
:1003BE00A33030F0E0916401F0916501349705C0EF
:1003CE00E0916401F09165013897E0936401F09338
:1003DE006501E0916601F09167010E94F408E0501A
:1003EE00FB4FDF01E0916601F09167010E94F40876
:1003FE00EA0FFB1FA0916401B0916501EA17FB079C
:10040E0011F4689422F822FE16C0A0916E01B091EC
:10041E006F011196A0936E01B0936F011197A536DF
:10042E00E0E0BE0738F0E89422F8E0E0E0936E01D9
:10043E00E0936F011BC0E0916601F09167010E948D
:10044E00F408E050FB4FA0916401B0916501AE1726
:10045E00BF0760F4E0E0E0936A01E0936B01E09186
:10046E007001EF5FE0937001EA9343D2F0C0E33086
:10047E0011F00C948F02A0916A01B0916B0110974C
:10048E0054F0E0916A01F0916B013197E0936A01AB
:10049E00F0936B010EC0E0917001EF5FE09370017D
:1004AE00E0E0E0936A01E0936B01E0917001EA9362
:1004BE0020D222FE1FC0A0916E01B0916F01119645
:1004CE00A0936E01B0936F011197A536E0E0BE07C1
:1004DE0040F0E89422F8E0E0E0936E01E0936F01C3
:1004EE0009C0E0916A01F0916B013196E0936A01C7
:1004FE00F0936B01E0916801F0916901A0916A019E
:10050E00B0916B01EA17FB0711F4689422F89FC0B3
:10051E00E23011F00C94E902E0916801F09169016A
:10052E00A0916A01B0916B01EA17FB0711F4689470
:10053E0022F8E0916801F0916901EE0FFF1FA09182
:10054E006A01B0916B01EA17FB0758F0E0916A015E
:10055E00F0916B013196E0936A01F0936B01319744
:10056E000FC0E0E0E0936E01E0936F01E091700147
:10057E00EF5FE0937001E150E0917001EA93B9D121
:10058E0022FE1FC0A0916E01B0916F011196A09333
:10059E006E01B0936F011197A536E0E0BE0740F0F3
:1005AE00E89422F8E0E0E0936E01E0936F0109C059
:1005BE00E0916A01F0916B013197E0936A01F0933B
:1005CE006B0145C0E430D1F5A0917301A33030F03A
:1005DE00E0916401F0916501349605C0E0916401EB
:1005EE00F09165013896E0936401F0936501E09116
:1005FE006601F09167010E94F408E050FB4F0F0175
:10060E00E0916601F0916701A0917101B0917201C4
:10061E00EA0FFB1FB0960E94F408E00DF11DA091A9
:10062E006401B0916501EA17FB0738F4E09170019F
:10063E00EF5FE0937001EA935CD109C0E53039F4C5
:10064E00E0917001EF5FE0937001EA9352D1E0E028
:10065E00E0936C01E0936D01A0917001A43018F04D
:10066E00E0E0E093700108950A9300EAE981EE0F4D
:10067E000E0F0E947408C49A0A93E0E0F0E0FA9319
:10068E00EA930E946B07E09373010A93E1E0F0E0B6
:10069E00FA93EA930E946B07E09374010A93E2E0E7
:1006AE00F0E0FA93EA930E94AD07E0937101F093A4
:1006BE007201A0916601B0916701E0E6FFE0EA1BCE
:1006CE00FB0BA0917101B0917201EA17FB0728F4A0
:1006DE00E0E0E0937101E0937201A0917401A63005
:1006EE0018F0E5E0E0937401A0917301A53618F0BF
:1006FE00E0E0E0937301C498E0E0E2BBEFEFE1BB12
:10070E001AC00A9300EAE981EE0F0E0F0E947408D8
:10071E00C49A0A93E2E0F0E0FA93EA93E091710151
:10072E00F0917201FA93EA930E94D607C498E0E022
:10073E00E2BBEFEFE1BB0881229608950A9300EA2F
:10074E00E981EE0F0E0F0E947408C49A0A93E0E03E
:10075E00F0E0FA93EA93EE81EA930E948E070A93F1
:10076E00E1E0F0E0FA93EA93ED81EA930E948E07BE
:10077E00C498E0E0E2BBEFEFE1BB08812496089558
:10078E000E942F0900E010E020EAEB81EE0F2E0F01
:10079E000E811F81A0916601B0916701E0E6FFE036
:1007AE00EA1BFB0BAC81BD81EA17FB0720F40E940C
:1007BE00340928960895EC81FD81A0916601B091CF
:1007CE006701EA0FFB1F0E94F408AE81BF81EA0F9A
:1007DE00FB1FEC83FD83EF7371F0AC81BD81E0E410
:1007EE00F0E00E9400090E94F4080E94F008E05C0C
:1007FE00FF4FEC83FD830E947408C49A0E811F8103
:10080E00EC81FD810E171F0710F00C941C04A895A7
:10081E002A931A930A931A930A93E0E4EA930E9496
:10082E003808005C1F4F0C940704C498E0E0E2BB4C
:10083E00EFEFE1BB17C00E942F0900E010E020EAA5
:10084E00EB81EE0F2E0F0E811F81A0916601B091EC
:10085E006701E0E6FFE0EA1BFB0BAC81BD81EA1706
:10086E00FB0720F40E94340928960895EC81FD813F
:10087E00A0916601B0916701EA0FFB1F0E94F40878
:10088E00AE81BF81EA0FFB1FEC83FD83EF7371F026
:10089E00AC81BD81E0E4F0E00E9400090E94F40802
:1008AE000E94F008E05CFF4FEC83FD830E94740809
:1008BE00C49A0E811F81EC81FD810E171F0710F067
:1008CE000C9477042A931A930A931A930A93E0E4EA
:1008DE00EA930E94F407A895005C1F4F0C946204E3
:1008EE00C498E0E0E2BBEFEFE1BB0E94340928962A
:1008FE000895A881A43010F0E0E0E883E881EA933F
:10090E000E943B03A0917401A53009F49FC0E0E062
:10091E00F5E0FA93EA93E0E0F0E8FA93EA93C7D0B1
:10092E00E0916601F09167010E94F408E050FB4FE0
:10093E00FA93EA93E0917101F0917201FA93EA93BE
:10094E00EC81EA930E942204E0E0E0936E01E093D2
:10095E006F01E0E0E0936A01E0936B01E89422F806
:10096E00E0917401E03069F4E0916601F091670165
:10097E000E94F408E050FB4FE0936401F093650190
:10098E0065C0E130B1F4E0916601F09167010E941B
:10099E00F408E050FB4FDF01E0917101F09172011C
:1009AE000E94F408EA0FFB1FE0936401F0936501C7
:1009BE004DC0E33001F5E0916801F0916901EE0F51
:1009CE00FF1FE0936A01F0936B01E0916601F091D5
:1009DE0067010E94F408E050FB4FDF01E0916601D1
:1009EE00F09167010E94F408EA0FFB1FE093640187
:1009FE00F09365012BC0E230D9F4E0E0E0936A0198
:100A0E00E0936B01E0916601F09167010E94F4089A
:100A1E00E050FB4FDF01E0916601F09167010E940B
:100A2E00F408EA0FFB1FE0936401F09365010EC01A
:100A3E00E43061F4E0916601F09167010E94F408E0
:100A4E00E050FB4FE0936401F09365012196089509
:100A5E000E942E0900E010E020E030E00E811F81A0
:100A6E00C49A20E030E0EC81FD810E94F4082E173C
:100A7E003F0710F00C945905219781E0A0E0B0E0FB
:100A8E00E4E7F0E00E9438090E946A08E095E883E6
:100A9E00D801EC930F5F1F4FA89521962F5F3F4F04
:100AAE000C943A05C4980E943309289608951A9317
:100ABE000A9300E015E00C811D81EA81FB81E017AD
:100ACE00F10730F0D801EFEFEC930F5F1F4FF5CF2A
:100ADE001981088126960895E0E8E0936100E0E030
:100AEE00E0936100EBBBEFEFEABBE0E0E8BBEFEFBA
:100AFE00E7BBE0E0E5BBEFEFE4BBE0E0E2BBEFEF2E
:100B0E00E1BBE0E0E7B9EFEFE6B9E3E0E3BFE5E034
:100B1E00E2BFE0E0E1BFEBB9E8E9EAB9E6E8E0BD43
:100B2E00E0E0E0BDE7E6E9B9E0E8E5BFE0E0E6BF1A
:100B3E00E2E0E9BFE0E0E0937D00EEE5E4B9E0E05D
:100B4E00E2BBEFEFE1BBEFE1E1BDEFE0E1BD089508
:100B5E00E0916601F09167010E94F408E050FB4FAE
:100B6E00E0936401F09365010E947305C498E0E080
:100B7E00F5E0FA93EA93E0E0F0E8FA93EA930E9444
:100B8E005E05C498E2E3F0E0FA93EA930E94C60889
:100B9E00C49AE2E3F0E0FA93EA930E94C608C4987E
:100BAE00E4EFF1E0FA93EA930E94C608C49AA0E03B
:100BBE00B0E00E941309F0E0E0936601F093670144
:100BCE00A1E0B0E00E941309F0E0E0936801F09319
:100BDE0069010895F894A895E82DE23011F00C946F
:100BEE00530690927101A0927201EB2DFC2DEF70C5
:100BFE00F070E0937001E0E0F5E0FA93EA93E0E044
:100C0E00F0E8FA93EA930E945E05E0916601F09196
:100C1E0067010E94F408E050FB4FDF01E09166018E
:100C2E00F09167010E94F408EA0FFB1FFA93EA9312
:100C3E00E0917101F0917201FA93EA930E942F05EF
:100C4E00E0916601F09167010E94F408E050FB4FBD
:100C5E00DF01E0916601F09167010E94F408EA0F4E
:100C6E00FB1FE0936401F0936501E0916601F09142
:100C7E0067010E94F408E050FB4FFA93EA93E0916B
:100C8E007101F0917201FA93EA93BA920E94C7032E
:100C9E00BA920E9488036EC0E33009F46BC0ED3047
:100CAE0059F4E92DFA2DF070EA93EA2DF070EA93DB
:100CBE00BA920E94A5035EC0E73011F0EB30B9F492
:100CCE00BA920E948803E0916601F09167010E943A
:100CDE00F408E050FB4FFA93EA93E0917101F09122
:100CEE007201FA93EA93BA920E94C70343C0E630A8
:100CFE0011F0EA3061F5BA920E943B03E091660171
:100D0E00F09167010E94F408E050FB4FFA93EA93CA
:100D1E00E0917101F0917201FA93EA93BA920E94F6
:100D2E002204E0916601F09167010E94F408E05000
:100D3E00FB4FDF01E0916601F09167010E94F4081C
:100D4E00EA0FFB1FE0936401F093650113C0E031DD
:100D5E0019F490FA21F80EC0E13161F4E92DFA2D63
:100D6E00A0E0B0E00E941F09EB2DFC2DA1E0B0E049
:100D7E000E941F097FD0882478940895E4B7E3FF7A
:100D8E0005C0E4B7E07EE4BF9BD003C0E4B7E07ECD
:100D9E00E4BF0E94AF057894882019F00E94F105F7
:100DAE0004C00E9444010E945801A8950C94D306D9
:100DBE000000FECFAA93BA93EA93FA93EFB7EA93A1
:100DCE001A930A930BB11CB1E02FEC7111F00C9435
:100DDE003807AD2DB0E0AB58BE4F1C93D394E8E06E
:100DEE00ED1509F4DD24E394E8E0EE15D1F5EE24DB
:100DFE00A0917501A53541F4E0917601E53521F418
:100E0E00E0917701E53509F01DC080907801909052
:100E1E007901AA24F92DE0E0DF01E0917A01F0E0FA
:100E2E00EA2BFB2B9E2EAF2EB0907B01CC24FB2DFC
:100E3E00E0E0DF01E0917C01F0E0EA2BFB2BBE2E1F
:100E4E00CF2E0FC0A0917501AF3F41F4E091760116
:100E5E00EF3F21F4E0917701EF3F09F002C0DD246E
:100E6E00EE2409911991E991EFBFF991E991B991A8
:100E7E00A9911895E5E5EA930E946E08E5E5EA93D7
:100E8E000E946E08E5E5EA930E946E088A920E941F
:100E9E006E08EA2DF070EA930E946E08E92DFA2D85
:100EAE00F070EA930E946E08EC2DF070EA930E94A7
:100EBE006E08EB2DFC2DF070EA930E946E080895DB
:100ECE00DD24EE24882408950A930E947908EB818C
:100EDE00EA930E94AD08EA81F070EA930E94AD0891
:100EEE00E981FA81F070EA930E94AD080E947908B8
:100EFE00EB81E160EA930E94AD08E0E0EA930E9484
:100F0E0092080E2F0E948808E02F08811DC00E94B3
:100F1E007908EB81EA930E94AD08EA81F070EA93BA
:100F2E000E94AD08E981FA81F070EA930E94AD0843
:100F3E00E881EA930E94AD080E948808EAE0F0E09A
:100F4E00FA93EA930E94C608249608951A930A9378
:100F5E0000E010E0EC81EA93EB81FC81EE0FFF1FC5
:100F6E00FA93EA930E946B070E2F1127F02FE0E001
:100F7E00FF93EF93EC81EA93EB81FC81EE0FFF1F61
:100F8E003196FA93EA930E946B07AF91BF91F0E00E
:100F9E00EA2BFB2B8F01F801198108811CC0EC8113
:100FAE00EA93EB81FC81EE0FFF1FFA93EA93EC813B
:100FBE00F070EA930E948E07EC81EA93EB81FC813C
:100FCE00EE0FFF1F3196FA93EA93EB81FC81F070DE
:100FDE00EA930E948E07259608950A9300E00E94D8
:100FEE007908EE81EA930E94AD08ED81F070EA93E4
:100FFE000E94AD08EC81FD81F070EA930E94AD086D
:10100E000E947908EE81E160EA930E94AD08E981C1
:10101E00E1500E1788F4E02F0F5FAA81BB81F0E03C
:10102E00EA0FFB1FFF93EF93E1E0EA930E94920811
:10103E00AF91BF91EC93EBCFE981E150AA81BB81D7
:10104E00F0E0EA0FFB1FFF93EF93E0E0EA930E94BC
:10105E009208AF91BF91EC930E9488080881279661
:10106E0008950A9300E00E947908EE81EA930E94A7
:10107E00AD08ED81F070EA930E94AD08EC81FD8120
:10108E00F070EA930E94AD08E9810E1710F00C94EF
:10109E005F08E02F0F5FAA81BB81F0E0AE0FBF1F8C
:1010AE00EC91EA930E94AD08000000000C944B08EE
:1010BE000E948808EAE0F0E0FA93EA930E94C608DC
:1010CE000881279608955F9BFECFECB108955D9B36
:1010DE00FECFE881ECB921960895929893988A9A5A
:1010EE008B9815C08B988A98EE270000839B0895E5
:1010FE00829B089504D08B9A02D08A9AE1E06BE12C
:10110E0007C08B9A8A9A03D08A98F9DF8B9865E389
:10111E006A95F1F7089578E08A98F1DF829BFECF09
:10112E00EEDF8894839908948A9AF1DFEE1F7A9500
:10113E0099F77991772311F48B9801C08B9ADFDFA1
:10114E008A98E5DF8A9ADBDF8B98D9CFE99178E030
:10115E00EE0F10F48B9801C08B9AD9DF8A98CFDFEF
:10116E00829BFECFCCDF8A9A7A9591F78B98C7DF58
:10117E008A98CDDFE1E08399EE278A9A0895E99166
:10118E00F991309639F080EA9FE00197F1F7A89532
:10119E003197C9F70895E881E295EF70AE2FAA0F47
:1011AE00AA0FEA0FEE0FA991AF70EA0F0895A99159
:1011BE00EE27AA5012F0E05FFCCFA65FEA0F08956B
:1011CE00EE230E2EFD0121F0F595E7950A94E1F739
:1011DE000895EE0FFF1FEE0FFF1FEE0FFF1FEE0F16
:1011EE00FF1F0895F695E795F695E795F695E79521
:1011FE0008950024112490E1AA0FBB1F001C111C9E
:10120E000E1A1F0A18F40E0E1F1E01C0A1609A9529
:10121E0099F7FD01D0010895E199FECFFF93FFB735
:10122E00F894AEBBBFBBE09AEDB3FFBFFF9108953C
:10123E00E199FECF9FB7F894AEBBBFBBE09A8DB3DA
:10124E00E81719F0EDBBE29AE19A9FBF08953A9321
:10125E002A931A930A9308953B812A811981088152
:10126E000895AC0FBD1F05900D928A95E1F7089574
:00000001FF
