:0C0000000C9458000C9400000C940000BC
:10000C000C9400000C9400000C9400000C94000064
:10001C000C9400000C9400000C9400000C94000054
:10002C000C9400000C9400000C9400000C94000044
:10003C000C9400000C9400000C948A000C940000AA
:10004C000C94B60A0C9400000C9400000C94000064
:10005C000C9400000C9400000C9400000C94000014
:10006C000C9400000000A000000000000000000044
:10007C000000000000002D3D20336947524F5550C1
:10008C00203A3A20485454503A2F2F5757572E3372
:10009C00494855542E4E4554203D2D0026008403CE
:1000AC0082000000F894EE27ECBBF1E0FBBFEBBF45
:1000BC00E5BFE6BFF8E1F1BDE1BD8DE0A2E0BB27F5
:1000CC00ED938A95E9F780E094E0A0E0B1E0ED9340
:1000DC000197E9F7E8EAF0E085919591009761F0D6
:1000EC00A591B59105901590BF01F00105900D9269
:1000FC000197E1F7FB01F0CFEFEFEDBFE4E0EEBFCE
:10010C00C4E6D1E00C949A0AEA93FA93EFB7EA9317
:10011C00E5E0E2BF21FE09C0E0917201F0917301AC
:10012C003196E0937201F0937301E0917401F091B8
:10013C0075013196E0937401F0937501E991EFBF6D
:10014C00F991E99118950A9300E000E0083080F4E9
:10015C00E7E0F0E0E419F509A02FB0E0EA17FB079F
:10016C0011F4959801C0959A939A93980F5FEECFDE
:10017C000CC00A9300E0959A00E0083020F4939AA2
:10018C0093980F5FFACF949A9498099108956624E6
:10019C00772444245524E0918203F0918303E85F93
:1001AC00F34FA0916401B0916501EA1BFB0BE09346
:1001BC007C03F0937D03E0918003F0918103E85F71
:1001CC00F34FEA1BFB0BE0937A03F0937B03E09174
:1001DC006401F0916501E0936801F0936901A091CD
:1001EC006801B0916901A030E0E8BE0710F00C94F2
:1001FC00D201A0918203B0918303A83CE0E0BE073A
:10020C0010F00C948701E0918203F09183036E1639
:10021C007F06A0F520FE20C0D201E8E9FEE00E9496
:10022C00180DE853FF4FE60DF71DA0916C01B0912E
:10023C006D01AE0FBF1F8C91F201A8ECB0E00E94D3
:10024C00180DE60DF71DA0916A01B0916B01AE0F70
:10025C00BF1FEC91E82310C0D201E8E9FEE00E9438
:10026C00180DE853FF4FE60DF71DA0916C01B091EE
:10027C006D01AE0FBF1FEC91E8BB40C0E0917C0359
:10028C00F0917D03E615F70538F4E0917A03F091CF
:10029C007B036E167F0608F01EC020FE15C0A091D1
:1002AC006801B09169018C91F201A8ECB0E00E9458
:1002BC00180DE60DF71DA0916A01B0916B01AE0F00
:1002CC00BF1FEC91E82305C0A0916801B0916901B2
:1002DC00EC91E8BB13C020FE0FC0F201A8ECB0E01B
:1002EC000E94180DE60DF71DA0916A01B0916B01EB
:1002FC00AE0FBF1FEC9101C0EFEFE8BBE8B3E06FAE
:10030C001CC020FE15C0A0916801B09169018C91B0
:10031C00F201A8ECB0E00E94180DE60DF71DA091BB
:10032C006A01B0916B01AE0FBF1FEC91E82305C0C1
:10033C00A0916801B0916901EC91E8BB3A9A3A98A6
:10034C00F30131963F01E83CA0E0FA07D8F06624AF
:10035C0077240E94BF000E94A900949A9498389A1E
:10036C003898F20131962F01389710F04424552417
:10037C00E0916801F0916901E053F24FE09368015C
:10038C00F0936901E0916801F09169013196E09375
:10039C006801F093690123CF089538983A98E09159
:1003AC007101E07219F40E94BF000895E09171018F
:1003BC00E071E03109F40895E0916F01A0917401AE
:1003CC00B0917501F0E0AE17BF0710F40C94AC03BC
:1003DC00E0E0E0937401E0937501E0917101EF703E
:1003EC00E13031F0E0917101EF70EF3009F05AC05B
:1003FC00A0918203B0918303A83CE0E0BE0750F0CB
:10040C00E0917001A0916401B0916501F0E0EA0FF8
:10041C00FB1F43C021FC45C0E0916401F0916501D4
:10042C003A96E0936401F0936501A0918203B09138
:10043C008303E8E0FCE0EA1BFB0BA0916401B091A4
:10044C006501EA17FB0768F5E0917E03F0917F03E5
:10045C003196E0937E03F0937F03AAE7B1E0EE0FB1
:10046C00FF1FAE0FBF1F0E94460DE0938203F09357
:10047C008303A0917E03B0917F03AA0FBB1FA458E6
:10048C00BE4F0E94460DE0938003F0938103E091F0
:10049C008203F0918303E05CF44FE0936401F093EA
:1004AC0065010DC0E0917001A0916401B0916501EE
:1004BC00F0E0EA0FFB1FE0936401F0936501E0911B
:1004CC007801F0917901E85EF34FA0916401B0914D
:1004DC006501AE17BF0710F40C94AC03E0917101E9
:1004EC00EF70E13029F0E0917101EF70EF30A9F578
:1004FC00E0E0E0937E03E0937F03A2E0B0E00E9493
:10050C004E0DE0936F01A3E0B0E00E944E0DE0931E
:10051C007001E0917E03F0917F03AAE7B1E0EE0F4A
:10052C00FF1FAE0FBF1F0E94460DE0938203F09396
:10053C008303A0917E03B0917F03AA0FBB1FA45825
:10054C00BE4F0E94460DE0938003F0938103E0E4DC
:10055C00FBE0E0936401F0936501E0917101EF70B1
:10056C00E23031F0E0917101EF70EF3009F0D2C060
:10057C00A0917201B0917301A93EE3E0BE0750F463
:10058C00689420F821F8E0917801F0917901E85E07
:10059C00F34FBBC0E0917201F0917301E93EA3E00F
:1005AC00FA0740F0A0917201B0917301A338E6E014
:1005BC00BE0708F00BC0E89420F8689421F8E0918D
:1005CC007801F0917901E85EF34F9FC0E0917201E0
:1005DC00F0917301E338A6E0FA0740F0A0917201A4
:1005EC00B0917301A13DE7E0BE0708F00AC0689422
:1005FC0020F821F8E0917801F0917901E85EF34F51
:10060C0084C0E0917201F0917301E13DA7E0FA071B
:10061C0040F0A0917201B0917301AE31E9E0BE07D8
:10062C0008F00BC0E89420F8689421F8E091780168
:10063C00F0917901E85EF34F68C0E0917201F0919E
:10064C007301EE31A9E0FA0740F0A0917201B0916C
:10065C007301AB36EAE0BE0708F00AC0689420F8D4
:10066C0021F8E0917801F0917901E85EF34F4DC0EB
:10067C00E0917201F0917301EB36AAE0FA0740F0B9
:10068C00A0917201B0917301A93BEBE0BE0708F099
:10069C000BC0E89420F8689421F8E0917801F0916F
:1006AC007901E85EF34F31C0E0917201F091730172
:1006BC00E93BABE0FA0740F0A0917201B0917301F5
:1006CC00A630EDE0BE0708F00AC0689420F821F8C7
:1006DC00E0917801F0917901E85EF34F16C0E0E00B
:1006EC00E0937201E0937301E89420F821F8A2E002
:1006FC00B0E00E944E0DE0936F01A3E0B0E00E94C9
:10070C004E0DE0937001E0E4FBE0E0936401F093A4
:10071C0065011CC0E0917101EF70E33019F468942D
:10072C0020F802C0E89420F8A2E0B0E00E944E0D40
:10073C00E0936F01A3E0B0E00E944E0DE0937001D6
:10074C00E0E4FBE0E0936401F093650108950E94FE
:10075C00710D00E010E020E030E040E050E0098551
:10076C001A85C49840E050E04830E0E05E0710F095
:10077C000C94E70320E030E0EF81F8852E173F075B
:10078C0010F00C94D8031F930F930F5F1F4F0E9410
:10079C003F0CE095AF91BF91EC93A8952F5F3F4F25
:1007AC000C94C203EE81E03041F4AF81B885E8E9E6
:1007BC00FEE0EA1BFB0B0E0F1F1F4F5F5F4F0C94ED
:1007CC00BA03C49A0E94780D2B9608951A930A9333
:1007DC0000E010E0C49800E010E0EA81FB810E1705
:1007EC001F0710F00C943104229782E0A0E0B0E0D7
:1007FC00E0E7F0E00E947F0D0E943F0CF0E0E88300
:10080C00F983A895F801AAE7B1E0EE0FFF1FEA0FF4
:10081C00FB1FA881B981A083B1830E943F0CF0E03B
:10082C00E883F983A895F801AAE7B1E0EE0FFF1F62
:10083C00EA0FFB1F0F01DF010E94460DDF01F8815B
:10084C00E0E0EA2BFB2BD001ED93FC9322960F5F9B
:10085C001F4F0C94F303EFEFFFEFE0938203F09341
:10086C008303C49A19810881249608951A930A93D4
:10087C0000E010E0C49800E010E0EA81FB810E1764
:10088C001F0710F00C946304F801A6E0B0E0EE0F23
:10089C00FF1FEA0FFB1F0F01F801AAE7B1E0EE0FF3
:1008AC00FF1FAE0FBF1F0E94460DD0010E945A0DB4
:1008BC00A8950F5F1F4F0C944304C49A19810881AB
:1008CC00249608951A930A9300E010E0C49800E06F
:1008DC0010E0EA81FB810E171F0710F00C948F04B7
:1008EC00F801AAE7B1E0EE0FFF1FEA0FFB1F0F01A3
:1008FC00F801A6E0B0E0EE0FFF1FAE0FBF1F0E9485
:10090C004A0DD001ED93FC93A8950F5F1F4F0C94EB
:10091C006F04C49A19810881249608951A930A9336
:10092C0000E010E0C4980E948E0C00E010E0EA8118
:10093C00FB810E171F0710F00C94BA04E4EAEA933B
:10094C001A930A93F801AAE7B1E0EE0FFF1FAE0F5E
:10095C00BF1F0E94460DFA93EA930E94AB0BA89519
:10096C000F5F1F4F0C949D04C49A19810881249623
:10097C0008950E94720D00E010E020E43BE040EA94
:10098C0008851985AE81BF81A939EEE0BE0720F03C
:10099C000E94790D2A960895EE81FF81EF7371F014
:1009AC00AE81BF81E0E4F0E00E94250D0E94130DA2
:1009BC000E940F0DE05CFF4FEE83FF830E948E0CB4
:1009CC00C498AD81A03011F0A23011F420E030E8D1
:1009DC00AD81A23009F444EA088519850217130782
:1009EC0010F00C940C05A8950030E0E81E0708F0F8
:1009FC0042EA4A931A930A931A930A93E0E4EA930D
:100A0C000E940D0C005C1F4F0C94F404C49A0E94BD
:100A1C00790D2A960895219781E0A0E0B0E0E2E7F5
:100A2C00F0E00E947F0D0E94710D00E010E020E0CC
:100A3C0030E040E050E00A851B85A885B985A939CE
:100A4C00EEE0BE0720F00E94780D2C960895E88504
:100A5C00F985EF7371F0A885B985E0E4F0E00E94A8
:100A6C00250D0E94130D0E940F0DE05CFF4FE887CF
:100A7C00F9870E948E0CC498AF81A23011F4E4EA7D
:100A8C00EE8340E050E04830E0E05E0710F00C945C
:100A9C00800520E030E0E885F9852E173F0710F03F
:100AAC000C946F052839EEE03E0710F0E2EAEE8375
:100ABC00EE81EA931A930A931A930A93E0E4EA9369
:100ACC000E94C90B005C1F4FA895205C3F4F0C94F3
:100ADC005105AF81A03011F0A23041F4A885B98541
:100AEC00E8E9FEE0EA1BFB0B0E0F1F1F4F5F5F4F89
:100AFC000C944905C49A0E94780D2C960895A1E097
:100B0C00B0E00E944E0DE0937101A2E0B0E00E94B3
:100B1C004E0DE0936F01A3E0B0E00E944E0DE09308
:100B2C007001A0E0B0E00E944E0DE0936E01A4E0D5
:100B3C00B0E00E944A0DE939AEE0FA0730F0E0E08F
:100B4C00F0E0A4E0B0E00E945A0DA4E0B0E00E94F6
:100B5C004A0DE0937801F093790108951A930A9362
:100B6C0000E015E00C811D81EA81FB81E017F107A3
:100B7C0030F0D801EFEFEC930F5F1F4FF5CF1981D9
:100B8C000881269608950E948E0CC4980E943F0CF2
:100B9C00EA930E943F0CEA930E943F0CEA930E9456
:100BAC006B0C0E943F0CEA930E943F0CEA930E944C
:100BBC003F0CEA930E94490CC49A08952D978DE03E
:100BCC00A0E0B0E0E4E7F0E00E947F0D0E94710D20
:100BDC0000E010E020E030E040E050E0E88DE03054
:100BEC0029F4EFEFE987EE83EF831AC0E13039F493
:100BFC00EAEAE987E9E9EE83E8E8EF8311C0E2303D
:100C0C0039F4E5E5E987E4E4EE83E6E6EF8308C032
:100C1C00E33031F4E0E0E987E2E2EE83E1E1EF83F7
:100C2C00C4980E948E0CE98DFA8DFA93EA930E9477
:100C3C00E00CE98BE0E0F0E0E0937A01F0937B01CB
:100C4C00EA8BE989AA89AE1710F00C94CD06EA89D3
:100C5C00A98DBA8DF0E0AE0FBF1FEC91E88BE4EAE2
:100C6C00EA93E989F0E0FA93EA930E94820BEC870D
:100C7C00FD87E4EAEA93E989F0E03196FA93EA9386
:100C8C000E94820BEA87FB87AC85BD85EA1BFB0BB8
:100C9C00EE87FF87E00FF11FDF01EB89FC89AE17B0
:100CAC00BF0710F00C94CD0640E050E04830E0E077
:100CBC005E0714F00C94B606EF89E030A9F04050B2
:100CCC00504024F04430E0E05E070CF002C0EE81AE
:100CDC00E9874430E0E05E0724F04830E0E05E074E
:100CEC000CF002C0EF81E98720E030E0EE85FF8553
:100CFC002E173F0710F00C94B206A895E4EAEA937D
:100D0C00DA01E8E9FEE00E94200DE05CF44FAD85CD
:100D1C00BE85EA0FFB1FE20FF31FFA93EA930E94C2
:100D2C00400BE887E095AE2FE985E095EA23E8874C
:100D3C00EB89FC89DA010E94180DE20FF31FE00F1A
:100D4C00F11FAD89BE89AE0FBF1FE885E095EC930E
:100D5C002F5F3F4F0C947C064F5F5F4F0C945C06EB
:100D6C00EE85FF850E0F1F1FAB89BC89A839EEE0FD
:100D7C00BE0741F4AA89BB27AA0FBB1FA458BE4FBC
:100D8C000D931C93EA89EF5FEA8B0C942706AB89D1
:100D9C00BC89A839EEE0BE0721F4009378011093CA
:100DAC007901C49A0E94780D6B9608950E94730D78
:100DBC0000E010E020E030E0E4E8F3E0FA93EA939E
:100DCC000E94E00C9F012732E0E03E0720F00E94D9
:100DDC007A0D24960895E6EAEA93E0E0F0E0FA93BF
:100DEC00EA933A932A930E94AB0BF901EF7361F0EB
:100DFC00D901E0E4F0E00E94250D0E94130D0E9441
:100E0C000F0DE05CFF4F9F010E948E0CC49800E018
:100E1C0010E00217130710F00C942807E6EAEA9387
:100E2C00F8013296FA93EA93F801EC57FC4FFA93D7
:100E3C00EA93E0E4EA930E940D0CA895005C1F4F26
:100E4C000C940F07C49A0E947A0D249608950E9460
:100E5C00710D00E010E020E030E040E050E0E6EA08
:100E6C00EA93E0E0F0E0FA93EA930E94820B9F0190
:100E7C00AF012732E0E03E0720F00E94780D269665
:100E8C000895F901EF7361F0D901E0E4F0E00E94FC
:100E9C00250D0E94130D0E940F0DE05CFF4F9F016A
:100EAC000E948E0CC49800E010E00217130710F09B
:100EBC000C947407E6EAEA93F8013296FA93EA93F3
:100ECC00F801EC57FC4FFA93EA93E0E4EA930E94A2
:100EDC00C90BA895005C1F4F0C945B07A4E8B3E00A
:100EEC00A40FB51FE0E0EC93C49A0E94780D2696EF
:100EFC0008951A930A9300E010E000E010E0EC81F2
:100F0C00FD810E171F0710F00C949B07F801EC578E
:100F1C00FC4FFF93EF930E943F0CAF91BF91EC936A
:100F2C00A8950F5F1F4F0C948507AC81BD81AC5702
:100F3C00BC4FE0E0EC930E94DC06EB81F070309744
:100F4C00F9F4E0E4FBE0FA93EA93E0E0F0E8FA93DA
:100F5C00EA930E94B405E4E8F3E0FA93EA93EC8197
:100F6C00FD81E370F070EA93ED81FE81E470F07026
:100F7C00EA93E8E0FCE0FA93EA93E8E9FEE01EC0AD
:100F8C00E0E0F5E0FA93EA93E0E4FBE0FA93EA930D
:100F9C000E94B405E4E8F3E0FA93EA93EC81FD8156
:100FAC00E370F070EA93ED81FE81E470F070EA93E7
:100FBC00E0E0F5E0FA93EA93E8ECF0E0FA93EA93D8
:100FCC000E94E405E8E0FCE0E0936401F093650125
:100FDC00E0E0F5E0E0936A01F0936B011981088180
:100FEC0026960895E0E8E0936100E0E0E09361006C
:100FFC00EBBBEABBE8BBEFEFE7BBE0E0E5BBE4BB78
:10100C00E2BBE1BBE7B9E5E0E6B9E3E0E3BFE5E06D
:10101C00E2BFE0E0E1BFEBB9E8E9EAB9E6E8E0BD40
:10102C00E0E0E0BDE7E6E9B9E0E8E5BFE0E0E6BF17
:10103C00E2E0E9BFE0E0E0937D00EEE5E4B9EFE14A
:10104C00E1BDEFE0E1BD0895E0E4FBE0E093640175
:10105C00F0936501E0E0F0E8E0936601F09367013E
:10106C00E0E0F5E0E0936A01F0936B01E0E4FBE073
:10107C00E0936C01F0936D010E94F807C498E0E0D6
:10108C00F5E0FA93EA93E0E0F0E8FA93EA930E9431
:10109C00B405E4EFF1E0FA93EA930E94EA0CC49AE7
:1010AC000E948505EAEFF0E0FA93EA930E94680447
:1010BC00EFEFFFEFE0938203F0938303E093800361
:1010CC00F0938103E4EFF1E0FA93EA930E94EA0CC7
:1010DC00C498E0E0F5E0FA93EA93E8ECF0E0FA93D8
:1010EC00EA93E1E0EA930E941105E8E0FCE0FA9350
:1010FC00EA93A4E0B0E00E944A0DFA93EA93E0E090
:10110C00EA930E941105C49AE0917101E07819F1FB
:10111C00E0E0F5E0FA93EA93E0E0F0E8FA93EA9382
:10112C000E94B4050E942D07E4E8F3E0FA93EA93D9
:10113C00E1E0EA93EA93E8E0FCE0FA93EA93E8E969
:10114C00FEE0FA93EA930E94E405E8E0FCE0E09309
:10115C006401F0936501C498E4E6F0E0FA93EA9335
:10116C000E94EA0CC49AE0E0E2BBEFE3E1BB089515
:10117C00F894A8950E94BF00E82DE130E1F5E8E96C
:10118C00FEE0E915FA0510F49E2EAF2EE0E4FBE02C
:10119C00FA93EA93E0E0F0E8FA93EA930E94B4053C
:1011AC00B0927601C092770190927801A092790169
:1011BC00E0E4FBE0FA93EA93E0917801F091790195
:1011CC00FA93EA93E0E0EA930E94AD03E091760192
:1011DC00F0917701FA93EA930E94EC03E0E4FBE0D0
:1011EC00E0936401F0936501E0E0F5E0E0936A01BF
:1011FC00F0936B0191C1E230E1F5E8E9FEE0E9150D
:10120C00FA0510F49E2EAF2EE0E4FBE0FA93EA937D
:10121C00E0E0F0E8FA93EA930E94B405B09276010C
:10122C00C092770190927801A0927901E8E0FCE0FD
:10123C00FA93EA93E0917801F0917901FA93EA93A9
:10124C00E0E0EA930E94AD03E0917601F091770122
:10125C00FA93EA930E94EC03E8E0FCE0E09364016B
:10126C00F0936501E0E0F5E0E0936A01F0936B0127
:10127C0053C1E33041F5E8ECF0E0E915FA0510F460
:10128C009E2EAF2EE0E0F5E0FA93EA93E0E4FBE06B
:10129C00FA93EA930E94B405E0E0F5E0FA93EA933E
:1012AC00AA929A92E1E0EA930E94AD03E8E0FCE096
:1012BC00E0936401F0936501E0E0F5E0E0936A01EE
:1012CC00F0936B0129C1E43079F4E0E4FBE0FA938C
:1012DC00EA93E0917801F0917901FA93EA93E2E0D4
:1012EC00EA930E94110518C1E530B9F4E0E4FBE083
:1012FC00FA93EA93E0917801F0917901FA93EA93E9
:10130C00E2E0EA930E94BF04E0917601F09177014C
:10131C00FA93EA930E949404FFC0E63099F4E8E053
:10132C00FCE0FA93EA93A4E0B0E00E944A0DE0934B
:10133C007801F0937901FA93EA93E0E0EA930E9442
:10134C001105EAC0E730D9F4E0E4FBE0FA93EA9344
:10135C00E0917801F0917901A4E0B0E00E945A0D7F
:10136C00FA93EA93E0E0EA930E94BF04E0917601DD
:10137C00F0917701FA93EA930E943C04CDC0E830D7
:10138C0069F4E0E0F5E0FA93EA93E8ECF0E0FA9324
:10139C00EA93E1E0EA930E941105BEC0E93069F4DA
:1013AC00E0E0F5E0FA93EA93E8ECF0E0FA93EA93E4
:1013BC00E1E0EA930E94BF04AFC0EA30F9F4E0E048
:1013CC00F5E0FA93EA93E8ECF0E0FA93EA93E1E0C3
:1013DC00EA930E941105E8E0FCE0FA93EA93A4E09A
:1013EC00B0E00E944A0DE0937801F0937901FA93F2
:1013FC00EA93E0E0EA930E9411058EC0EB3039F5D8
:10140C00E0917601F0917701FA93EA930E943C0403
:10141C00E0E0F5E0FA93EA93E8ECF0E0FA93EA9373
:10142C00E1E0EA930E94BF04E0E4FBE0FA93EA9364
:10143C00E0917801F0917901A4E0B0E00E945A0D9E
:10144C00FA93EA93E0E0EA930E94BF0465C0EC30A3
:10145C0019F40E94C90560C0ED3069F5E92DFA2D2B
:10146C00F070E0936F01A2E0B0E00E94620DEA2DF3
:10147C00F070E0937001A3E0B0E00E94620DEB2DE0
:10148C00FC2DF070E0936E01A0E0B0E00E94620DC4
:10149C00EC2DF070E0937101A1E0B0E00E94620DC0
:1014AC00EFEFFFEFE0938003F0938103E09382036F
:1014BC00F093830331C0EE3039F5EAE0E0936F012D
:1014CC00A2E0B0E00E94620DE1E0E0937001A3E0C5
:1014DC00B0E00E94620DEFE0E0937101A1E0B0E09A
:1014EC000E94620DE4E6E0936E01A0E0B0E00E9481
:1014FC00620DE8ECF0E0E0937801F0937901A4E060
:10150C00B0E00E945A0D08C0EF3031F4AA929A92C2
:10151C00CA92BA920E947F0783D088247894E0E024
:10152C00E2BBEFE3E1BB0895E4B7E3FF05C0E4B72A
:10153C00E07EE4BF9BD003C0E4B7E07EE4BF0E9432
:10154C002A087894882019F00E94BE0804C00E94D2
:10155C00CD000E94D301A8950C94A80A0000FECFE0
:10156C00AA93BA93EA93FA93EFB7EA931A930A936E
:10157C000BB11CB1E02FEC7111F00C940D0BAD2DD7
:10158C00B0E0A655BC4F1C93D394E8E0ED1509F4DC
:10159C00DD24E394E8E0EE15D1F5EE24A091AA0346
:1015AC00A53541F4E091AB03E53521F4E091AC03B2
:1015BC00E53509F01DC08090AD039090AE03AA24D0
:1015CC00F92DE0E0DF01E091AF03F0E0EA2BFB2B1B
:1015DC009E2EAF2EB090B003CC24FB2DE0E0DF01AB
:1015EC00E091B103F0E0EA2BFB2BBE2ECF2E0FC007
:1015FC00A091AA03AF3F41F4E091AB03EF3F21F47C
:10160C00E091AC03EF3F09F002C0DD24EE24099118
:10161C001991E991EFBFF991E991B991A9911895B7
:10162C00E5E5EA930E94430CE5E5EA930E94430C3E
:10163C00E5E5EA930E94430C8A920E94430CEA2D42
:10164C00F070EA930E94430CE92DFA2DF070EA93A6
:10165C000E94430CEC2DF070EA930E94430CEB2D8E
:10166C00FC2DF070EA930E94430C0895DD24EE24C7
:10167C00882408950A930E94930CEB81EA930E94AC
:10168C00C70CEA81F070EA930E94C70CE981FA81D9
:10169C00F070EA930E94C70C0E94930CEB81E160FE
:1016AC00EA930E94C70CE0E0EA930E94AC0C0E2F68
:1016BC000E94A20CE02F08811DC00E94930CEB81AC
:1016CC00EA930E94C70CEA81F070EA930E94C70C5F
:1016DC00E981FA81F070EA930E94C70CE881EA93E1
:1016EC000E94C70C0E94A20CEAE0F0E0FA93EA9385
:1016FC000E94EA0C249608951A930A9300E010E0D5
:10170C00EC81EA93EB81FC81EE0FFF1FFA93EA93D5
:10171C000E94400B0E2F1127F02FE0E0FF93EF9368
:10172C00EC81EA93EB81FC81EE0FFF1F3196FA936B
:10173C00EA930E94400BAF91BF91F0E0EA2BFB2B98
:10174C008F01F801198108811CC0EC81EA93EB81AF
:10175C00FC81EE0FFF1FFA93EA93EC81F070EA9391
:10176C000E94630BEC81EA93EB81FC81EE0FFF1F6F
:10177C003196FA93EA93EB81FC81F070EA930E9424
:10178C00630B259608950A9300E00E94930CEE815A
:10179C00EA930E94C70CED81F070EA930E94C70C8B
:1017AC00EC81FD81F070EA930E94C70C0E94930CAF
:1017BC00EE81E160EA930E94C70CE981E1500E17BB
:1017CC0088F4E02F0F5FAA81BB81F0E0EA0FFB1FCA
:1017DC00FF93EF93E1E0EA930E94AC0CAF91BF91C1
:1017EC00EC93EBCFE981E150AA81BB81F0E0EA0FE9
:1017FC00FB1FFF93EF93E0E0EA930E94AC0CAF91D8
:10180C00BF91EC930E94A20C0881279608950A932D
:10181C0000E00E94930CEE81EA930E94C70CED81CC
:10182C00F070EA930E94C70CEC81FD81F070EA9392
:10183C000E94C70CE9810E1710F00C94340CE02FA9
:10184C000F5FAA81BB81F0E0AE0FBF1FEC91EA9352
:10185C000E94C70C000000000C94200C0E94A20CEB
:10186C00EAE0F0E0FA93EA930E94EA0C08812796EA
:10187C0008955F9BFECFECB108955D9BFECFE88190
:10188C00ECB9219608950E94930CE0EDEA930E9426
:10189C00C70CE0E0EA930E94C70CE881EA930E942F
:1018AC00020DEA930E94C70CE981EA930E94020D93
:1018BC00EA930E94C70CEA81EA930E94020DEA9314
:1018CC000E94C70C0E94A20C21C00E94930CE0ED58
:1018DC00EA930E94C70CE4E0EA930E94C70CEA81E9
:1018EC00EA930E94020DEA930E94C70CE981EA93E5
:1018FC000E94020DEA930E94C70CE881EA930E94B1
:10190C00020DEA930E94C70C0E94A20C2396089524
:10191C00929893988A9A8B9815C08B988A98EE27F0
:10192C000000839B0895829B089504D08B9A02D06B
:10193C008A9AE1E06BE107C08B9A8A9A03D08A9865
:10194C00F9DF8B9865E36A95F1F7089578E08A984A
:10195C00F1DF829BFECFEEDF8894839908948A9AFC
:10196C00F1DFEE1F7A9599F77991772311F48B9823
:10197C0001C08B9ADFDF8A98E5DF8A9ADBDF8B98D0
:10198C00D9CFE99178E0EE0F10F48B9801C08B9AC7
:10199C00D9DF8A98CFDF829BFECFCCDF8A9A7A95EB
:1019AC0091F78B98C7DF8A98CDDFE1E08399EE271A
:1019BC008A9A0895A991B991EE27FF276D91662314
:1019CC0011F03196FBCF0895E991F991309639F0E9
:1019DC0080EA9FE00197F1F7A8953197C9F7089530
:1019EC00E881E295EF70AE2FAA0FAA0FEA0FEE0F67
:1019FC00A991AF70EA0F0895A991EE27AA5012F0A1
:101A0C00E05FFCCFA65FEA0F0895E095F095319664
:101A1C000895EE0FFF1FEE0FFF1FEE0FFF1FEE0FCF
:101A2C00FF1F0895FA9FF02DEB9FF00DEA9FE02D1C
:101A3C00F10D089517D0F6DF0EF4E7DF08950024BA
:101A4C00112490E1AA0FBB1F001C111C0E1A1F0AB7
:101A5C0018F40E0E1F1E01C0A1609A9599F7FD0196
:101A6C00D0010895E894F7FF02C0CFDF6894B7FF68
:101A7C0006C0A095B095119600F8039400FA08954D
:101A8C00ED91FC9111970895119602D0FE2F1197AC
:101A9C00E199FECFFF93FFB7F894AEBBBFBBE09AC2
:101AAC00EDB3FFBFFF91089507D01196EF93EF2F81
:101ABC0003D0EF9111970895E199FECF9FB7F89459
:101ACC00AEBBBFBBE09A8DB3E81719F0EDBBE29A41
:101ADC00E19A9FBF08955A934A933A932A931A9383
:101AEC000A9308955D814C813B812A81198108817B
:101AFC000895AC0FBD1F05900D928A95E1F70895DE
:00000001FF
