:0E0000000C9491000C9400000C9400000C94E1
:10000E0000000C9400000C9400000C9400000C9462
:10001E0000000C9400000C9400000C9400000C9452
:10002E0000000C9400000C9400000C9400000C9442
:10003E0000000C9400000C94C3000C9400000C946F
:10004E00FB060C9400000C9400000C9400000C9421
:10005E0000000C9400000C9400000C9400000C9412
:10006E0000001400000000001027E80364000A00DE
:10007E00010000100001100001006C696E653D2545
:10008E006420726174653D256420747970653D2528
:10009E0064206C656E3D25640D0A004C434D532063
:1000AE0076332E30322044657369676E6564206244
:1000BE00792043756F6E67517561790D0A0063750E
:1000CE006F6E673369687574407961686F6F2E6300
:1000DE006F6D202D20303931353635313030310DC0
:1000EE000A0052656C6561736520646174653A201F
:1000FE0032322E31312E323030360D0A004B455908
:10010E0020505245535345440D0A000001006F0123
:10011E0070000000F894EE27ECBBF1E0FBBFEBBFE4
:10012E00E5BFE6BFF8E1F1BDE1BD8DE0A2E0BB2782
:10013E00ED938A95E9F780E094E0A0E0B1E0ED93CD
:10014E000197E9F7EAE1F1E085919591009761F069
:10015E00A591B59105901590BF01F00105900D92F6
:10016E000197E1F7FB01F0CFEFEFEDBFE4E0EEBF5B
:10017E00C4E6D1E00C94B106EA93FA93EFB7EA9392
:10018E00E5E0E2BFE0916801F09169013196E093FC
:10019E006801F0936901E991EFBFF991E991189522
:1001AE0066247724E0E2F0E06E167F0610F00C94E1
:1001BE004D01F3010E94C30ADF01F2010E94BE0A43
:1001CE00EA0FFB1FA0916401B0916501AE0FBF1F36
:1001DE00AC91F301E770F070B0E00E94B10AE0FB61
:1001EE0020F821FE02C0689420F8A0917001A3307F
:1001FE00B9F4E0E2F0E0E619F7090F01A09166010B
:10020E00B0916701E0E4F0E0EA1BFB0BE015F105AD
:10021E0010F4C39A04C020FAA8B3A3F9A8BB2AC04D
:10022E00A0917001A23011F5E0916601F091670185
:10023E00B0976E167F0668F0A0916601B0916701C7
:10024E0090972CF020FAA8B3A3F9A8BB01C0C39ACB
:10025E000CC0A0916601B0916701909714F0C39AFB
:10026E0004C020FAA8B3A3F9A8BB04C020FAA8B30F
:10027E00A3F9A8BB85E08A95F1F7C29A85E08A9525
:10028E00F1F7C298F30131963F018CCFA091700126
:10029E00A23011F0A33071F5E0916601F091670183
:1002AE00B19744F5229782E0A0E0B0E0E2E7F0E0FB
:1002BE000E94F80AC39AE0E0E883E983A091660100
:1002CE00B0916701E0E2F0E0EA1BFB0BA881B98177
:1002DE00AE17BF0774F485E08A95F1F7C29A85E0F0
:1002EE008A95F1F7C298E881F9813196E883F9830E
:1002FE00E5CF229685E08A95F1F7C49A85E08A9536
:10030E00F1F7C4980895A0917001A43089F4E0919A
:10031E006F01A0916801B0916901F0E0EA17FB0747
:10032E0030F40E94D700C09AC098C19AC19811C0EB
:10033E0044245524E0E4F1E04E165F0640F40E949A
:10034E00D700C09AC098F20131962F01F3CFC19A0F
:10035E00C198089523FE03C0689422F80895E09191
:10036E006F01A0916801B0916901F0E0EA17FB07F7
:10037E0010F00C948103E0917001E03011F00C94B8
:10038E00170222FC13C0A0916F01A33030F0E09150
:10039E006401F0916501349605C0E0916401F0911D
:1003AE0065013896E0936401F0936501A0916401B4
:1003BE00B0916501A030EFE0BE0711F4689422F809
:1003CE0022FE15C0A0916A01B0916B011196A09307
:1003DE006A01B0936B011197A536E0E0BE0738F0C5
:1003EE00E89422F8E0E0E0936A01E0936B01E0917B
:1003FE006D01F0916E01E05AFE4F0E94BE0AE05070
:10040E00F64FA0916401B0916501EA17FB0738F42D
:10041E00E0916C01EF5FE0936C01EA93D7D25EC17D
:10042E00E13011F00C94670222FC13C0A0916F0111
:10043E00A33030F0E0916401F0916501349705C06E
:10044E00E0916401F09165013897E0936401F093B7
:10045E006501A0916401B0916501A030EFE0BE0787
:10046E0011F4689422F822FE16C0A0916A01B09190
:10047E006B011196A0936A01B0936B011197A5368B
:10048E00E0E0BE0738F0E89422F8E0E0E0936A017D
:10049E00E0936B0114C0A0916401B0916501A0308E
:1004AE00EAE0BE0760F4E0E0E0936601E0936701E6
:1004BE00E0916C01EF5FE0936C01EA9387D20EC17D
:1004CE00E33011F00C94D202A0916601B091670155
:1004DE00109754F0E0916601F09167013197E09327
:1004EE006601F09367012DC0E0E0E0936A01E093AE
:1004FE006B01E0E4F0E0E0936601F0936701E091B8
:10050E006401F0916501E050FB4FE0936401F093BC
:10051E006501E0916D01F0916E01E05CFE4F0E946D
:10052E00BE0AE050F64FA0916401B0916501AE177E
:10053E00BF0738F0E0916C01EF5FE0936C01EA9336
:10054E0045D222FE1FC0A0916A01B0916B01119697
:10055E00A0936A01B0936B011197A536E0E0BE0738
:10056E0040F0E89422F8E0E0E0936A01E0936B013A
:10057E0009C0E0916601F09167013196E093660142
:10058E00F0936701A0916601B0916701909711F405
:10059E00689422F8A3C0E23011F00C943E03A091AF
:1005AE006601B0916701909711F4689422F8A091BA
:1005BE006601B0916701A134E0E0BE0754F4E0910A
:1005CE006601F09167013196E0936601F093670141
:1005DE002CC0E0E0E0936601E0936701E0E0E09379
:1005EE006A01E0936B01E0916401F0916501E050C6
:1005FE00FB4FE0936401F0936501E0916D01F09182
:10060E006E01E05CFE4F0E94BE0AE050F64FA091D4
:10061E006401B0916501AE17BF0738F0E0916C012F
:10062E00EF5FE0936C01EA93D1D122FE1FC0A0913F
:10063E006A01B0916B011196A0936A01B0936B01A0
:10064E001197A536E0E0BE0740F0E89422F8E0E00E
:10065E00E0936A01E0936B0109C0E0916601F091AD
:10066E0067013197E0936601F093670137C0E4307C
:10067E0061F5A0916F01A33030F0E0916401F0912B
:10068E006501349605C0E0916401F09165013896DC
:10069E00E0936401F0936501E0916D01F0916E01BC
:1006AE00E05AFE4F0E94BE0AE050F64FA091640140
:1006BE00B0916501EA17FB0738F4E0916C01EF5F2A
:1006CE00E0936C01EA9382D109C0E53039F4E091F0
:1006DE006C01EF5FE0936C01EA9378D1E0E0E09378
:1006EE006801E0936901A0916C01A43018F0E0E07C
:1006FE00E0936C0108950E94ED0A00EA10E020E0FC
:10070E00EB81EE0F0E0FAB81A43010F010E020E85D
:10071E00077F0E94210AC49A0A93E12FF22F309686
:10072E00FA93EA930E948507E0936F010A93E12FF3
:10073E00F22F3196FA93EA930E948507E0937001A7
:10074E000A93E12FF22F3296FA93EA930E94C7078B
:10075E00E0936D01F0936E01E8E8F0E0FA93EA930E
:10076E00ED81FF27662777270E94E50AE0916F014A
:10077E00FF27662777270E94E50AE0917001FF2781
:10078E00662777270E94E50AE0916D01F0916E01D0
:10079E00662777270E94E50A80E10E94010A629689
:1007AE00A0916D01B0916E01A132EEE0BE0728F06E
:1007BE00E0E0E0936D01E0936E01A0917001A63030
:1007CE0018F0E5E0E0937001A0916F01A53618F0E6
:1007DE00E0E0E0936F01C49820C00E94ED0A00EAA9
:1007EE0010E020E0EB81EE0F0E0FAB81A43010F085
:1007FE0010E020E8077F0E94210AC49A0A93E12F95
:10080E00F22F3296FA93EA93E0916D01F0916E0118
:10081E00FA93EA930E94EC07C4980E94F40A249675
:10082E0008950E94ED0A00EA10E020E0EB81EE0F41
:10083E000E0FAB81A43010F010E020E8077F0E946D
:10084E00210AC49A0A93E12FF22F3096FA93EA9373
:10085E00E885EA930E94A8070A93E12FF22F3196BA
:10086E00FA93EA93EF81EA930E94A807C4980E9434
:10087E00F40A269608950E94EB0A00E010E020EAA2
:10088E0030E040E0ED81EE0F2E0FAD81A43010F080
:10089E0030E040E808851985AE81BF81A132EEE0D7
:1008AE00BE0720F00E94F20A2A960895EE81FF817B
:1008BE00E05CFE4F0E94BE0AA885B985EA0FFB1FB9
:1008CE00EE83FF83EF7371F0AE81BF81E0E4F0E061
:1008DE000E94CA0A0E94BE0A0E94BA0AE05CFF4F3A
:1008EE00EE83FF830E94210AC49A08851985EE8142
:1008FE00FF810E171F0788F4A8952A93F801E30FBE
:10090E00F41FFA93EA931A930A93E0E4EA930E948F
:10091E004A08005C1F4F0C947E04C49817C00E94B6
:10092E00EB0A00E010E020EA30E040E0ED81EE0F4F
:10093E002E0FAD81A43010F030E040E80885198507
:10094E00AE81BF81A132EEE0BE0720F00E94F20A16
:10095E002A960895EE81FF81E05CFE4F0E94BE0A4A
:10096E00A885B985EA0FFB1FEE83FF83EF7371F045
:10097E00AE81BF81E0E4F0E00E94CA0A0E94BE0A86
:10098E000E94BA0AE05CFF4FEE83FF830E94210AA9
:10099E00C49A08851985EE81FF810E171F0788F40A
:1009AE002A93F801E30FF41FFA93EA931A930A932A
:1009BE00E0E4EA930E940608A895005C1F4F0C9491
:1009CE00D204C4980E94F20A2A960895A881A430EF
:1009DE0010F0E0E0E883E881EA930E948203A091A0
:1009EE007001A53009F470C0E0E0F5E0FA93EA93E7
:1009FE00E0E0F0E8FA93EA9396D0E0E0FAE0FA93BA
:100A0E00EA93E0916D01F0916E01FA93EA93EC8115
:100A1E00EA930E949604E0E0E0936A01E0936B0192
:100A2E00E0E0E0936601E0936701E89422F8E0913C
:100A3E007001E03039F4E0E0FAE0E0936401F09305
:100A4E00650134C0E13069F4E0916D01F0916E0101
:100A5E000E94BE0AE050F64FE0936401F0936501E8
:100A6E0025C0E33069F4E0E4F0E0E0936601F09332
:100A7E006701E0E0FFE0E0936401F093650116C0CA
:100A8E00E23061F4E0E0E0936601E0936701E0E0BC
:100A9E00FFE0E0936401F093650108C0E43031F4A7
:100AAE00E0E0FAE0E0936401F093650123FE0CC0F0
:100ABE00E0E2F0E0E0936601F0936701E0E0FFE032
:100ACE00E0936401F0936501219608950E94EC0A6B
:100ADE0000E010E020E030E00E811F81C49A20E09B
:100AEE0030E0EC81FD810E94BE0A2E173F07B0F464
:100AFE00219781E0A0E0B0E0E4E7F0E00E94F80A80
:100B0E000E947A08E095E883D801EC930F5F1F4F9F
:100B1E00A89521962F5F3F4F0C947805C4980E949C
:100B2E00F30A289608951A930A9300E015E00C81B3
:100B3E001D81EA81FB81E017F10730F0D801EFEF5C
:100B4E00EC930F5F1F4FF5CF1981088126960895FC
:100B5E00E0E8E0936100E0E0E0936100EBBBEFEFD3
:100B6E00EABBE0E0E8BBEFEFE7BBE0E0E5BBEFEFB1
:100B7E00E4BBE2BBE0E0E1BBE7B9EFEFE6B9E3E0EF
:100B8E00E3BFE5E0E2BFE0E0E1BFEBB9E8E9EAB9D7
:100B9E00E6E8E0BDE0E0E0BDE7E6E9B9E0E8E5BFA4
:100BAE00E0E0E6BFE2E0E9BFE0E0E0937D00EEE5E5
:100BBE00E4B9EFE1E1BDEFE0E1BD0895E0E0FAE078
:100BCE00E0936401F09365010E94AF05C498E0E0E4
:100BDE00F5E0FA93EA93E0E0F0E8FA93EA930E94E4
:100BEE009A05C498E2E3F0E0FA93EA930E94880A29
:100BFE00C49AE2E3F0E0FA93EA930E94880AC4985A
:100C0E00E4EFF1E0FA93EA930E94880AC49AE0E0D6
:100C1E00E0936C01EA930E94ED04E9EAF0E0FA93A6
:100C2E00EA9380E00E94010A2296ECECF0E0FA933F
:100C3E00EA9380E00E94010A2296E0EFF0E0FA9338
:100C4E00EA9380E00E94010A22960895F894A895EE
:100C5E00E82DE230B9F590926D01A0926E01EB2D68
:100C6E00FC2DEF70F070E0936C01E0E0F5E0FA938C
:100C7E00EA93E0E0F0E8FA93EA930E949A05E0E046
:100C8E00FFE0FA93EA93E0916D01F0916E01FA9311
:100C9E00EA930E946D05E0E0FFE0E0936401F093BB
:100CAE006501E0E0FAE0FA93EA93E0916D01F091CC
:100CBE006E01FA93EA93BA920E944204BA920E948B
:100CCE00F40344C0E33009F441C0ED3059F4E92D8A
:100CDE00FA2DF070EA93EA2DF070EA93BA920E9420
:100CEE00180434C0E73011F0EB3089F4BA920E9448
:100CFE00F403E0E0FAE0FA93EA93E0916D01F091EB
:100D0E006E01FA93EA93BA920E9442041FC0E63033
:100D1E0011F0EA30B9F4BA920E948203E0E0FAE0F0
:100D2E00FA93EA93E0916D01F0916E01FA93EA93D2
:100D3E00BA920E949604E0E0FFE0E0936401F09323
:100D4E00650104C0E03111F490FA21F8ADD0882489
:100D5E0078940895E4B7E3FF05C0E4B7E07EE4BFFE
:100D6E00C9D003C0E4B7E07EE4BF0E94E5057894E5
:100D7E00859919C023FC16C0E4E6F0E0FA93EA93D5
:100D8E000E94880A85990EC0EBE0F1E0FA93EA938F
:100D9E0080E00E94010A2296689423F8E0E0EA932C
:100DAE000E94ED0411C023FE0FC0E4E6F0E0FA93BA
:100DBE00EA930E94880A859B07C0E89423F8E09185
:100DCE006C01EA930E94ED04882019F00E942D0612
:100DDE0006C022FC02C00E948A010E94B101A895A1
:100DEE000C94BF060000FECFAA93BA93EA93FA932F
:100DFE00EFB7EA931A930A930BB11CB1E02FEC7183
:100E0E0011F00C945207AD2DB0E0AF58BE4F1C93AD
:100E1E00D394E8E0ED1509F4DD24E394E8E0EE1553
:100E2E00D1F5EE24A0917101A53541F4E091720146
:100E3E00E53521F4E0917301E53509F01DC0809090
:100E4E00740190907501AA24F92DE0E0DF01E09184
:100E5E007601F0E0EA2BFB2B9E2EAF2EB0907701A1
:100E6E00CC24FB2DE0E0DF01E0917801F0E0EA2BED
:100E7E00FB2BBE2ECF2E0FC0A0917101AF3F41F4C0
:100E8E00E0917201EF3F21F4E0917301EF3F09F021
:100E9E0002C0DD24EE2409911991E991EFBFF99179
:100EAE00E991B991A9911895E5E5EA930E947E081A
:100EBE00E5E5EA930E947E08E5E5EA930E947E0846
:100ECE008A920E947E08EA2DF070EA930E947E08B4
:100EDE00E92DFA2DF070EA930E947E08EC2DF07049
:100EEE00EA930E947E08EB2DFC2DF070EA930E948F
:100EFE007E080895DD24EE24882408950A930E9426
:100F0E00260AEB81EA930E945A0AEA81F070EA936C
:100F1E000E945A0AE981FA81F070EA930E945A0AF5
:100F2E000E94260AEB81E160EA930E945A0AE0E0F1
:100F3E00EA930E943F0A0E2F0E94350AE02F088185
:100F4E001DC00E94260AEB81EA930E945A0AEA818A
:100F5E00F070EA930E945A0AE981FA81F070EA93DE
:100F6E000E945A0AE881EA930E945A0A0E94350AA0
:100F7E00EAE0F0E0FA93EA930E94880A2496089534
:100F8E001A930A9300E010E0EC81EA93EB81FC8166
:100F9E00FA93EA930E9485070E2F1127F02FE0E0B7
:100FAE00FF93EF93EC81EA93EB81FC813196FA93F8
:100FBE00EA930E948507AF91BF91F0E0EA2BFB2BDD
:100FCE008F01F8011981088118C0EC81EA93EB8139
:100FDE00FC81FA93EA93EC81F070EA930E94A807E1
:100FEE00EC81EA93EB81FC813196FA93EA93EB81E3
:100FFE00FC81F070EA930E94A807259608950A9343
:10100E0000E00E94260AEE81EA930E945A0AED81C0
:10101E00F070EA930E945A0AEC81FD81F070EA9317
:10102E000E945A0A0E94260AEE81E160EA930E940B
:10103E005A0AE981E1500E1788F4E02F0F5FAA815A
:10104E00BB81F0E0EA0FFB1FFF93EF93E1E0EA9321
:10105E000E943F0AAF91BF91EC93EBCFE981E15033
:10106E00AA81BB81F0E0EA0FFB1FFF93EF93E0E054
:10107E00EA930E943F0AAF91BF91EC930E94350A0A
:10108E000881279608950A9300E00E94260AEE81B1
:10109E00EA930E945A0AED81F070EA930E945A0A6E
:1010AE00EC81FD81F070EA930E945A0AE9810E17D5
:1010BE0078F4E02F0F5FAA81BB81F0E0AE0FBF1F67
:1010CE00EC91EA930E945A0A000000000C945D080D
:1010DE000E94350AEAE0F0E0FA93EA930E94880A49
:1010EE000881279608955F9BFECFECB108955D9B16
:1010FE00FECFE881ECB921960895A881B9810E94AE
:10110E00DD0A309749F0ED91FD913196FE93EE9305
:10111E003197AA81A08304C0EA81EA930E947E08D7
:10112E002396089526970E94EA0A00E0E889F98935
:10113E003196E88BF98B3197E4913E2FE03011F424
:10114E000C94FD09E02FE03059F4353211F401E032
:10115E0006C03A93ED85FE85FA93EA93CEDF45C13C
:10116E00E130C9F4353239F43A93ED85FE85FA93C0
:10117E00EA93C3DF39C102E050E010E03D3211F4D2
:10118E0011E033C13B3211F45BE22FC1303211F466
:10119E0050E22BC102C0E23039F440E003E03033BC
:1011AE0011F4106822C104C0E33011F00C94FC0954
:1011BE00303310F03A3308F009C0A42FEAE0EA9F6A
:1011CE00F0014E2FE32FE0534E0F0FC1E32FE33606
:1011DE0071F4AE85BF851497AE87BF871496EC91D8
:1011EE00EA93ED85FE85FA93EA9387DFFDC0E33738
:1011FE0081F4AE85BF851497AE87BF8714960E9483
:10120E00DD0AEE83FF83FA93EA930E94730A0E2F90
:10121E0012C0E037A1F4AE85BF851497AE87BF87A5
:10122E0014960E94DD0AEE83FF83FA93EA930E94DE
:10123E007D0A0E2F186012601F7720E040C0E43642
:10124E0011F0E93611F4146002C0E53731F4E6E727
:10125E00F0E0EE83FF8305E00DC0E83511F4186071
:10126E0004C0E83711F00C94FB09E0E8F0E0EE83DF
:10127E00FF8304E012FF19C0AE85BF851497AE87B9
:10128E00BF8714960E94DD0AEA87FB87AA85BB8575
:10129E0010972CF40E94AD0AEA87FB875DE250306E
:1012AE0011F00F5F01C01B7F0AC0AE85BF8514977A
:1012BE00AE87BF8714960E94DD0AEA87FB8710FD72
:1012CE0015C0041798F417FF08C012FF04C01B7F47
:1012DE00352F015001C030E301C030E23A93ED8565
:1012EE00FE85FA93EA9309DF4150EBCF202F11FFD1
:1012FE001DC02030D1F013FF08C0EE81FF81319662
:10130E00EE83FF833197E49105C0AE81BF81ED91ED
:10131E00AE83BF83EA93ED85FE85FA93EA93EDDE05
:10132E00403009F041502150E4CF51C030E3EE81FE
:10133E00FF813296EE83FF8332970E94E10AE8879F
:10134E00F987E885F985AA85BB85AE17BF0750F0EA
:10135E003F5FA885B985EA85FB85EA1BFB0BEA870B
:10136E00FB87EFCF3A3328F013FF02C0395F01C07D
:10137E00395D14FD1DC0313320F4A885B985119750
:10138E0009F409C0421710F010FF01C01AC030E274
:10139E0017FF0EC030E3106112FF0AC01B7F5A9375
:1013AE00ED85FE85FA93EA93A8DE403009F04150B0
:1013BE003A93ED85FE85FA93EA939FDE403009F06D
:1013CE0041502150A885B985129708F0AFCF10FF74
:1013DE000BC0403049F04150E0E2EA93ED85FE85C6
:1013EE00FA93EA938ADEF5CF00E0A0CE0E94F10ACE
:1013FE0062960895FF92F82E22971A930A93DE01B1
:10140E000E94A90A8D01E0E0EA83EB83DE011496C7
:10141E000E94A90A0E94DD0AFA93EA931A930A938C
:10142E00FE013696FA93EA937DDE198108812496A1
:10143E00FF900895929893988A9A8B9815C08B98DE
:10144E008A98EE270000839B0895829B089504D00E
:10145E008B9A02D08A9AE1E06BE107C08B9A8A9A46
:10146E0003D08A98F9DF8B9865E36A95F1F70895B2
:10147E0078E08A98F1DF829BFECFEEDF8894839925
:10148E0008948A9AF1DFEE1F7A9599F7799177236E
:10149E0011F48B9801C08B9ADFDF8A98E5DF8A9A68
:1014AE00DBDF8B98D9CFE99178E0EE0F10F48B98B3
:1014BE0001C08B9AD9DF8A98CFDF829BFECFCCDF1B
:1014CE008A9A7A9591F78B98C7DF8A98CDDFE1E0FB
:1014DE008399EE278A9A0895A991B991EE27FF274D
:1014EE006D91662311F03196FBCF0895AA27BB2785
:1014FE00E991F9910590002011F01196FBCFFD01B5
:10150E000895E991F991309639F080EA9FE00197BC
:10151E00F1F7A8953197C9F70895E881E295EF7034
:10152E00AE2FAA0FAA0FEA0FEE0FA991AF70EA0F16
:10153E000895A991EE27AA5012F0E05FFCCFA65FA6
:10154E00EA0F08950024AF0DB01D0895E095F095B3
:10155E0031960895EE230E2EFD0121F0F595E795B7
:10156E000A94E1F70895EE0FFF1FEE0FFF1FEE0F27
:10157E00FF1FEE0FFF1F0895F695E795F695E79579
:10158E00F695E79508950024112490E1AA0FBB1F4C
:10159E00001C111C0E1A1F0A18F40E0E1F1E01C07D
:1015AE00A1609A9599F7FD01D0010895ED91FC91F6
:1015BE00119708950590F491E02D08957A936A930A
:1015CE00FA93EA9308955A934A933A932A931A9365
:1015DE000A9308955D814C813B812A81198108818E
:1015EE000895AC0FBD1F05900D928A95E1F70895F1
:00000001FF
